{"contracts/CryptoBacker.sol":{"CryptoBacker":{"abi":[{"inputs":[{"internalType":"address","name":"_swapRouter","type":"address"},{"internalType":"address","name":"_WETH","type":"address"},{"internalType":"address","name":"_USDC","type":"address"}],"stateMutability":"nonpayable","type":"constructor"},{"inputs":[],"name":"ReentrancyGuardReentrantCall","type":"error"},{"anonymous":false,"inputs":[{"indexed":true,"internalType":"uint256","name":"campaignCode","type":"uint256"},{"indexed":true,"internalType":"address","name":"owner","type":"address"},{"indexed":false,"internalType":"uint256","name":"target","type":"uint256"},{"indexed":false,"internalType":"uint256","name":"deadline","type":"uint256"},{"indexed":false,"internalType":"uint256","name":"createdAt","type":"uint256"}],"name":"CampaignCreated","type":"event"},{"anonymous":false,"inputs":[{"indexed":true,"internalType":"uint256","name":"campaignCode","type":"uint256"}],"name":"CampaignDeleted","type":"event"},{"anonymous":false,"inputs":[{"indexed":true,"internalType":"uint256","name":"campaignCode","type":"uint256"},{"indexed":false,"internalType":"uint256","name":"newStatus","type":"uint256"}],"name":"CampaignStatusUpdated","type":"event"},{"anonymous":false,"inputs":[{"indexed":true,"internalType":"uint256","name":"campaignCode","type":"uint256"},{"indexed":true,"internalType":"address","name":"donor","type":"address"},{"indexed":false,"internalType":"string","name":"donorName","type":"string"},{"indexed":false,"internalType":"string","name":"donorEmail","type":"string"},{"indexed":false,"internalType":"uint256","name":"amountETH","type":"uint256"},{"indexed":false,"internalType":"uint256","name":"amountUSDC","type":"uint256"},{"indexed":false,"internalType":"uint256","name":"timestamp","type":"uint256"}],"name":"DonationReceived","type":"event"},{"anonymous":false,"inputs":[{"indexed":true,"internalType":"uint256","name":"campaignCode","type":"uint256"},{"indexed":false,"internalType":"uint256","name":"feeAmount","type":"uint256"}],"name":"PlatformFeePaid","type":"event"},{"anonymous":false,"inputs":[{"indexed":true,"internalType":"uint256","name":"campaignCode","type":"uint256"},{"indexed":false,"internalType":"address","name":"recipient","type":"address"},{"indexed":false,"internalType":"uint256","name":"amount","type":"uint256"},{"indexed":false,"internalType":"uint256","name":"timestamp","type":"uint256"}],"name":"WithdrawalMade","type":"event"},{"inputs":[],"name":"FEE_TIER","outputs":[{"internalType":"uint24","name":"","type":"uint24"}],"stateMutability":"view","type":"function"},{"inputs":[],"name":"PLATFORM_FEE","outputs":[{"internalType":"uint256","name":"","type":"uint256"}],"stateMutability":"view","type":"function"},{"inputs":[],"name":"USDC","outputs":[{"internalType":"address","name":"","type":"address"}],"stateMutability":"view","type":"function"},{"inputs":[],"name":"WETH","outputs":[{"internalType":"address","name":"","type":"address"}],"stateMutability":"view","type":"function"},{"inputs":[{"internalType":"uint256","name":"","type":"uint256"}],"name":"campaigns","outputs":[{"internalType":"string","name":"name","type":"string"},{"internalType":"address","name":"owner","type":"address"},{"internalType":"string","name":"category","type":"string"},{"internalType":"string","name":"title","type":"string"},{"internalType":"string","name":"description","type":"string"},{"internalType":"uint256","name":"campaignCode","type":"uint256"},{"internalType":"uint256","name":"target","type":"uint256"},{"internalType":"uint256","name":"deadline","type":"uint256"},{"internalType":"uint256","name":"amountCollectedETH","type":"uint256"},{"internalType":"uint256","name":"amountCollectedUSDC","type":"uint256"},{"internalType":"uint256","name":"status","type":"uint256"},{"internalType":"uint256","name":"createdAt","type":"uint256"},{"internalType":"uint256","name":"withdrawnAmount","type":"uint256"},{"internalType":"bool","name":"feePaid","type":"bool"}],"stateMutability":"view","type":"function"},{"inputs":[{"internalType":"string","name":"_name","type":"string"},{"internalType":"address","name":"_owner","type":"address"},{"internalType":"string","name":"_title","type":"string"},{"internalType":"string","name":"_description","type":"string"},{"internalType":"string","name":"_category","type":"string"},{"internalType":"uint256","name":"_target","type":"uint256"},{"internalType":"uint256","name":"_deadline","type":"uint256"}],"name":"createCampaign","outputs":[{"internalType":"uint256","name":"","type":"uint256"}],"stateMutability":"nonpayable","type":"function"},{"inputs":[{"internalType":"uint256","name":"_id","type":"uint256"}],"name":"deleteCampaign","outputs":[],"stateMutability":"nonpayable","type":"function"},{"inputs":[{"internalType":"uint256","name":"_id","type":"uint256"},{"internalType":"string","name":"_userName","type":"string"},{"internalType":"string","name":"_userEmail","type":"string"}],"name":"donateToCampaign","outputs":[{"internalType":"uint256","name":"","type":"uint256"}],"stateMutability":"payable","type":"function"},{"inputs":[],"name":"getCampaigns","outputs":[{"components":[{"internalType":"string","name":"name","type":"string"},{"internalType":"address","name":"owner","type":"address"},{"internalType":"string","name":"category","type":"string"},{"internalType":"string","name":"title","type":"string"},{"internalType":"string","name":"description","type":"string"},{"internalType":"uint256","name":"campaignCode","type":"uint256"},{"internalType":"uint256","name":"target","type":"uint256"},{"internalType":"uint256","name":"deadline","type":"uint256"},{"internalType":"uint256","name":"amountCollectedETH","type":"uint256"},{"internalType":"uint256","name":"amountCollectedUSDC","type":"uint256"},{"internalType":"uint256","name":"status","type":"uint256"},{"internalType":"uint256","name":"createdAt","type":"uint256"},{"components":[{"internalType":"address","name":"donor","type":"address"},{"internalType":"string","name":"donorName","type":"string"},{"internalType":"string","name":"donorEmail","type":"string"},{"internalType":"uint256","name":"amountETH","type":"uint256"},{"internalType":"uint256","name":"amountUSDC","type":"uint256"},{"internalType":"uint256","name":"timestamp","type":"uint256"}],"internalType":"struct CryptoBacker.Donation[]","name":"donations","type":"tuple[]"},{"internalType":"uint256","name":"withdrawnAmount","type":"uint256"},{"internalType":"bool","name":"feePaid","type":"bool"}],"internalType":"struct CryptoBacker.Campaign[]","name":"","type":"tuple[]"}],"stateMutability":"view","type":"function"},{"inputs":[],"name":"getContractBalance","outputs":[{"internalType":"uint256","name":"","type":"uint256"}],"stateMutability":"view","type":"function"},{"inputs":[],"name":"getContractUSDCBalance","outputs":[{"internalType":"uint256","name":"","type":"uint256"}],"stateMutability":"view","type":"function"},{"inputs":[{"internalType":"uint256","name":"_id","type":"uint256"}],"name":"getDonations","outputs":[{"components":[{"internalType":"address","name":"donor","type":"address"},{"internalType":"string","name":"donorName","type":"string"},{"internalType":"string","name":"donorEmail","type":"string"},{"internalType":"uint256","name":"amountETH","type":"uint256"},{"internalType":"uint256","name":"amountUSDC","type":"uint256"},{"internalType":"uint256","name":"timestamp","type":"uint256"}],"internalType":"struct CryptoBacker.Donation[]","name":"","type":"tuple[]"}],"stateMutability":"view","type":"function"},{"inputs":[{"internalType":"address","name":"_user","type":"address"}],"name":"getUserDonationsByDate","outputs":[{"components":[{"internalType":"address","name":"donor","type":"address"},{"internalType":"string","name":"donorName","type":"string"},{"internalType":"string","name":"donorEmail","type":"string"},{"internalType":"uint256","name":"amountETH","type":"uint256"},{"internalType":"uint256","name":"amountUSDC","type":"uint256"},{"internalType":"uint256","name":"timestamp","type":"uint256"}],"internalType":"struct CryptoBacker.Donation[]","name":"","type":"tuple[]"}],"stateMutability":"view","type":"function"},{"inputs":[],"name":"getWithdrawals","outputs":[{"components":[{"internalType":"address","name":"recipient","type":"address"},{"internalType":"uint256","name":"amount","type":"uint256"},{"internalType":"uint256","name":"campaignCode","type":"uint256"},{"internalType":"uint256","name":"timestamp","type":"uint256"}],"internalType":"struct CryptoBacker.Withdrawal[]","name":"","type":"tuple[]"}],"stateMutability":"view","type":"function"},{"inputs":[],"name":"numberOfCampaigns","outputs":[{"internalType":"uint256","name":"","type":"uint256"}],"stateMutability":"view","type":"function"},{"inputs":[],"name":"swapRouter","outputs":[{"internalType":"contract ISwapRouter","name":"","type":"address"}],"stateMutability":"view","type":"function"},{"inputs":[{"internalType":"uint256","name":"_id","type":"uint256"},{"internalType":"uint256","name":"_newStatus","type":"uint256"}],"name":"updateCampaignStatus","outputs":[],"stateMutability":"nonpayable","type":"function"},{"inputs":[{"internalType":"uint256","name":"_campaignCode","type":"uint256"},{"internalType":"uint256","name":"_amount","type":"uint256"}],"name":"withdraw","outputs":[],"stateMutability":"nonpayable","type":"function"},{"inputs":[{"internalType":"uint256","name":"_campaignCode","type":"uint256"}],"name":"withdrawAll","outputs":[],"stateMutability":"nonpayable","type":"function"},{"inputs":[{"internalType":"uint256","name":"_campaignCode","type":"uint256"}],"name":"withdrawableAmount","outputs":[{"internalType":"uint256","name":"","type":"uint256"}],"stateMutability":"view","type":"function"},{"inputs":[{"internalType":"uint256","name":"","type":"uint256"}],"name":"withdrawals","outputs":[{"internalType":"address","name":"recipient","type":"address"},{"internalType":"uint256","name":"amount","type":"uint256"},{"internalType":"uint256","name":"campaignCode","type":"uint256"},{"internalType":"uint256","name":"timestamp","type":"uint256"}],"stateMutability":"view","type":"function"}],"evm":{"bytecode":{"linkReferences":{},"object":"60e06040523462000084576200001f6200001862000147565b91620001c3565b604051613536620002148239608051818181610e910152613274015260a051818181610e150152613200015260c051818181610bad01528181610f2401528181611dff01528181611f6b01528181612b0c01528181612bde01526132ad015261353690f35b600080fd5b634e487b7160e01b600052604160045260246000fd5b90601f01601f191681019081106001600160401b03821117620000c157604052565b62000089565b90620000de620000d660405190565b92836200009f565b565b6001600160a01b031690565b90565b6001600160a01b038116036200008457565b90505190620000de82620000ef565b90916060828403126200008457620000ec6200012d848462000101565b9360406200013f826020870162000101565b940162000101565b6200016a6200374a803803806200015e81620000c7565b92833981019062000110565b909192565b620000ec620000ec620000ec9290565b90620000ec620000ec62000193926200016f565b9055565b620000ec90620000e0906001600160a01b031682565b620000ec9062000197565b620000ec90620001ad565b620001e690620001d2620001fd565b620001e0600060026200017f565b620001b8565b60805260a05260c052565b620000ec60016200016f565b620000de6200020b620001f1565b60006200017f56fe6080604052600436101561001257600080fd5b60003560e01c80622772c21461016157806307ca140d1461015c578063131be67414610157578063141961bc146101525780632828f2ee1461014d57806334fbc9a114610148578063441a3e70146101435780634c69a6c91461013e57806350d6c1e814610139578063596d9ce2146101345780635cc070761461012f5780636f9fb98a1461012a57806375970193146101255780637eb483c91461012057806389a302711461011b578063958e2d3114610116578063a6b0363314610111578063ad5c46481461010c578063c31c9c0714610107578063d0cee66a146101025763eaa1b0bc0361016657610ed1565b610eb6565b610e78565b610e00565b610dd9565b610bd9565b610b98565b610b6d565b610b41565b610b26565b610af5565b610a10565b6108fb565b61081a565b6107d4565b61079d565b610769565b610661565b61031f565b6101d1565b61017c565b600080fd5b600091031261016657565b9052565b565b346101665761018c36600461016b565b6101a8610197610f17565b6040515b9182918290815260200190565b0390f35b6101b7916008021c81565b90565b906101b791546101ac565b6101b7600060026101ba565b34610166576101e136600461016b565b6101a86101976101c5565b805b0361016657565b9050359061017a826101ec565b634e487b7160e01b600052604160045260246000fd5b90601f01601f1916810190811067ffffffffffffffff82111761023a57604052565b610202565b9061017a61024c60405190565b9283610218565b67ffffffffffffffff811161023a57602090601f01601f19160190565b0190565b90826000939282370152565b9092919261029561029082610253565b61023f565b93818552818301116101665761017a916020850190610274565b9080601f83011215610166578160206101b793359101610280565b91606083830312610166576102df82846101f5565b92602081013567ffffffffffffffff811161016657836103009183016102af565b92604082013567ffffffffffffffff8111610166576101b792016102af565b6101a86101976103303660046102ca565b916115f6565b90602082820312610166576101b7916101f5565b6101b76101b76101b79290565b906103619061034a565b600052602052604060002090565b634e487b7160e01b600052602260045260246000fd5b90600160028304921680156103a5575b60208310146103a057565b61036f565b91607f1691610395565b805460009392916103cc6103c283610385565b8085529360200190565b916001811690811561041e57506001146103e557505050565b6103f89192939450600052602060002090565b916000925b81841061040a5750500190565b8054848401526020909301926001016103fd565b92949550505060ff1916825215156020020190565b906101b7916103af565b9061017a6104579261044e60405190565b93848092610433565b0383610218565b6101b7905b6001600160a01b031690565b6101b7905461045e565b6101b79081565b6101b79054610479565b60ff1690565b6101b7905461048a565b6104a5906001610357565b906104af8261043d565b916104bc6001820161046f565b916104c96002830161043d565b916104d66003820161043d565b916104e36004830161043d565b916104f060058201610480565b916104fd60068301610480565b9161050a60078201610480565b9161051760088301610480565b9161052460098201610480565b91610531600a8301610480565b9161053e600b8201610480565b916101b7600e610550600d8501610480565b9301610490565b60005b83811061056a5750506000910152565b818101518382015260200161055a565b61059b6105a46020936102709361058f815190565b80835293849260200190565b95869101610557565b601f01601f191690565b61017690610463565b9b9997959e9d9c9a989694939291906101c08d018d80820390600001526105dd9161057a565b9060208d016105eb916105ae565b8b810360408d01526105fc9161057a565b8a810360608c015261060d9161057a565b89810360808b015261061e9161057a565b9a60a0890161062b919052565b60c088015260e08701526101008601526101208501526101408401526101608301526101808201526101a00161017a9115159052565b34610166576101a861067c610677366004610336565b61049a565b9a6106989e9c9e9a919a99929998939897949796959660405190565b9e8f9e8f6105b7565b6101ee81610463565b9050359061017a826106a1565b60e08183031261016657803567ffffffffffffffff811161016657826106de9183016102af565b926106ec83602084016106aa565b92604083013567ffffffffffffffff8111610166578161070d9185016102af565b92606081013567ffffffffffffffff8111610166578261072e9183016102af565b92608082013567ffffffffffffffff811161016657610752846101b79285016102af565b9360c06107628260a087016101f5565b94016101f5565b34610166576101a861019761077f3660046106b7565b9594909493919361189b565b6101b7600561034a565b6101b761078b565b34610166576107ad36600461016b565b6101a8610197610795565b9190604083820312610166576101b790602061076282866101f5565b34610166576107ed6107e73660046107b8565b90612038565b604051005b6107ff6101b76101b79290565b62ffffff1690565b6101b7610bb86107f2565b6101b7610807565b346101665761082a36600461016b565b6101a8610835610812565b6040519182918262ffffff909116815260200190565b9060608061017a93610865600082015160008601906105ae565b61087460208201516020860152565b61088360408201516040860152565b0151910152565b906102708160809361084b565b906108b76108b06108a6845190565b8084529260200190565b9260200190565b9060005b8181106108c85750505090565b9091926108e26108db600192865161088a565b9460200190565b9291016108bb565b60208082526101b792910190610897565b346101665761090b36600461016b565b6101a8610916612130565b604051918291826108ea565b906101b79060a08061096a61095860c08501610946600089015160008801906105ae565b6020880151868203602088015261057a565b6040870151858203604087015261057a565b9461097a60608201516060860152565b61088360808201516080860152565b906101b791610922565b906109a961099f835190565b8083529160200190565b90816109bb6020830284019460200190565b926000915b8383106109cf57505050505090565b909192939460206109f26109eb83856001950387528951610989565b9760200190565b93019301919392906109c0565b60208082526101b792910190610993565b34610166576101a8610a2b610a26366004610336565b612210565b604051918291826109ff565b634e487b7160e01b600052603260045260246000fd5b8054821015610a7057610a67600491600052602060002090565b91020190600090565b610a37565b600390610a80825490565b81101561016657610a9091610a4d565b5090610a9b8261046f565b91610aa860018201610480565b916101b76003610aba60028501610480565b9301610480565b610af161017a94610aea606094989795610ae3608086019a60008701906105ae565b6020850152565b6040830152565b0152565b34610166576101a8610b10610b0b366004610336565b610a75565b90610b1d94929460405190565b94859485610ac1565b3461016657610b3636600461016b565b6101a861019761223f565b34610166576107ed610b54366004610336565b612635565b90602082820312610166576101b7916106aa565b34610166576101a8610a2b610b83366004610b59565b6127b7565b60208101929161017a91906105ae565b3461016657610ba836600461016b565b6101a87f00000000000000000000000000000000000000000000000000000000000000005b60405191829182610b88565b34610166576107ed610bec366004610336565b612c6e565b90610bfd61099f835190565b9081610c0f6020830284019460200190565b926000915b838310610c2357505050505090565b90919293946020610c3f6109eb83856001950387528951610989565b9301930191939290610c14565b906101b7906101c080610d48610cc3610cb1610c9f610c7b6101e0880160008b015189820360008b015261057a565b610c8d60208b015160208a01906105ae565b60408a015188820360408a015261057a565b6060890151878203606089015261057a565b6080880151868203608088015261057a565b610cd260a088015160a0870152565b610ce160c088015160c0870152565b610cf060e088015160e0870152565b610d01610100880151610100870152565b610d12610120880151610120870152565b610d23610140880151610140870152565b610d34610160880151610160870152565b610180870151858203610180870152610bf1565b94610d5a6101a08201516101a0860152565b01511515910152565b906101b791610c4c565b90610d7961099f835190565b9081610d8b6020830284019460200190565b926000915b838310610d9f57505050505090565b90919293946020610dbb6109eb83856001950387528951610d63565b9301930191939290610d90565b60208082526101b792910190610d6d565b3461016657610de936600461016b565b6101a8610df4612ed9565b60405191829182610dc8565b3461016657610e1036600461016b565b6101a87f0000000000000000000000000000000000000000000000000000000000000000610bcd565b6101b790610463906001600160a01b031682565b6101b790610e39565b6101b790610e4d565b61017690610e56565b60208101929161017a9190610e5f565b3461016657610e8836600461016b565b604051806101a87f000000000000000000000000000000000000000000000000000000000000000082610e68565b34610166576101a8610197610ecc366004610336565b612f5a565b34610166576107ed610ee43660046107b8565b90613029565b9050519061017a826101ec565b90602082820312610166576101b791610eea565b6040513d6000823e3d90fd5b610f7a6020610f4d610f487f0000000000000000000000000000000000000000000000000000000000000000610e56565b610e56565b610f5630610e56565b90610f6060405190565b938492839182916370a0823160e01b835260048301610b88565b03915afa908115610fb957600091610f90575090565b6101b7915060203d602011610fb2575b610faa8183610218565b810190610ef7565b503d610fa0565b610f0b565b90610fd2939291610fcd61309a565b61148a565b9061017a6130da565b602080825260139082015272125b9d985b1a590818d85b5c185a59db881251606a1b604082015260600190565b1561100f57565b60405162461bcd60e51b81528061102860048201610fdb565b0390fd5b60208082526022908201527f446f6e6174696f6e206d7573742062652067726561746572207468616e207a65604082015261726f60f01b606082015260800190565b1561107557565b60405162461bcd60e51b8152806110286004820161102c565b60208082526013908201527243616d706169676e2069732050656e64696e6760681b604082015260600190565b156110c257565b60405162461bcd60e51b8152806110286004820161108e565b60208082526012908201527110d85b5c185a59db881a185cc8195b99195960721b604082015260600190565b1561110e57565b60405162461bcd60e51b815280611028600482016110db565b6101b760c061023f565b9061017690610463565b8054821015610a7057610a67600691600052602060002090565b634e487b7160e01b600052600060045260246000fd5b6101b79051610463565b906001600160a01b03905b9181191691161790565b9061119a6101b76111a192610e56565b8254611175565b9055565b9160001960089290920291821b911b611180565b91906111ca6101b76111a19361034a565b9083546111a5565b61017a916000916111b9565b8181106111e9575050565b806111f760006001936111d2565b016111de565b9190601f811161120c57505050565b61121e61017a93600052602060002090565b906020601f840181900483019310611241575b6020601f909101045b01906111de565b9091508190611231565b600019600883021c1916906002021790565b90611266815190565b9067ffffffffffffffff821161023a5761128a826112848554610385565b856111fd565b602090601f83116001146112b8576111a19291600091836112ad575b505061124b565b0151905038806112a6565b601f198316916112cd85600052602060002090565b9260005b81811061130b575091600293918560019694106112f2575b50505002019055565b01516000196008601f8516021c191690553880806112e9565b919360206001819287870151815501950192016112d1565b9061017a9161125d565b5190565b9060001990611180565b9061134b6101b76111a19261034a565b8254611331565b60056113d660a061017a9461137261136c6000830161116b565b8661118a565b611389611380602083015190565b60018701611323565b6113a0611397604083015190565b60028701611323565b6113b86113af6060830161132d565b6003870161133b565b6113d06113c76080830161132d565b6004870161133b565b0161132d565b910161133b565b91906113ec5761017a91611352565b611155565b90815491600160401b83101561023a578261141491600161017a9501815561113b565b906113dd565b634e487b7160e01b600052601160045260246000fd5b9190820180921161143d57565b61141a565b9061017a9461148361147b60809561146d610af1959b9a989b60a088019088820360008a015261057a565b90868203602088015261057a565b986040850152565b6060830152565b60099392917f84038083661ab3698bfe2b1202fa65e8fd987cef13606f396be72c1685b8172c91506114c96114c26101b76002610480565b8210611008565b6114dd6114d6600061034a565b341161106e565b6115cc6114ee6101b7836001610357565b916115166114fe600a8501610480565b61150f61150b600061034a565b9190565b14156110bb565b61152f6115286101b760078601610480565b4210611107565b6115c761153b346131e9565b978894611594600c820161154d611127565b906115583383611131565b6115638b6020840152565b61156e8c6040840152565b611579346060840152565b611584896080840152565b61158f4260a0840152565b6113f1565b6115b4600882016115ae6115a782610480565b3490611430565b9061133b565b016115ae856115c283610480565b611430565b61034a565b926115f06115d933610e56565b956115e360405190565b9384934292349186611442565b0390a390565b6101b79291906000610fbe565b6020808252601490820152734e616d652063616e6e6f7420626520656d70747960601b604082015260600190565b1561163857565b60405162461bcd60e51b81528061102860048201611603565b6104636101b76101b79290565b6101b790611651565b602080825260159082015274496e76616c6964206f776e6572206164647265737360581b604082015260600190565b1561169d57565b60405162461bcd60e51b81528061102860048201611667565b6020808252601590820152745469746c652063616e6e6f7420626520656d70747960581b604082015260600190565b156116ec57565b60405162461bcd60e51b815280611028600482016116b6565b6020808252601b908201527f4465736372697074696f6e2063616e6e6f7420626520656d7074790000000000604082015260600190565b1561174357565b60405162461bcd60e51b81528061102860048201611705565b60208082526018908201527f43617465676f72792063616e6e6f7420626520656d7074790000000000000000604082015260600190565b1561179a57565b60405162461bcd60e51b8152806110286004820161175c565b6020808252601d908201527f546172676574206d7573742062652067726561746572207468616e2030000000604082015260600190565b156117f157565b60405162461bcd60e51b815280611028600482016117b3565b6020808252601e908201527f446561646c696e65206d75737420626520696e20746865206675747572650000604082015260600190565b1561184857565b60405162461bcd60e51b8152806110286004820161180a565b90815260608101939261017a929091604091610af1905b6020830152565b600019811461143d5760010190565b9190820391821161143d57565b90949390928351926000936118af8561034a565b106118b990611631565b6118c28461165e565b6118cb90610463565b6118d488610463565b14156118df90611696565b80516118ea8561034a565b106118f4906116e5565b81516118ff8561034a565b106119099061173c565b82516119148561034a565b1061191e90611793565b6119278461034a565b8611611932906117ea565b61193d428911611841565b6119476002610480565b611952906001610357565b94611960886001880161118a565b61196c90868601611323565b6119799060038601611323565b6119869060048501611323565b6119939060028401611323565b6119a0836006840161133b565b6119ad856007840161133b565b6119b69061034a565b6119c3816008840161133b565b6119d0816009840161133b565b6119dd90600a830161133b565b6119e76002610480565b6119f4906005830161133b565b611a02904290600b0161133b565b611a0c6002610480565b611a159061034a565b91611a1f90610e56565b92611a2960405190565b9182914290611a389284611861565b037f532ce22d86c3d75e9e14507fdc84d53517c2726edb5c97af3c34fb362233b07191a3611a666002610480565b611a6f9061187f565b611a7a90600261133b565b611a846002610480565b611a8e600161034a565b6101b79161188e565b90611aa991611aa461309a565b611d45565b61017a6130da565b602080825260159082015274496e76616c69642063616d706169676e20636f646560581b604082015260600190565b15611ae757565b60405162461bcd60e51b81528061102860048201611ab1565b60208082526018908201527f43616d706169676e206973206e6f74206f766572207965740000000000000000604082015260600190565b15611b3e57565b60405162461bcd60e51b81528061102860048201611b00565b6020808252818101527f4f6e6c792063616d706169676e206f776e65722063616e207769746864726177604082015260600190565b15611b9357565b60405162461bcd60e51b81528061102860048201611b57565b602080825260129082015271496e73756666696369656e742066756e647360701b604082015260600190565b15611bdf57565b60405162461bcd60e51b81528061102860048201611bac565b8181029291811591840414171561143d57565b634e487b7160e01b600052601260045260246000fd5b8115611c2b570490565b611c0b565b8015156101ee565b9050519061017a82611c30565b90602082820312610166576101b791611c38565b91602061017a929493610af1604082019660008301906105ae565b9060ff90611180565b151590565b90611c926101b76111a192611c7d565b8254611c74565b6101b7608061023f565b60036113d6606061017a94611cbd61136c6000830161116b565b611cd5611ccc6020830161132d565b6001870161133b565b6113d0611ce46040830161132d565b6002870161133b565b91906113ec5761017a91611ca3565b90815491600160401b83101561023a5782611d1f91600161017a95018155610a4d565b90611ced565b604090610af161017a9496959396611878606084019860008501906105ae565b611d5c611d556101b76002610480565b8210611ae0565b611d6a6101b7826001610357565b90611d84611d7d6101b760078501610480565b4211611b37565b6001820191611dac611d9d611d988561046f565b610463565b611da633610463565b14611b8c565b611dc3611dbb6101b784612f5a565b851115611bd8565b600e8101611dd7611dd382610490565b1590565b611f2c575b50600d611df191016115ae856115c283610480565b611e56602084611e23610f487f0000000000000000000000000000000000000000000000000000000000000000610e56565b611e2c8661046f565b6000611e3760405190565b809681958294611e4b63a9059cbb60e01b90565b845260048401611c59565b03925af18015610fb9577f887cc922c9fb6a3a66ac86ca7a5550189370dbe58caa712bd060ad70f532816493611ee292611edc92611eff575b50611ed76003611e9e8361046f565b90611eb1611eaa611c99565b9283611131565b611ebc896020840152565b611ec7876040840152565b611ed2426060840152565b611cfc565b61046f565b9161034a565b92611efa611eef60405190565b928392429184611d25565b0390a2565b611f209060203d602011611f25575b611f188183610218565b810190611c45565b611e8f565b503d611f0e565b81611f60611f50611f426009611fb79601610480565b611f4a61078b565b90611bf8565b611f5a606461034a565b90611c21565b602081611f8f610f487f0000000000000000000000000000000000000000000000000000000000000000610e56565b611f9830610e56565b6000611fa360405190565b809981958294611e4b63a9059cbb60e01b90565b03925af1938415610fb9576001600d94611fda92611df19761201b575b50611c82565b7f93e7aaa64db1f3164fb844c7465be63c3d09a211e1307c3fe2a96a3f585d44156120116120078761034a565b9261019b60405190565b0390a29150611ddc565b6120339060203d602011611f2557611f188183610218565b611fd4565b9061017a91611a97565b67ffffffffffffffff811161023a5760208091020190565b9061206761029083612042565b918252565b9061017a6120c2600361207d611c99565b9461209061208a8261046f565b87611131565b6120a661209f60018301610480565b6020880152565b6120bc6120b560028301610480565b6040880152565b01610480565b6060840152565b6101b79061206c565b906120db825490565b6120e48161205a565b926120f86020850191600052602060002090565b6000915b8383106121095750505050565b60046020600192612119856120c9565b8152019201920191906120fc565b6101b7906120d2565b6101b76003612127565b9061017a6121a2600561214b611127565b9461215861208a8261046f565b61216761209f6001830161043d565b6121766120b56002830161043d565b61218c61218560038301610480565b6060880152565b6120bc61219b60048301610480565b6080880152565b60a0840152565b6101b79061213a565b906121bb825490565b6121c48161205a565b926121d86020850191600052602060002090565b6000915b8383106121e95750505050565b600660206001926121f9856121a9565b8152019201920191906121dc565b6101b7906121b2565b600c6122396101b792612221606090565b506122326114c26101b76002610480565b6001610357565b01612207565b61224830610e56565b3190565b60208082526038908201527f4f6e6c79207468652063616d706169676e206f776e6572206f722061646d696e60408201527f2063616e2064656c657465207468652063616d706169676e0000000000000000606082015260800190565b156122b057565b60405162461bcd60e51b8152806110286004820161224c565b906122dc90600019906020036008021c90565b8154169055565b906000916123016122f982600052602060002090565b92835461124b565b905555565b919290602082101561235e57601f8411600114612328576111a192935061124b565b509061235961017a93600161235061234585600052602060002090565b92601f602091010490565b820191016111de565b6122e3565b506123978293612375600194600052602060002090565b61123a6020601f860104820192601f86168061239f575b50601f602091010490565b600202179055565b6123ab908886036122c9565b3861238c565b929091600160401b821161023a57602011156123f85760208110156123d9576111a19161124b565b60019160ff19166123ef84600052602060002090565b55600202019055565b60019150600202019055565b90815461241081610385565b90818311612439575b818310612427575b50505050565b61243093612306565b38808080612421565b612445838383876123b1565b612419565b600061017a91612404565b906000036113ec5761017a9061244a565b6101b7906006611bf8565b600080825561017a9160059061248a8360018301612455565b6124978360028301612455565b6124a483600383016111d2565b6124b183600483016111d2565b016111d2565b906000036113ec5761017a90612471565b8181106124d3575050565b806124e160006006936124b7565b016124c8565b9190918282106124f657505050565b61251a61250e61250861017a95612466565b93612466565b91600052602060002090565b91820191016124c8565b90600160401b811161023a578161253c61017a935490565b908281556124e7565b600061017a91612524565b906000036113ec5761017a90612545565b600090600e906125718382612455565b8260018201556125848360028301612455565b6125918360038301612455565b61259e8360048301612455565b6125ab83600583016111d2565b6125b883600683016111d2565b6125c583600783016111d2565b6125d283600883016111d2565b6125df83600983016111d2565b6125ec83600a83016111d2565b6125f983600b83016111d2565b61260683600c8301612550565b61261383600d83016111d2565b0155565b906000036113ec5761017a90612561565b801561143d576000190190565b6126b4906126496114c26101b76002610480565b612698600061269383600161266b816126656101b78583610357565b0161046f565b61267d61267733610463565b91610463565b1480156126e5575b61268e906122a9565b610357565b612617565b6115c76126ad6126a86002610480565b612628565b600261133b565b7fa61e586bd6a065bde887af9ec4705829557488d3ccdea823ab66aafd7c3aa0996126de60405190565b8080611efa565b5061268e61270673f39fd6e51aad88f6f4ce6ab8827279cfffb92266610463565b61270f33610463565b149050612685565b60010190565b612725611127565b906000825260208080808080870160608152016060815201600081520160008152016000905250565b6101b761271d565b60005b82811061276557505050565b60209061277061274e565b8184015201612759565b9061017a61279061278a8461205a565b93612042565b601f190160208401612756565b906127a6825190565b811015610a70576020809102010190565b6000906127c38261034a565b92835b6127d36101b76002610480565b8110156128345760016127ea816126658482610357565b6127f661267786610463565b1461280b575b5061280690612717565b6127c6565b8195612827600c6128226128069561282d95610357565b015490565b90611430565b94906127fc565b50926128429092919261277a565b61284b8261034a565b91825b61285b6101b76002610480565b811015612919576001612872816126658482610357565b61287e61267788610463565b14612893575b5061288e90612717565b61284e565b8061289d8461034a565b915b6128aa575b50612884565b90946128be6101b7600c6128228686610357565b8610156129135761290d61290783926128ec6128e68a600c6128e08a89610357565b0161113b565b506121a9565b6128f6828a61279d565b52612901818961279d565b5061187f565b96612717565b9161289f565b946128a4565b50909250612927915061034a565b6129326101b7835190565b811015612a035760018061294e6129488261034a565b84611430565b905b612965575b505061296090612717565b612927565b6129706101b7855190565b8110156129fe576129b1829161299260a061298b878961279d565b510161132d565b6129a761150b6101b760a061298b868c61279d565b116129b757612717565b90612950565b6129c1858761279d565b516129cc828861279d565b516129d7878961279d565b526129e2868861279d565b506129ed828861279d565b526129f8818761279d565b50612717565b612955565b5090565b611aa990612a1361309a565b612a6f565b6020808252601e908201527f4e6f2066756e647320617661696c61626c6520746f2077697468647261770000604082015260600190565b15612a5657565b60405162461bcd60e51b81528061102860048201612a18565b612a7f611d556101b76002610480565b612a8d6101b7826001610357565b90612aa0611d7d6101b760078501610480565b6001820190612ab4611d9d611d988461046f565b612abd81612f5a565b92600090612ad4612acd8361034a565b8611612a4f565b600e8101612ae4611dd382610490565b612bbd575b50600d612afe91016115ae866115c283610480565b612b43602085612b30610f487f0000000000000000000000000000000000000000000000000000000000000000610e56565b612b398761046f565b85611e3760405190565b03925af1938415610fb9577f887cc922c9fb6a3a66ac86ca7a5550189370dbe58caa712bd060ad70f532816494611ee293611edc93611ed792612ba0575b506003611eb1612b908561046f565b612b98611c99565b938401611131565b612bb89060203d602011611f2557611f188183610218565b612b81565b81612bd3611f50611f426009612c159601610480565b602081612c02610f487f0000000000000000000000000000000000000000000000000000000000000000610e56565b612c0b30610e56565b88611fa360405190565b03925af1938415610fb9576001600d94612c3792612afe9761201b5750611c82565b7f93e7aaa64db1f3164fb844c7465be63c3d09a211e1307c3fe2a96a3f585d4415612c646120078861034a565b0390a29150612ae9565b61017a90612a07565b6020808252601690820152754e6f2063616d706169676e7320617661696c61626c6560501b604082015260600190565b15612cae57565b60405162461bcd60e51b81528061102860048201612c77565b6101b76101e061023f565b612cda612cc7565b9060608252602082016000815260200160608152602001606081526020016060815260200160008152602001600081526020016000815260200160008152602001600081526020016000815260200160008152602001606081526020016000815260200160009052565b6101b7612cd2565b60005b828110612d5b57505050565b602090612d66612d44565b8184015201612d4f565b9061017a612d8061278a8461205a565b601f190160208401612d4c565b9061017a612ec6600e612d9e612cc7565b94612daf612dab8261043d565b8752565b612dc7612dbe6001830161046f565b60208801611131565b612dd66120b56002830161043d565b612de56121856003830161043d565b612df461219b6004830161043d565b612e0a612e0360058301610480565b60a0880152565b612e20612e1960068301610480565b60c0880152565b612e36612e2f60078301610480565b60e0880152565b612e4d612e4560088301610480565b610100880152565b612e64612e5c60098301610480565b610120880152565b612e7b612e73600a8301610480565b610140880152565b612e92612e8a600b8301610480565b610160880152565b612ea9612ea1600c83016121b2565b610180880152565b612ec0612eb8600d8301610480565b6101a0880152565b01610490565b15156101c0840152565b6101b790612d8d565b612ef9612ee66002610480565b612ef361150b600061034a565b11612ca7565b612f0b612f066002610480565b612d70565b612f15600061034a565b612f226101b76002610480565b811015612a035780612f40612f3b612f55936001610357565b612ed0565b612f4a828561279d565b526129f8818461279d565b612f15565b6101b7612f7a91612f69600090565b50612232611d556101b76002610480565b612f8c611d7d6101b760078401610480565b612f9860098201610480565b612fad612fa7600d8401610480565b8261188e565b90612fbe611dd3600e849501610490565b612fc757505090565b6101b79250611f50612fdb91611f4a61078b565b9061188e565b6020808252600e908201526d496e76616c69642073746174757360901b604082015260600190565b1561301057565b60405162461bcd60e51b81528061102860048201612fe1565b611efa6120077f8f91fea7c957b922286b233aacdbef39c778fbf18b1e208359140dfa65bfd3c2926130616114c26101b76002610480565b61307661306e600261034a565b861115613009565b6115c785600a61308a6101b7856001610357565b0161133b565b6101b7600261034a565b6130a46000610480565b6130ac613090565b9081146130be5761017a90600061133b565b604051633ee5aeb560e01b8152600490fd5b6101b7600161034a565b61017a6130e56130d0565b600061133b565b6020808252601d908201527f416d6f756e74206d7573742062652067726561746572207468616e2030000000604082015260600190565b1561312a57565b60405162461bcd60e51b815280611028600482016130ec565b6101b761010061023f565b9060e08061017a93613168600082015160008601906105ae565b61317a602082015160208601906105ae565b60408181015162ffffff169085015261319b606082015160608601906105ae565b6131aa60808201516080860152565b6131b960a082015160a0860152565b6131c860c082015160c0860152565b01516001600160a01b0316910152565b6101008101929161017a919061314e565b60006131fe6131f78261034a565b8311613123565b7f00000000000000000000000000000000000000000000000000000000000000009161322c610f4884610e56565b9063d0e30db091803b156101665761325292849161324960405190565b94859260e01b90565b8252600490829085905af1918215610fb95783926133c6575b506133316132987f0000000000000000000000000000000000000000000000000000000000000000610e56565b916132a481848861345a565b6121a28661332a7f00000000000000000000000000000000000000000000000000000000000000006133216132d7610807565b6133156132e330610e56565b9361330c6132fb6132f561025861034a565b42611430565b97613304613143565b9d8e01611131565b60208c01611131565b62ffffff1660408a0152565b60608801611131565b6080860152565b613383602061333f8561034a565b9361334b8560c0830152565b61336761335787611651565b6001600160a01b031660e0830152565b60405192839182919063414bf38960e01b8352600483016131d8565b038187865af1938415610fb957936133a3575b5082936101b7935061345a565b6101b793506133c09060203d602011610fb257610faa8183610218565b92613396565b6133e590833d85116133eb575b6133dd8183610218565b81019061016b565b3861326b565b503d6133d3565b9061206761029083610253565b3d156134195761340e3d6133f2565b903d6000602084013e565b606090565b602080825260029082015261534160f01b604082015260600190565b1561344157565b60405162461bcd60e51b8152806110286004820161341e565b61017a926000929161349b849361348c61347360405190565b63095ea7b360e01b602082015294859260248401611c59565b60208201810382520383610218565b82602083519301915af16134ad6133ff565b816134b9575b5061343a565b90506134c3815190565b6134d061150b600061034a565b149081156134e0575b50386134b3565b6134fa915060206134ef825190565b818301019101611c45565b386134d956fea2646970667358221220980d5bc7d16b6559684b0bc5eb3ed19eb845c28cf3ac71e4803f499650a2582c64736f6c63430008180033","opcodes":"PUSH1 0xE0 PUSH1 0x40 MSTORE CALLVALUE PUSH3 0x84 JUMPI PUSH3 0x1F PUSH3 0x18 PUSH3 0x147 JUMP JUMPDEST SWAP2 PUSH3 0x1C3 JUMP JUMPDEST PUSH1 0x40 MLOAD PUSH2 0x3536 PUSH3 0x214 DUP3 CODECOPY PUSH1 0x80 MLOAD DUP2 DUP2 DUP2 PUSH2 0xE91 ADD MSTORE PUSH2 0x3274 ADD MSTORE PUSH1 0xA0 MLOAD DUP2 DUP2 DUP2 PUSH2 0xE15 ADD MSTORE PUSH2 0x3200 ADD MSTORE PUSH1 0xC0 MLOAD DUP2 DUP2 DUP2 PUSH2 0xBAD ADD MSTORE DUP2 DUP2 PUSH2 0xF24 ADD MSTORE DUP2 DUP2 PUSH2 0x1DFF ADD MSTORE DUP2 DUP2 PUSH2 0x1F6B ADD MSTORE DUP2 DUP2 PUSH2 0x2B0C ADD MSTORE DUP2 DUP2 PUSH2 0x2BDE ADD MSTORE PUSH2 0x32AD ADD MSTORE PUSH2 0x3536 SWAP1 RETURN JUMPDEST PUSH1 0x0 DUP1 REVERT JUMPDEST PUSH4 0x4E487B71 PUSH1 0xE0 SHL PUSH1 0x0 MSTORE PUSH1 0x41 PUSH1 0x4 MSTORE PUSH1 0x24 PUSH1 0x0 REVERT JUMPDEST SWAP1 PUSH1 0x1F ADD PUSH1 0x1F NOT AND DUP2 ADD SWAP1 DUP2 LT PUSH1 0x1 PUSH1 0x1 PUSH1 0x40 SHL SUB DUP3 GT OR PUSH3 0xC1 JUMPI PUSH1 0x40 MSTORE JUMP JUMPDEST PUSH3 0x89 JUMP JUMPDEST SWAP1 PUSH3 0xDE PUSH3 0xD6 PUSH1 0x40 MLOAD SWAP1 JUMP JUMPDEST SWAP3 DUP4 PUSH3 0x9F JUMP JUMPDEST JUMP JUMPDEST PUSH1 0x1 PUSH1 0x1 PUSH1 0xA0 SHL SUB AND SWAP1 JUMP JUMPDEST SWAP1 JUMP JUMPDEST PUSH1 0x1 PUSH1 0x1 PUSH1 0xA0 SHL SUB DUP2 AND SUB PUSH3 0x84 JUMPI JUMP JUMPDEST SWAP1 POP MLOAD SWAP1 PUSH3 0xDE DUP3 PUSH3 0xEF JUMP JUMPDEST SWAP1 SWAP2 PUSH1 0x60 DUP3 DUP5 SUB SLT PUSH3 0x84 JUMPI PUSH3 0xEC PUSH3 0x12D DUP5 DUP5 PUSH3 0x101 JUMP JUMPDEST SWAP4 PUSH1 0x40 PUSH3 0x13F DUP3 PUSH1 0x20 DUP8 ADD PUSH3 0x101 JUMP JUMPDEST SWAP5 ADD PUSH3 0x101 JUMP JUMPDEST PUSH3 0x16A PUSH3 0x374A DUP1 CODESIZE SUB DUP1 PUSH3 0x15E DUP2 PUSH3 0xC7 JUMP JUMPDEST SWAP3 DUP4 CODECOPY DUP2 ADD SWAP1 PUSH3 0x110 JUMP JUMPDEST SWAP1 SWAP2 SWAP3 JUMP JUMPDEST PUSH3 0xEC PUSH3 0xEC PUSH3 0xEC SWAP3 SWAP1 JUMP JUMPDEST SWAP1 PUSH3 0xEC PUSH3 0xEC PUSH3 0x193 SWAP3 PUSH3 0x16F JUMP JUMPDEST SWAP1 SSTORE JUMP JUMPDEST PUSH3 0xEC SWAP1 PUSH3 0xE0 SWAP1 PUSH1 0x1 PUSH1 0x1 PUSH1 0xA0 SHL SUB AND DUP3 JUMP JUMPDEST PUSH3 0xEC SWAP1 PUSH3 0x197 JUMP JUMPDEST PUSH3 0xEC SWAP1 PUSH3 0x1AD JUMP JUMPDEST PUSH3 0x1E6 SWAP1 PUSH3 0x1D2 PUSH3 0x1FD JUMP JUMPDEST PUSH3 0x1E0 PUSH1 0x0 PUSH1 0x2 PUSH3 0x17F JUMP JUMPDEST PUSH3 0x1B8 JUMP JUMPDEST PUSH1 0x80 MSTORE PUSH1 0xA0 MSTORE PUSH1 0xC0 MSTORE JUMP JUMPDEST PUSH3 0xEC PUSH1 0x1 PUSH3 0x16F JUMP JUMPDEST PUSH3 0xDE PUSH3 0x20B PUSH3 0x1F1 JUMP JUMPDEST PUSH1 0x0 PUSH3 0x17F JUMP INVALID PUSH1 0x80 PUSH1 0x40 MSTORE PUSH1 0x4 CALLDATASIZE LT ISZERO PUSH2 0x12 JUMPI PUSH1 0x0 DUP1 REVERT JUMPDEST PUSH1 0x0 CALLDATALOAD PUSH1 0xE0 SHR DUP1 PUSH3 0x2772C2 EQ PUSH2 0x161 JUMPI DUP1 PUSH4 0x7CA140D EQ PUSH2 0x15C JUMPI DUP1 PUSH4 0x131BE674 EQ PUSH2 0x157 JUMPI DUP1 PUSH4 0x141961BC EQ PUSH2 0x152 JUMPI DUP1 PUSH4 0x2828F2EE EQ PUSH2 0x14D JUMPI DUP1 PUSH4 0x34FBC9A1 EQ PUSH2 0x148 JUMPI DUP1 PUSH4 0x441A3E70 EQ PUSH2 0x143 JUMPI DUP1 PUSH4 0x4C69A6C9 EQ PUSH2 0x13E JUMPI DUP1 PUSH4 0x50D6C1E8 EQ PUSH2 0x139 JUMPI DUP1 PUSH4 0x596D9CE2 EQ PUSH2 0x134 JUMPI DUP1 PUSH4 0x5CC07076 EQ PUSH2 0x12F JUMPI DUP1 PUSH4 0x6F9FB98A EQ PUSH2 0x12A JUMPI DUP1 PUSH4 0x75970193 EQ PUSH2 0x125 JUMPI DUP1 PUSH4 0x7EB483C9 EQ PUSH2 0x120 JUMPI DUP1 PUSH4 0x89A30271 EQ PUSH2 0x11B JUMPI DUP1 PUSH4 0x958E2D31 EQ PUSH2 0x116 JUMPI DUP1 PUSH4 0xA6B03633 EQ PUSH2 0x111 JUMPI DUP1 PUSH4 0xAD5C4648 EQ PUSH2 0x10C JUMPI DUP1 PUSH4 0xC31C9C07 EQ PUSH2 0x107 JUMPI DUP1 PUSH4 0xD0CEE66A EQ PUSH2 0x102 JUMPI PUSH4 0xEAA1B0BC SUB PUSH2 0x166 JUMPI PUSH2 0xED1 JUMP JUMPDEST PUSH2 0xEB6 JUMP JUMPDEST PUSH2 0xE78 JUMP JUMPDEST PUSH2 0xE00 JUMP JUMPDEST PUSH2 0xDD9 JUMP JUMPDEST PUSH2 0xBD9 JUMP JUMPDEST PUSH2 0xB98 JUMP JUMPDEST PUSH2 0xB6D JUMP JUMPDEST PUSH2 0xB41 JUMP JUMPDEST PUSH2 0xB26 JUMP JUMPDEST PUSH2 0xAF5 JUMP JUMPDEST PUSH2 0xA10 JUMP JUMPDEST PUSH2 0x8FB JUMP JUMPDEST PUSH2 0x81A JUMP JUMPDEST PUSH2 0x7D4 JUMP JUMPDEST PUSH2 0x79D JUMP JUMPDEST PUSH2 0x769 JUMP JUMPDEST PUSH2 0x661 JUMP JUMPDEST PUSH2 0x31F JUMP JUMPDEST PUSH2 0x1D1 JUMP JUMPDEST PUSH2 0x17C JUMP JUMPDEST PUSH1 0x0 DUP1 REVERT JUMPDEST PUSH1 0x0 SWAP2 SUB SLT PUSH2 0x166 JUMPI JUMP JUMPDEST SWAP1 MSTORE JUMP JUMPDEST JUMP JUMPDEST CALLVALUE PUSH2 0x166 JUMPI PUSH2 0x18C CALLDATASIZE PUSH1 0x4 PUSH2 0x16B JUMP JUMPDEST PUSH2 0x1A8 PUSH2 0x197 PUSH2 0xF17 JUMP JUMPDEST PUSH1 0x40 MLOAD JUMPDEST SWAP2 DUP3 SWAP2 DUP3 SWAP1 DUP2 MSTORE PUSH1 0x20 ADD SWAP1 JUMP JUMPDEST SUB SWAP1 RETURN JUMPDEST PUSH2 0x1B7 SWAP2 PUSH1 0x8 MUL SHR DUP2 JUMP JUMPDEST SWAP1 JUMP JUMPDEST SWAP1 PUSH2 0x1B7 SWAP2 SLOAD PUSH2 0x1AC JUMP JUMPDEST PUSH2 0x1B7 PUSH1 0x0 PUSH1 0x2 PUSH2 0x1BA JUMP JUMPDEST CALLVALUE PUSH2 0x166 JUMPI PUSH2 0x1E1 CALLDATASIZE PUSH1 0x4 PUSH2 0x16B JUMP JUMPDEST PUSH2 0x1A8 PUSH2 0x197 PUSH2 0x1C5 JUMP JUMPDEST DUP1 JUMPDEST SUB PUSH2 0x166 JUMPI JUMP JUMPDEST SWAP1 POP CALLDATALOAD SWAP1 PUSH2 0x17A DUP3 PUSH2 0x1EC JUMP JUMPDEST PUSH4 0x4E487B71 PUSH1 0xE0 SHL PUSH1 0x0 MSTORE PUSH1 0x41 PUSH1 0x4 MSTORE PUSH1 0x24 PUSH1 0x0 REVERT JUMPDEST SWAP1 PUSH1 0x1F ADD PUSH1 0x1F NOT AND DUP2 ADD SWAP1 DUP2 LT PUSH8 0xFFFFFFFFFFFFFFFF DUP3 GT OR PUSH2 0x23A JUMPI PUSH1 0x40 MSTORE JUMP JUMPDEST PUSH2 0x202 JUMP JUMPDEST SWAP1 PUSH2 0x17A PUSH2 0x24C PUSH1 0x40 MLOAD SWAP1 JUMP JUMPDEST SWAP3 DUP4 PUSH2 0x218 JUMP JUMPDEST PUSH8 0xFFFFFFFFFFFFFFFF DUP2 GT PUSH2 0x23A JUMPI PUSH1 0x20 SWAP1 PUSH1 0x1F ADD PUSH1 0x1F NOT AND ADD SWAP1 JUMP JUMPDEST ADD SWAP1 JUMP JUMPDEST SWAP1 DUP3 PUSH1 0x0 SWAP4 SWAP3 DUP3 CALLDATACOPY ADD MSTORE JUMP JUMPDEST SWAP1 SWAP3 SWAP2 SWAP3 PUSH2 0x295 PUSH2 0x290 DUP3 PUSH2 0x253 JUMP JUMPDEST PUSH2 0x23F JUMP JUMPDEST SWAP4 DUP2 DUP6 MSTORE DUP2 DUP4 ADD GT PUSH2 0x166 JUMPI PUSH2 0x17A SWAP2 PUSH1 0x20 DUP6 ADD SWAP1 PUSH2 0x274 JUMP JUMPDEST SWAP1 DUP1 PUSH1 0x1F DUP4 ADD SLT ISZERO PUSH2 0x166 JUMPI DUP2 PUSH1 0x20 PUSH2 0x1B7 SWAP4 CALLDATALOAD SWAP2 ADD PUSH2 0x280 JUMP JUMPDEST SWAP2 PUSH1 0x60 DUP4 DUP4 SUB SLT PUSH2 0x166 JUMPI PUSH2 0x2DF DUP3 DUP5 PUSH2 0x1F5 JUMP JUMPDEST SWAP3 PUSH1 0x20 DUP2 ADD CALLDATALOAD PUSH8 0xFFFFFFFFFFFFFFFF DUP2 GT PUSH2 0x166 JUMPI DUP4 PUSH2 0x300 SWAP2 DUP4 ADD PUSH2 0x2AF JUMP JUMPDEST SWAP3 PUSH1 0x40 DUP3 ADD CALLDATALOAD PUSH8 0xFFFFFFFFFFFFFFFF DUP2 GT PUSH2 0x166 JUMPI PUSH2 0x1B7 SWAP3 ADD PUSH2 0x2AF JUMP JUMPDEST PUSH2 0x1A8 PUSH2 0x197 PUSH2 0x330 CALLDATASIZE PUSH1 0x4 PUSH2 0x2CA JUMP JUMPDEST SWAP2 PUSH2 0x15F6 JUMP JUMPDEST SWAP1 PUSH1 0x20 DUP3 DUP3 SUB SLT PUSH2 0x166 JUMPI PUSH2 0x1B7 SWAP2 PUSH2 0x1F5 JUMP JUMPDEST PUSH2 0x1B7 PUSH2 0x1B7 PUSH2 0x1B7 SWAP3 SWAP1 JUMP JUMPDEST SWAP1 PUSH2 0x361 SWAP1 PUSH2 0x34A JUMP JUMPDEST PUSH1 0x0 MSTORE PUSH1 0x20 MSTORE PUSH1 0x40 PUSH1 0x0 KECCAK256 SWAP1 JUMP JUMPDEST PUSH4 0x4E487B71 PUSH1 0xE0 SHL PUSH1 0x0 MSTORE PUSH1 0x22 PUSH1 0x4 MSTORE PUSH1 0x24 PUSH1 0x0 REVERT JUMPDEST SWAP1 PUSH1 0x1 PUSH1 0x2 DUP4 DIV SWAP3 AND DUP1 ISZERO PUSH2 0x3A5 JUMPI JUMPDEST PUSH1 0x20 DUP4 LT EQ PUSH2 0x3A0 JUMPI JUMP JUMPDEST PUSH2 0x36F JUMP JUMPDEST SWAP2 PUSH1 0x7F AND SWAP2 PUSH2 0x395 JUMP JUMPDEST DUP1 SLOAD PUSH1 0x0 SWAP4 SWAP3 SWAP2 PUSH2 0x3CC PUSH2 0x3C2 DUP4 PUSH2 0x385 JUMP JUMPDEST DUP1 DUP6 MSTORE SWAP4 PUSH1 0x20 ADD SWAP1 JUMP JUMPDEST SWAP2 PUSH1 0x1 DUP2 AND SWAP1 DUP2 ISZERO PUSH2 0x41E JUMPI POP PUSH1 0x1 EQ PUSH2 0x3E5 JUMPI POP POP POP JUMP JUMPDEST PUSH2 0x3F8 SWAP2 SWAP3 SWAP4 SWAP5 POP PUSH1 0x0 MSTORE PUSH1 0x20 PUSH1 0x0 KECCAK256 SWAP1 JUMP JUMPDEST SWAP2 PUSH1 0x0 SWAP3 JUMPDEST DUP2 DUP5 LT PUSH2 0x40A JUMPI POP POP ADD SWAP1 JUMP JUMPDEST DUP1 SLOAD DUP5 DUP5 ADD MSTORE PUSH1 0x20 SWAP1 SWAP4 ADD SWAP3 PUSH1 0x1 ADD PUSH2 0x3FD JUMP JUMPDEST SWAP3 SWAP5 SWAP6 POP POP POP PUSH1 0xFF NOT AND DUP3 MSTORE ISZERO ISZERO PUSH1 0x20 MUL ADD SWAP1 JUMP JUMPDEST SWAP1 PUSH2 0x1B7 SWAP2 PUSH2 0x3AF JUMP JUMPDEST SWAP1 PUSH2 0x17A PUSH2 0x457 SWAP3 PUSH2 0x44E PUSH1 0x40 MLOAD SWAP1 JUMP JUMPDEST SWAP4 DUP5 DUP1 SWAP3 PUSH2 0x433 JUMP JUMPDEST SUB DUP4 PUSH2 0x218 JUMP JUMPDEST PUSH2 0x1B7 SWAP1 JUMPDEST PUSH1 0x1 PUSH1 0x1 PUSH1 0xA0 SHL SUB AND SWAP1 JUMP JUMPDEST PUSH2 0x1B7 SWAP1 SLOAD PUSH2 0x45E JUMP JUMPDEST PUSH2 0x1B7 SWAP1 DUP2 JUMP JUMPDEST PUSH2 0x1B7 SWAP1 SLOAD PUSH2 0x479 JUMP JUMPDEST PUSH1 0xFF AND SWAP1 JUMP JUMPDEST PUSH2 0x1B7 SWAP1 SLOAD PUSH2 0x48A JUMP JUMPDEST PUSH2 0x4A5 SWAP1 PUSH1 0x1 PUSH2 0x357 JUMP JUMPDEST SWAP1 PUSH2 0x4AF DUP3 PUSH2 0x43D JUMP JUMPDEST SWAP2 PUSH2 0x4BC PUSH1 0x1 DUP3 ADD PUSH2 0x46F JUMP JUMPDEST SWAP2 PUSH2 0x4C9 PUSH1 0x2 DUP4 ADD PUSH2 0x43D JUMP JUMPDEST SWAP2 PUSH2 0x4D6 PUSH1 0x3 DUP3 ADD PUSH2 0x43D JUMP JUMPDEST SWAP2 PUSH2 0x4E3 PUSH1 0x4 DUP4 ADD PUSH2 0x43D JUMP JUMPDEST SWAP2 PUSH2 0x4F0 PUSH1 0x5 DUP3 ADD PUSH2 0x480 JUMP JUMPDEST SWAP2 PUSH2 0x4FD PUSH1 0x6 DUP4 ADD PUSH2 0x480 JUMP JUMPDEST SWAP2 PUSH2 0x50A PUSH1 0x7 DUP3 ADD PUSH2 0x480 JUMP JUMPDEST SWAP2 PUSH2 0x517 PUSH1 0x8 DUP4 ADD PUSH2 0x480 JUMP JUMPDEST SWAP2 PUSH2 0x524 PUSH1 0x9 DUP3 ADD PUSH2 0x480 JUMP JUMPDEST SWAP2 PUSH2 0x531 PUSH1 0xA DUP4 ADD PUSH2 0x480 JUMP JUMPDEST SWAP2 PUSH2 0x53E PUSH1 0xB DUP3 ADD PUSH2 0x480 JUMP JUMPDEST SWAP2 PUSH2 0x1B7 PUSH1 0xE PUSH2 0x550 PUSH1 0xD DUP6 ADD PUSH2 0x480 JUMP JUMPDEST SWAP4 ADD PUSH2 0x490 JUMP JUMPDEST PUSH1 0x0 JUMPDEST DUP4 DUP2 LT PUSH2 0x56A JUMPI POP POP PUSH1 0x0 SWAP2 ADD MSTORE JUMP JUMPDEST DUP2 DUP2 ADD MLOAD DUP4 DUP3 ADD MSTORE PUSH1 0x20 ADD PUSH2 0x55A JUMP JUMPDEST PUSH2 0x59B PUSH2 0x5A4 PUSH1 0x20 SWAP4 PUSH2 0x270 SWAP4 PUSH2 0x58F DUP2 MLOAD SWAP1 JUMP JUMPDEST DUP1 DUP4 MSTORE SWAP4 DUP5 SWAP3 PUSH1 0x20 ADD SWAP1 JUMP JUMPDEST SWAP6 DUP7 SWAP2 ADD PUSH2 0x557 JUMP JUMPDEST PUSH1 0x1F ADD PUSH1 0x1F NOT AND SWAP1 JUMP JUMPDEST PUSH2 0x176 SWAP1 PUSH2 0x463 JUMP JUMPDEST SWAP12 SWAP10 SWAP8 SWAP6 SWAP15 SWAP14 SWAP13 SWAP11 SWAP9 SWAP7 SWAP5 SWAP4 SWAP3 SWAP2 SWAP1 PUSH2 0x1C0 DUP14 ADD DUP14 DUP1 DUP3 SUB SWAP1 PUSH1 0x0 ADD MSTORE PUSH2 0x5DD SWAP2 PUSH2 0x57A JUMP JUMPDEST SWAP1 PUSH1 0x20 DUP14 ADD PUSH2 0x5EB SWAP2 PUSH2 0x5AE JUMP JUMPDEST DUP12 DUP2 SUB PUSH1 0x40 DUP14 ADD MSTORE PUSH2 0x5FC SWAP2 PUSH2 0x57A JUMP JUMPDEST DUP11 DUP2 SUB PUSH1 0x60 DUP13 ADD MSTORE PUSH2 0x60D SWAP2 PUSH2 0x57A JUMP JUMPDEST DUP10 DUP2 SUB PUSH1 0x80 DUP12 ADD MSTORE PUSH2 0x61E SWAP2 PUSH2 0x57A JUMP JUMPDEST SWAP11 PUSH1 0xA0 DUP10 ADD PUSH2 0x62B SWAP2 SWAP1 MSTORE JUMP JUMPDEST PUSH1 0xC0 DUP9 ADD MSTORE PUSH1 0xE0 DUP8 ADD MSTORE PUSH2 0x100 DUP7 ADD MSTORE PUSH2 0x120 DUP6 ADD MSTORE PUSH2 0x140 DUP5 ADD MSTORE PUSH2 0x160 DUP4 ADD MSTORE PUSH2 0x180 DUP3 ADD MSTORE PUSH2 0x1A0 ADD PUSH2 0x17A SWAP2 ISZERO ISZERO SWAP1 MSTORE JUMP JUMPDEST CALLVALUE PUSH2 0x166 JUMPI PUSH2 0x1A8 PUSH2 0x67C PUSH2 0x677 CALLDATASIZE PUSH1 0x4 PUSH2 0x336 JUMP JUMPDEST PUSH2 0x49A JUMP JUMPDEST SWAP11 PUSH2 0x698 SWAP15 SWAP13 SWAP15 SWAP11 SWAP2 SWAP11 SWAP10 SWAP3 SWAP10 SWAP9 SWAP4 SWAP9 SWAP8 SWAP5 SWAP8 SWAP7 SWAP6 SWAP7 PUSH1 0x40 MLOAD SWAP1 JUMP JUMPDEST SWAP15 DUP16 SWAP15 DUP16 PUSH2 0x5B7 JUMP JUMPDEST PUSH2 0x1EE DUP2 PUSH2 0x463 JUMP JUMPDEST SWAP1 POP CALLDATALOAD SWAP1 PUSH2 0x17A DUP3 PUSH2 0x6A1 JUMP JUMPDEST PUSH1 0xE0 DUP2 DUP4 SUB SLT PUSH2 0x166 JUMPI DUP1 CALLDATALOAD PUSH8 0xFFFFFFFFFFFFFFFF DUP2 GT PUSH2 0x166 JUMPI DUP3 PUSH2 0x6DE SWAP2 DUP4 ADD PUSH2 0x2AF JUMP JUMPDEST SWAP3 PUSH2 0x6EC DUP4 PUSH1 0x20 DUP5 ADD PUSH2 0x6AA JUMP JUMPDEST SWAP3 PUSH1 0x40 DUP4 ADD CALLDATALOAD PUSH8 0xFFFFFFFFFFFFFFFF DUP2 GT PUSH2 0x166 JUMPI DUP2 PUSH2 0x70D SWAP2 DUP6 ADD PUSH2 0x2AF JUMP JUMPDEST SWAP3 PUSH1 0x60 DUP2 ADD CALLDATALOAD PUSH8 0xFFFFFFFFFFFFFFFF DUP2 GT PUSH2 0x166 JUMPI DUP3 PUSH2 0x72E SWAP2 DUP4 ADD PUSH2 0x2AF JUMP JUMPDEST SWAP3 PUSH1 0x80 DUP3 ADD CALLDATALOAD PUSH8 0xFFFFFFFFFFFFFFFF DUP2 GT PUSH2 0x166 JUMPI PUSH2 0x752 DUP5 PUSH2 0x1B7 SWAP3 DUP6 ADD PUSH2 0x2AF JUMP JUMPDEST SWAP4 PUSH1 0xC0 PUSH2 0x762 DUP3 PUSH1 0xA0 DUP8 ADD PUSH2 0x1F5 JUMP JUMPDEST SWAP5 ADD PUSH2 0x1F5 JUMP JUMPDEST CALLVALUE PUSH2 0x166 JUMPI PUSH2 0x1A8 PUSH2 0x197 PUSH2 0x77F CALLDATASIZE PUSH1 0x4 PUSH2 0x6B7 JUMP JUMPDEST SWAP6 SWAP5 SWAP1 SWAP5 SWAP4 SWAP2 SWAP4 PUSH2 0x189B JUMP JUMPDEST PUSH2 0x1B7 PUSH1 0x5 PUSH2 0x34A JUMP JUMPDEST PUSH2 0x1B7 PUSH2 0x78B JUMP JUMPDEST CALLVALUE PUSH2 0x166 JUMPI PUSH2 0x7AD CALLDATASIZE PUSH1 0x4 PUSH2 0x16B JUMP JUMPDEST PUSH2 0x1A8 PUSH2 0x197 PUSH2 0x795 JUMP JUMPDEST SWAP2 SWAP1 PUSH1 0x40 DUP4 DUP3 SUB SLT PUSH2 0x166 JUMPI PUSH2 0x1B7 SWAP1 PUSH1 0x20 PUSH2 0x762 DUP3 DUP7 PUSH2 0x1F5 JUMP JUMPDEST CALLVALUE PUSH2 0x166 JUMPI PUSH2 0x7ED PUSH2 0x7E7 CALLDATASIZE PUSH1 0x4 PUSH2 0x7B8 JUMP JUMPDEST SWAP1 PUSH2 0x2038 JUMP JUMPDEST PUSH1 0x40 MLOAD STOP JUMPDEST PUSH2 0x7FF PUSH2 0x1B7 PUSH2 0x1B7 SWAP3 SWAP1 JUMP JUMPDEST PUSH3 0xFFFFFF AND SWAP1 JUMP JUMPDEST PUSH2 0x1B7 PUSH2 0xBB8 PUSH2 0x7F2 JUMP JUMPDEST PUSH2 0x1B7 PUSH2 0x807 JUMP JUMPDEST CALLVALUE PUSH2 0x166 JUMPI PUSH2 0x82A CALLDATASIZE PUSH1 0x4 PUSH2 0x16B JUMP JUMPDEST PUSH2 0x1A8 PUSH2 0x835 PUSH2 0x812 JUMP JUMPDEST PUSH1 0x40 MLOAD SWAP2 DUP3 SWAP2 DUP3 PUSH3 0xFFFFFF SWAP1 SWAP2 AND DUP2 MSTORE PUSH1 0x20 ADD SWAP1 JUMP JUMPDEST SWAP1 PUSH1 0x60 DUP1 PUSH2 0x17A SWAP4 PUSH2 0x865 PUSH1 0x0 DUP3 ADD MLOAD PUSH1 0x0 DUP7 ADD SWAP1 PUSH2 0x5AE JUMP JUMPDEST PUSH2 0x874 PUSH1 0x20 DUP3 ADD MLOAD PUSH1 0x20 DUP7 ADD MSTORE JUMP JUMPDEST PUSH2 0x883 PUSH1 0x40 DUP3 ADD MLOAD PUSH1 0x40 DUP7 ADD MSTORE JUMP JUMPDEST ADD MLOAD SWAP2 ADD MSTORE JUMP JUMPDEST SWAP1 PUSH2 0x270 DUP2 PUSH1 0x80 SWAP4 PUSH2 0x84B JUMP JUMPDEST SWAP1 PUSH2 0x8B7 PUSH2 0x8B0 PUSH2 0x8A6 DUP5 MLOAD SWAP1 JUMP JUMPDEST DUP1 DUP5 MSTORE SWAP3 PUSH1 0x20 ADD SWAP1 JUMP JUMPDEST SWAP3 PUSH1 0x20 ADD SWAP1 JUMP JUMPDEST SWAP1 PUSH1 0x0 JUMPDEST DUP2 DUP2 LT PUSH2 0x8C8 JUMPI POP POP POP SWAP1 JUMP JUMPDEST SWAP1 SWAP2 SWAP3 PUSH2 0x8E2 PUSH2 0x8DB PUSH1 0x1 SWAP3 DUP7 MLOAD PUSH2 0x88A JUMP JUMPDEST SWAP5 PUSH1 0x20 ADD SWAP1 JUMP JUMPDEST SWAP3 SWAP2 ADD PUSH2 0x8BB JUMP JUMPDEST PUSH1 0x20 DUP1 DUP3 MSTORE PUSH2 0x1B7 SWAP3 SWAP2 ADD SWAP1 PUSH2 0x897 JUMP JUMPDEST CALLVALUE PUSH2 0x166 JUMPI PUSH2 0x90B CALLDATASIZE PUSH1 0x4 PUSH2 0x16B JUMP JUMPDEST PUSH2 0x1A8 PUSH2 0x916 PUSH2 0x2130 JUMP JUMPDEST PUSH1 0x40 MLOAD SWAP2 DUP3 SWAP2 DUP3 PUSH2 0x8EA JUMP JUMPDEST SWAP1 PUSH2 0x1B7 SWAP1 PUSH1 0xA0 DUP1 PUSH2 0x96A PUSH2 0x958 PUSH1 0xC0 DUP6 ADD PUSH2 0x946 PUSH1 0x0 DUP10 ADD MLOAD PUSH1 0x0 DUP9 ADD SWAP1 PUSH2 0x5AE JUMP JUMPDEST PUSH1 0x20 DUP9 ADD MLOAD DUP7 DUP3 SUB PUSH1 0x20 DUP9 ADD MSTORE PUSH2 0x57A JUMP JUMPDEST PUSH1 0x40 DUP8 ADD MLOAD DUP6 DUP3 SUB PUSH1 0x40 DUP8 ADD MSTORE PUSH2 0x57A JUMP JUMPDEST SWAP5 PUSH2 0x97A PUSH1 0x60 DUP3 ADD MLOAD PUSH1 0x60 DUP7 ADD MSTORE JUMP JUMPDEST PUSH2 0x883 PUSH1 0x80 DUP3 ADD MLOAD PUSH1 0x80 DUP7 ADD MSTORE JUMP JUMPDEST SWAP1 PUSH2 0x1B7 SWAP2 PUSH2 0x922 JUMP JUMPDEST SWAP1 PUSH2 0x9A9 PUSH2 0x99F DUP4 MLOAD SWAP1 JUMP JUMPDEST DUP1 DUP4 MSTORE SWAP2 PUSH1 0x20 ADD SWAP1 JUMP JUMPDEST SWAP1 DUP2 PUSH2 0x9BB PUSH1 0x20 DUP4 MUL DUP5 ADD SWAP5 PUSH1 0x20 ADD SWAP1 JUMP JUMPDEST SWAP3 PUSH1 0x0 SWAP2 JUMPDEST DUP4 DUP4 LT PUSH2 0x9CF JUMPI POP POP POP POP POP SWAP1 JUMP JUMPDEST SWAP1 SWAP2 SWAP3 SWAP4 SWAP5 PUSH1 0x20 PUSH2 0x9F2 PUSH2 0x9EB DUP4 DUP6 PUSH1 0x1 SWAP6 SUB DUP8 MSTORE DUP10 MLOAD PUSH2 0x989 JUMP JUMPDEST SWAP8 PUSH1 0x20 ADD SWAP1 JUMP JUMPDEST SWAP4 ADD SWAP4 ADD SWAP2 SWAP4 SWAP3 SWAP1 PUSH2 0x9C0 JUMP JUMPDEST PUSH1 0x20 DUP1 DUP3 MSTORE PUSH2 0x1B7 SWAP3 SWAP2 ADD SWAP1 PUSH2 0x993 JUMP JUMPDEST CALLVALUE PUSH2 0x166 JUMPI PUSH2 0x1A8 PUSH2 0xA2B PUSH2 0xA26 CALLDATASIZE PUSH1 0x4 PUSH2 0x336 JUMP JUMPDEST PUSH2 0x2210 JUMP JUMPDEST PUSH1 0x40 MLOAD SWAP2 DUP3 SWAP2 DUP3 PUSH2 0x9FF JUMP JUMPDEST PUSH4 0x4E487B71 PUSH1 0xE0 SHL PUSH1 0x0 MSTORE PUSH1 0x32 PUSH1 0x4 MSTORE PUSH1 0x24 PUSH1 0x0 REVERT JUMPDEST DUP1 SLOAD DUP3 LT ISZERO PUSH2 0xA70 JUMPI PUSH2 0xA67 PUSH1 0x4 SWAP2 PUSH1 0x0 MSTORE PUSH1 0x20 PUSH1 0x0 KECCAK256 SWAP1 JUMP JUMPDEST SWAP2 MUL ADD SWAP1 PUSH1 0x0 SWAP1 JUMP JUMPDEST PUSH2 0xA37 JUMP JUMPDEST PUSH1 0x3 SWAP1 PUSH2 0xA80 DUP3 SLOAD SWAP1 JUMP JUMPDEST DUP2 LT ISZERO PUSH2 0x166 JUMPI PUSH2 0xA90 SWAP2 PUSH2 0xA4D JUMP JUMPDEST POP SWAP1 PUSH2 0xA9B DUP3 PUSH2 0x46F JUMP JUMPDEST SWAP2 PUSH2 0xAA8 PUSH1 0x1 DUP3 ADD PUSH2 0x480 JUMP JUMPDEST SWAP2 PUSH2 0x1B7 PUSH1 0x3 PUSH2 0xABA PUSH1 0x2 DUP6 ADD PUSH2 0x480 JUMP JUMPDEST SWAP4 ADD PUSH2 0x480 JUMP JUMPDEST PUSH2 0xAF1 PUSH2 0x17A SWAP5 PUSH2 0xAEA PUSH1 0x60 SWAP5 SWAP9 SWAP8 SWAP6 PUSH2 0xAE3 PUSH1 0x80 DUP7 ADD SWAP11 PUSH1 0x0 DUP8 ADD SWAP1 PUSH2 0x5AE JUMP JUMPDEST PUSH1 0x20 DUP6 ADD MSTORE JUMP JUMPDEST PUSH1 0x40 DUP4 ADD MSTORE JUMP JUMPDEST ADD MSTORE JUMP JUMPDEST CALLVALUE PUSH2 0x166 JUMPI PUSH2 0x1A8 PUSH2 0xB10 PUSH2 0xB0B CALLDATASIZE PUSH1 0x4 PUSH2 0x336 JUMP JUMPDEST PUSH2 0xA75 JUMP JUMPDEST SWAP1 PUSH2 0xB1D SWAP5 SWAP3 SWAP5 PUSH1 0x40 MLOAD SWAP1 JUMP JUMPDEST SWAP5 DUP6 SWAP5 DUP6 PUSH2 0xAC1 JUMP JUMPDEST CALLVALUE PUSH2 0x166 JUMPI PUSH2 0xB36 CALLDATASIZE PUSH1 0x4 PUSH2 0x16B JUMP JUMPDEST PUSH2 0x1A8 PUSH2 0x197 PUSH2 0x223F JUMP JUMPDEST CALLVALUE PUSH2 0x166 JUMPI PUSH2 0x7ED PUSH2 0xB54 CALLDATASIZE PUSH1 0x4 PUSH2 0x336 JUMP JUMPDEST PUSH2 0x2635 JUMP JUMPDEST SWAP1 PUSH1 0x20 DUP3 DUP3 SUB SLT PUSH2 0x166 JUMPI PUSH2 0x1B7 SWAP2 PUSH2 0x6AA JUMP JUMPDEST CALLVALUE PUSH2 0x166 JUMPI PUSH2 0x1A8 PUSH2 0xA2B PUSH2 0xB83 CALLDATASIZE PUSH1 0x4 PUSH2 0xB59 JUMP JUMPDEST PUSH2 0x27B7 JUMP JUMPDEST PUSH1 0x20 DUP2 ADD SWAP3 SWAP2 PUSH2 0x17A SWAP2 SWAP1 PUSH2 0x5AE JUMP JUMPDEST CALLVALUE PUSH2 0x166 JUMPI PUSH2 0xBA8 CALLDATASIZE PUSH1 0x4 PUSH2 0x16B JUMP JUMPDEST PUSH2 0x1A8 PUSH32 0x0 JUMPDEST PUSH1 0x40 MLOAD SWAP2 DUP3 SWAP2 DUP3 PUSH2 0xB88 JUMP JUMPDEST CALLVALUE PUSH2 0x166 JUMPI PUSH2 0x7ED PUSH2 0xBEC CALLDATASIZE PUSH1 0x4 PUSH2 0x336 JUMP JUMPDEST PUSH2 0x2C6E JUMP JUMPDEST SWAP1 PUSH2 0xBFD PUSH2 0x99F DUP4 MLOAD SWAP1 JUMP JUMPDEST SWAP1 DUP2 PUSH2 0xC0F PUSH1 0x20 DUP4 MUL DUP5 ADD SWAP5 PUSH1 0x20 ADD SWAP1 JUMP JUMPDEST SWAP3 PUSH1 0x0 SWAP2 JUMPDEST DUP4 DUP4 LT PUSH2 0xC23 JUMPI POP POP POP POP POP SWAP1 JUMP JUMPDEST SWAP1 SWAP2 SWAP3 SWAP4 SWAP5 PUSH1 0x20 PUSH2 0xC3F PUSH2 0x9EB DUP4 DUP6 PUSH1 0x1 SWAP6 SUB DUP8 MSTORE DUP10 MLOAD PUSH2 0x989 JUMP JUMPDEST SWAP4 ADD SWAP4 ADD SWAP2 SWAP4 SWAP3 SWAP1 PUSH2 0xC14 JUMP JUMPDEST SWAP1 PUSH2 0x1B7 SWAP1 PUSH2 0x1C0 DUP1 PUSH2 0xD48 PUSH2 0xCC3 PUSH2 0xCB1 PUSH2 0xC9F PUSH2 0xC7B PUSH2 0x1E0 DUP9 ADD PUSH1 0x0 DUP12 ADD MLOAD DUP10 DUP3 SUB PUSH1 0x0 DUP12 ADD MSTORE PUSH2 0x57A JUMP JUMPDEST PUSH2 0xC8D PUSH1 0x20 DUP12 ADD MLOAD PUSH1 0x20 DUP11 ADD SWAP1 PUSH2 0x5AE JUMP JUMPDEST PUSH1 0x40 DUP11 ADD MLOAD DUP9 DUP3 SUB PUSH1 0x40 DUP11 ADD MSTORE PUSH2 0x57A JUMP JUMPDEST PUSH1 0x60 DUP10 ADD MLOAD DUP8 DUP3 SUB PUSH1 0x60 DUP10 ADD MSTORE PUSH2 0x57A JUMP JUMPDEST PUSH1 0x80 DUP9 ADD MLOAD DUP7 DUP3 SUB PUSH1 0x80 DUP9 ADD MSTORE PUSH2 0x57A JUMP JUMPDEST PUSH2 0xCD2 PUSH1 0xA0 DUP9 ADD MLOAD PUSH1 0xA0 DUP8 ADD MSTORE JUMP JUMPDEST PUSH2 0xCE1 PUSH1 0xC0 DUP9 ADD MLOAD PUSH1 0xC0 DUP8 ADD MSTORE JUMP JUMPDEST PUSH2 0xCF0 PUSH1 0xE0 DUP9 ADD MLOAD PUSH1 0xE0 DUP8 ADD MSTORE JUMP JUMPDEST PUSH2 0xD01 PUSH2 0x100 DUP9 ADD MLOAD PUSH2 0x100 DUP8 ADD MSTORE JUMP JUMPDEST PUSH2 0xD12 PUSH2 0x120 DUP9 ADD MLOAD PUSH2 0x120 DUP8 ADD MSTORE JUMP JUMPDEST PUSH2 0xD23 PUSH2 0x140 DUP9 ADD MLOAD PUSH2 0x140 DUP8 ADD MSTORE JUMP JUMPDEST PUSH2 0xD34 PUSH2 0x160 DUP9 ADD MLOAD PUSH2 0x160 DUP8 ADD MSTORE JUMP JUMPDEST PUSH2 0x180 DUP8 ADD MLOAD DUP6 DUP3 SUB PUSH2 0x180 DUP8 ADD MSTORE PUSH2 0xBF1 JUMP JUMPDEST SWAP5 PUSH2 0xD5A PUSH2 0x1A0 DUP3 ADD MLOAD PUSH2 0x1A0 DUP7 ADD MSTORE JUMP JUMPDEST ADD MLOAD ISZERO ISZERO SWAP2 ADD MSTORE JUMP JUMPDEST SWAP1 PUSH2 0x1B7 SWAP2 PUSH2 0xC4C JUMP JUMPDEST SWAP1 PUSH2 0xD79 PUSH2 0x99F DUP4 MLOAD SWAP1 JUMP JUMPDEST SWAP1 DUP2 PUSH2 0xD8B PUSH1 0x20 DUP4 MUL DUP5 ADD SWAP5 PUSH1 0x20 ADD SWAP1 JUMP JUMPDEST SWAP3 PUSH1 0x0 SWAP2 JUMPDEST DUP4 DUP4 LT PUSH2 0xD9F JUMPI POP POP POP POP POP SWAP1 JUMP JUMPDEST SWAP1 SWAP2 SWAP3 SWAP4 SWAP5 PUSH1 0x20 PUSH2 0xDBB PUSH2 0x9EB DUP4 DUP6 PUSH1 0x1 SWAP6 SUB DUP8 MSTORE DUP10 MLOAD PUSH2 0xD63 JUMP JUMPDEST SWAP4 ADD SWAP4 ADD SWAP2 SWAP4 SWAP3 SWAP1 PUSH2 0xD90 JUMP JUMPDEST PUSH1 0x20 DUP1 DUP3 MSTORE PUSH2 0x1B7 SWAP3 SWAP2 ADD SWAP1 PUSH2 0xD6D JUMP JUMPDEST CALLVALUE PUSH2 0x166 JUMPI PUSH2 0xDE9 CALLDATASIZE PUSH1 0x4 PUSH2 0x16B JUMP JUMPDEST PUSH2 0x1A8 PUSH2 0xDF4 PUSH2 0x2ED9 JUMP JUMPDEST PUSH1 0x40 MLOAD SWAP2 DUP3 SWAP2 DUP3 PUSH2 0xDC8 JUMP JUMPDEST CALLVALUE PUSH2 0x166 JUMPI PUSH2 0xE10 CALLDATASIZE PUSH1 0x4 PUSH2 0x16B JUMP JUMPDEST PUSH2 0x1A8 PUSH32 0x0 PUSH2 0xBCD JUMP JUMPDEST PUSH2 0x1B7 SWAP1 PUSH2 0x463 SWAP1 PUSH1 0x1 PUSH1 0x1 PUSH1 0xA0 SHL SUB AND DUP3 JUMP JUMPDEST PUSH2 0x1B7 SWAP1 PUSH2 0xE39 JUMP JUMPDEST PUSH2 0x1B7 SWAP1 PUSH2 0xE4D JUMP JUMPDEST PUSH2 0x176 SWAP1 PUSH2 0xE56 JUMP JUMPDEST PUSH1 0x20 DUP2 ADD SWAP3 SWAP2 PUSH2 0x17A SWAP2 SWAP1 PUSH2 0xE5F JUMP JUMPDEST CALLVALUE PUSH2 0x166 JUMPI PUSH2 0xE88 CALLDATASIZE PUSH1 0x4 PUSH2 0x16B JUMP JUMPDEST PUSH1 0x40 MLOAD DUP1 PUSH2 0x1A8 PUSH32 0x0 DUP3 PUSH2 0xE68 JUMP JUMPDEST CALLVALUE PUSH2 0x166 JUMPI PUSH2 0x1A8 PUSH2 0x197 PUSH2 0xECC CALLDATASIZE PUSH1 0x4 PUSH2 0x336 JUMP JUMPDEST PUSH2 0x2F5A JUMP JUMPDEST CALLVALUE PUSH2 0x166 JUMPI PUSH2 0x7ED PUSH2 0xEE4 CALLDATASIZE PUSH1 0x4 PUSH2 0x7B8 JUMP JUMPDEST SWAP1 PUSH2 0x3029 JUMP JUMPDEST SWAP1 POP MLOAD SWAP1 PUSH2 0x17A DUP3 PUSH2 0x1EC JUMP JUMPDEST SWAP1 PUSH1 0x20 DUP3 DUP3 SUB SLT PUSH2 0x166 JUMPI PUSH2 0x1B7 SWAP2 PUSH2 0xEEA JUMP JUMPDEST PUSH1 0x40 MLOAD RETURNDATASIZE PUSH1 0x0 DUP3 RETURNDATACOPY RETURNDATASIZE SWAP1 REVERT JUMPDEST PUSH2 0xF7A PUSH1 0x20 PUSH2 0xF4D PUSH2 0xF48 PUSH32 0x0 PUSH2 0xE56 JUMP JUMPDEST PUSH2 0xE56 JUMP JUMPDEST PUSH2 0xF56 ADDRESS PUSH2 0xE56 JUMP JUMPDEST SWAP1 PUSH2 0xF60 PUSH1 0x40 MLOAD SWAP1 JUMP JUMPDEST SWAP4 DUP5 SWAP3 DUP4 SWAP2 DUP3 SWAP2 PUSH4 0x70A08231 PUSH1 0xE0 SHL DUP4 MSTORE PUSH1 0x4 DUP4 ADD PUSH2 0xB88 JUMP JUMPDEST SUB SWAP2 GAS STATICCALL SWAP1 DUP2 ISZERO PUSH2 0xFB9 JUMPI PUSH1 0x0 SWAP2 PUSH2 0xF90 JUMPI POP SWAP1 JUMP JUMPDEST PUSH2 0x1B7 SWAP2 POP PUSH1 0x20 RETURNDATASIZE PUSH1 0x20 GT PUSH2 0xFB2 JUMPI JUMPDEST PUSH2 0xFAA DUP2 DUP4 PUSH2 0x218 JUMP JUMPDEST DUP2 ADD SWAP1 PUSH2 0xEF7 JUMP JUMPDEST POP RETURNDATASIZE PUSH2 0xFA0 JUMP JUMPDEST PUSH2 0xF0B JUMP JUMPDEST SWAP1 PUSH2 0xFD2 SWAP4 SWAP3 SWAP2 PUSH2 0xFCD PUSH2 0x309A JUMP JUMPDEST PUSH2 0x148A JUMP JUMPDEST SWAP1 PUSH2 0x17A PUSH2 0x30DA JUMP JUMPDEST PUSH1 0x20 DUP1 DUP3 MSTORE PUSH1 0x13 SWAP1 DUP3 ADD MSTORE PUSH19 0x125B9D985B1A590818D85B5C185A59DB881251 PUSH1 0x6A SHL PUSH1 0x40 DUP3 ADD MSTORE PUSH1 0x60 ADD SWAP1 JUMP JUMPDEST ISZERO PUSH2 0x100F JUMPI JUMP JUMPDEST PUSH1 0x40 MLOAD PUSH3 0x461BCD PUSH1 0xE5 SHL DUP2 MSTORE DUP1 PUSH2 0x1028 PUSH1 0x4 DUP3 ADD PUSH2 0xFDB JUMP JUMPDEST SUB SWAP1 REVERT JUMPDEST PUSH1 0x20 DUP1 DUP3 MSTORE PUSH1 0x22 SWAP1 DUP3 ADD MSTORE PUSH32 0x446F6E6174696F6E206D7573742062652067726561746572207468616E207A65 PUSH1 0x40 DUP3 ADD MSTORE PUSH2 0x726F PUSH1 0xF0 SHL PUSH1 0x60 DUP3 ADD MSTORE PUSH1 0x80 ADD SWAP1 JUMP JUMPDEST ISZERO PUSH2 0x1075 JUMPI JUMP JUMPDEST PUSH1 0x40 MLOAD PUSH3 0x461BCD PUSH1 0xE5 SHL DUP2 MSTORE DUP1 PUSH2 0x1028 PUSH1 0x4 DUP3 ADD PUSH2 0x102C JUMP JUMPDEST PUSH1 0x20 DUP1 DUP3 MSTORE PUSH1 0x13 SWAP1 DUP3 ADD MSTORE PUSH19 0x43616D706169676E2069732050656E64696E67 PUSH1 0x68 SHL PUSH1 0x40 DUP3 ADD MSTORE PUSH1 0x60 ADD SWAP1 JUMP JUMPDEST ISZERO PUSH2 0x10C2 JUMPI JUMP JUMPDEST PUSH1 0x40 MLOAD PUSH3 0x461BCD PUSH1 0xE5 SHL DUP2 MSTORE DUP1 PUSH2 0x1028 PUSH1 0x4 DUP3 ADD PUSH2 0x108E JUMP JUMPDEST PUSH1 0x20 DUP1 DUP3 MSTORE PUSH1 0x12 SWAP1 DUP3 ADD MSTORE PUSH18 0x10D85B5C185A59DB881A185CC8195B991959 PUSH1 0x72 SHL PUSH1 0x40 DUP3 ADD MSTORE PUSH1 0x60 ADD SWAP1 JUMP JUMPDEST ISZERO PUSH2 0x110E JUMPI JUMP JUMPDEST PUSH1 0x40 MLOAD PUSH3 0x461BCD PUSH1 0xE5 SHL DUP2 MSTORE DUP1 PUSH2 0x1028 PUSH1 0x4 DUP3 ADD PUSH2 0x10DB JUMP JUMPDEST PUSH2 0x1B7 PUSH1 0xC0 PUSH2 0x23F JUMP JUMPDEST SWAP1 PUSH2 0x176 SWAP1 PUSH2 0x463 JUMP JUMPDEST DUP1 SLOAD DUP3 LT ISZERO PUSH2 0xA70 JUMPI PUSH2 0xA67 PUSH1 0x6 SWAP2 PUSH1 0x0 MSTORE PUSH1 0x20 PUSH1 0x0 KECCAK256 SWAP1 JUMP JUMPDEST PUSH4 0x4E487B71 PUSH1 0xE0 SHL PUSH1 0x0 MSTORE PUSH1 0x0 PUSH1 0x4 MSTORE PUSH1 0x24 PUSH1 0x0 REVERT JUMPDEST PUSH2 0x1B7 SWAP1 MLOAD PUSH2 0x463 JUMP JUMPDEST SWAP1 PUSH1 0x1 PUSH1 0x1 PUSH1 0xA0 SHL SUB SWAP1 JUMPDEST SWAP2 DUP2 NOT AND SWAP2 AND OR SWAP1 JUMP JUMPDEST SWAP1 PUSH2 0x119A PUSH2 0x1B7 PUSH2 0x11A1 SWAP3 PUSH2 0xE56 JUMP JUMPDEST DUP3 SLOAD PUSH2 0x1175 JUMP JUMPDEST SWAP1 SSTORE JUMP JUMPDEST SWAP2 PUSH1 0x0 NOT PUSH1 0x8 SWAP3 SWAP1 SWAP3 MUL SWAP2 DUP3 SHL SWAP2 SHL PUSH2 0x1180 JUMP JUMPDEST SWAP2 SWAP1 PUSH2 0x11CA PUSH2 0x1B7 PUSH2 0x11A1 SWAP4 PUSH2 0x34A JUMP JUMPDEST SWAP1 DUP4 SLOAD PUSH2 0x11A5 JUMP JUMPDEST PUSH2 0x17A SWAP2 PUSH1 0x0 SWAP2 PUSH2 0x11B9 JUMP JUMPDEST DUP2 DUP2 LT PUSH2 0x11E9 JUMPI POP POP JUMP JUMPDEST DUP1 PUSH2 0x11F7 PUSH1 0x0 PUSH1 0x1 SWAP4 PUSH2 0x11D2 JUMP JUMPDEST ADD PUSH2 0x11DE JUMP JUMPDEST SWAP2 SWAP1 PUSH1 0x1F DUP2 GT PUSH2 0x120C JUMPI POP POP POP JUMP JUMPDEST PUSH2 0x121E PUSH2 0x17A SWAP4 PUSH1 0x0 MSTORE PUSH1 0x20 PUSH1 0x0 KECCAK256 SWAP1 JUMP JUMPDEST SWAP1 PUSH1 0x20 PUSH1 0x1F DUP5 ADD DUP2 SWAP1 DIV DUP4 ADD SWAP4 LT PUSH2 0x1241 JUMPI JUMPDEST PUSH1 0x20 PUSH1 0x1F SWAP1 SWAP2 ADD DIV JUMPDEST ADD SWAP1 PUSH2 0x11DE JUMP JUMPDEST SWAP1 SWAP2 POP DUP2 SWAP1 PUSH2 0x1231 JUMP JUMPDEST PUSH1 0x0 NOT PUSH1 0x8 DUP4 MUL SHR NOT AND SWAP1 PUSH1 0x2 MUL OR SWAP1 JUMP JUMPDEST SWAP1 PUSH2 0x1266 DUP2 MLOAD SWAP1 JUMP JUMPDEST SWAP1 PUSH8 0xFFFFFFFFFFFFFFFF DUP3 GT PUSH2 0x23A JUMPI PUSH2 0x128A DUP3 PUSH2 0x1284 DUP6 SLOAD PUSH2 0x385 JUMP JUMPDEST DUP6 PUSH2 0x11FD JUMP JUMPDEST PUSH1 0x20 SWAP1 PUSH1 0x1F DUP4 GT PUSH1 0x1 EQ PUSH2 0x12B8 JUMPI PUSH2 0x11A1 SWAP3 SWAP2 PUSH1 0x0 SWAP2 DUP4 PUSH2 0x12AD JUMPI JUMPDEST POP POP PUSH2 0x124B JUMP JUMPDEST ADD MLOAD SWAP1 POP CODESIZE DUP1 PUSH2 0x12A6 JUMP JUMPDEST PUSH1 0x1F NOT DUP4 AND SWAP2 PUSH2 0x12CD DUP6 PUSH1 0x0 MSTORE PUSH1 0x20 PUSH1 0x0 KECCAK256 SWAP1 JUMP JUMPDEST SWAP3 PUSH1 0x0 JUMPDEST DUP2 DUP2 LT PUSH2 0x130B JUMPI POP SWAP2 PUSH1 0x2 SWAP4 SWAP2 DUP6 PUSH1 0x1 SWAP7 SWAP5 LT PUSH2 0x12F2 JUMPI JUMPDEST POP POP POP MUL ADD SWAP1 SSTORE JUMP JUMPDEST ADD MLOAD PUSH1 0x0 NOT PUSH1 0x8 PUSH1 0x1F DUP6 AND MUL SHR NOT AND SWAP1 SSTORE CODESIZE DUP1 DUP1 PUSH2 0x12E9 JUMP JUMPDEST SWAP2 SWAP4 PUSH1 0x20 PUSH1 0x1 DUP2 SWAP3 DUP8 DUP8 ADD MLOAD DUP2 SSTORE ADD SWAP6 ADD SWAP3 ADD PUSH2 0x12D1 JUMP JUMPDEST SWAP1 PUSH2 0x17A SWAP2 PUSH2 0x125D JUMP JUMPDEST MLOAD SWAP1 JUMP JUMPDEST SWAP1 PUSH1 0x0 NOT SWAP1 PUSH2 0x1180 JUMP JUMPDEST SWAP1 PUSH2 0x134B PUSH2 0x1B7 PUSH2 0x11A1 SWAP3 PUSH2 0x34A JUMP JUMPDEST DUP3 SLOAD PUSH2 0x1331 JUMP JUMPDEST PUSH1 0x5 PUSH2 0x13D6 PUSH1 0xA0 PUSH2 0x17A SWAP5 PUSH2 0x1372 PUSH2 0x136C PUSH1 0x0 DUP4 ADD PUSH2 0x116B JUMP JUMPDEST DUP7 PUSH2 0x118A JUMP JUMPDEST PUSH2 0x1389 PUSH2 0x1380 PUSH1 0x20 DUP4 ADD MLOAD SWAP1 JUMP JUMPDEST PUSH1 0x1 DUP8 ADD PUSH2 0x1323 JUMP JUMPDEST PUSH2 0x13A0 PUSH2 0x1397 PUSH1 0x40 DUP4 ADD MLOAD SWAP1 JUMP JUMPDEST PUSH1 0x2 DUP8 ADD PUSH2 0x1323 JUMP JUMPDEST PUSH2 0x13B8 PUSH2 0x13AF PUSH1 0x60 DUP4 ADD PUSH2 0x132D JUMP JUMPDEST PUSH1 0x3 DUP8 ADD PUSH2 0x133B JUMP JUMPDEST PUSH2 0x13D0 PUSH2 0x13C7 PUSH1 0x80 DUP4 ADD PUSH2 0x132D JUMP JUMPDEST PUSH1 0x4 DUP8 ADD PUSH2 0x133B JUMP JUMPDEST ADD PUSH2 0x132D JUMP JUMPDEST SWAP2 ADD PUSH2 0x133B JUMP JUMPDEST SWAP2 SWAP1 PUSH2 0x13EC JUMPI PUSH2 0x17A SWAP2 PUSH2 0x1352 JUMP JUMPDEST PUSH2 0x1155 JUMP JUMPDEST SWAP1 DUP2 SLOAD SWAP2 PUSH1 0x1 PUSH1 0x40 SHL DUP4 LT ISZERO PUSH2 0x23A JUMPI DUP3 PUSH2 0x1414 SWAP2 PUSH1 0x1 PUSH2 0x17A SWAP6 ADD DUP2 SSTORE PUSH2 0x113B JUMP JUMPDEST SWAP1 PUSH2 0x13DD JUMP JUMPDEST PUSH4 0x4E487B71 PUSH1 0xE0 SHL PUSH1 0x0 MSTORE PUSH1 0x11 PUSH1 0x4 MSTORE PUSH1 0x24 PUSH1 0x0 REVERT JUMPDEST SWAP2 SWAP1 DUP3 ADD DUP1 SWAP3 GT PUSH2 0x143D JUMPI JUMP JUMPDEST PUSH2 0x141A JUMP JUMPDEST SWAP1 PUSH2 0x17A SWAP5 PUSH2 0x1483 PUSH2 0x147B PUSH1 0x80 SWAP6 PUSH2 0x146D PUSH2 0xAF1 SWAP6 SWAP12 SWAP11 SWAP9 SWAP12 PUSH1 0xA0 DUP9 ADD SWAP1 DUP9 DUP3 SUB PUSH1 0x0 DUP11 ADD MSTORE PUSH2 0x57A JUMP JUMPDEST SWAP1 DUP7 DUP3 SUB PUSH1 0x20 DUP9 ADD MSTORE PUSH2 0x57A JUMP JUMPDEST SWAP9 PUSH1 0x40 DUP6 ADD MSTORE JUMP JUMPDEST PUSH1 0x60 DUP4 ADD MSTORE JUMP JUMPDEST PUSH1 0x9 SWAP4 SWAP3 SWAP2 PUSH32 0x84038083661AB3698BFE2B1202FA65E8FD987CEF13606F396BE72C1685B8172C SWAP2 POP PUSH2 0x14C9 PUSH2 0x14C2 PUSH2 0x1B7 PUSH1 0x2 PUSH2 0x480 JUMP JUMPDEST DUP3 LT PUSH2 0x1008 JUMP JUMPDEST PUSH2 0x14DD PUSH2 0x14D6 PUSH1 0x0 PUSH2 0x34A JUMP JUMPDEST CALLVALUE GT PUSH2 0x106E JUMP JUMPDEST PUSH2 0x15CC PUSH2 0x14EE PUSH2 0x1B7 DUP4 PUSH1 0x1 PUSH2 0x357 JUMP JUMPDEST SWAP2 PUSH2 0x1516 PUSH2 0x14FE PUSH1 0xA DUP6 ADD PUSH2 0x480 JUMP JUMPDEST PUSH2 0x150F PUSH2 0x150B PUSH1 0x0 PUSH2 0x34A JUMP JUMPDEST SWAP2 SWAP1 JUMP JUMPDEST EQ ISZERO PUSH2 0x10BB JUMP JUMPDEST PUSH2 0x152F PUSH2 0x1528 PUSH2 0x1B7 PUSH1 0x7 DUP7 ADD PUSH2 0x480 JUMP JUMPDEST TIMESTAMP LT PUSH2 0x1107 JUMP JUMPDEST PUSH2 0x15C7 PUSH2 0x153B CALLVALUE PUSH2 0x31E9 JUMP JUMPDEST SWAP8 DUP9 SWAP5 PUSH2 0x1594 PUSH1 0xC DUP3 ADD PUSH2 0x154D PUSH2 0x1127 JUMP JUMPDEST SWAP1 PUSH2 0x1558 CALLER DUP4 PUSH2 0x1131 JUMP JUMPDEST PUSH2 0x1563 DUP12 PUSH1 0x20 DUP5 ADD MSTORE JUMP JUMPDEST PUSH2 0x156E DUP13 PUSH1 0x40 DUP5 ADD MSTORE JUMP JUMPDEST PUSH2 0x1579 CALLVALUE PUSH1 0x60 DUP5 ADD MSTORE JUMP JUMPDEST PUSH2 0x1584 DUP10 PUSH1 0x80 DUP5 ADD MSTORE JUMP JUMPDEST PUSH2 0x158F TIMESTAMP PUSH1 0xA0 DUP5 ADD MSTORE JUMP JUMPDEST PUSH2 0x13F1 JUMP JUMPDEST PUSH2 0x15B4 PUSH1 0x8 DUP3 ADD PUSH2 0x15AE PUSH2 0x15A7 DUP3 PUSH2 0x480 JUMP JUMPDEST CALLVALUE SWAP1 PUSH2 0x1430 JUMP JUMPDEST SWAP1 PUSH2 0x133B JUMP JUMPDEST ADD PUSH2 0x15AE DUP6 PUSH2 0x15C2 DUP4 PUSH2 0x480 JUMP JUMPDEST PUSH2 0x1430 JUMP JUMPDEST PUSH2 0x34A JUMP JUMPDEST SWAP3 PUSH2 0x15F0 PUSH2 0x15D9 CALLER PUSH2 0xE56 JUMP JUMPDEST SWAP6 PUSH2 0x15E3 PUSH1 0x40 MLOAD SWAP1 JUMP JUMPDEST SWAP4 DUP5 SWAP4 TIMESTAMP SWAP3 CALLVALUE SWAP2 DUP7 PUSH2 0x1442 JUMP JUMPDEST SUB SWAP1 LOG3 SWAP1 JUMP JUMPDEST PUSH2 0x1B7 SWAP3 SWAP2 SWAP1 PUSH1 0x0 PUSH2 0xFBE JUMP JUMPDEST PUSH1 0x20 DUP1 DUP3 MSTORE PUSH1 0x14 SWAP1 DUP3 ADD MSTORE PUSH20 0x4E616D652063616E6E6F7420626520656D707479 PUSH1 0x60 SHL PUSH1 0x40 DUP3 ADD MSTORE PUSH1 0x60 ADD SWAP1 JUMP JUMPDEST ISZERO PUSH2 0x1638 JUMPI JUMP JUMPDEST PUSH1 0x40 MLOAD PUSH3 0x461BCD PUSH1 0xE5 SHL DUP2 MSTORE DUP1 PUSH2 0x1028 PUSH1 0x4 DUP3 ADD PUSH2 0x1603 JUMP JUMPDEST PUSH2 0x463 PUSH2 0x1B7 PUSH2 0x1B7 SWAP3 SWAP1 JUMP JUMPDEST PUSH2 0x1B7 SWAP1 PUSH2 0x1651 JUMP JUMPDEST PUSH1 0x20 DUP1 DUP3 MSTORE PUSH1 0x15 SWAP1 DUP3 ADD MSTORE PUSH21 0x496E76616C6964206F776E65722061646472657373 PUSH1 0x58 SHL PUSH1 0x40 DUP3 ADD MSTORE PUSH1 0x60 ADD SWAP1 JUMP JUMPDEST ISZERO PUSH2 0x169D JUMPI JUMP JUMPDEST PUSH1 0x40 MLOAD PUSH3 0x461BCD PUSH1 0xE5 SHL DUP2 MSTORE DUP1 PUSH2 0x1028 PUSH1 0x4 DUP3 ADD PUSH2 0x1667 JUMP JUMPDEST PUSH1 0x20 DUP1 DUP3 MSTORE PUSH1 0x15 SWAP1 DUP3 ADD MSTORE PUSH21 0x5469746C652063616E6E6F7420626520656D707479 PUSH1 0x58 SHL PUSH1 0x40 DUP3 ADD MSTORE PUSH1 0x60 ADD SWAP1 JUMP JUMPDEST ISZERO PUSH2 0x16EC JUMPI JUMP JUMPDEST PUSH1 0x40 MLOAD PUSH3 0x461BCD PUSH1 0xE5 SHL DUP2 MSTORE DUP1 PUSH2 0x1028 PUSH1 0x4 DUP3 ADD PUSH2 0x16B6 JUMP JUMPDEST PUSH1 0x20 DUP1 DUP3 MSTORE PUSH1 0x1B SWAP1 DUP3 ADD MSTORE PUSH32 0x4465736372697074696F6E2063616E6E6F7420626520656D7074790000000000 PUSH1 0x40 DUP3 ADD MSTORE PUSH1 0x60 ADD SWAP1 JUMP JUMPDEST ISZERO PUSH2 0x1743 JUMPI JUMP JUMPDEST PUSH1 0x40 MLOAD PUSH3 0x461BCD PUSH1 0xE5 SHL DUP2 MSTORE DUP1 PUSH2 0x1028 PUSH1 0x4 DUP3 ADD PUSH2 0x1705 JUMP JUMPDEST PUSH1 0x20 DUP1 DUP3 MSTORE PUSH1 0x18 SWAP1 DUP3 ADD MSTORE PUSH32 0x43617465676F72792063616E6E6F7420626520656D7074790000000000000000 PUSH1 0x40 DUP3 ADD MSTORE PUSH1 0x60 ADD SWAP1 JUMP JUMPDEST ISZERO PUSH2 0x179A JUMPI JUMP JUMPDEST PUSH1 0x40 MLOAD PUSH3 0x461BCD PUSH1 0xE5 SHL DUP2 MSTORE DUP1 PUSH2 0x1028 PUSH1 0x4 DUP3 ADD PUSH2 0x175C JUMP JUMPDEST PUSH1 0x20 DUP1 DUP3 MSTORE PUSH1 0x1D SWAP1 DUP3 ADD MSTORE PUSH32 0x546172676574206D7573742062652067726561746572207468616E2030000000 PUSH1 0x40 DUP3 ADD MSTORE PUSH1 0x60 ADD SWAP1 JUMP JUMPDEST ISZERO PUSH2 0x17F1 JUMPI JUMP JUMPDEST PUSH1 0x40 MLOAD PUSH3 0x461BCD PUSH1 0xE5 SHL DUP2 MSTORE DUP1 PUSH2 0x1028 PUSH1 0x4 DUP3 ADD PUSH2 0x17B3 JUMP JUMPDEST PUSH1 0x20 DUP1 DUP3 MSTORE PUSH1 0x1E SWAP1 DUP3 ADD MSTORE PUSH32 0x446561646C696E65206D75737420626520696E20746865206675747572650000 PUSH1 0x40 DUP3 ADD MSTORE PUSH1 0x60 ADD SWAP1 JUMP JUMPDEST ISZERO PUSH2 0x1848 JUMPI JUMP JUMPDEST PUSH1 0x40 MLOAD PUSH3 0x461BCD PUSH1 0xE5 SHL DUP2 MSTORE DUP1 PUSH2 0x1028 PUSH1 0x4 DUP3 ADD PUSH2 0x180A JUMP JUMPDEST SWAP1 DUP2 MSTORE PUSH1 0x60 DUP2 ADD SWAP4 SWAP3 PUSH2 0x17A SWAP3 SWAP1 SWAP2 PUSH1 0x40 SWAP2 PUSH2 0xAF1 SWAP1 JUMPDEST PUSH1 0x20 DUP4 ADD MSTORE JUMP JUMPDEST PUSH1 0x0 NOT DUP2 EQ PUSH2 0x143D JUMPI PUSH1 0x1 ADD SWAP1 JUMP JUMPDEST SWAP2 SWAP1 DUP3 SUB SWAP2 DUP3 GT PUSH2 0x143D JUMPI JUMP JUMPDEST SWAP1 SWAP5 SWAP4 SWAP1 SWAP3 DUP4 MLOAD SWAP3 PUSH1 0x0 SWAP4 PUSH2 0x18AF DUP6 PUSH2 0x34A JUMP JUMPDEST LT PUSH2 0x18B9 SWAP1 PUSH2 0x1631 JUMP JUMPDEST PUSH2 0x18C2 DUP5 PUSH2 0x165E JUMP JUMPDEST PUSH2 0x18CB SWAP1 PUSH2 0x463 JUMP JUMPDEST PUSH2 0x18D4 DUP9 PUSH2 0x463 JUMP JUMPDEST EQ ISZERO PUSH2 0x18DF SWAP1 PUSH2 0x1696 JUMP JUMPDEST DUP1 MLOAD PUSH2 0x18EA DUP6 PUSH2 0x34A JUMP JUMPDEST LT PUSH2 0x18F4 SWAP1 PUSH2 0x16E5 JUMP JUMPDEST DUP2 MLOAD PUSH2 0x18FF DUP6 PUSH2 0x34A JUMP JUMPDEST LT PUSH2 0x1909 SWAP1 PUSH2 0x173C JUMP JUMPDEST DUP3 MLOAD PUSH2 0x1914 DUP6 PUSH2 0x34A JUMP JUMPDEST LT PUSH2 0x191E SWAP1 PUSH2 0x1793 JUMP JUMPDEST PUSH2 0x1927 DUP5 PUSH2 0x34A JUMP JUMPDEST DUP7 GT PUSH2 0x1932 SWAP1 PUSH2 0x17EA JUMP JUMPDEST PUSH2 0x193D TIMESTAMP DUP10 GT PUSH2 0x1841 JUMP JUMPDEST PUSH2 0x1947 PUSH1 0x2 PUSH2 0x480 JUMP JUMPDEST PUSH2 0x1952 SWAP1 PUSH1 0x1 PUSH2 0x357 JUMP JUMPDEST SWAP5 PUSH2 0x1960 DUP9 PUSH1 0x1 DUP9 ADD PUSH2 0x118A JUMP JUMPDEST PUSH2 0x196C SWAP1 DUP7 DUP7 ADD PUSH2 0x1323 JUMP JUMPDEST PUSH2 0x1979 SWAP1 PUSH1 0x3 DUP7 ADD PUSH2 0x1323 JUMP JUMPDEST PUSH2 0x1986 SWAP1 PUSH1 0x4 DUP6 ADD PUSH2 0x1323 JUMP JUMPDEST PUSH2 0x1993 SWAP1 PUSH1 0x2 DUP5 ADD PUSH2 0x1323 JUMP JUMPDEST PUSH2 0x19A0 DUP4 PUSH1 0x6 DUP5 ADD PUSH2 0x133B JUMP JUMPDEST PUSH2 0x19AD DUP6 PUSH1 0x7 DUP5 ADD PUSH2 0x133B JUMP JUMPDEST PUSH2 0x19B6 SWAP1 PUSH2 0x34A JUMP JUMPDEST PUSH2 0x19C3 DUP2 PUSH1 0x8 DUP5 ADD PUSH2 0x133B JUMP JUMPDEST PUSH2 0x19D0 DUP2 PUSH1 0x9 DUP5 ADD PUSH2 0x133B JUMP JUMPDEST PUSH2 0x19DD SWAP1 PUSH1 0xA DUP4 ADD PUSH2 0x133B JUMP JUMPDEST PUSH2 0x19E7 PUSH1 0x2 PUSH2 0x480 JUMP JUMPDEST PUSH2 0x19F4 SWAP1 PUSH1 0x5 DUP4 ADD PUSH2 0x133B JUMP JUMPDEST PUSH2 0x1A02 SWAP1 TIMESTAMP SWAP1 PUSH1 0xB ADD PUSH2 0x133B JUMP JUMPDEST PUSH2 0x1A0C PUSH1 0x2 PUSH2 0x480 JUMP JUMPDEST PUSH2 0x1A15 SWAP1 PUSH2 0x34A JUMP JUMPDEST SWAP2 PUSH2 0x1A1F SWAP1 PUSH2 0xE56 JUMP JUMPDEST SWAP3 PUSH2 0x1A29 PUSH1 0x40 MLOAD SWAP1 JUMP JUMPDEST SWAP2 DUP3 SWAP2 TIMESTAMP SWAP1 PUSH2 0x1A38 SWAP3 DUP5 PUSH2 0x1861 JUMP JUMPDEST SUB PUSH32 0x532CE22D86C3D75E9E14507FDC84D53517C2726EDB5C97AF3C34FB362233B071 SWAP2 LOG3 PUSH2 0x1A66 PUSH1 0x2 PUSH2 0x480 JUMP JUMPDEST PUSH2 0x1A6F SWAP1 PUSH2 0x187F JUMP JUMPDEST PUSH2 0x1A7A SWAP1 PUSH1 0x2 PUSH2 0x133B JUMP JUMPDEST PUSH2 0x1A84 PUSH1 0x2 PUSH2 0x480 JUMP JUMPDEST PUSH2 0x1A8E PUSH1 0x1 PUSH2 0x34A JUMP JUMPDEST PUSH2 0x1B7 SWAP2 PUSH2 0x188E JUMP JUMPDEST SWAP1 PUSH2 0x1AA9 SWAP2 PUSH2 0x1AA4 PUSH2 0x309A JUMP JUMPDEST PUSH2 0x1D45 JUMP JUMPDEST PUSH2 0x17A PUSH2 0x30DA JUMP JUMPDEST PUSH1 0x20 DUP1 DUP3 MSTORE PUSH1 0x15 SWAP1 DUP3 ADD MSTORE PUSH21 0x496E76616C69642063616D706169676E20636F6465 PUSH1 0x58 SHL PUSH1 0x40 DUP3 ADD MSTORE PUSH1 0x60 ADD SWAP1 JUMP JUMPDEST ISZERO PUSH2 0x1AE7 JUMPI JUMP JUMPDEST PUSH1 0x40 MLOAD PUSH3 0x461BCD PUSH1 0xE5 SHL DUP2 MSTORE DUP1 PUSH2 0x1028 PUSH1 0x4 DUP3 ADD PUSH2 0x1AB1 JUMP JUMPDEST PUSH1 0x20 DUP1 DUP3 MSTORE PUSH1 0x18 SWAP1 DUP3 ADD MSTORE PUSH32 0x43616D706169676E206973206E6F74206F766572207965740000000000000000 PUSH1 0x40 DUP3 ADD MSTORE PUSH1 0x60 ADD SWAP1 JUMP JUMPDEST ISZERO PUSH2 0x1B3E JUMPI JUMP JUMPDEST PUSH1 0x40 MLOAD PUSH3 0x461BCD PUSH1 0xE5 SHL DUP2 MSTORE DUP1 PUSH2 0x1028 PUSH1 0x4 DUP3 ADD PUSH2 0x1B00 JUMP JUMPDEST PUSH1 0x20 DUP1 DUP3 MSTORE DUP2 DUP2 ADD MSTORE PUSH32 0x4F6E6C792063616D706169676E206F776E65722063616E207769746864726177 PUSH1 0x40 DUP3 ADD MSTORE PUSH1 0x60 ADD SWAP1 JUMP JUMPDEST ISZERO PUSH2 0x1B93 JUMPI JUMP JUMPDEST PUSH1 0x40 MLOAD PUSH3 0x461BCD PUSH1 0xE5 SHL DUP2 MSTORE DUP1 PUSH2 0x1028 PUSH1 0x4 DUP3 ADD PUSH2 0x1B57 JUMP JUMPDEST PUSH1 0x20 DUP1 DUP3 MSTORE PUSH1 0x12 SWAP1 DUP3 ADD MSTORE PUSH18 0x496E73756666696369656E742066756E6473 PUSH1 0x70 SHL PUSH1 0x40 DUP3 ADD MSTORE PUSH1 0x60 ADD SWAP1 JUMP JUMPDEST ISZERO PUSH2 0x1BDF JUMPI JUMP JUMPDEST PUSH1 0x40 MLOAD PUSH3 0x461BCD PUSH1 0xE5 SHL DUP2 MSTORE DUP1 PUSH2 0x1028 PUSH1 0x4 DUP3 ADD PUSH2 0x1BAC JUMP JUMPDEST DUP2 DUP2 MUL SWAP3 SWAP2 DUP2 ISZERO SWAP2 DUP5 DIV EQ OR ISZERO PUSH2 0x143D JUMPI JUMP JUMPDEST PUSH4 0x4E487B71 PUSH1 0xE0 SHL PUSH1 0x0 MSTORE PUSH1 0x12 PUSH1 0x4 MSTORE PUSH1 0x24 PUSH1 0x0 REVERT JUMPDEST DUP2 ISZERO PUSH2 0x1C2B JUMPI DIV SWAP1 JUMP JUMPDEST PUSH2 0x1C0B JUMP JUMPDEST DUP1 ISZERO ISZERO PUSH2 0x1EE JUMP JUMPDEST SWAP1 POP MLOAD SWAP1 PUSH2 0x17A DUP3 PUSH2 0x1C30 JUMP JUMPDEST SWAP1 PUSH1 0x20 DUP3 DUP3 SUB SLT PUSH2 0x166 JUMPI PUSH2 0x1B7 SWAP2 PUSH2 0x1C38 JUMP JUMPDEST SWAP2 PUSH1 0x20 PUSH2 0x17A SWAP3 SWAP5 SWAP4 PUSH2 0xAF1 PUSH1 0x40 DUP3 ADD SWAP7 PUSH1 0x0 DUP4 ADD SWAP1 PUSH2 0x5AE JUMP JUMPDEST SWAP1 PUSH1 0xFF SWAP1 PUSH2 0x1180 JUMP JUMPDEST ISZERO ISZERO SWAP1 JUMP JUMPDEST SWAP1 PUSH2 0x1C92 PUSH2 0x1B7 PUSH2 0x11A1 SWAP3 PUSH2 0x1C7D JUMP JUMPDEST DUP3 SLOAD PUSH2 0x1C74 JUMP JUMPDEST PUSH2 0x1B7 PUSH1 0x80 PUSH2 0x23F JUMP JUMPDEST PUSH1 0x3 PUSH2 0x13D6 PUSH1 0x60 PUSH2 0x17A SWAP5 PUSH2 0x1CBD PUSH2 0x136C PUSH1 0x0 DUP4 ADD PUSH2 0x116B JUMP JUMPDEST PUSH2 0x1CD5 PUSH2 0x1CCC PUSH1 0x20 DUP4 ADD PUSH2 0x132D JUMP JUMPDEST PUSH1 0x1 DUP8 ADD PUSH2 0x133B JUMP JUMPDEST PUSH2 0x13D0 PUSH2 0x1CE4 PUSH1 0x40 DUP4 ADD PUSH2 0x132D JUMP JUMPDEST PUSH1 0x2 DUP8 ADD PUSH2 0x133B JUMP JUMPDEST SWAP2 SWAP1 PUSH2 0x13EC JUMPI PUSH2 0x17A SWAP2 PUSH2 0x1CA3 JUMP JUMPDEST SWAP1 DUP2 SLOAD SWAP2 PUSH1 0x1 PUSH1 0x40 SHL DUP4 LT ISZERO PUSH2 0x23A JUMPI DUP3 PUSH2 0x1D1F SWAP2 PUSH1 0x1 PUSH2 0x17A SWAP6 ADD DUP2 SSTORE PUSH2 0xA4D JUMP JUMPDEST SWAP1 PUSH2 0x1CED JUMP JUMPDEST PUSH1 0x40 SWAP1 PUSH2 0xAF1 PUSH2 0x17A SWAP5 SWAP7 SWAP6 SWAP4 SWAP7 PUSH2 0x1878 PUSH1 0x60 DUP5 ADD SWAP9 PUSH1 0x0 DUP6 ADD SWAP1 PUSH2 0x5AE JUMP JUMPDEST PUSH2 0x1D5C PUSH2 0x1D55 PUSH2 0x1B7 PUSH1 0x2 PUSH2 0x480 JUMP JUMPDEST DUP3 LT PUSH2 0x1AE0 JUMP JUMPDEST PUSH2 0x1D6A PUSH2 0x1B7 DUP3 PUSH1 0x1 PUSH2 0x357 JUMP JUMPDEST SWAP1 PUSH2 0x1D84 PUSH2 0x1D7D PUSH2 0x1B7 PUSH1 0x7 DUP6 ADD PUSH2 0x480 JUMP JUMPDEST TIMESTAMP GT PUSH2 0x1B37 JUMP JUMPDEST PUSH1 0x1 DUP3 ADD SWAP2 PUSH2 0x1DAC PUSH2 0x1D9D PUSH2 0x1D98 DUP6 PUSH2 0x46F JUMP JUMPDEST PUSH2 0x463 JUMP JUMPDEST PUSH2 0x1DA6 CALLER PUSH2 0x463 JUMP JUMPDEST EQ PUSH2 0x1B8C JUMP JUMPDEST PUSH2 0x1DC3 PUSH2 0x1DBB PUSH2 0x1B7 DUP5 PUSH2 0x2F5A JUMP JUMPDEST DUP6 GT ISZERO PUSH2 0x1BD8 JUMP JUMPDEST PUSH1 0xE DUP2 ADD PUSH2 0x1DD7 PUSH2 0x1DD3 DUP3 PUSH2 0x490 JUMP JUMPDEST ISZERO SWAP1 JUMP JUMPDEST PUSH2 0x1F2C JUMPI JUMPDEST POP PUSH1 0xD PUSH2 0x1DF1 SWAP2 ADD PUSH2 0x15AE DUP6 PUSH2 0x15C2 DUP4 PUSH2 0x480 JUMP JUMPDEST PUSH2 0x1E56 PUSH1 0x20 DUP5 PUSH2 0x1E23 PUSH2 0xF48 PUSH32 0x0 PUSH2 0xE56 JUMP JUMPDEST PUSH2 0x1E2C DUP7 PUSH2 0x46F JUMP JUMPDEST PUSH1 0x0 PUSH2 0x1E37 PUSH1 0x40 MLOAD SWAP1 JUMP JUMPDEST DUP1 SWAP7 DUP2 SWAP6 DUP3 SWAP5 PUSH2 0x1E4B PUSH4 0xA9059CBB PUSH1 0xE0 SHL SWAP1 JUMP JUMPDEST DUP5 MSTORE PUSH1 0x4 DUP5 ADD PUSH2 0x1C59 JUMP JUMPDEST SUB SWAP3 GAS CALL DUP1 ISZERO PUSH2 0xFB9 JUMPI PUSH32 0x887CC922C9FB6A3A66AC86CA7A5550189370DBE58CAA712BD060AD70F5328164 SWAP4 PUSH2 0x1EE2 SWAP3 PUSH2 0x1EDC SWAP3 PUSH2 0x1EFF JUMPI JUMPDEST POP PUSH2 0x1ED7 PUSH1 0x3 PUSH2 0x1E9E DUP4 PUSH2 0x46F JUMP JUMPDEST SWAP1 PUSH2 0x1EB1 PUSH2 0x1EAA PUSH2 0x1C99 JUMP JUMPDEST SWAP3 DUP4 PUSH2 0x1131 JUMP JUMPDEST PUSH2 0x1EBC DUP10 PUSH1 0x20 DUP5 ADD MSTORE JUMP JUMPDEST PUSH2 0x1EC7 DUP8 PUSH1 0x40 DUP5 ADD MSTORE JUMP JUMPDEST PUSH2 0x1ED2 TIMESTAMP PUSH1 0x60 DUP5 ADD MSTORE JUMP JUMPDEST PUSH2 0x1CFC JUMP JUMPDEST PUSH2 0x46F JUMP JUMPDEST SWAP2 PUSH2 0x34A JUMP JUMPDEST SWAP3 PUSH2 0x1EFA PUSH2 0x1EEF PUSH1 0x40 MLOAD SWAP1 JUMP JUMPDEST SWAP3 DUP4 SWAP3 TIMESTAMP SWAP2 DUP5 PUSH2 0x1D25 JUMP JUMPDEST SUB SWAP1 LOG2 JUMP JUMPDEST PUSH2 0x1F20 SWAP1 PUSH1 0x20 RETURNDATASIZE PUSH1 0x20 GT PUSH2 0x1F25 JUMPI JUMPDEST PUSH2 0x1F18 DUP2 DUP4 PUSH2 0x218 JUMP JUMPDEST DUP2 ADD SWAP1 PUSH2 0x1C45 JUMP JUMPDEST PUSH2 0x1E8F JUMP JUMPDEST POP RETURNDATASIZE PUSH2 0x1F0E JUMP JUMPDEST DUP2 PUSH2 0x1F60 PUSH2 0x1F50 PUSH2 0x1F42 PUSH1 0x9 PUSH2 0x1FB7 SWAP7 ADD PUSH2 0x480 JUMP JUMPDEST PUSH2 0x1F4A PUSH2 0x78B JUMP JUMPDEST SWAP1 PUSH2 0x1BF8 JUMP JUMPDEST PUSH2 0x1F5A PUSH1 0x64 PUSH2 0x34A JUMP JUMPDEST SWAP1 PUSH2 0x1C21 JUMP JUMPDEST PUSH1 0x20 DUP2 PUSH2 0x1F8F PUSH2 0xF48 PUSH32 0x0 PUSH2 0xE56 JUMP JUMPDEST PUSH2 0x1F98 ADDRESS PUSH2 0xE56 JUMP JUMPDEST PUSH1 0x0 PUSH2 0x1FA3 PUSH1 0x40 MLOAD SWAP1 JUMP JUMPDEST DUP1 SWAP10 DUP2 SWAP6 DUP3 SWAP5 PUSH2 0x1E4B PUSH4 0xA9059CBB PUSH1 0xE0 SHL SWAP1 JUMP JUMPDEST SUB SWAP3 GAS CALL SWAP4 DUP5 ISZERO PUSH2 0xFB9 JUMPI PUSH1 0x1 PUSH1 0xD SWAP5 PUSH2 0x1FDA SWAP3 PUSH2 0x1DF1 SWAP8 PUSH2 0x201B JUMPI JUMPDEST POP PUSH2 0x1C82 JUMP JUMPDEST PUSH32 0x93E7AAA64DB1F3164FB844C7465BE63C3D09A211E1307C3FE2A96A3F585D4415 PUSH2 0x2011 PUSH2 0x2007 DUP8 PUSH2 0x34A JUMP JUMPDEST SWAP3 PUSH2 0x19B PUSH1 0x40 MLOAD SWAP1 JUMP JUMPDEST SUB SWAP1 LOG2 SWAP2 POP PUSH2 0x1DDC JUMP JUMPDEST PUSH2 0x2033 SWAP1 PUSH1 0x20 RETURNDATASIZE PUSH1 0x20 GT PUSH2 0x1F25 JUMPI PUSH2 0x1F18 DUP2 DUP4 PUSH2 0x218 JUMP JUMPDEST PUSH2 0x1FD4 JUMP JUMPDEST SWAP1 PUSH2 0x17A SWAP2 PUSH2 0x1A97 JUMP JUMPDEST PUSH8 0xFFFFFFFFFFFFFFFF DUP2 GT PUSH2 0x23A JUMPI PUSH1 0x20 DUP1 SWAP2 MUL ADD SWAP1 JUMP JUMPDEST SWAP1 PUSH2 0x2067 PUSH2 0x290 DUP4 PUSH2 0x2042 JUMP JUMPDEST SWAP2 DUP3 MSTORE JUMP JUMPDEST SWAP1 PUSH2 0x17A PUSH2 0x20C2 PUSH1 0x3 PUSH2 0x207D PUSH2 0x1C99 JUMP JUMPDEST SWAP5 PUSH2 0x2090 PUSH2 0x208A DUP3 PUSH2 0x46F JUMP JUMPDEST DUP8 PUSH2 0x1131 JUMP JUMPDEST PUSH2 0x20A6 PUSH2 0x209F PUSH1 0x1 DUP4 ADD PUSH2 0x480 JUMP JUMPDEST PUSH1 0x20 DUP9 ADD MSTORE JUMP JUMPDEST PUSH2 0x20BC PUSH2 0x20B5 PUSH1 0x2 DUP4 ADD PUSH2 0x480 JUMP JUMPDEST PUSH1 0x40 DUP9 ADD MSTORE JUMP JUMPDEST ADD PUSH2 0x480 JUMP JUMPDEST PUSH1 0x60 DUP5 ADD MSTORE JUMP JUMPDEST PUSH2 0x1B7 SWAP1 PUSH2 0x206C JUMP JUMPDEST SWAP1 PUSH2 0x20DB DUP3 SLOAD SWAP1 JUMP JUMPDEST PUSH2 0x20E4 DUP2 PUSH2 0x205A JUMP JUMPDEST SWAP3 PUSH2 0x20F8 PUSH1 0x20 DUP6 ADD SWAP2 PUSH1 0x0 MSTORE PUSH1 0x20 PUSH1 0x0 KECCAK256 SWAP1 JUMP JUMPDEST PUSH1 0x0 SWAP2 JUMPDEST DUP4 DUP4 LT PUSH2 0x2109 JUMPI POP POP POP POP JUMP JUMPDEST PUSH1 0x4 PUSH1 0x20 PUSH1 0x1 SWAP3 PUSH2 0x2119 DUP6 PUSH2 0x20C9 JUMP JUMPDEST DUP2 MSTORE ADD SWAP3 ADD SWAP3 ADD SWAP2 SWAP1 PUSH2 0x20FC JUMP JUMPDEST PUSH2 0x1B7 SWAP1 PUSH2 0x20D2 JUMP JUMPDEST PUSH2 0x1B7 PUSH1 0x3 PUSH2 0x2127 JUMP JUMPDEST SWAP1 PUSH2 0x17A PUSH2 0x21A2 PUSH1 0x5 PUSH2 0x214B PUSH2 0x1127 JUMP JUMPDEST SWAP5 PUSH2 0x2158 PUSH2 0x208A DUP3 PUSH2 0x46F JUMP JUMPDEST PUSH2 0x2167 PUSH2 0x209F PUSH1 0x1 DUP4 ADD PUSH2 0x43D JUMP JUMPDEST PUSH2 0x2176 PUSH2 0x20B5 PUSH1 0x2 DUP4 ADD PUSH2 0x43D JUMP JUMPDEST PUSH2 0x218C PUSH2 0x2185 PUSH1 0x3 DUP4 ADD PUSH2 0x480 JUMP JUMPDEST PUSH1 0x60 DUP9 ADD MSTORE JUMP JUMPDEST PUSH2 0x20BC PUSH2 0x219B PUSH1 0x4 DUP4 ADD PUSH2 0x480 JUMP JUMPDEST PUSH1 0x80 DUP9 ADD MSTORE JUMP JUMPDEST PUSH1 0xA0 DUP5 ADD MSTORE JUMP JUMPDEST PUSH2 0x1B7 SWAP1 PUSH2 0x213A JUMP JUMPDEST SWAP1 PUSH2 0x21BB DUP3 SLOAD SWAP1 JUMP JUMPDEST PUSH2 0x21C4 DUP2 PUSH2 0x205A JUMP JUMPDEST SWAP3 PUSH2 0x21D8 PUSH1 0x20 DUP6 ADD SWAP2 PUSH1 0x0 MSTORE PUSH1 0x20 PUSH1 0x0 KECCAK256 SWAP1 JUMP JUMPDEST PUSH1 0x0 SWAP2 JUMPDEST DUP4 DUP4 LT PUSH2 0x21E9 JUMPI POP POP POP POP JUMP JUMPDEST PUSH1 0x6 PUSH1 0x20 PUSH1 0x1 SWAP3 PUSH2 0x21F9 DUP6 PUSH2 0x21A9 JUMP JUMPDEST DUP2 MSTORE ADD SWAP3 ADD SWAP3 ADD SWAP2 SWAP1 PUSH2 0x21DC JUMP JUMPDEST PUSH2 0x1B7 SWAP1 PUSH2 0x21B2 JUMP JUMPDEST PUSH1 0xC PUSH2 0x2239 PUSH2 0x1B7 SWAP3 PUSH2 0x2221 PUSH1 0x60 SWAP1 JUMP JUMPDEST POP PUSH2 0x2232 PUSH2 0x14C2 PUSH2 0x1B7 PUSH1 0x2 PUSH2 0x480 JUMP JUMPDEST PUSH1 0x1 PUSH2 0x357 JUMP JUMPDEST ADD PUSH2 0x2207 JUMP JUMPDEST PUSH2 0x2248 ADDRESS PUSH2 0xE56 JUMP JUMPDEST BALANCE SWAP1 JUMP JUMPDEST PUSH1 0x20 DUP1 DUP3 MSTORE PUSH1 0x38 SWAP1 DUP3 ADD MSTORE PUSH32 0x4F6E6C79207468652063616D706169676E206F776E6572206F722061646D696E PUSH1 0x40 DUP3 ADD MSTORE PUSH32 0x2063616E2064656C657465207468652063616D706169676E0000000000000000 PUSH1 0x60 DUP3 ADD MSTORE PUSH1 0x80 ADD SWAP1 JUMP JUMPDEST ISZERO PUSH2 0x22B0 JUMPI JUMP JUMPDEST PUSH1 0x40 MLOAD PUSH3 0x461BCD PUSH1 0xE5 SHL DUP2 MSTORE DUP1 PUSH2 0x1028 PUSH1 0x4 DUP3 ADD PUSH2 0x224C JUMP JUMPDEST SWAP1 PUSH2 0x22DC SWAP1 PUSH1 0x0 NOT SWAP1 PUSH1 0x20 SUB PUSH1 0x8 MUL SHR SWAP1 JUMP JUMPDEST DUP2 SLOAD AND SWAP1 SSTORE JUMP JUMPDEST SWAP1 PUSH1 0x0 SWAP2 PUSH2 0x2301 PUSH2 0x22F9 DUP3 PUSH1 0x0 MSTORE PUSH1 0x20 PUSH1 0x0 KECCAK256 SWAP1 JUMP JUMPDEST SWAP3 DUP4 SLOAD PUSH2 0x124B JUMP JUMPDEST SWAP1 SSTORE SSTORE JUMP JUMPDEST SWAP2 SWAP3 SWAP1 PUSH1 0x20 DUP3 LT ISZERO PUSH2 0x235E JUMPI PUSH1 0x1F DUP5 GT PUSH1 0x1 EQ PUSH2 0x2328 JUMPI PUSH2 0x11A1 SWAP3 SWAP4 POP PUSH2 0x124B JUMP JUMPDEST POP SWAP1 PUSH2 0x2359 PUSH2 0x17A SWAP4 PUSH1 0x1 PUSH2 0x2350 PUSH2 0x2345 DUP6 PUSH1 0x0 MSTORE PUSH1 0x20 PUSH1 0x0 KECCAK256 SWAP1 JUMP JUMPDEST SWAP3 PUSH1 0x1F PUSH1 0x20 SWAP2 ADD DIV SWAP1 JUMP JUMPDEST DUP3 ADD SWAP2 ADD PUSH2 0x11DE JUMP JUMPDEST PUSH2 0x22E3 JUMP JUMPDEST POP PUSH2 0x2397 DUP3 SWAP4 PUSH2 0x2375 PUSH1 0x1 SWAP5 PUSH1 0x0 MSTORE PUSH1 0x20 PUSH1 0x0 KECCAK256 SWAP1 JUMP JUMPDEST PUSH2 0x123A PUSH1 0x20 PUSH1 0x1F DUP7 ADD DIV DUP3 ADD SWAP3 PUSH1 0x1F DUP7 AND DUP1 PUSH2 0x239F JUMPI JUMPDEST POP PUSH1 0x1F PUSH1 0x20 SWAP2 ADD DIV SWAP1 JUMP JUMPDEST PUSH1 0x2 MUL OR SWAP1 SSTORE JUMP JUMPDEST PUSH2 0x23AB SWAP1 DUP9 DUP7 SUB PUSH2 0x22C9 JUMP JUMPDEST CODESIZE PUSH2 0x238C JUMP JUMPDEST SWAP3 SWAP1 SWAP2 PUSH1 0x1 PUSH1 0x40 SHL DUP3 GT PUSH2 0x23A JUMPI PUSH1 0x20 GT ISZERO PUSH2 0x23F8 JUMPI PUSH1 0x20 DUP2 LT ISZERO PUSH2 0x23D9 JUMPI PUSH2 0x11A1 SWAP2 PUSH2 0x124B JUMP JUMPDEST PUSH1 0x1 SWAP2 PUSH1 0xFF NOT AND PUSH2 0x23EF DUP5 PUSH1 0x0 MSTORE PUSH1 0x20 PUSH1 0x0 KECCAK256 SWAP1 JUMP JUMPDEST SSTORE PUSH1 0x2 MUL ADD SWAP1 SSTORE JUMP JUMPDEST PUSH1 0x1 SWAP2 POP PUSH1 0x2 MUL ADD SWAP1 SSTORE JUMP JUMPDEST SWAP1 DUP2 SLOAD PUSH2 0x2410 DUP2 PUSH2 0x385 JUMP JUMPDEST SWAP1 DUP2 DUP4 GT PUSH2 0x2439 JUMPI JUMPDEST DUP2 DUP4 LT PUSH2 0x2427 JUMPI JUMPDEST POP POP POP POP JUMP JUMPDEST PUSH2 0x2430 SWAP4 PUSH2 0x2306 JUMP JUMPDEST CODESIZE DUP1 DUP1 DUP1 PUSH2 0x2421 JUMP JUMPDEST PUSH2 0x2445 DUP4 DUP4 DUP4 DUP8 PUSH2 0x23B1 JUMP JUMPDEST PUSH2 0x2419 JUMP JUMPDEST PUSH1 0x0 PUSH2 0x17A SWAP2 PUSH2 0x2404 JUMP JUMPDEST SWAP1 PUSH1 0x0 SUB PUSH2 0x13EC JUMPI PUSH2 0x17A SWAP1 PUSH2 0x244A JUMP JUMPDEST PUSH2 0x1B7 SWAP1 PUSH1 0x6 PUSH2 0x1BF8 JUMP JUMPDEST PUSH1 0x0 DUP1 DUP3 SSTORE PUSH2 0x17A SWAP2 PUSH1 0x5 SWAP1 PUSH2 0x248A DUP4 PUSH1 0x1 DUP4 ADD PUSH2 0x2455 JUMP JUMPDEST PUSH2 0x2497 DUP4 PUSH1 0x2 DUP4 ADD PUSH2 0x2455 JUMP JUMPDEST PUSH2 0x24A4 DUP4 PUSH1 0x3 DUP4 ADD PUSH2 0x11D2 JUMP JUMPDEST PUSH2 0x24B1 DUP4 PUSH1 0x4 DUP4 ADD PUSH2 0x11D2 JUMP JUMPDEST ADD PUSH2 0x11D2 JUMP JUMPDEST SWAP1 PUSH1 0x0 SUB PUSH2 0x13EC JUMPI PUSH2 0x17A SWAP1 PUSH2 0x2471 JUMP JUMPDEST DUP2 DUP2 LT PUSH2 0x24D3 JUMPI POP POP JUMP JUMPDEST DUP1 PUSH2 0x24E1 PUSH1 0x0 PUSH1 0x6 SWAP4 PUSH2 0x24B7 JUMP JUMPDEST ADD PUSH2 0x24C8 JUMP JUMPDEST SWAP2 SWAP1 SWAP2 DUP3 DUP3 LT PUSH2 0x24F6 JUMPI POP POP POP JUMP JUMPDEST PUSH2 0x251A PUSH2 0x250E PUSH2 0x2508 PUSH2 0x17A SWAP6 PUSH2 0x2466 JUMP JUMPDEST SWAP4 PUSH2 0x2466 JUMP JUMPDEST SWAP2 PUSH1 0x0 MSTORE PUSH1 0x20 PUSH1 0x0 KECCAK256 SWAP1 JUMP JUMPDEST SWAP2 DUP3 ADD SWAP2 ADD PUSH2 0x24C8 JUMP JUMPDEST SWAP1 PUSH1 0x1 PUSH1 0x40 SHL DUP2 GT PUSH2 0x23A JUMPI DUP2 PUSH2 0x253C PUSH2 0x17A SWAP4 SLOAD SWAP1 JUMP JUMPDEST SWAP1 DUP3 DUP2 SSTORE PUSH2 0x24E7 JUMP JUMPDEST PUSH1 0x0 PUSH2 0x17A SWAP2 PUSH2 0x2524 JUMP JUMPDEST SWAP1 PUSH1 0x0 SUB PUSH2 0x13EC JUMPI PUSH2 0x17A SWAP1 PUSH2 0x2545 JUMP JUMPDEST PUSH1 0x0 SWAP1 PUSH1 0xE SWAP1 PUSH2 0x2571 DUP4 DUP3 PUSH2 0x2455 JUMP JUMPDEST DUP3 PUSH1 0x1 DUP3 ADD SSTORE PUSH2 0x2584 DUP4 PUSH1 0x2 DUP4 ADD PUSH2 0x2455 JUMP JUMPDEST PUSH2 0x2591 DUP4 PUSH1 0x3 DUP4 ADD PUSH2 0x2455 JUMP JUMPDEST PUSH2 0x259E DUP4 PUSH1 0x4 DUP4 ADD PUSH2 0x2455 JUMP JUMPDEST PUSH2 0x25AB DUP4 PUSH1 0x5 DUP4 ADD PUSH2 0x11D2 JUMP JUMPDEST PUSH2 0x25B8 DUP4 PUSH1 0x6 DUP4 ADD PUSH2 0x11D2 JUMP JUMPDEST PUSH2 0x25C5 DUP4 PUSH1 0x7 DUP4 ADD PUSH2 0x11D2 JUMP JUMPDEST PUSH2 0x25D2 DUP4 PUSH1 0x8 DUP4 ADD PUSH2 0x11D2 JUMP JUMPDEST PUSH2 0x25DF DUP4 PUSH1 0x9 DUP4 ADD PUSH2 0x11D2 JUMP JUMPDEST PUSH2 0x25EC DUP4 PUSH1 0xA DUP4 ADD PUSH2 0x11D2 JUMP JUMPDEST PUSH2 0x25F9 DUP4 PUSH1 0xB DUP4 ADD PUSH2 0x11D2 JUMP JUMPDEST PUSH2 0x2606 DUP4 PUSH1 0xC DUP4 ADD PUSH2 0x2550 JUMP JUMPDEST PUSH2 0x2613 DUP4 PUSH1 0xD DUP4 ADD PUSH2 0x11D2 JUMP JUMPDEST ADD SSTORE JUMP JUMPDEST SWAP1 PUSH1 0x0 SUB PUSH2 0x13EC JUMPI PUSH2 0x17A SWAP1 PUSH2 0x2561 JUMP JUMPDEST DUP1 ISZERO PUSH2 0x143D JUMPI PUSH1 0x0 NOT ADD SWAP1 JUMP JUMPDEST PUSH2 0x26B4 SWAP1 PUSH2 0x2649 PUSH2 0x14C2 PUSH2 0x1B7 PUSH1 0x2 PUSH2 0x480 JUMP JUMPDEST PUSH2 0x2698 PUSH1 0x0 PUSH2 0x2693 DUP4 PUSH1 0x1 PUSH2 0x266B DUP2 PUSH2 0x2665 PUSH2 0x1B7 DUP6 DUP4 PUSH2 0x357 JUMP JUMPDEST ADD PUSH2 0x46F JUMP JUMPDEST PUSH2 0x267D PUSH2 0x2677 CALLER PUSH2 0x463 JUMP JUMPDEST SWAP2 PUSH2 0x463 JUMP JUMPDEST EQ DUP1 ISZERO PUSH2 0x26E5 JUMPI JUMPDEST PUSH2 0x268E SWAP1 PUSH2 0x22A9 JUMP JUMPDEST PUSH2 0x357 JUMP JUMPDEST PUSH2 0x2617 JUMP JUMPDEST PUSH2 0x15C7 PUSH2 0x26AD PUSH2 0x26A8 PUSH1 0x2 PUSH2 0x480 JUMP JUMPDEST PUSH2 0x2628 JUMP JUMPDEST PUSH1 0x2 PUSH2 0x133B JUMP JUMPDEST PUSH32 0xA61E586BD6A065BDE887AF9EC4705829557488D3CCDEA823AB66AAFD7C3AA099 PUSH2 0x26DE PUSH1 0x40 MLOAD SWAP1 JUMP JUMPDEST DUP1 DUP1 PUSH2 0x1EFA JUMP JUMPDEST POP PUSH2 0x268E PUSH2 0x2706 PUSH20 0xF39FD6E51AAD88F6F4CE6AB8827279CFFFB92266 PUSH2 0x463 JUMP JUMPDEST PUSH2 0x270F CALLER PUSH2 0x463 JUMP JUMPDEST EQ SWAP1 POP PUSH2 0x2685 JUMP JUMPDEST PUSH1 0x1 ADD SWAP1 JUMP JUMPDEST PUSH2 0x2725 PUSH2 0x1127 JUMP JUMPDEST SWAP1 PUSH1 0x0 DUP3 MSTORE PUSH1 0x20 DUP1 DUP1 DUP1 DUP1 DUP1 DUP8 ADD PUSH1 0x60 DUP2 MSTORE ADD PUSH1 0x60 DUP2 MSTORE ADD PUSH1 0x0 DUP2 MSTORE ADD PUSH1 0x0 DUP2 MSTORE ADD PUSH1 0x0 SWAP1 MSTORE POP JUMP JUMPDEST PUSH2 0x1B7 PUSH2 0x271D JUMP JUMPDEST PUSH1 0x0 JUMPDEST DUP3 DUP2 LT PUSH2 0x2765 JUMPI POP POP POP JUMP JUMPDEST PUSH1 0x20 SWAP1 PUSH2 0x2770 PUSH2 0x274E JUMP JUMPDEST DUP2 DUP5 ADD MSTORE ADD PUSH2 0x2759 JUMP JUMPDEST SWAP1 PUSH2 0x17A PUSH2 0x2790 PUSH2 0x278A DUP5 PUSH2 0x205A JUMP JUMPDEST SWAP4 PUSH2 0x2042 JUMP JUMPDEST PUSH1 0x1F NOT ADD PUSH1 0x20 DUP5 ADD PUSH2 0x2756 JUMP JUMPDEST SWAP1 PUSH2 0x27A6 DUP3 MLOAD SWAP1 JUMP JUMPDEST DUP2 LT ISZERO PUSH2 0xA70 JUMPI PUSH1 0x20 DUP1 SWAP2 MUL ADD ADD SWAP1 JUMP JUMPDEST PUSH1 0x0 SWAP1 PUSH2 0x27C3 DUP3 PUSH2 0x34A JUMP JUMPDEST SWAP3 DUP4 JUMPDEST PUSH2 0x27D3 PUSH2 0x1B7 PUSH1 0x2 PUSH2 0x480 JUMP JUMPDEST DUP2 LT ISZERO PUSH2 0x2834 JUMPI PUSH1 0x1 PUSH2 0x27EA DUP2 PUSH2 0x2665 DUP5 DUP3 PUSH2 0x357 JUMP JUMPDEST PUSH2 0x27F6 PUSH2 0x2677 DUP7 PUSH2 0x463 JUMP JUMPDEST EQ PUSH2 0x280B JUMPI JUMPDEST POP PUSH2 0x2806 SWAP1 PUSH2 0x2717 JUMP JUMPDEST PUSH2 0x27C6 JUMP JUMPDEST DUP2 SWAP6 PUSH2 0x2827 PUSH1 0xC PUSH2 0x2822 PUSH2 0x2806 SWAP6 PUSH2 0x282D SWAP6 PUSH2 0x357 JUMP JUMPDEST ADD SLOAD SWAP1 JUMP JUMPDEST SWAP1 PUSH2 0x1430 JUMP JUMPDEST SWAP5 SWAP1 PUSH2 0x27FC JUMP JUMPDEST POP SWAP3 PUSH2 0x2842 SWAP1 SWAP3 SWAP2 SWAP3 PUSH2 0x277A JUMP JUMPDEST PUSH2 0x284B DUP3 PUSH2 0x34A JUMP JUMPDEST SWAP2 DUP3 JUMPDEST PUSH2 0x285B PUSH2 0x1B7 PUSH1 0x2 PUSH2 0x480 JUMP JUMPDEST DUP2 LT ISZERO PUSH2 0x2919 JUMPI PUSH1 0x1 PUSH2 0x2872 DUP2 PUSH2 0x2665 DUP5 DUP3 PUSH2 0x357 JUMP JUMPDEST PUSH2 0x287E PUSH2 0x2677 DUP9 PUSH2 0x463 JUMP JUMPDEST EQ PUSH2 0x2893 JUMPI JUMPDEST POP PUSH2 0x288E SWAP1 PUSH2 0x2717 JUMP JUMPDEST PUSH2 0x284E JUMP JUMPDEST DUP1 PUSH2 0x289D DUP5 PUSH2 0x34A JUMP JUMPDEST SWAP2 JUMPDEST PUSH2 0x28AA JUMPI JUMPDEST POP PUSH2 0x2884 JUMP JUMPDEST SWAP1 SWAP5 PUSH2 0x28BE PUSH2 0x1B7 PUSH1 0xC PUSH2 0x2822 DUP7 DUP7 PUSH2 0x357 JUMP JUMPDEST DUP7 LT ISZERO PUSH2 0x2913 JUMPI PUSH2 0x290D PUSH2 0x2907 DUP4 SWAP3 PUSH2 0x28EC PUSH2 0x28E6 DUP11 PUSH1 0xC PUSH2 0x28E0 DUP11 DUP10 PUSH2 0x357 JUMP JUMPDEST ADD PUSH2 0x113B JUMP JUMPDEST POP PUSH2 0x21A9 JUMP JUMPDEST PUSH2 0x28F6 DUP3 DUP11 PUSH2 0x279D JUMP JUMPDEST MSTORE PUSH2 0x2901 DUP2 DUP10 PUSH2 0x279D JUMP JUMPDEST POP PUSH2 0x187F JUMP JUMPDEST SWAP7 PUSH2 0x2717 JUMP JUMPDEST SWAP2 PUSH2 0x289F JUMP JUMPDEST SWAP5 PUSH2 0x28A4 JUMP JUMPDEST POP SWAP1 SWAP3 POP PUSH2 0x2927 SWAP2 POP PUSH2 0x34A JUMP JUMPDEST PUSH2 0x2932 PUSH2 0x1B7 DUP4 MLOAD SWAP1 JUMP JUMPDEST DUP2 LT ISZERO PUSH2 0x2A03 JUMPI PUSH1 0x1 DUP1 PUSH2 0x294E PUSH2 0x2948 DUP3 PUSH2 0x34A JUMP JUMPDEST DUP5 PUSH2 0x1430 JUMP JUMPDEST SWAP1 JUMPDEST PUSH2 0x2965 JUMPI JUMPDEST POP POP PUSH2 0x2960 SWAP1 PUSH2 0x2717 JUMP JUMPDEST PUSH2 0x2927 JUMP JUMPDEST PUSH2 0x2970 PUSH2 0x1B7 DUP6 MLOAD SWAP1 JUMP JUMPDEST DUP2 LT ISZERO PUSH2 0x29FE JUMPI PUSH2 0x29B1 DUP3 SWAP2 PUSH2 0x2992 PUSH1 0xA0 PUSH2 0x298B DUP8 DUP10 PUSH2 0x279D JUMP JUMPDEST MLOAD ADD PUSH2 0x132D JUMP JUMPDEST PUSH2 0x29A7 PUSH2 0x150B PUSH2 0x1B7 PUSH1 0xA0 PUSH2 0x298B DUP7 DUP13 PUSH2 0x279D JUMP JUMPDEST GT PUSH2 0x29B7 JUMPI PUSH2 0x2717 JUMP JUMPDEST SWAP1 PUSH2 0x2950 JUMP JUMPDEST PUSH2 0x29C1 DUP6 DUP8 PUSH2 0x279D JUMP JUMPDEST MLOAD PUSH2 0x29CC DUP3 DUP9 PUSH2 0x279D JUMP JUMPDEST MLOAD PUSH2 0x29D7 DUP8 DUP10 PUSH2 0x279D JUMP JUMPDEST MSTORE PUSH2 0x29E2 DUP7 DUP9 PUSH2 0x279D JUMP JUMPDEST POP PUSH2 0x29ED DUP3 DUP9 PUSH2 0x279D JUMP JUMPDEST MSTORE PUSH2 0x29F8 DUP2 DUP8 PUSH2 0x279D JUMP JUMPDEST POP PUSH2 0x2717 JUMP JUMPDEST PUSH2 0x2955 JUMP JUMPDEST POP SWAP1 JUMP JUMPDEST PUSH2 0x1AA9 SWAP1 PUSH2 0x2A13 PUSH2 0x309A JUMP JUMPDEST PUSH2 0x2A6F JUMP JUMPDEST PUSH1 0x20 DUP1 DUP3 MSTORE PUSH1 0x1E SWAP1 DUP3 ADD MSTORE PUSH32 0x4E6F2066756E647320617661696C61626C6520746F2077697468647261770000 PUSH1 0x40 DUP3 ADD MSTORE PUSH1 0x60 ADD SWAP1 JUMP JUMPDEST ISZERO PUSH2 0x2A56 JUMPI JUMP JUMPDEST PUSH1 0x40 MLOAD PUSH3 0x461BCD PUSH1 0xE5 SHL DUP2 MSTORE DUP1 PUSH2 0x1028 PUSH1 0x4 DUP3 ADD PUSH2 0x2A18 JUMP JUMPDEST PUSH2 0x2A7F PUSH2 0x1D55 PUSH2 0x1B7 PUSH1 0x2 PUSH2 0x480 JUMP JUMPDEST PUSH2 0x2A8D PUSH2 0x1B7 DUP3 PUSH1 0x1 PUSH2 0x357 JUMP JUMPDEST SWAP1 PUSH2 0x2AA0 PUSH2 0x1D7D PUSH2 0x1B7 PUSH1 0x7 DUP6 ADD PUSH2 0x480 JUMP JUMPDEST PUSH1 0x1 DUP3 ADD SWAP1 PUSH2 0x2AB4 PUSH2 0x1D9D PUSH2 0x1D98 DUP5 PUSH2 0x46F JUMP JUMPDEST PUSH2 0x2ABD DUP2 PUSH2 0x2F5A JUMP JUMPDEST SWAP3 PUSH1 0x0 SWAP1 PUSH2 0x2AD4 PUSH2 0x2ACD DUP4 PUSH2 0x34A JUMP JUMPDEST DUP7 GT PUSH2 0x2A4F JUMP JUMPDEST PUSH1 0xE DUP2 ADD PUSH2 0x2AE4 PUSH2 0x1DD3 DUP3 PUSH2 0x490 JUMP JUMPDEST PUSH2 0x2BBD JUMPI JUMPDEST POP PUSH1 0xD PUSH2 0x2AFE SWAP2 ADD PUSH2 0x15AE DUP7 PUSH2 0x15C2 DUP4 PUSH2 0x480 JUMP JUMPDEST PUSH2 0x2B43 PUSH1 0x20 DUP6 PUSH2 0x2B30 PUSH2 0xF48 PUSH32 0x0 PUSH2 0xE56 JUMP JUMPDEST PUSH2 0x2B39 DUP8 PUSH2 0x46F JUMP JUMPDEST DUP6 PUSH2 0x1E37 PUSH1 0x40 MLOAD SWAP1 JUMP JUMPDEST SUB SWAP3 GAS CALL SWAP4 DUP5 ISZERO PUSH2 0xFB9 JUMPI PUSH32 0x887CC922C9FB6A3A66AC86CA7A5550189370DBE58CAA712BD060AD70F5328164 SWAP5 PUSH2 0x1EE2 SWAP4 PUSH2 0x1EDC SWAP4 PUSH2 0x1ED7 SWAP3 PUSH2 0x2BA0 JUMPI JUMPDEST POP PUSH1 0x3 PUSH2 0x1EB1 PUSH2 0x2B90 DUP6 PUSH2 0x46F JUMP JUMPDEST PUSH2 0x2B98 PUSH2 0x1C99 JUMP JUMPDEST SWAP4 DUP5 ADD PUSH2 0x1131 JUMP JUMPDEST PUSH2 0x2BB8 SWAP1 PUSH1 0x20 RETURNDATASIZE PUSH1 0x20 GT PUSH2 0x1F25 JUMPI PUSH2 0x1F18 DUP2 DUP4 PUSH2 0x218 JUMP JUMPDEST PUSH2 0x2B81 JUMP JUMPDEST DUP2 PUSH2 0x2BD3 PUSH2 0x1F50 PUSH2 0x1F42 PUSH1 0x9 PUSH2 0x2C15 SWAP7 ADD PUSH2 0x480 JUMP JUMPDEST PUSH1 0x20 DUP2 PUSH2 0x2C02 PUSH2 0xF48 PUSH32 0x0 PUSH2 0xE56 JUMP JUMPDEST PUSH2 0x2C0B ADDRESS PUSH2 0xE56 JUMP JUMPDEST DUP9 PUSH2 0x1FA3 PUSH1 0x40 MLOAD SWAP1 JUMP JUMPDEST SUB SWAP3 GAS CALL SWAP4 DUP5 ISZERO PUSH2 0xFB9 JUMPI PUSH1 0x1 PUSH1 0xD SWAP5 PUSH2 0x2C37 SWAP3 PUSH2 0x2AFE SWAP8 PUSH2 0x201B JUMPI POP PUSH2 0x1C82 JUMP JUMPDEST PUSH32 0x93E7AAA64DB1F3164FB844C7465BE63C3D09A211E1307C3FE2A96A3F585D4415 PUSH2 0x2C64 PUSH2 0x2007 DUP9 PUSH2 0x34A JUMP JUMPDEST SUB SWAP1 LOG2 SWAP2 POP PUSH2 0x2AE9 JUMP JUMPDEST PUSH2 0x17A SWAP1 PUSH2 0x2A07 JUMP JUMPDEST PUSH1 0x20 DUP1 DUP3 MSTORE PUSH1 0x16 SWAP1 DUP3 ADD MSTORE PUSH22 0x4E6F2063616D706169676E7320617661696C61626C65 PUSH1 0x50 SHL PUSH1 0x40 DUP3 ADD MSTORE PUSH1 0x60 ADD SWAP1 JUMP JUMPDEST ISZERO PUSH2 0x2CAE JUMPI JUMP JUMPDEST PUSH1 0x40 MLOAD PUSH3 0x461BCD PUSH1 0xE5 SHL DUP2 MSTORE DUP1 PUSH2 0x1028 PUSH1 0x4 DUP3 ADD PUSH2 0x2C77 JUMP JUMPDEST PUSH2 0x1B7 PUSH2 0x1E0 PUSH2 0x23F JUMP JUMPDEST PUSH2 0x2CDA PUSH2 0x2CC7 JUMP JUMPDEST SWAP1 PUSH1 0x60 DUP3 MSTORE PUSH1 0x20 DUP3 ADD PUSH1 0x0 DUP2 MSTORE PUSH1 0x20 ADD PUSH1 0x60 DUP2 MSTORE PUSH1 0x20 ADD PUSH1 0x60 DUP2 MSTORE PUSH1 0x20 ADD PUSH1 0x60 DUP2 MSTORE PUSH1 0x20 ADD PUSH1 0x0 DUP2 MSTORE PUSH1 0x20 ADD PUSH1 0x0 DUP2 MSTORE PUSH1 0x20 ADD PUSH1 0x0 DUP2 MSTORE PUSH1 0x20 ADD PUSH1 0x0 DUP2 MSTORE PUSH1 0x20 ADD PUSH1 0x0 DUP2 MSTORE PUSH1 0x20 ADD PUSH1 0x0 DUP2 MSTORE PUSH1 0x20 ADD PUSH1 0x0 DUP2 MSTORE PUSH1 0x20 ADD PUSH1 0x60 DUP2 MSTORE PUSH1 0x20 ADD PUSH1 0x0 DUP2 MSTORE PUSH1 0x20 ADD PUSH1 0x0 SWAP1 MSTORE JUMP JUMPDEST PUSH2 0x1B7 PUSH2 0x2CD2 JUMP JUMPDEST PUSH1 0x0 JUMPDEST DUP3 DUP2 LT PUSH2 0x2D5B JUMPI POP POP POP JUMP JUMPDEST PUSH1 0x20 SWAP1 PUSH2 0x2D66 PUSH2 0x2D44 JUMP JUMPDEST DUP2 DUP5 ADD MSTORE ADD PUSH2 0x2D4F JUMP JUMPDEST SWAP1 PUSH2 0x17A PUSH2 0x2D80 PUSH2 0x278A DUP5 PUSH2 0x205A JUMP JUMPDEST PUSH1 0x1F NOT ADD PUSH1 0x20 DUP5 ADD PUSH2 0x2D4C JUMP JUMPDEST SWAP1 PUSH2 0x17A PUSH2 0x2EC6 PUSH1 0xE PUSH2 0x2D9E PUSH2 0x2CC7 JUMP JUMPDEST SWAP5 PUSH2 0x2DAF PUSH2 0x2DAB DUP3 PUSH2 0x43D JUMP JUMPDEST DUP8 MSTORE JUMP JUMPDEST PUSH2 0x2DC7 PUSH2 0x2DBE PUSH1 0x1 DUP4 ADD PUSH2 0x46F JUMP JUMPDEST PUSH1 0x20 DUP9 ADD PUSH2 0x1131 JUMP JUMPDEST PUSH2 0x2DD6 PUSH2 0x20B5 PUSH1 0x2 DUP4 ADD PUSH2 0x43D JUMP JUMPDEST PUSH2 0x2DE5 PUSH2 0x2185 PUSH1 0x3 DUP4 ADD PUSH2 0x43D JUMP JUMPDEST PUSH2 0x2DF4 PUSH2 0x219B PUSH1 0x4 DUP4 ADD PUSH2 0x43D JUMP JUMPDEST PUSH2 0x2E0A PUSH2 0x2E03 PUSH1 0x5 DUP4 ADD PUSH2 0x480 JUMP JUMPDEST PUSH1 0xA0 DUP9 ADD MSTORE JUMP JUMPDEST PUSH2 0x2E20 PUSH2 0x2E19 PUSH1 0x6 DUP4 ADD PUSH2 0x480 JUMP JUMPDEST PUSH1 0xC0 DUP9 ADD MSTORE JUMP JUMPDEST PUSH2 0x2E36 PUSH2 0x2E2F PUSH1 0x7 DUP4 ADD PUSH2 0x480 JUMP JUMPDEST PUSH1 0xE0 DUP9 ADD MSTORE JUMP JUMPDEST PUSH2 0x2E4D PUSH2 0x2E45 PUSH1 0x8 DUP4 ADD PUSH2 0x480 JUMP JUMPDEST PUSH2 0x100 DUP9 ADD MSTORE JUMP JUMPDEST PUSH2 0x2E64 PUSH2 0x2E5C PUSH1 0x9 DUP4 ADD PUSH2 0x480 JUMP JUMPDEST PUSH2 0x120 DUP9 ADD MSTORE JUMP JUMPDEST PUSH2 0x2E7B PUSH2 0x2E73 PUSH1 0xA DUP4 ADD PUSH2 0x480 JUMP JUMPDEST PUSH2 0x140 DUP9 ADD MSTORE JUMP JUMPDEST PUSH2 0x2E92 PUSH2 0x2E8A PUSH1 0xB DUP4 ADD PUSH2 0x480 JUMP JUMPDEST PUSH2 0x160 DUP9 ADD MSTORE JUMP JUMPDEST PUSH2 0x2EA9 PUSH2 0x2EA1 PUSH1 0xC DUP4 ADD PUSH2 0x21B2 JUMP JUMPDEST PUSH2 0x180 DUP9 ADD MSTORE JUMP JUMPDEST PUSH2 0x2EC0 PUSH2 0x2EB8 PUSH1 0xD DUP4 ADD PUSH2 0x480 JUMP JUMPDEST PUSH2 0x1A0 DUP9 ADD MSTORE JUMP JUMPDEST ADD PUSH2 0x490 JUMP JUMPDEST ISZERO ISZERO PUSH2 0x1C0 DUP5 ADD MSTORE JUMP JUMPDEST PUSH2 0x1B7 SWAP1 PUSH2 0x2D8D JUMP JUMPDEST PUSH2 0x2EF9 PUSH2 0x2EE6 PUSH1 0x2 PUSH2 0x480 JUMP JUMPDEST PUSH2 0x2EF3 PUSH2 0x150B PUSH1 0x0 PUSH2 0x34A JUMP JUMPDEST GT PUSH2 0x2CA7 JUMP JUMPDEST PUSH2 0x2F0B PUSH2 0x2F06 PUSH1 0x2 PUSH2 0x480 JUMP JUMPDEST PUSH2 0x2D70 JUMP JUMPDEST PUSH2 0x2F15 PUSH1 0x0 PUSH2 0x34A JUMP JUMPDEST PUSH2 0x2F22 PUSH2 0x1B7 PUSH1 0x2 PUSH2 0x480 JUMP JUMPDEST DUP2 LT ISZERO PUSH2 0x2A03 JUMPI DUP1 PUSH2 0x2F40 PUSH2 0x2F3B PUSH2 0x2F55 SWAP4 PUSH1 0x1 PUSH2 0x357 JUMP JUMPDEST PUSH2 0x2ED0 JUMP JUMPDEST PUSH2 0x2F4A DUP3 DUP6 PUSH2 0x279D JUMP JUMPDEST MSTORE PUSH2 0x29F8 DUP2 DUP5 PUSH2 0x279D JUMP JUMPDEST PUSH2 0x2F15 JUMP JUMPDEST PUSH2 0x1B7 PUSH2 0x2F7A SWAP2 PUSH2 0x2F69 PUSH1 0x0 SWAP1 JUMP JUMPDEST POP PUSH2 0x2232 PUSH2 0x1D55 PUSH2 0x1B7 PUSH1 0x2 PUSH2 0x480 JUMP JUMPDEST PUSH2 0x2F8C PUSH2 0x1D7D PUSH2 0x1B7 PUSH1 0x7 DUP5 ADD PUSH2 0x480 JUMP JUMPDEST PUSH2 0x2F98 PUSH1 0x9 DUP3 ADD PUSH2 0x480 JUMP JUMPDEST PUSH2 0x2FAD PUSH2 0x2FA7 PUSH1 0xD DUP5 ADD PUSH2 0x480 JUMP JUMPDEST DUP3 PUSH2 0x188E JUMP JUMPDEST SWAP1 PUSH2 0x2FBE PUSH2 0x1DD3 PUSH1 0xE DUP5 SWAP6 ADD PUSH2 0x490 JUMP JUMPDEST PUSH2 0x2FC7 JUMPI POP POP SWAP1 JUMP JUMPDEST PUSH2 0x1B7 SWAP3 POP PUSH2 0x1F50 PUSH2 0x2FDB SWAP2 PUSH2 0x1F4A PUSH2 0x78B JUMP JUMPDEST SWAP1 PUSH2 0x188E JUMP JUMPDEST PUSH1 0x20 DUP1 DUP3 MSTORE PUSH1 0xE SWAP1 DUP3 ADD MSTORE PUSH14 0x496E76616C696420737461747573 PUSH1 0x90 SHL PUSH1 0x40 DUP3 ADD MSTORE PUSH1 0x60 ADD SWAP1 JUMP JUMPDEST ISZERO PUSH2 0x3010 JUMPI JUMP JUMPDEST PUSH1 0x40 MLOAD PUSH3 0x461BCD PUSH1 0xE5 SHL DUP2 MSTORE DUP1 PUSH2 0x1028 PUSH1 0x4 DUP3 ADD PUSH2 0x2FE1 JUMP JUMPDEST PUSH2 0x1EFA PUSH2 0x2007 PUSH32 0x8F91FEA7C957B922286B233AACDBEF39C778FBF18B1E208359140DFA65BFD3C2 SWAP3 PUSH2 0x3061 PUSH2 0x14C2 PUSH2 0x1B7 PUSH1 0x2 PUSH2 0x480 JUMP JUMPDEST PUSH2 0x3076 PUSH2 0x306E PUSH1 0x2 PUSH2 0x34A JUMP JUMPDEST DUP7 GT ISZERO PUSH2 0x3009 JUMP JUMPDEST PUSH2 0x15C7 DUP6 PUSH1 0xA PUSH2 0x308A PUSH2 0x1B7 DUP6 PUSH1 0x1 PUSH2 0x357 JUMP JUMPDEST ADD PUSH2 0x133B JUMP JUMPDEST PUSH2 0x1B7 PUSH1 0x2 PUSH2 0x34A JUMP JUMPDEST PUSH2 0x30A4 PUSH1 0x0 PUSH2 0x480 JUMP JUMPDEST PUSH2 0x30AC PUSH2 0x3090 JUMP JUMPDEST SWAP1 DUP2 EQ PUSH2 0x30BE JUMPI PUSH2 0x17A SWAP1 PUSH1 0x0 PUSH2 0x133B JUMP JUMPDEST PUSH1 0x40 MLOAD PUSH4 0x3EE5AEB5 PUSH1 0xE0 SHL DUP2 MSTORE PUSH1 0x4 SWAP1 REVERT JUMPDEST PUSH2 0x1B7 PUSH1 0x1 PUSH2 0x34A JUMP JUMPDEST PUSH2 0x17A PUSH2 0x30E5 PUSH2 0x30D0 JUMP JUMPDEST PUSH1 0x0 PUSH2 0x133B JUMP JUMPDEST PUSH1 0x20 DUP1 DUP3 MSTORE PUSH1 0x1D SWAP1 DUP3 ADD MSTORE PUSH32 0x416D6F756E74206D7573742062652067726561746572207468616E2030000000 PUSH1 0x40 DUP3 ADD MSTORE PUSH1 0x60 ADD SWAP1 JUMP JUMPDEST ISZERO PUSH2 0x312A JUMPI JUMP JUMPDEST PUSH1 0x40 MLOAD PUSH3 0x461BCD PUSH1 0xE5 SHL DUP2 MSTORE DUP1 PUSH2 0x1028 PUSH1 0x4 DUP3 ADD PUSH2 0x30EC JUMP JUMPDEST PUSH2 0x1B7 PUSH2 0x100 PUSH2 0x23F JUMP JUMPDEST SWAP1 PUSH1 0xE0 DUP1 PUSH2 0x17A SWAP4 PUSH2 0x3168 PUSH1 0x0 DUP3 ADD MLOAD PUSH1 0x0 DUP7 ADD SWAP1 PUSH2 0x5AE JUMP JUMPDEST PUSH2 0x317A PUSH1 0x20 DUP3 ADD MLOAD PUSH1 0x20 DUP7 ADD SWAP1 PUSH2 0x5AE JUMP JUMPDEST PUSH1 0x40 DUP2 DUP2 ADD MLOAD PUSH3 0xFFFFFF AND SWAP1 DUP6 ADD MSTORE PUSH2 0x319B PUSH1 0x60 DUP3 ADD MLOAD PUSH1 0x60 DUP7 ADD SWAP1 PUSH2 0x5AE JUMP JUMPDEST PUSH2 0x31AA PUSH1 0x80 DUP3 ADD MLOAD PUSH1 0x80 DUP7 ADD MSTORE JUMP JUMPDEST PUSH2 0x31B9 PUSH1 0xA0 DUP3 ADD MLOAD PUSH1 0xA0 DUP7 ADD MSTORE JUMP JUMPDEST PUSH2 0x31C8 PUSH1 0xC0 DUP3 ADD MLOAD PUSH1 0xC0 DUP7 ADD MSTORE JUMP JUMPDEST ADD MLOAD PUSH1 0x1 PUSH1 0x1 PUSH1 0xA0 SHL SUB AND SWAP2 ADD MSTORE JUMP JUMPDEST PUSH2 0x100 DUP2 ADD SWAP3 SWAP2 PUSH2 0x17A SWAP2 SWAP1 PUSH2 0x314E JUMP JUMPDEST PUSH1 0x0 PUSH2 0x31FE PUSH2 0x31F7 DUP3 PUSH2 0x34A JUMP JUMPDEST DUP4 GT PUSH2 0x3123 JUMP JUMPDEST PUSH32 0x0 SWAP2 PUSH2 0x322C PUSH2 0xF48 DUP5 PUSH2 0xE56 JUMP JUMPDEST SWAP1 PUSH4 0xD0E30DB0 SWAP2 DUP1 EXTCODESIZE ISZERO PUSH2 0x166 JUMPI PUSH2 0x3252 SWAP3 DUP5 SWAP2 PUSH2 0x3249 PUSH1 0x40 MLOAD SWAP1 JUMP JUMPDEST SWAP5 DUP6 SWAP3 PUSH1 0xE0 SHL SWAP1 JUMP JUMPDEST DUP3 MSTORE PUSH1 0x4 SWAP1 DUP3 SWAP1 DUP6 SWAP1 GAS CALL SWAP2 DUP3 ISZERO PUSH2 0xFB9 JUMPI DUP4 SWAP3 PUSH2 0x33C6 JUMPI JUMPDEST POP PUSH2 0x3331 PUSH2 0x3298 PUSH32 0x0 PUSH2 0xE56 JUMP JUMPDEST SWAP2 PUSH2 0x32A4 DUP2 DUP5 DUP9 PUSH2 0x345A JUMP JUMPDEST PUSH2 0x21A2 DUP7 PUSH2 0x332A PUSH32 0x0 PUSH2 0x3321 PUSH2 0x32D7 PUSH2 0x807 JUMP JUMPDEST PUSH2 0x3315 PUSH2 0x32E3 ADDRESS PUSH2 0xE56 JUMP JUMPDEST SWAP4 PUSH2 0x330C PUSH2 0x32FB PUSH2 0x32F5 PUSH2 0x258 PUSH2 0x34A JUMP JUMPDEST TIMESTAMP PUSH2 0x1430 JUMP JUMPDEST SWAP8 PUSH2 0x3304 PUSH2 0x3143 JUMP JUMPDEST SWAP14 DUP15 ADD PUSH2 0x1131 JUMP JUMPDEST PUSH1 0x20 DUP13 ADD PUSH2 0x1131 JUMP JUMPDEST PUSH3 0xFFFFFF AND PUSH1 0x40 DUP11 ADD MSTORE JUMP JUMPDEST PUSH1 0x60 DUP9 ADD PUSH2 0x1131 JUMP JUMPDEST PUSH1 0x80 DUP7 ADD MSTORE JUMP JUMPDEST PUSH2 0x3383 PUSH1 0x20 PUSH2 0x333F DUP6 PUSH2 0x34A JUMP JUMPDEST SWAP4 PUSH2 0x334B DUP6 PUSH1 0xC0 DUP4 ADD MSTORE JUMP JUMPDEST PUSH2 0x3367 PUSH2 0x3357 DUP8 PUSH2 0x1651 JUMP JUMPDEST PUSH1 0x1 PUSH1 0x1 PUSH1 0xA0 SHL SUB AND PUSH1 0xE0 DUP4 ADD MSTORE JUMP JUMPDEST PUSH1 0x40 MLOAD SWAP3 DUP4 SWAP2 DUP3 SWAP2 SWAP1 PUSH4 0x414BF389 PUSH1 0xE0 SHL DUP4 MSTORE PUSH1 0x4 DUP4 ADD PUSH2 0x31D8 JUMP JUMPDEST SUB DUP2 DUP8 DUP7 GAS CALL SWAP4 DUP5 ISZERO PUSH2 0xFB9 JUMPI SWAP4 PUSH2 0x33A3 JUMPI JUMPDEST POP DUP3 SWAP4 PUSH2 0x1B7 SWAP4 POP PUSH2 0x345A JUMP JUMPDEST PUSH2 0x1B7 SWAP4 POP PUSH2 0x33C0 SWAP1 PUSH1 0x20 RETURNDATASIZE PUSH1 0x20 GT PUSH2 0xFB2 JUMPI PUSH2 0xFAA DUP2 DUP4 PUSH2 0x218 JUMP JUMPDEST SWAP3 PUSH2 0x3396 JUMP JUMPDEST PUSH2 0x33E5 SWAP1 DUP4 RETURNDATASIZE DUP6 GT PUSH2 0x33EB JUMPI JUMPDEST PUSH2 0x33DD DUP2 DUP4 PUSH2 0x218 JUMP JUMPDEST DUP2 ADD SWAP1 PUSH2 0x16B JUMP JUMPDEST CODESIZE PUSH2 0x326B JUMP JUMPDEST POP RETURNDATASIZE PUSH2 0x33D3 JUMP JUMPDEST SWAP1 PUSH2 0x2067 PUSH2 0x290 DUP4 PUSH2 0x253 JUMP JUMPDEST RETURNDATASIZE ISZERO PUSH2 0x3419 JUMPI PUSH2 0x340E RETURNDATASIZE PUSH2 0x33F2 JUMP JUMPDEST SWAP1 RETURNDATASIZE PUSH1 0x0 PUSH1 0x20 DUP5 ADD RETURNDATACOPY JUMP JUMPDEST PUSH1 0x60 SWAP1 JUMP JUMPDEST PUSH1 0x20 DUP1 DUP3 MSTORE PUSH1 0x2 SWAP1 DUP3 ADD MSTORE PUSH2 0x5341 PUSH1 0xF0 SHL PUSH1 0x40 DUP3 ADD MSTORE PUSH1 0x60 ADD SWAP1 JUMP JUMPDEST ISZERO PUSH2 0x3441 JUMPI JUMP JUMPDEST PUSH1 0x40 MLOAD PUSH3 0x461BCD PUSH1 0xE5 SHL DUP2 MSTORE DUP1 PUSH2 0x1028 PUSH1 0x4 DUP3 ADD PUSH2 0x341E JUMP JUMPDEST PUSH2 0x17A SWAP3 PUSH1 0x0 SWAP3 SWAP2 PUSH2 0x349B DUP5 SWAP4 PUSH2 0x348C PUSH2 0x3473 PUSH1 0x40 MLOAD SWAP1 JUMP JUMPDEST PUSH4 0x95EA7B3 PUSH1 0xE0 SHL PUSH1 0x20 DUP3 ADD MSTORE SWAP5 DUP6 SWAP3 PUSH1 0x24 DUP5 ADD PUSH2 0x1C59 JUMP JUMPDEST PUSH1 0x20 DUP3 ADD DUP2 SUB DUP3 MSTORE SUB DUP4 PUSH2 0x218 JUMP JUMPDEST DUP3 PUSH1 0x20 DUP4 MLOAD SWAP4 ADD SWAP2 GAS CALL PUSH2 0x34AD PUSH2 0x33FF JUMP JUMPDEST DUP2 PUSH2 0x34B9 JUMPI JUMPDEST POP PUSH2 0x343A JUMP JUMPDEST SWAP1 POP PUSH2 0x34C3 DUP2 MLOAD SWAP1 JUMP JUMPDEST PUSH2 0x34D0 PUSH2 0x150B PUSH1 0x0 PUSH2 0x34A JUMP JUMPDEST EQ SWAP1 DUP2 ISZERO PUSH2 0x34E0 JUMPI JUMPDEST POP CODESIZE PUSH2 0x34B3 JUMP JUMPDEST PUSH2 0x34FA SWAP2 POP PUSH1 0x20 PUSH2 0x34EF DUP3 MLOAD SWAP1 JUMP JUMPDEST DUP2 DUP4 ADD ADD SWAP2 ADD PUSH2 0x1C45 JUMP JUMPDEST CODESIZE PUSH2 0x34D9 JUMP INVALID LOG2 PUSH5 0x6970667358 0x22 SLT KECCAK256 SWAP9 0xD JUMPDEST 0xC7 0xD1 PUSH12 0x6559684B0BC5EB3ED19EB845 0xC2 DUP13 RETURN 0xAC PUSH18 0xE4803F499650A2582C64736F6C6343000818 STOP CALLER "},"methodIdentifiers":{"FEE_TIER()":"4c69a6c9","PLATFORM_FEE()":"34fbc9a1","USDC()":"89a30271","WETH()":"ad5c4648","campaigns(uint256)":"141961bc","createCampaign(string,address,string,string,string,uint256,uint256)":"2828f2ee","deleteCampaign(uint256)":"75970193","donateToCampaign(uint256,string,string)":"131be674","getCampaigns()":"a6b03633","getContractBalance()":"6f9fb98a","getContractUSDCBalance()":"002772c2","getDonations(uint256)":"596d9ce2","getUserDonationsByDate(address)":"7eb483c9","getWithdrawals()":"50d6c1e8","numberOfCampaigns()":"07ca140d","swapRouter()":"c31c9c07","updateCampaignStatus(uint256,uint256)":"eaa1b0bc","withdraw(uint256,uint256)":"441a3e70","withdrawAll(uint256)":"958e2d31","withdrawableAmount(uint256)":"d0cee66a","withdrawals(uint256)":"5cc07076"}}}}}