{"contracts/CryptoBacker.sol":{"CryptoBacker":{"abi":[{"inputs":[{"internalType":"address","name":"_swapRouter","type":"address"},{"internalType":"address","name":"_WETH","type":"address"},{"internalType":"address","name":"_USDC","type":"address"}],"stateMutability":"nonpayable","type":"constructor"},{"inputs":[],"name":"ReentrancyGuardReentrantCall","type":"error"},{"anonymous":false,"inputs":[{"indexed":true,"internalType":"uint256","name":"campaignCode","type":"uint256"},{"indexed":true,"internalType":"address","name":"owner","type":"address"},{"indexed":false,"internalType":"uint256","name":"target","type":"uint256"},{"indexed":false,"internalType":"uint256","name":"deadline","type":"uint256"},{"indexed":false,"internalType":"uint256","name":"createdAt","type":"uint256"}],"name":"CampaignCreated","type":"event"},{"anonymous":false,"inputs":[{"indexed":true,"internalType":"uint256","name":"campaignCode","type":"uint256"}],"name":"CampaignDeleted","type":"event"},{"anonymous":false,"inputs":[{"indexed":true,"internalType":"uint256","name":"campaignCode","type":"uint256"},{"indexed":false,"internalType":"uint256","name":"newStatus","type":"uint256"}],"name":"CampaignStatusUpdated","type":"event"},{"anonymous":false,"inputs":[{"indexed":true,"internalType":"uint256","name":"campaignCode","type":"uint256"},{"indexed":true,"internalType":"address","name":"donor","type":"address"},{"indexed":false,"internalType":"string","name":"donorName","type":"string"},{"indexed":false,"internalType":"string","name":"donorEmail","type":"string"},{"indexed":false,"internalType":"uint256","name":"amountETH","type":"uint256"},{"indexed":false,"internalType":"uint256","name":"amountUSDC","type":"uint256"},{"indexed":false,"internalType":"uint256","name":"timestamp","type":"uint256"}],"name":"DonationReceived","type":"event"},{"anonymous":false,"inputs":[{"indexed":true,"internalType":"uint256","name":"campaignCode","type":"uint256"},{"indexed":false,"internalType":"uint256","name":"feeAmount","type":"uint256"}],"name":"PlatformFeePaid","type":"event"},{"anonymous":false,"inputs":[{"indexed":true,"internalType":"uint256","name":"campaignCode","type":"uint256"},{"indexed":false,"internalType":"address","name":"recipient","type":"address"},{"indexed":false,"internalType":"uint256","name":"amount","type":"uint256"},{"indexed":false,"internalType":"uint256","name":"timestamp","type":"uint256"}],"name":"WithdrawalMade","type":"event"},{"inputs":[],"name":"FEE_TIER","outputs":[{"internalType":"uint24","name":"","type":"uint24"}],"stateMutability":"view","type":"function"},{"inputs":[],"name":"PLATFORM_FEE","outputs":[{"internalType":"uint256","name":"","type":"uint256"}],"stateMutability":"view","type":"function"},{"inputs":[],"name":"USDC","outputs":[{"internalType":"address","name":"","type":"address"}],"stateMutability":"view","type":"function"},{"inputs":[],"name":"WETH","outputs":[{"internalType":"address","name":"","type":"address"}],"stateMutability":"view","type":"function"},{"inputs":[{"internalType":"uint256","name":"","type":"uint256"}],"name":"campaigns","outputs":[{"internalType":"string","name":"name","type":"string"},{"internalType":"address","name":"owner","type":"address"},{"internalType":"string","name":"category","type":"string"},{"internalType":"string","name":"title","type":"string"},{"internalType":"string","name":"description","type":"string"},{"internalType":"uint256","name":"campaignCode","type":"uint256"},{"internalType":"uint256","name":"target","type":"uint256"},{"internalType":"uint256","name":"deadline","type":"uint256"},{"internalType":"uint256","name":"amountCollectedETH","type":"uint256"},{"internalType":"uint256","name":"amountCollectedUSDC","type":"uint256"},{"internalType":"uint256","name":"status","type":"uint256"},{"internalType":"uint256","name":"createdAt","type":"uint256"},{"internalType":"uint256","name":"withdrawnAmount","type":"uint256"},{"internalType":"bool","name":"feePaid","type":"bool"}],"stateMutability":"view","type":"function"},{"inputs":[{"internalType":"string","name":"_name","type":"string"},{"internalType":"address","name":"_owner","type":"address"},{"internalType":"string","name":"_title","type":"string"},{"internalType":"string","name":"_description","type":"string"},{"internalType":"string","name":"_category","type":"string"},{"internalType":"uint256","name":"_target","type":"uint256"},{"internalType":"uint256","name":"_deadline","type":"uint256"}],"name":"createCampaign","outputs":[{"internalType":"uint256","name":"","type":"uint256"}],"stateMutability":"nonpayable","type":"function"},{"inputs":[{"internalType":"uint256","name":"_id","type":"uint256"}],"name":"deleteCampaign","outputs":[],"stateMutability":"nonpayable","type":"function"},{"inputs":[{"internalType":"uint256","name":"_id","type":"uint256"},{"internalType":"string","name":"_userName","type":"string"},{"internalType":"string","name":"_userEmail","type":"string"}],"name":"donateToCampaign","outputs":[{"internalType":"uint256","name":"","type":"uint256"}],"stateMutability":"payable","type":"function"},{"inputs":[],"name":"getCampaigns","outputs":[{"components":[{"internalType":"string","name":"name","type":"string"},{"internalType":"address","name":"owner","type":"address"},{"internalType":"string","name":"category","type":"string"},{"internalType":"string","name":"title","type":"string"},{"internalType":"string","name":"description","type":"string"},{"internalType":"uint256","name":"campaignCode","type":"uint256"},{"internalType":"uint256","name":"target","type":"uint256"},{"internalType":"uint256","name":"deadline","type":"uint256"},{"internalType":"uint256","name":"amountCollectedETH","type":"uint256"},{"internalType":"uint256","name":"amountCollectedUSDC","type":"uint256"},{"internalType":"uint256","name":"status","type":"uint256"},{"internalType":"uint256","name":"createdAt","type":"uint256"},{"components":[{"internalType":"address","name":"donor","type":"address"},{"internalType":"string","name":"donorName","type":"string"},{"internalType":"string","name":"donorEmail","type":"string"},{"internalType":"uint256","name":"amountETH","type":"uint256"},{"internalType":"uint256","name":"amountUSDC","type":"uint256"},{"internalType":"uint256","name":"timestamp","type":"uint256"}],"internalType":"struct CryptoBacker.Donation[]","name":"donations","type":"tuple[]"},{"internalType":"uint256","name":"withdrawnAmount","type":"uint256"},{"internalType":"bool","name":"feePaid","type":"bool"}],"internalType":"struct CryptoBacker.Campaign[]","name":"","type":"tuple[]"}],"stateMutability":"view","type":"function"},{"inputs":[],"name":"getContractBalance","outputs":[{"internalType":"uint256","name":"","type":"uint256"}],"stateMutability":"view","type":"function"},{"inputs":[],"name":"getContractUSDCBalance","outputs":[{"internalType":"uint256","name":"","type":"uint256"}],"stateMutability":"view","type":"function"},{"inputs":[{"internalType":"uint256","name":"_id","type":"uint256"}],"name":"getDonations","outputs":[{"components":[{"internalType":"address","name":"donor","type":"address"},{"internalType":"string","name":"donorName","type":"string"},{"internalType":"string","name":"donorEmail","type":"string"},{"internalType":"uint256","name":"amountETH","type":"uint256"},{"internalType":"uint256","name":"amountUSDC","type":"uint256"},{"internalType":"uint256","name":"timestamp","type":"uint256"}],"internalType":"struct CryptoBacker.Donation[]","name":"","type":"tuple[]"}],"stateMutability":"view","type":"function"},{"inputs":[{"internalType":"address","name":"_address","type":"address"}],"name":"getUSDCBalance","outputs":[{"internalType":"uint256","name":"","type":"uint256"}],"stateMutability":"view","type":"function"},{"inputs":[{"internalType":"address","name":"_user","type":"address"}],"name":"getUserDonationsByDate","outputs":[{"components":[{"internalType":"address","name":"donor","type":"address"},{"internalType":"string","name":"donorName","type":"string"},{"internalType":"string","name":"donorEmail","type":"string"},{"internalType":"uint256","name":"amountETH","type":"uint256"},{"internalType":"uint256","name":"amountUSDC","type":"uint256"},{"internalType":"uint256","name":"timestamp","type":"uint256"}],"internalType":"struct CryptoBacker.Donation[]","name":"","type":"tuple[]"}],"stateMutability":"view","type":"function"},{"inputs":[],"name":"getWithdrawals","outputs":[{"components":[{"internalType":"address","name":"recipient","type":"address"},{"internalType":"uint256","name":"amount","type":"uint256"},{"internalType":"uint256","name":"campaignCode","type":"uint256"},{"internalType":"uint256","name":"timestamp","type":"uint256"}],"internalType":"struct CryptoBacker.Withdrawal[]","name":"","type":"tuple[]"}],"stateMutability":"view","type":"function"},{"inputs":[],"name":"numberOfCampaigns","outputs":[{"internalType":"uint256","name":"","type":"uint256"}],"stateMutability":"view","type":"function"},{"inputs":[],"name":"swapRouter","outputs":[{"internalType":"contract ISwapRouter","name":"","type":"address"}],"stateMutability":"view","type":"function"},{"inputs":[{"internalType":"uint256","name":"_id","type":"uint256"},{"internalType":"uint256","name":"_newStatus","type":"uint256"}],"name":"updateCampaignStatus","outputs":[],"stateMutability":"nonpayable","type":"function"},{"inputs":[{"internalType":"uint256","name":"_campaignCode","type":"uint256"},{"internalType":"uint256","name":"_amount","type":"uint256"}],"name":"withdraw","outputs":[],"stateMutability":"nonpayable","type":"function"},{"inputs":[{"internalType":"uint256","name":"_campaignCode","type":"uint256"}],"name":"withdrawAll","outputs":[],"stateMutability":"nonpayable","type":"function"},{"inputs":[{"internalType":"uint256","name":"_campaignCode","type":"uint256"}],"name":"withdrawableAmount","outputs":[{"internalType":"uint256","name":"","type":"uint256"}],"stateMutability":"view","type":"function"},{"inputs":[{"internalType":"uint256","name":"","type":"uint256"}],"name":"withdrawals","outputs":[{"internalType":"address","name":"recipient","type":"address"},{"internalType":"uint256","name":"amount","type":"uint256"},{"internalType":"uint256","name":"campaignCode","type":"uint256"},{"internalType":"uint256","name":"timestamp","type":"uint256"}],"stateMutability":"view","type":"function"}],"evm":{"bytecode":{"linkReferences":{},"object":"60e0604052346200008b576200001f620000186200014e565b91620001ca565b6040516135106200021b8239608051818181610ebc015261324e015260a051818181610e4001526131da015260c051818181610bd801528181610f4f01528181611dba01528181611f260152818161221101528181612af801528181612bca0152613287015261351090f35b600080fd5b634e487b7160e01b600052604160045260246000fd5b90601f01601f191681019081106001600160401b03821117620000c857604052565b62000090565b90620000e5620000dd60405190565b9283620000a6565b565b6001600160a01b031690565b90565b6001600160a01b038116036200008b57565b90505190620000e582620000f6565b90916060828403126200008b57620000f362000134848462000108565b93604062000146826020870162000108565b940162000108565b620001716200372b803803806200016581620000ce565b92833981019062000117565b909192565b620000f3620000f3620000f39290565b90620000f3620000f36200019a9262000176565b9055565b620000f390620000e7906001600160a01b031682565b620000f3906200019e565b620000f390620001b4565b620001ed90620001d962000204565b620001e76000600262000186565b620001bf565b60805260a05260c052565b620000f3600162000176565b620000e562000212620001f8565b60006200018656fe6080604052600436101561001257600080fd5b60003560e01c80622772c21461017157806307ca140d1461016c578063131be67414610167578063141961bc146101625780632828f2ee1461015d57806334fbc9a114610158578063441a3e70146101535780634c69a6c91461014e57806350d6c1e814610149578063596d9ce2146101445780635cc070761461013f578063680247171461013a5780636f9fb98a1461013557806375970193146101305780637eb483c91461012b57806389a3027114610126578063958e2d3114610121578063a6b036331461011c578063ad5c464814610117578063c31c9c0714610112578063d0cee66a1461010d5763eaa1b0bc0361017657610efc565b610ee1565b610ea3565b610e2b565b610e04565b610c04565b610bc3565b610b98565b610b80565b610b65565b610b4a565b610b05565b610a20565b61090b565b61082a565b6107e4565b6107ad565b610779565b610671565b61032f565b6101e1565b61018c565b600080fd5b600091031261017657565b9052565b565b346101765761019c36600461017b565b6101b86101a7610f42565b6040515b9182918290815260200190565b0390f35b6101c7916008021c81565b90565b906101c791546101bc565b6101c7600060026101ca565b34610176576101f136600461017b565b6101b86101a76101d5565b805b0361017657565b9050359061018a826101fc565b634e487b7160e01b600052604160045260246000fd5b90601f01601f1916810190811067ffffffffffffffff82111761024a57604052565b610212565b9061018a61025c60405190565b9283610228565b67ffffffffffffffff811161024a57602090601f01601f19160190565b0190565b90826000939282370152565b909291926102a56102a082610263565b61024f565b93818552818301116101765761018a916020850190610284565b9080601f83011215610176578160206101c793359101610290565b91606083830312610176576102ef8284610205565b92602081013567ffffffffffffffff811161017657836103109183016102bf565b92604082013567ffffffffffffffff8111610176576101c792016102bf565b6101b86101a76103403660046102da565b91611621565b90602082820312610176576101c791610205565b6101c76101c76101c79290565b906103719061035a565b600052602052604060002090565b634e487b7160e01b600052602260045260246000fd5b90600160028304921680156103b5575b60208310146103b057565b61037f565b91607f16916103a5565b805460009392916103dc6103d283610395565b8085529360200190565b916001811690811561042e57506001146103f557505050565b6104089192939450600052602060002090565b916000925b81841061041a5750500190565b80548484015260209093019260010161040d565b92949550505060ff1916825215156020020190565b906101c7916103bf565b9061018a6104679261045e60405190565b93848092610443565b0383610228565b6101c7905b6001600160a01b031690565b6101c7905461046e565b6101c79081565b6101c79054610489565b60ff1690565b6101c7905461049a565b6104b5906001610367565b906104bf8261044d565b916104cc6001820161047f565b916104d96002830161044d565b916104e66003820161044d565b916104f36004830161044d565b9161050060058201610490565b9161050d60068301610490565b9161051a60078201610490565b9161052760088301610490565b9161053460098201610490565b91610541600a8301610490565b9161054e600b8201610490565b916101c7600e610560600d8501610490565b93016104a0565b60005b83811061057a5750506000910152565b818101518382015260200161056a565b6105ab6105b46020936102809361059f815190565b80835293849260200190565b95869101610567565b601f01601f191690565b61018690610473565b9b9997959e9d9c9a989694939291906101c08d018d80820390600001526105ed9161058a565b9060208d016105fb916105be565b8b810360408d015261060c9161058a565b8a810360608c015261061d9161058a565b89810360808b015261062e9161058a565b9a60a0890161063b919052565b60c088015260e08701526101008601526101208501526101408401526101608301526101808201526101a00161018a9115159052565b34610176576101b861068c610687366004610346565b6104aa565b9a6106a89e9c9e9a919a99929998939897949796959660405190565b9e8f9e8f6105c7565b6101fe81610473565b9050359061018a826106b1565b60e08183031261017657803567ffffffffffffffff811161017657826106ee9183016102bf565b926106fc83602084016106ba565b92604083013567ffffffffffffffff8111610176578161071d9185016102bf565b92606081013567ffffffffffffffff8111610176578261073e9183016102bf565b92608082013567ffffffffffffffff811161017657610762846101c79285016102bf565b9360c06107728260a08701610205565b9401610205565b34610176576101b86101a761078f3660046106c7565b959490949391936118c6565b6101c7600561035a565b6101c761079b565b34610176576107bd36600461017b565b6101b86101a76107a5565b9190604083820312610176576101c79060206107728286610205565b34610176576107fd6107f73660046107c8565b90611ff3565b604051005b61080f6101c76101c79290565b62ffffff1690565b6101c7610bb8610802565b6101c7610817565b346101765761083a36600461017b565b6101b8610845610822565b6040519182918262ffffff909116815260200190565b9060608061018a93610875600082015160008601906105be565b61088460208201516020860152565b61089360408201516040860152565b0151910152565b906102808160809361085b565b906108c76108c06108b6845190565b8084529260200190565b9260200190565b9060005b8181106108d85750505090565b9091926108f26108eb600192865161089a565b9460200190565b9291016108cb565b60208082526101c7929101906108a7565b346101765761091b36600461017b565b6101b86109266120eb565b604051918291826108fa565b906101c79060a08061097a61096860c08501610956600089015160008801906105be565b6020880151868203602088015261058a565b6040870151858203604087015261058a565b9461098a60608201516060860152565b61089360808201516080860152565b906101c791610932565b906109b96109af835190565b8083529160200190565b90816109cb6020830284019460200190565b926000915b8383106109df57505050505090565b90919293946020610a026109fb83856001950387528951610999565b9760200190565b93019301919392906109d0565b60208082526101c7929101906109a3565b34610176576101b8610a3b610a36366004610346565b6121cb565b60405191829182610a0f565b634e487b7160e01b600052603260045260246000fd5b8054821015610a8057610a77600491600052602060002090565b91020190600090565b610a47565b600390610a90825490565b81101561017657610aa091610a5d565b5090610aab8261047f565b91610ab860018201610490565b916101c76003610aca60028501610490565b9301610490565b610b0161018a94610afa606094989795610af3608086019a60008701906105be565b6020850152565b6040830152565b0152565b34610176576101b8610b20610b1b366004610346565b610a85565b90610b2d94929460405190565b94859485610ad1565b90602082820312610176576101c7916106ba565b34610176576101b86101a7610b60366004610b36565b6121fa565b3461017657610b7536600461017b565b6101b86101a761223d565b34610176576107fd610b93366004610346565b612633565b34610176576101b8610a3b610bae366004610b36565b6127b5565b60208101929161018a91906105be565b3461017657610bd336600461017b565b6101b87f00000000000000000000000000000000000000000000000000000000000000005b60405191829182610bb3565b34610176576107fd610c17366004610346565b612c5a565b90610c286109af835190565b9081610c3a6020830284019460200190565b926000915b838310610c4e57505050505090565b90919293946020610c6a6109fb83856001950387528951610999565b9301930191939290610c3f565b906101c7906101c080610d73610cee610cdc610cca610ca66101e0880160008b015189820360008b015261058a565b610cb860208b015160208a01906105be565b60408a015188820360408a015261058a565b6060890151878203606089015261058a565b6080880151868203608088015261058a565b610cfd60a088015160a0870152565b610d0c60c088015160c0870152565b610d1b60e088015160e0870152565b610d2c610100880151610100870152565b610d3d610120880151610120870152565b610d4e610140880151610140870152565b610d5f610160880151610160870152565b610180870151858203610180870152610c1c565b94610d856101a08201516101a0860152565b01511515910152565b906101c791610c77565b90610da46109af835190565b9081610db66020830284019460200190565b926000915b838310610dca57505050505090565b90919293946020610de66109fb83856001950387528951610d8e565b9301930191939290610dbb565b60208082526101c792910190610d98565b3461017657610e1436600461017b565b6101b8610e1f612ec5565b60405191829182610df3565b3461017657610e3b36600461017b565b6101b87f0000000000000000000000000000000000000000000000000000000000000000610bf8565b6101c790610473906001600160a01b031682565b6101c790610e64565b6101c790610e78565b61018690610e81565b60208101929161018a9190610e8a565b3461017657610eb336600461017b565b604051806101b87f000000000000000000000000000000000000000000000000000000000000000082610e93565b34610176576101b86101a7610ef7366004610346565b612f46565b34610176576107fd610f0f3660046107c8565b90613003565b9050519061018a826101fc565b90602082820312610176576101c791610f15565b6040513d6000823e3d90fd5b610fa56020610f78610f737f0000000000000000000000000000000000000000000000000000000000000000610e81565b610e81565b610f8130610e81565b90610f8b60405190565b938492839182916370a0823160e01b835260048301610bb3565b03915afa908115610fe457600091610fbb575090565b6101c7915060203d602011610fdd575b610fd58183610228565b810190610f22565b503d610fcb565b610f36565b90610ffd939291610ff8613074565b6114b5565b9061018a6130b4565b602080825260139082015272125b9d985b1a590818d85b5c185a59db881251606a1b604082015260600190565b1561103a57565b60405162461bcd60e51b81528061105360048201611006565b0390fd5b60208082526022908201527f446f6e6174696f6e206d7573742062652067726561746572207468616e207a65604082015261726f60f01b606082015260800190565b156110a057565b60405162461bcd60e51b81528061105360048201611057565b60208082526013908201527243616d706169676e2069732050656e64696e6760681b604082015260600190565b156110ed57565b60405162461bcd60e51b815280611053600482016110b9565b60208082526012908201527110d85b5c185a59db881a185cc8195b99195960721b604082015260600190565b1561113957565b60405162461bcd60e51b81528061105360048201611106565b6101c760c061024f565b9061018690610473565b8054821015610a8057610a77600691600052602060002090565b634e487b7160e01b600052600060045260246000fd5b6101c79051610473565b906001600160a01b03905b9181191691161790565b906111c56101c76111cc92610e81565b82546111a0565b9055565b9160001960089290920291821b911b6111ab565b91906111f56101c76111cc9361035a565b9083546111d0565b61018a916000916111e4565b818110611214575050565b8061122260006001936111fd565b01611209565b9190601f811161123757505050565b61124961018a93600052602060002090565b906020601f84018190048301931061126c575b6020601f909101045b0190611209565b909150819061125c565b600019600883021c1916906002021790565b90611291815190565b9067ffffffffffffffff821161024a576112b5826112af8554610395565b85611228565b602090601f83116001146112e3576111cc9291600091836112d8575b5050611276565b0151905038806112d1565b601f198316916112f885600052602060002090565b9260005b8181106113365750916002939185600196941061131d575b50505002019055565b01516000196008601f8516021c19169055388080611314565b919360206001819287870151815501950192016112fc565b9061018a91611288565b5190565b90600019906111ab565b906113766101c76111cc9261035a565b825461135c565b600561140160a061018a9461139d61139760008301611196565b866111b5565b6113b46113ab602083015190565b6001870161134e565b6113cb6113c2604083015190565b6002870161134e565b6113e36113da60608301611358565b60038701611366565b6113fb6113f260808301611358565b60048701611366565b01611358565b9101611366565b91906114175761018a9161137d565b611180565b90815491600160401b83101561024a578261143f91600161018a95018155611166565b90611408565b634e487b7160e01b600052601160045260246000fd5b9190820180921161146857565b611445565b9061018a946114ae6114a6608095611498610b01959b9a989b60a088019088820360008a015261058a565b90868203602088015261058a565b986040850152565b6060830152565b60099392917f84038083661ab3698bfe2b1202fa65e8fd987cef13606f396be72c1685b8172c91506114f46114ed6101c76002610490565b8210611033565b611508611501600061035a565b3411611099565b6115f76115196101c7836001610367565b91611541611529600a8501610490565b61153a611536600061035a565b9190565b14156110e6565b61155a6115536101c760078601610490565b4210611132565b6115f2611566346131c3565b9788946115bf600c8201611578611152565b90611583338361115c565b61158e8b6020840152565b6115998c6040840152565b6115a4346060840152565b6115af896080840152565b6115ba4260a0840152565b61141c565b6115df600882016115d96115d282610490565b349061145b565b90611366565b016115d9856115ed83610490565b61145b565b61035a565b9261161b61160433610e81565b9561160e60405190565b938493429234918661146d565b0390a390565b6101c79291906000610fe9565b6020808252601490820152734e616d652063616e6e6f7420626520656d70747960601b604082015260600190565b1561166357565b60405162461bcd60e51b8152806110536004820161162e565b6104736101c76101c79290565b6101c79061167c565b602080825260159082015274496e76616c6964206f776e6572206164647265737360581b604082015260600190565b156116c857565b60405162461bcd60e51b81528061105360048201611692565b6020808252601590820152745469746c652063616e6e6f7420626520656d70747960581b604082015260600190565b1561171757565b60405162461bcd60e51b815280611053600482016116e1565b6020808252601b908201527f4465736372697074696f6e2063616e6e6f7420626520656d7074790000000000604082015260600190565b1561176e57565b60405162461bcd60e51b81528061105360048201611730565b60208082526018908201527f43617465676f72792063616e6e6f7420626520656d7074790000000000000000604082015260600190565b156117c557565b60405162461bcd60e51b81528061105360048201611787565b6020808252601d908201527f546172676574206d7573742062652067726561746572207468616e2030000000604082015260600190565b1561181c57565b60405162461bcd60e51b815280611053600482016117de565b6020808252601e908201527f446561646c696e65206d75737420626520696e20746865206675747572650000604082015260600190565b1561187357565b60405162461bcd60e51b81528061105360048201611835565b90815260608101939261018a929091604091610b01905b6020830152565b60001981146114685760010190565b9190820391821161146857565b90949390928351926000936118da8561035a565b106118e49061165c565b6118ed84611689565b6118f690610473565b6118ff88610473565b141561190a906116c1565b80516119158561035a565b1061191f90611710565b815161192a8561035a565b1061193490611767565b825161193f8561035a565b10611949906117be565b6119528461035a565b861161195d90611815565b61196842891161186c565b6119726002610490565b61197d906001610367565b9461198b88600188016111b5565b6119979086860161134e565b6119a4906003860161134e565b6119b1906004850161134e565b6119be906002840161134e565b6119cb8360068401611366565b6119d88560078401611366565b6119e19061035a565b6119ee8160088401611366565b6119fb8160098401611366565b611a0890600a8301611366565b611a126002610490565b611a1f9060058301611366565b611a2d904290600b01611366565b611a376002610490565b611a409061035a565b91611a4a90610e81565b92611a5460405190565b9182914290611a63928461188c565b037f532ce22d86c3d75e9e14507fdc84d53517c2726edb5c97af3c34fb362233b07191a3611a916002610490565b611a9a906118aa565b611aa5906002611366565b611aaf6002610490565b611ab9600161035a565b6101c7916118b9565b90611ad491611acf613074565b611d19565b61018a6130b4565b602080825260159082015274496e76616c69642063616d706169676e20636f646560581b604082015260600190565b15611b1257565b60405162461bcd60e51b81528061105360048201611adc565b6020808252818101527f4f6e6c792063616d706169676e206f776e65722063616e207769746864726177604082015260600190565b15611b6757565b60405162461bcd60e51b81528061105360048201611b2b565b602080825260129082015271496e73756666696369656e742066756e647360701b604082015260600190565b15611bb357565b60405162461bcd60e51b81528061105360048201611b80565b8181029291811591840414171561146857565b634e487b7160e01b600052601260045260246000fd5b8115611bff570490565b611bdf565b8015156101fe565b9050519061018a82611c04565b90602082820312610176576101c791611c0c565b91602061018a929493610b01604082019660008301906105be565b9060ff906111ab565b151590565b90611c666101c76111cc92611c51565b8254611c48565b6101c7608061024f565b6003611401606061018a94611c9161139760008301611196565b611ca9611ca060208301611358565b60018701611366565b6113fb611cb860408301611358565b60028701611366565b91906114175761018a91611c77565b90815491600160401b83101561024a5782611cf391600161018a95018155610a5d565b90611cc1565b604090610b0161018a94969593966118a3606084019860008501906105be565b611d30611d296101c76002610490565b8210611b0b565b611d3e6101c7826001610367565b906001820191611d67611d58611d538561047f565b610473565b611d6133610473565b14611b60565b611d7e611d766101c784612f46565b851115611bac565b600e8101611d92611d8e826104a0565b1590565b611ee7575b50600d611dac91016115d9856115ed83610490565b611e11602084611dde610f737f0000000000000000000000000000000000000000000000000000000000000000610e81565b611de78661047f565b6000611df260405190565b809681958294611e0663a9059cbb60e01b90565b845260048401611c2d565b03925af18015610fe4577f887cc922c9fb6a3a66ac86ca7a5550189370dbe58caa712bd060ad70f532816493611e9d92611e9792611eba575b50611e926003611e598361047f565b90611e6c611e65611c6d565b928361115c565b611e77896020840152565b611e82876040840152565b611e8d426060840152565b611cd0565b61047f565b9161035a565b92611eb5611eaa60405190565b928392429184611cf9565b0390a2565b611edb9060203d602011611ee0575b611ed38183610228565b810190611c19565b611e4a565b503d611ec9565b81611f1b611f0b611efd6009611f729601610490565b611f0561079b565b90611bcc565b611f15606461035a565b90611bf5565b602081611f4a610f737f0000000000000000000000000000000000000000000000000000000000000000610e81565b611f5330610e81565b6000611f5e60405190565b809981958294611e0663a9059cbb60e01b90565b03925af1938415610fe4576001600d94611f9592611dac97611fd6575b50611c56565b7f93e7aaa64db1f3164fb844c7465be63c3d09a211e1307c3fe2a96a3f585d4415611fcc611fc28761035a565b926101ab60405190565b0390a29150611d97565b611fee9060203d602011611ee057611ed38183610228565b611f8f565b9061018a91611ac2565b67ffffffffffffffff811161024a5760208091020190565b906120226102a083611ffd565b918252565b9061018a61207d6003612038611c6d565b9461204b6120458261047f565b8761115c565b61206161205a60018301610490565b6020880152565b61207761207060028301610490565b6040880152565b01610490565b6060840152565b6101c790612027565b90612096825490565b61209f81612015565b926120b36020850191600052602060002090565b6000915b8383106120c45750505050565b600460206001926120d485612084565b8152019201920191906120b7565b6101c79061208d565b6101c760036120e2565b9061018a61215d6005612106611152565b946121136120458261047f565b61212261205a6001830161044d565b6121316120706002830161044d565b61214761214060038301610490565b6060880152565b61207761215660048301610490565b6080880152565b60a0840152565b6101c7906120f5565b90612176825490565b61217f81612015565b926121936020850191600052602060002090565b6000915b8383106121a45750505050565b600660206001926121b485612164565b815201920192019190612197565b6101c79061216d565b600c6121f46101c7926121dc606090565b506121ed6114ed6101c76002610490565b6001610367565b016121c2565b6020610fa591612208600090565b50612235610f737f0000000000000000000000000000000000000000000000000000000000000000610e81565b604051610f8b565b61224630610e81565b3190565b60208082526038908201527f4f6e6c79207468652063616d706169676e206f776e6572206f722061646d696e60408201527f2063616e2064656c657465207468652063616d706169676e0000000000000000606082015260800190565b156122ae57565b60405162461bcd60e51b8152806110536004820161224a565b906122da90600019906020036008021c90565b8154169055565b906000916122ff6122f782600052602060002090565b928354611276565b905555565b919290602082101561235c57601f8411600114612326576111cc929350611276565b509061235761018a93600161234e61234385600052602060002090565b92601f602091010490565b82019101611209565b6122e1565b506123958293612373600194600052602060002090565b6112656020601f860104820192601f86168061239d575b50601f602091010490565b600202179055565b6123a9908886036122c7565b3861238a565b929091600160401b821161024a57602011156123f65760208110156123d7576111cc91611276565b60019160ff19166123ed84600052602060002090565b55600202019055565b60019150600202019055565b90815461240e81610395565b90818311612437575b818310612425575b50505050565b61242e93612304565b3880808061241f565b612443838383876123af565b612417565b600061018a91612402565b906000036114175761018a90612448565b6101c7906006611bcc565b600080825561018a916005906124888360018301612453565b6124958360028301612453565b6124a283600383016111fd565b6124af83600483016111fd565b016111fd565b906000036114175761018a9061246f565b8181106124d1575050565b806124df60006006936124b5565b016124c6565b9190918282106124f457505050565b61251861250c61250661018a95612464565b93612464565b91600052602060002090565b91820191016124c6565b90600160401b811161024a578161253a61018a935490565b908281556124e5565b600061018a91612522565b906000036114175761018a90612543565b600090600e9061256f8382612453565b8260018201556125828360028301612453565b61258f8360038301612453565b61259c8360048301612453565b6125a983600583016111fd565b6125b683600683016111fd565b6125c383600783016111fd565b6125d083600883016111fd565b6125dd83600983016111fd565b6125ea83600a83016111fd565b6125f783600b83016111fd565b61260483600c830161254e565b61261183600d83016111fd565b0155565b906000036114175761018a9061255f565b8015611468576000190190565b6126b2906126476114ed6101c76002610490565b6126966000612691836001612669816126636101c78583610367565b0161047f565b61267b61267533610473565b91610473565b1480156126e3575b61268c906122a7565b610367565b612615565b6115f26126ab6126a66002610490565b612626565b6002611366565b7fa61e586bd6a065bde887af9ec4705829557488d3ccdea823ab66aafd7c3aa0996126dc60405190565b8080611eb5565b5061268c61270473f39fd6e51aad88f6f4ce6ab8827279cfffb92266610473565b61270d33610473565b149050612683565b60010190565b612723611152565b906000825260208080808080870160608152016060815201600081520160008152016000905250565b6101c761271b565b60005b82811061276357505050565b60209061276e61274c565b8184015201612757565b9061018a61278e61278884612015565b93611ffd565b601f190160208401612754565b906127a4825190565b811015610a80576020809102010190565b6000906127c18261035a565b92835b6127d16101c76002610490565b8110156128325760016127e8816126638482610367565b6127f461267586610473565b14612809575b5061280490612715565b6127c4565b8195612825600c6128206128049561282b95610367565b015490565b9061145b565b94906127fa565b509261284090929192612778565b6128498261035a565b91825b6128596101c76002610490565b811015612917576001612870816126638482610367565b61287c61267588610473565b14612891575b5061288c90612715565b61284c565b8061289b8461035a565b915b6128a8575b50612882565b90946128bc6101c7600c6128208686610367565b8610156129115761290b61290583926128ea6128e48a600c6128de8a89610367565b01611166565b50612164565b6128f4828a61279b565b526128ff818961279b565b506118aa565b96612715565b9161289d565b946128a2565b50909250612925915061035a565b6129306101c7835190565b811015612a015760018061294c6129468261035a565b8461145b565b905b612963575b505061295e90612715565b612925565b61296e6101c7855190565b8110156129fc576129af829161299060a0612989878961279b565b5101611358565b6129a56115366101c760a0612989868c61279b565b116129b557612715565b9061294e565b6129bf858761279b565b516129ca828861279b565b516129d5878961279b565b526129e0868861279b565b506129eb828861279b565b526129f6818761279b565b50612715565b612953565b5090565b611ad490612a11613074565b612a6d565b6020808252601e908201527f4e6f2066756e647320617661696c61626c6520746f2077697468647261770000604082015260600190565b15612a5457565b60405162461bcd60e51b81528061105360048201612a16565b612a7d611d296101c76002610490565b612a8b6101c7826001610367565b906001820190612aa0611d58611d538461047f565b612aa981612f46565b92600090612ac0612ab98361035a565b8611612a4d565b600e8101612ad0611d8e826104a0565b612ba9575b50600d612aea91016115d9866115ed83610490565b612b2f602085612b1c610f737f0000000000000000000000000000000000000000000000000000000000000000610e81565b612b258761047f565b85611df260405190565b03925af1938415610fe4577f887cc922c9fb6a3a66ac86ca7a5550189370dbe58caa712bd060ad70f532816494611e9d93611e9793611e9292612b8c575b506003611e6c612b7c8561047f565b612b84611c6d565b93840161115c565b612ba49060203d602011611ee057611ed38183610228565b612b6d565b81612bbf611f0b611efd6009612c019601610490565b602081612bee610f737f0000000000000000000000000000000000000000000000000000000000000000610e81565b612bf730610e81565b88611f5e60405190565b03925af1938415610fe4576001600d94612c2392612aea97611fd65750611c56565b7f93e7aaa64db1f3164fb844c7465be63c3d09a211e1307c3fe2a96a3f585d4415612c50611fc28861035a565b0390a29150612ad5565b61018a90612a05565b6020808252601690820152754e6f2063616d706169676e7320617661696c61626c6560501b604082015260600190565b15612c9a57565b60405162461bcd60e51b81528061105360048201612c63565b6101c76101e061024f565b612cc6612cb3565b9060608252602082016000815260200160608152602001606081526020016060815260200160008152602001600081526020016000815260200160008152602001600081526020016000815260200160008152602001606081526020016000815260200160009052565b6101c7612cbe565b60005b828110612d4757505050565b602090612d52612d30565b8184015201612d3b565b9061018a612d6c61278884612015565b601f190160208401612d38565b9061018a612eb2600e612d8a612cb3565b94612d9b612d978261044d565b8752565b612db3612daa6001830161047f565b6020880161115c565b612dc26120706002830161044d565b612dd16121406003830161044d565b612de06121566004830161044d565b612df6612def60058301610490565b60a0880152565b612e0c612e0560068301610490565b60c0880152565b612e22612e1b60078301610490565b60e0880152565b612e39612e3160088301610490565b610100880152565b612e50612e4860098301610490565b610120880152565b612e67612e5f600a8301610490565b610140880152565b612e7e612e76600b8301610490565b610160880152565b612e95612e8d600c830161216d565b610180880152565b612eac612ea4600d8301610490565b6101a0880152565b016104a0565b15156101c0840152565b6101c790612d79565b612ee5612ed26002610490565b612edf611536600061035a565b11612c93565b612ef7612ef26002610490565b612d5c565b612f01600061035a565b612f0e6101c76002610490565b811015612a015780612f2c612f27612f41936001610367565b612ebc565b612f36828561279b565b526129f6818461279b565b612f01565b6101c7612f6691612f55600090565b506121ed611d296101c76002610490565b612f7260098201610490565b612f87612f81600d8401610490565b826118b9565b90612f98611d8e600e8495016104a0565b612fa157505090565b6101c79250611f0b612fb591611f0561079b565b906118b9565b6020808252600e908201526d496e76616c69642073746174757360901b604082015260600190565b15612fea57565b60405162461bcd60e51b81528061105360048201612fbb565b611eb5611fc27f8f91fea7c957b922286b233aacdbef39c778fbf18b1e208359140dfa65bfd3c29261303b6114ed6101c76002610490565b613050613048600261035a565b861115612fe3565b6115f285600a6130646101c7856001610367565b01611366565b6101c7600261035a565b61307e6000610490565b61308661306a565b9081146130985761018a906000611366565b604051633ee5aeb560e01b8152600490fd5b6101c7600161035a565b61018a6130bf6130aa565b6000611366565b6020808252601d908201527f416d6f756e74206d7573742062652067726561746572207468616e2030000000604082015260600190565b1561310457565b60405162461bcd60e51b815280611053600482016130c6565b6101c761010061024f565b9060e08061018a93613142600082015160008601906105be565b613154602082015160208601906105be565b60408181015162ffffff1690850152613175606082015160608601906105be565b61318460808201516080860152565b61319360a082015160a0860152565b6131a260c082015160c0860152565b01516001600160a01b0316910152565b6101008101929161018a9190613128565b60006131d86131d18261035a565b83116130fd565b7f000000000000000000000000000000000000000000000000000000000000000091613206610f7384610e81565b9063d0e30db091803b156101765761322c92849161322360405190565b94859260e01b90565b8252600490829085905af1918215610fe45783926133a0575b5061330b6132727f0000000000000000000000000000000000000000000000000000000000000000610e81565b9161327e818488613434565b61215d866133047f00000000000000000000000000000000000000000000000000000000000000006132fb6132b1610817565b6132ef6132bd30610e81565b936132e66132d56132cf61025861035a565b4261145b565b976132de61311d565b9d8e0161115c565b60208c0161115c565b62ffffff1660408a0152565b6060880161115c565b6080860152565b61335d60206133198561035a565b936133258560c0830152565b6133416133318761167c565b6001600160a01b031660e0830152565b60405192839182919063414bf38960e01b8352600483016131b2565b038187865af1938415610fe4579361337d575b5082936101c79350613434565b6101c7935061339a9060203d602011610fdd57610fd58183610228565b92613370565b6133bf90833d85116133c5575b6133b78183610228565b81019061017b565b38613245565b503d6133ad565b906120226102a083610263565b3d156133f3576133e83d6133cc565b903d6000602084013e565b606090565b602080825260029082015261534160f01b604082015260600190565b1561341b57565b60405162461bcd60e51b815280611053600482016133f8565b61018a9260009291613475849361346661344d60405190565b63095ea7b360e01b602082015294859260248401611c2d565b60208201810382520383610228565b82602083519301915af16134876133d9565b81613493575b50613414565b905061349d815190565b6134aa611536600061035a565b149081156134ba575b503861348d565b6134d4915060206134c9825190565b818301019101611c19565b386134b356fea264697066735822122003b56c7a3d6e32e88121cadfcd7aab50044d6abb5f44c9cf142336dee106bd3564736f6c63430008180033","opcodes":"PUSH1 0xE0 PUSH1 0x40 MSTORE CALLVALUE PUSH3 0x8B JUMPI PUSH3 0x1F PUSH3 0x18 PUSH3 0x14E JUMP JUMPDEST SWAP2 PUSH3 0x1CA JUMP JUMPDEST PUSH1 0x40 MLOAD PUSH2 0x3510 PUSH3 0x21B DUP3 CODECOPY PUSH1 0x80 MLOAD DUP2 DUP2 DUP2 PUSH2 0xEBC ADD MSTORE PUSH2 0x324E ADD MSTORE PUSH1 0xA0 MLOAD DUP2 DUP2 DUP2 PUSH2 0xE40 ADD MSTORE PUSH2 0x31DA ADD MSTORE PUSH1 0xC0 MLOAD DUP2 DUP2 DUP2 PUSH2 0xBD8 ADD MSTORE DUP2 DUP2 PUSH2 0xF4F ADD MSTORE DUP2 DUP2 PUSH2 0x1DBA ADD MSTORE DUP2 DUP2 PUSH2 0x1F26 ADD MSTORE DUP2 DUP2 PUSH2 0x2211 ADD MSTORE DUP2 DUP2 PUSH2 0x2AF8 ADD MSTORE DUP2 DUP2 PUSH2 0x2BCA ADD MSTORE PUSH2 0x3287 ADD MSTORE PUSH2 0x3510 SWAP1 RETURN JUMPDEST PUSH1 0x0 DUP1 REVERT JUMPDEST PUSH4 0x4E487B71 PUSH1 0xE0 SHL PUSH1 0x0 MSTORE PUSH1 0x41 PUSH1 0x4 MSTORE PUSH1 0x24 PUSH1 0x0 REVERT JUMPDEST SWAP1 PUSH1 0x1F ADD PUSH1 0x1F NOT AND DUP2 ADD SWAP1 DUP2 LT PUSH1 0x1 PUSH1 0x1 PUSH1 0x40 SHL SUB DUP3 GT OR PUSH3 0xC8 JUMPI PUSH1 0x40 MSTORE JUMP JUMPDEST PUSH3 0x90 JUMP JUMPDEST SWAP1 PUSH3 0xE5 PUSH3 0xDD PUSH1 0x40 MLOAD SWAP1 JUMP JUMPDEST SWAP3 DUP4 PUSH3 0xA6 JUMP JUMPDEST JUMP JUMPDEST PUSH1 0x1 PUSH1 0x1 PUSH1 0xA0 SHL SUB AND SWAP1 JUMP JUMPDEST SWAP1 JUMP JUMPDEST PUSH1 0x1 PUSH1 0x1 PUSH1 0xA0 SHL SUB DUP2 AND SUB PUSH3 0x8B JUMPI JUMP JUMPDEST SWAP1 POP MLOAD SWAP1 PUSH3 0xE5 DUP3 PUSH3 0xF6 JUMP JUMPDEST SWAP1 SWAP2 PUSH1 0x60 DUP3 DUP5 SUB SLT PUSH3 0x8B JUMPI PUSH3 0xF3 PUSH3 0x134 DUP5 DUP5 PUSH3 0x108 JUMP JUMPDEST SWAP4 PUSH1 0x40 PUSH3 0x146 DUP3 PUSH1 0x20 DUP8 ADD PUSH3 0x108 JUMP JUMPDEST SWAP5 ADD PUSH3 0x108 JUMP JUMPDEST PUSH3 0x171 PUSH3 0x372B DUP1 CODESIZE SUB DUP1 PUSH3 0x165 DUP2 PUSH3 0xCE JUMP JUMPDEST SWAP3 DUP4 CODECOPY DUP2 ADD SWAP1 PUSH3 0x117 JUMP JUMPDEST SWAP1 SWAP2 SWAP3 JUMP JUMPDEST PUSH3 0xF3 PUSH3 0xF3 PUSH3 0xF3 SWAP3 SWAP1 JUMP JUMPDEST SWAP1 PUSH3 0xF3 PUSH3 0xF3 PUSH3 0x19A SWAP3 PUSH3 0x176 JUMP JUMPDEST SWAP1 SSTORE JUMP JUMPDEST PUSH3 0xF3 SWAP1 PUSH3 0xE7 SWAP1 PUSH1 0x1 PUSH1 0x1 PUSH1 0xA0 SHL SUB AND DUP3 JUMP JUMPDEST PUSH3 0xF3 SWAP1 PUSH3 0x19E JUMP JUMPDEST PUSH3 0xF3 SWAP1 PUSH3 0x1B4 JUMP JUMPDEST PUSH3 0x1ED SWAP1 PUSH3 0x1D9 PUSH3 0x204 JUMP JUMPDEST PUSH3 0x1E7 PUSH1 0x0 PUSH1 0x2 PUSH3 0x186 JUMP JUMPDEST PUSH3 0x1BF JUMP JUMPDEST PUSH1 0x80 MSTORE PUSH1 0xA0 MSTORE PUSH1 0xC0 MSTORE JUMP JUMPDEST PUSH3 0xF3 PUSH1 0x1 PUSH3 0x176 JUMP JUMPDEST PUSH3 0xE5 PUSH3 0x212 PUSH3 0x1F8 JUMP JUMPDEST PUSH1 0x0 PUSH3 0x186 JUMP INVALID PUSH1 0x80 PUSH1 0x40 MSTORE PUSH1 0x4 CALLDATASIZE LT ISZERO PUSH2 0x12 JUMPI PUSH1 0x0 DUP1 REVERT JUMPDEST PUSH1 0x0 CALLDATALOAD PUSH1 0xE0 SHR DUP1 PUSH3 0x2772C2 EQ PUSH2 0x171 JUMPI DUP1 PUSH4 0x7CA140D EQ PUSH2 0x16C JUMPI DUP1 PUSH4 0x131BE674 EQ PUSH2 0x167 JUMPI DUP1 PUSH4 0x141961BC EQ PUSH2 0x162 JUMPI DUP1 PUSH4 0x2828F2EE EQ PUSH2 0x15D JUMPI DUP1 PUSH4 0x34FBC9A1 EQ PUSH2 0x158 JUMPI DUP1 PUSH4 0x441A3E70 EQ PUSH2 0x153 JUMPI DUP1 PUSH4 0x4C69A6C9 EQ PUSH2 0x14E JUMPI DUP1 PUSH4 0x50D6C1E8 EQ PUSH2 0x149 JUMPI DUP1 PUSH4 0x596D9CE2 EQ PUSH2 0x144 JUMPI DUP1 PUSH4 0x5CC07076 EQ PUSH2 0x13F JUMPI DUP1 PUSH4 0x68024717 EQ PUSH2 0x13A JUMPI DUP1 PUSH4 0x6F9FB98A EQ PUSH2 0x135 JUMPI DUP1 PUSH4 0x75970193 EQ PUSH2 0x130 JUMPI DUP1 PUSH4 0x7EB483C9 EQ PUSH2 0x12B JUMPI DUP1 PUSH4 0x89A30271 EQ PUSH2 0x126 JUMPI DUP1 PUSH4 0x958E2D31 EQ PUSH2 0x121 JUMPI DUP1 PUSH4 0xA6B03633 EQ PUSH2 0x11C JUMPI DUP1 PUSH4 0xAD5C4648 EQ PUSH2 0x117 JUMPI DUP1 PUSH4 0xC31C9C07 EQ PUSH2 0x112 JUMPI DUP1 PUSH4 0xD0CEE66A EQ PUSH2 0x10D JUMPI PUSH4 0xEAA1B0BC SUB PUSH2 0x176 JUMPI PUSH2 0xEFC JUMP JUMPDEST PUSH2 0xEE1 JUMP JUMPDEST PUSH2 0xEA3 JUMP JUMPDEST PUSH2 0xE2B JUMP JUMPDEST PUSH2 0xE04 JUMP JUMPDEST PUSH2 0xC04 JUMP JUMPDEST PUSH2 0xBC3 JUMP JUMPDEST PUSH2 0xB98 JUMP JUMPDEST PUSH2 0xB80 JUMP JUMPDEST PUSH2 0xB65 JUMP JUMPDEST PUSH2 0xB4A JUMP JUMPDEST PUSH2 0xB05 JUMP JUMPDEST PUSH2 0xA20 JUMP JUMPDEST PUSH2 0x90B JUMP JUMPDEST PUSH2 0x82A JUMP JUMPDEST PUSH2 0x7E4 JUMP JUMPDEST PUSH2 0x7AD JUMP JUMPDEST PUSH2 0x779 JUMP JUMPDEST PUSH2 0x671 JUMP JUMPDEST PUSH2 0x32F JUMP JUMPDEST PUSH2 0x1E1 JUMP JUMPDEST PUSH2 0x18C JUMP JUMPDEST PUSH1 0x0 DUP1 REVERT JUMPDEST PUSH1 0x0 SWAP2 SUB SLT PUSH2 0x176 JUMPI JUMP JUMPDEST SWAP1 MSTORE JUMP JUMPDEST JUMP JUMPDEST CALLVALUE PUSH2 0x176 JUMPI PUSH2 0x19C CALLDATASIZE PUSH1 0x4 PUSH2 0x17B JUMP JUMPDEST PUSH2 0x1B8 PUSH2 0x1A7 PUSH2 0xF42 JUMP JUMPDEST PUSH1 0x40 MLOAD JUMPDEST SWAP2 DUP3 SWAP2 DUP3 SWAP1 DUP2 MSTORE PUSH1 0x20 ADD SWAP1 JUMP JUMPDEST SUB SWAP1 RETURN JUMPDEST PUSH2 0x1C7 SWAP2 PUSH1 0x8 MUL SHR DUP2 JUMP JUMPDEST SWAP1 JUMP JUMPDEST SWAP1 PUSH2 0x1C7 SWAP2 SLOAD PUSH2 0x1BC JUMP JUMPDEST PUSH2 0x1C7 PUSH1 0x0 PUSH1 0x2 PUSH2 0x1CA JUMP JUMPDEST CALLVALUE PUSH2 0x176 JUMPI PUSH2 0x1F1 CALLDATASIZE PUSH1 0x4 PUSH2 0x17B JUMP JUMPDEST PUSH2 0x1B8 PUSH2 0x1A7 PUSH2 0x1D5 JUMP JUMPDEST DUP1 JUMPDEST SUB PUSH2 0x176 JUMPI JUMP JUMPDEST SWAP1 POP CALLDATALOAD SWAP1 PUSH2 0x18A DUP3 PUSH2 0x1FC JUMP JUMPDEST PUSH4 0x4E487B71 PUSH1 0xE0 SHL PUSH1 0x0 MSTORE PUSH1 0x41 PUSH1 0x4 MSTORE PUSH1 0x24 PUSH1 0x0 REVERT JUMPDEST SWAP1 PUSH1 0x1F ADD PUSH1 0x1F NOT AND DUP2 ADD SWAP1 DUP2 LT PUSH8 0xFFFFFFFFFFFFFFFF DUP3 GT OR PUSH2 0x24A JUMPI PUSH1 0x40 MSTORE JUMP JUMPDEST PUSH2 0x212 JUMP JUMPDEST SWAP1 PUSH2 0x18A PUSH2 0x25C PUSH1 0x40 MLOAD SWAP1 JUMP JUMPDEST SWAP3 DUP4 PUSH2 0x228 JUMP JUMPDEST PUSH8 0xFFFFFFFFFFFFFFFF DUP2 GT PUSH2 0x24A JUMPI PUSH1 0x20 SWAP1 PUSH1 0x1F ADD PUSH1 0x1F NOT AND ADD SWAP1 JUMP JUMPDEST ADD SWAP1 JUMP JUMPDEST SWAP1 DUP3 PUSH1 0x0 SWAP4 SWAP3 DUP3 CALLDATACOPY ADD MSTORE JUMP JUMPDEST SWAP1 SWAP3 SWAP2 SWAP3 PUSH2 0x2A5 PUSH2 0x2A0 DUP3 PUSH2 0x263 JUMP JUMPDEST PUSH2 0x24F JUMP JUMPDEST SWAP4 DUP2 DUP6 MSTORE DUP2 DUP4 ADD GT PUSH2 0x176 JUMPI PUSH2 0x18A SWAP2 PUSH1 0x20 DUP6 ADD SWAP1 PUSH2 0x284 JUMP JUMPDEST SWAP1 DUP1 PUSH1 0x1F DUP4 ADD SLT ISZERO PUSH2 0x176 JUMPI DUP2 PUSH1 0x20 PUSH2 0x1C7 SWAP4 CALLDATALOAD SWAP2 ADD PUSH2 0x290 JUMP JUMPDEST SWAP2 PUSH1 0x60 DUP4 DUP4 SUB SLT PUSH2 0x176 JUMPI PUSH2 0x2EF DUP3 DUP5 PUSH2 0x205 JUMP JUMPDEST SWAP3 PUSH1 0x20 DUP2 ADD CALLDATALOAD PUSH8 0xFFFFFFFFFFFFFFFF DUP2 GT PUSH2 0x176 JUMPI DUP4 PUSH2 0x310 SWAP2 DUP4 ADD PUSH2 0x2BF JUMP JUMPDEST SWAP3 PUSH1 0x40 DUP3 ADD CALLDATALOAD PUSH8 0xFFFFFFFFFFFFFFFF DUP2 GT PUSH2 0x176 JUMPI PUSH2 0x1C7 SWAP3 ADD PUSH2 0x2BF JUMP JUMPDEST PUSH2 0x1B8 PUSH2 0x1A7 PUSH2 0x340 CALLDATASIZE PUSH1 0x4 PUSH2 0x2DA JUMP JUMPDEST SWAP2 PUSH2 0x1621 JUMP JUMPDEST SWAP1 PUSH1 0x20 DUP3 DUP3 SUB SLT PUSH2 0x176 JUMPI PUSH2 0x1C7 SWAP2 PUSH2 0x205 JUMP JUMPDEST PUSH2 0x1C7 PUSH2 0x1C7 PUSH2 0x1C7 SWAP3 SWAP1 JUMP JUMPDEST SWAP1 PUSH2 0x371 SWAP1 PUSH2 0x35A JUMP JUMPDEST PUSH1 0x0 MSTORE PUSH1 0x20 MSTORE PUSH1 0x40 PUSH1 0x0 KECCAK256 SWAP1 JUMP JUMPDEST PUSH4 0x4E487B71 PUSH1 0xE0 SHL PUSH1 0x0 MSTORE PUSH1 0x22 PUSH1 0x4 MSTORE PUSH1 0x24 PUSH1 0x0 REVERT JUMPDEST SWAP1 PUSH1 0x1 PUSH1 0x2 DUP4 DIV SWAP3 AND DUP1 ISZERO PUSH2 0x3B5 JUMPI JUMPDEST PUSH1 0x20 DUP4 LT EQ PUSH2 0x3B0 JUMPI JUMP JUMPDEST PUSH2 0x37F JUMP JUMPDEST SWAP2 PUSH1 0x7F AND SWAP2 PUSH2 0x3A5 JUMP JUMPDEST DUP1 SLOAD PUSH1 0x0 SWAP4 SWAP3 SWAP2 PUSH2 0x3DC PUSH2 0x3D2 DUP4 PUSH2 0x395 JUMP JUMPDEST DUP1 DUP6 MSTORE SWAP4 PUSH1 0x20 ADD SWAP1 JUMP JUMPDEST SWAP2 PUSH1 0x1 DUP2 AND SWAP1 DUP2 ISZERO PUSH2 0x42E JUMPI POP PUSH1 0x1 EQ PUSH2 0x3F5 JUMPI POP POP POP JUMP JUMPDEST PUSH2 0x408 SWAP2 SWAP3 SWAP4 SWAP5 POP PUSH1 0x0 MSTORE PUSH1 0x20 PUSH1 0x0 KECCAK256 SWAP1 JUMP JUMPDEST SWAP2 PUSH1 0x0 SWAP3 JUMPDEST DUP2 DUP5 LT PUSH2 0x41A JUMPI POP POP ADD SWAP1 JUMP JUMPDEST DUP1 SLOAD DUP5 DUP5 ADD MSTORE PUSH1 0x20 SWAP1 SWAP4 ADD SWAP3 PUSH1 0x1 ADD PUSH2 0x40D JUMP JUMPDEST SWAP3 SWAP5 SWAP6 POP POP POP PUSH1 0xFF NOT AND DUP3 MSTORE ISZERO ISZERO PUSH1 0x20 MUL ADD SWAP1 JUMP JUMPDEST SWAP1 PUSH2 0x1C7 SWAP2 PUSH2 0x3BF JUMP JUMPDEST SWAP1 PUSH2 0x18A PUSH2 0x467 SWAP3 PUSH2 0x45E PUSH1 0x40 MLOAD SWAP1 JUMP JUMPDEST SWAP4 DUP5 DUP1 SWAP3 PUSH2 0x443 JUMP JUMPDEST SUB DUP4 PUSH2 0x228 JUMP JUMPDEST PUSH2 0x1C7 SWAP1 JUMPDEST PUSH1 0x1 PUSH1 0x1 PUSH1 0xA0 SHL SUB AND SWAP1 JUMP JUMPDEST PUSH2 0x1C7 SWAP1 SLOAD PUSH2 0x46E JUMP JUMPDEST PUSH2 0x1C7 SWAP1 DUP2 JUMP JUMPDEST PUSH2 0x1C7 SWAP1 SLOAD PUSH2 0x489 JUMP JUMPDEST PUSH1 0xFF AND SWAP1 JUMP JUMPDEST PUSH2 0x1C7 SWAP1 SLOAD PUSH2 0x49A JUMP JUMPDEST PUSH2 0x4B5 SWAP1 PUSH1 0x1 PUSH2 0x367 JUMP JUMPDEST SWAP1 PUSH2 0x4BF DUP3 PUSH2 0x44D JUMP JUMPDEST SWAP2 PUSH2 0x4CC PUSH1 0x1 DUP3 ADD PUSH2 0x47F JUMP JUMPDEST SWAP2 PUSH2 0x4D9 PUSH1 0x2 DUP4 ADD PUSH2 0x44D JUMP JUMPDEST SWAP2 PUSH2 0x4E6 PUSH1 0x3 DUP3 ADD PUSH2 0x44D JUMP JUMPDEST SWAP2 PUSH2 0x4F3 PUSH1 0x4 DUP4 ADD PUSH2 0x44D JUMP JUMPDEST SWAP2 PUSH2 0x500 PUSH1 0x5 DUP3 ADD PUSH2 0x490 JUMP JUMPDEST SWAP2 PUSH2 0x50D PUSH1 0x6 DUP4 ADD PUSH2 0x490 JUMP JUMPDEST SWAP2 PUSH2 0x51A PUSH1 0x7 DUP3 ADD PUSH2 0x490 JUMP JUMPDEST SWAP2 PUSH2 0x527 PUSH1 0x8 DUP4 ADD PUSH2 0x490 JUMP JUMPDEST SWAP2 PUSH2 0x534 PUSH1 0x9 DUP3 ADD PUSH2 0x490 JUMP JUMPDEST SWAP2 PUSH2 0x541 PUSH1 0xA DUP4 ADD PUSH2 0x490 JUMP JUMPDEST SWAP2 PUSH2 0x54E PUSH1 0xB DUP3 ADD PUSH2 0x490 JUMP JUMPDEST SWAP2 PUSH2 0x1C7 PUSH1 0xE PUSH2 0x560 PUSH1 0xD DUP6 ADD PUSH2 0x490 JUMP JUMPDEST SWAP4 ADD PUSH2 0x4A0 JUMP JUMPDEST PUSH1 0x0 JUMPDEST DUP4 DUP2 LT PUSH2 0x57A JUMPI POP POP PUSH1 0x0 SWAP2 ADD MSTORE JUMP JUMPDEST DUP2 DUP2 ADD MLOAD DUP4 DUP3 ADD MSTORE PUSH1 0x20 ADD PUSH2 0x56A JUMP JUMPDEST PUSH2 0x5AB PUSH2 0x5B4 PUSH1 0x20 SWAP4 PUSH2 0x280 SWAP4 PUSH2 0x59F DUP2 MLOAD SWAP1 JUMP JUMPDEST DUP1 DUP4 MSTORE SWAP4 DUP5 SWAP3 PUSH1 0x20 ADD SWAP1 JUMP JUMPDEST SWAP6 DUP7 SWAP2 ADD PUSH2 0x567 JUMP JUMPDEST PUSH1 0x1F ADD PUSH1 0x1F NOT AND SWAP1 JUMP JUMPDEST PUSH2 0x186 SWAP1 PUSH2 0x473 JUMP JUMPDEST SWAP12 SWAP10 SWAP8 SWAP6 SWAP15 SWAP14 SWAP13 SWAP11 SWAP9 SWAP7 SWAP5 SWAP4 SWAP3 SWAP2 SWAP1 PUSH2 0x1C0 DUP14 ADD DUP14 DUP1 DUP3 SUB SWAP1 PUSH1 0x0 ADD MSTORE PUSH2 0x5ED SWAP2 PUSH2 0x58A JUMP JUMPDEST SWAP1 PUSH1 0x20 DUP14 ADD PUSH2 0x5FB SWAP2 PUSH2 0x5BE JUMP JUMPDEST DUP12 DUP2 SUB PUSH1 0x40 DUP14 ADD MSTORE PUSH2 0x60C SWAP2 PUSH2 0x58A JUMP JUMPDEST DUP11 DUP2 SUB PUSH1 0x60 DUP13 ADD MSTORE PUSH2 0x61D SWAP2 PUSH2 0x58A JUMP JUMPDEST DUP10 DUP2 SUB PUSH1 0x80 DUP12 ADD MSTORE PUSH2 0x62E SWAP2 PUSH2 0x58A JUMP JUMPDEST SWAP11 PUSH1 0xA0 DUP10 ADD PUSH2 0x63B SWAP2 SWAP1 MSTORE JUMP JUMPDEST PUSH1 0xC0 DUP9 ADD MSTORE PUSH1 0xE0 DUP8 ADD MSTORE PUSH2 0x100 DUP7 ADD MSTORE PUSH2 0x120 DUP6 ADD MSTORE PUSH2 0x140 DUP5 ADD MSTORE PUSH2 0x160 DUP4 ADD MSTORE PUSH2 0x180 DUP3 ADD MSTORE PUSH2 0x1A0 ADD PUSH2 0x18A SWAP2 ISZERO ISZERO SWAP1 MSTORE JUMP JUMPDEST CALLVALUE PUSH2 0x176 JUMPI PUSH2 0x1B8 PUSH2 0x68C PUSH2 0x687 CALLDATASIZE PUSH1 0x4 PUSH2 0x346 JUMP JUMPDEST PUSH2 0x4AA JUMP JUMPDEST SWAP11 PUSH2 0x6A8 SWAP15 SWAP13 SWAP15 SWAP11 SWAP2 SWAP11 SWAP10 SWAP3 SWAP10 SWAP9 SWAP4 SWAP9 SWAP8 SWAP5 SWAP8 SWAP7 SWAP6 SWAP7 PUSH1 0x40 MLOAD SWAP1 JUMP JUMPDEST SWAP15 DUP16 SWAP15 DUP16 PUSH2 0x5C7 JUMP JUMPDEST PUSH2 0x1FE DUP2 PUSH2 0x473 JUMP JUMPDEST SWAP1 POP CALLDATALOAD SWAP1 PUSH2 0x18A DUP3 PUSH2 0x6B1 JUMP JUMPDEST PUSH1 0xE0 DUP2 DUP4 SUB SLT PUSH2 0x176 JUMPI DUP1 CALLDATALOAD PUSH8 0xFFFFFFFFFFFFFFFF DUP2 GT PUSH2 0x176 JUMPI DUP3 PUSH2 0x6EE SWAP2 DUP4 ADD PUSH2 0x2BF JUMP JUMPDEST SWAP3 PUSH2 0x6FC DUP4 PUSH1 0x20 DUP5 ADD PUSH2 0x6BA JUMP JUMPDEST SWAP3 PUSH1 0x40 DUP4 ADD CALLDATALOAD PUSH8 0xFFFFFFFFFFFFFFFF DUP2 GT PUSH2 0x176 JUMPI DUP2 PUSH2 0x71D SWAP2 DUP6 ADD PUSH2 0x2BF JUMP JUMPDEST SWAP3 PUSH1 0x60 DUP2 ADD CALLDATALOAD PUSH8 0xFFFFFFFFFFFFFFFF DUP2 GT PUSH2 0x176 JUMPI DUP3 PUSH2 0x73E SWAP2 DUP4 ADD PUSH2 0x2BF JUMP JUMPDEST SWAP3 PUSH1 0x80 DUP3 ADD CALLDATALOAD PUSH8 0xFFFFFFFFFFFFFFFF DUP2 GT PUSH2 0x176 JUMPI PUSH2 0x762 DUP5 PUSH2 0x1C7 SWAP3 DUP6 ADD PUSH2 0x2BF JUMP JUMPDEST SWAP4 PUSH1 0xC0 PUSH2 0x772 DUP3 PUSH1 0xA0 DUP8 ADD PUSH2 0x205 JUMP JUMPDEST SWAP5 ADD PUSH2 0x205 JUMP JUMPDEST CALLVALUE PUSH2 0x176 JUMPI PUSH2 0x1B8 PUSH2 0x1A7 PUSH2 0x78F CALLDATASIZE PUSH1 0x4 PUSH2 0x6C7 JUMP JUMPDEST SWAP6 SWAP5 SWAP1 SWAP5 SWAP4 SWAP2 SWAP4 PUSH2 0x18C6 JUMP JUMPDEST PUSH2 0x1C7 PUSH1 0x5 PUSH2 0x35A JUMP JUMPDEST PUSH2 0x1C7 PUSH2 0x79B JUMP JUMPDEST CALLVALUE PUSH2 0x176 JUMPI PUSH2 0x7BD CALLDATASIZE PUSH1 0x4 PUSH2 0x17B JUMP JUMPDEST PUSH2 0x1B8 PUSH2 0x1A7 PUSH2 0x7A5 JUMP JUMPDEST SWAP2 SWAP1 PUSH1 0x40 DUP4 DUP3 SUB SLT PUSH2 0x176 JUMPI PUSH2 0x1C7 SWAP1 PUSH1 0x20 PUSH2 0x772 DUP3 DUP7 PUSH2 0x205 JUMP JUMPDEST CALLVALUE PUSH2 0x176 JUMPI PUSH2 0x7FD PUSH2 0x7F7 CALLDATASIZE PUSH1 0x4 PUSH2 0x7C8 JUMP JUMPDEST SWAP1 PUSH2 0x1FF3 JUMP JUMPDEST PUSH1 0x40 MLOAD STOP JUMPDEST PUSH2 0x80F PUSH2 0x1C7 PUSH2 0x1C7 SWAP3 SWAP1 JUMP JUMPDEST PUSH3 0xFFFFFF AND SWAP1 JUMP JUMPDEST PUSH2 0x1C7 PUSH2 0xBB8 PUSH2 0x802 JUMP JUMPDEST PUSH2 0x1C7 PUSH2 0x817 JUMP JUMPDEST CALLVALUE PUSH2 0x176 JUMPI PUSH2 0x83A CALLDATASIZE PUSH1 0x4 PUSH2 0x17B JUMP JUMPDEST PUSH2 0x1B8 PUSH2 0x845 PUSH2 0x822 JUMP JUMPDEST PUSH1 0x40 MLOAD SWAP2 DUP3 SWAP2 DUP3 PUSH3 0xFFFFFF SWAP1 SWAP2 AND DUP2 MSTORE PUSH1 0x20 ADD SWAP1 JUMP JUMPDEST SWAP1 PUSH1 0x60 DUP1 PUSH2 0x18A SWAP4 PUSH2 0x875 PUSH1 0x0 DUP3 ADD MLOAD PUSH1 0x0 DUP7 ADD SWAP1 PUSH2 0x5BE JUMP JUMPDEST PUSH2 0x884 PUSH1 0x20 DUP3 ADD MLOAD PUSH1 0x20 DUP7 ADD MSTORE JUMP JUMPDEST PUSH2 0x893 PUSH1 0x40 DUP3 ADD MLOAD PUSH1 0x40 DUP7 ADD MSTORE JUMP JUMPDEST ADD MLOAD SWAP2 ADD MSTORE JUMP JUMPDEST SWAP1 PUSH2 0x280 DUP2 PUSH1 0x80 SWAP4 PUSH2 0x85B JUMP JUMPDEST SWAP1 PUSH2 0x8C7 PUSH2 0x8C0 PUSH2 0x8B6 DUP5 MLOAD SWAP1 JUMP JUMPDEST DUP1 DUP5 MSTORE SWAP3 PUSH1 0x20 ADD SWAP1 JUMP JUMPDEST SWAP3 PUSH1 0x20 ADD SWAP1 JUMP JUMPDEST SWAP1 PUSH1 0x0 JUMPDEST DUP2 DUP2 LT PUSH2 0x8D8 JUMPI POP POP POP SWAP1 JUMP JUMPDEST SWAP1 SWAP2 SWAP3 PUSH2 0x8F2 PUSH2 0x8EB PUSH1 0x1 SWAP3 DUP7 MLOAD PUSH2 0x89A JUMP JUMPDEST SWAP5 PUSH1 0x20 ADD SWAP1 JUMP JUMPDEST SWAP3 SWAP2 ADD PUSH2 0x8CB JUMP JUMPDEST PUSH1 0x20 DUP1 DUP3 MSTORE PUSH2 0x1C7 SWAP3 SWAP2 ADD SWAP1 PUSH2 0x8A7 JUMP JUMPDEST CALLVALUE PUSH2 0x176 JUMPI PUSH2 0x91B CALLDATASIZE PUSH1 0x4 PUSH2 0x17B JUMP JUMPDEST PUSH2 0x1B8 PUSH2 0x926 PUSH2 0x20EB JUMP JUMPDEST PUSH1 0x40 MLOAD SWAP2 DUP3 SWAP2 DUP3 PUSH2 0x8FA JUMP JUMPDEST SWAP1 PUSH2 0x1C7 SWAP1 PUSH1 0xA0 DUP1 PUSH2 0x97A PUSH2 0x968 PUSH1 0xC0 DUP6 ADD PUSH2 0x956 PUSH1 0x0 DUP10 ADD MLOAD PUSH1 0x0 DUP9 ADD SWAP1 PUSH2 0x5BE JUMP JUMPDEST PUSH1 0x20 DUP9 ADD MLOAD DUP7 DUP3 SUB PUSH1 0x20 DUP9 ADD MSTORE PUSH2 0x58A JUMP JUMPDEST PUSH1 0x40 DUP8 ADD MLOAD DUP6 DUP3 SUB PUSH1 0x40 DUP8 ADD MSTORE PUSH2 0x58A JUMP JUMPDEST SWAP5 PUSH2 0x98A PUSH1 0x60 DUP3 ADD MLOAD PUSH1 0x60 DUP7 ADD MSTORE JUMP JUMPDEST PUSH2 0x893 PUSH1 0x80 DUP3 ADD MLOAD PUSH1 0x80 DUP7 ADD MSTORE JUMP JUMPDEST SWAP1 PUSH2 0x1C7 SWAP2 PUSH2 0x932 JUMP JUMPDEST SWAP1 PUSH2 0x9B9 PUSH2 0x9AF DUP4 MLOAD SWAP1 JUMP JUMPDEST DUP1 DUP4 MSTORE SWAP2 PUSH1 0x20 ADD SWAP1 JUMP JUMPDEST SWAP1 DUP2 PUSH2 0x9CB PUSH1 0x20 DUP4 MUL DUP5 ADD SWAP5 PUSH1 0x20 ADD SWAP1 JUMP JUMPDEST SWAP3 PUSH1 0x0 SWAP2 JUMPDEST DUP4 DUP4 LT PUSH2 0x9DF JUMPI POP POP POP POP POP SWAP1 JUMP JUMPDEST SWAP1 SWAP2 SWAP3 SWAP4 SWAP5 PUSH1 0x20 PUSH2 0xA02 PUSH2 0x9FB DUP4 DUP6 PUSH1 0x1 SWAP6 SUB DUP8 MSTORE DUP10 MLOAD PUSH2 0x999 JUMP JUMPDEST SWAP8 PUSH1 0x20 ADD SWAP1 JUMP JUMPDEST SWAP4 ADD SWAP4 ADD SWAP2 SWAP4 SWAP3 SWAP1 PUSH2 0x9D0 JUMP JUMPDEST PUSH1 0x20 DUP1 DUP3 MSTORE PUSH2 0x1C7 SWAP3 SWAP2 ADD SWAP1 PUSH2 0x9A3 JUMP JUMPDEST CALLVALUE PUSH2 0x176 JUMPI PUSH2 0x1B8 PUSH2 0xA3B PUSH2 0xA36 CALLDATASIZE PUSH1 0x4 PUSH2 0x346 JUMP JUMPDEST PUSH2 0x21CB JUMP JUMPDEST PUSH1 0x40 MLOAD SWAP2 DUP3 SWAP2 DUP3 PUSH2 0xA0F JUMP JUMPDEST PUSH4 0x4E487B71 PUSH1 0xE0 SHL PUSH1 0x0 MSTORE PUSH1 0x32 PUSH1 0x4 MSTORE PUSH1 0x24 PUSH1 0x0 REVERT JUMPDEST DUP1 SLOAD DUP3 LT ISZERO PUSH2 0xA80 JUMPI PUSH2 0xA77 PUSH1 0x4 SWAP2 PUSH1 0x0 MSTORE PUSH1 0x20 PUSH1 0x0 KECCAK256 SWAP1 JUMP JUMPDEST SWAP2 MUL ADD SWAP1 PUSH1 0x0 SWAP1 JUMP JUMPDEST PUSH2 0xA47 JUMP JUMPDEST PUSH1 0x3 SWAP1 PUSH2 0xA90 DUP3 SLOAD SWAP1 JUMP JUMPDEST DUP2 LT ISZERO PUSH2 0x176 JUMPI PUSH2 0xAA0 SWAP2 PUSH2 0xA5D JUMP JUMPDEST POP SWAP1 PUSH2 0xAAB DUP3 PUSH2 0x47F JUMP JUMPDEST SWAP2 PUSH2 0xAB8 PUSH1 0x1 DUP3 ADD PUSH2 0x490 JUMP JUMPDEST SWAP2 PUSH2 0x1C7 PUSH1 0x3 PUSH2 0xACA PUSH1 0x2 DUP6 ADD PUSH2 0x490 JUMP JUMPDEST SWAP4 ADD PUSH2 0x490 JUMP JUMPDEST PUSH2 0xB01 PUSH2 0x18A SWAP5 PUSH2 0xAFA PUSH1 0x60 SWAP5 SWAP9 SWAP8 SWAP6 PUSH2 0xAF3 PUSH1 0x80 DUP7 ADD SWAP11 PUSH1 0x0 DUP8 ADD SWAP1 PUSH2 0x5BE JUMP JUMPDEST PUSH1 0x20 DUP6 ADD MSTORE JUMP JUMPDEST PUSH1 0x40 DUP4 ADD MSTORE JUMP JUMPDEST ADD MSTORE JUMP JUMPDEST CALLVALUE PUSH2 0x176 JUMPI PUSH2 0x1B8 PUSH2 0xB20 PUSH2 0xB1B CALLDATASIZE PUSH1 0x4 PUSH2 0x346 JUMP JUMPDEST PUSH2 0xA85 JUMP JUMPDEST SWAP1 PUSH2 0xB2D SWAP5 SWAP3 SWAP5 PUSH1 0x40 MLOAD SWAP1 JUMP JUMPDEST SWAP5 DUP6 SWAP5 DUP6 PUSH2 0xAD1 JUMP JUMPDEST SWAP1 PUSH1 0x20 DUP3 DUP3 SUB SLT PUSH2 0x176 JUMPI PUSH2 0x1C7 SWAP2 PUSH2 0x6BA JUMP JUMPDEST CALLVALUE PUSH2 0x176 JUMPI PUSH2 0x1B8 PUSH2 0x1A7 PUSH2 0xB60 CALLDATASIZE PUSH1 0x4 PUSH2 0xB36 JUMP JUMPDEST PUSH2 0x21FA JUMP JUMPDEST CALLVALUE PUSH2 0x176 JUMPI PUSH2 0xB75 CALLDATASIZE PUSH1 0x4 PUSH2 0x17B JUMP JUMPDEST PUSH2 0x1B8 PUSH2 0x1A7 PUSH2 0x223D JUMP JUMPDEST CALLVALUE PUSH2 0x176 JUMPI PUSH2 0x7FD PUSH2 0xB93 CALLDATASIZE PUSH1 0x4 PUSH2 0x346 JUMP JUMPDEST PUSH2 0x2633 JUMP JUMPDEST CALLVALUE PUSH2 0x176 JUMPI PUSH2 0x1B8 PUSH2 0xA3B PUSH2 0xBAE CALLDATASIZE PUSH1 0x4 PUSH2 0xB36 JUMP JUMPDEST PUSH2 0x27B5 JUMP JUMPDEST PUSH1 0x20 DUP2 ADD SWAP3 SWAP2 PUSH2 0x18A SWAP2 SWAP1 PUSH2 0x5BE JUMP JUMPDEST CALLVALUE PUSH2 0x176 JUMPI PUSH2 0xBD3 CALLDATASIZE PUSH1 0x4 PUSH2 0x17B JUMP JUMPDEST PUSH2 0x1B8 PUSH32 0x0 JUMPDEST PUSH1 0x40 MLOAD SWAP2 DUP3 SWAP2 DUP3 PUSH2 0xBB3 JUMP JUMPDEST CALLVALUE PUSH2 0x176 JUMPI PUSH2 0x7FD PUSH2 0xC17 CALLDATASIZE PUSH1 0x4 PUSH2 0x346 JUMP JUMPDEST PUSH2 0x2C5A JUMP JUMPDEST SWAP1 PUSH2 0xC28 PUSH2 0x9AF DUP4 MLOAD SWAP1 JUMP JUMPDEST SWAP1 DUP2 PUSH2 0xC3A PUSH1 0x20 DUP4 MUL DUP5 ADD SWAP5 PUSH1 0x20 ADD SWAP1 JUMP JUMPDEST SWAP3 PUSH1 0x0 SWAP2 JUMPDEST DUP4 DUP4 LT PUSH2 0xC4E JUMPI POP POP POP POP POP SWAP1 JUMP JUMPDEST SWAP1 SWAP2 SWAP3 SWAP4 SWAP5 PUSH1 0x20 PUSH2 0xC6A PUSH2 0x9FB DUP4 DUP6 PUSH1 0x1 SWAP6 SUB DUP8 MSTORE DUP10 MLOAD PUSH2 0x999 JUMP JUMPDEST SWAP4 ADD SWAP4 ADD SWAP2 SWAP4 SWAP3 SWAP1 PUSH2 0xC3F JUMP JUMPDEST SWAP1 PUSH2 0x1C7 SWAP1 PUSH2 0x1C0 DUP1 PUSH2 0xD73 PUSH2 0xCEE PUSH2 0xCDC PUSH2 0xCCA PUSH2 0xCA6 PUSH2 0x1E0 DUP9 ADD PUSH1 0x0 DUP12 ADD MLOAD DUP10 DUP3 SUB PUSH1 0x0 DUP12 ADD MSTORE PUSH2 0x58A JUMP JUMPDEST PUSH2 0xCB8 PUSH1 0x20 DUP12 ADD MLOAD PUSH1 0x20 DUP11 ADD SWAP1 PUSH2 0x5BE JUMP JUMPDEST PUSH1 0x40 DUP11 ADD MLOAD DUP9 DUP3 SUB PUSH1 0x40 DUP11 ADD MSTORE PUSH2 0x58A JUMP JUMPDEST PUSH1 0x60 DUP10 ADD MLOAD DUP8 DUP3 SUB PUSH1 0x60 DUP10 ADD MSTORE PUSH2 0x58A JUMP JUMPDEST PUSH1 0x80 DUP9 ADD MLOAD DUP7 DUP3 SUB PUSH1 0x80 DUP9 ADD MSTORE PUSH2 0x58A JUMP JUMPDEST PUSH2 0xCFD PUSH1 0xA0 DUP9 ADD MLOAD PUSH1 0xA0 DUP8 ADD MSTORE JUMP JUMPDEST PUSH2 0xD0C PUSH1 0xC0 DUP9 ADD MLOAD PUSH1 0xC0 DUP8 ADD MSTORE JUMP JUMPDEST PUSH2 0xD1B PUSH1 0xE0 DUP9 ADD MLOAD PUSH1 0xE0 DUP8 ADD MSTORE JUMP JUMPDEST PUSH2 0xD2C PUSH2 0x100 DUP9 ADD MLOAD PUSH2 0x100 DUP8 ADD MSTORE JUMP JUMPDEST PUSH2 0xD3D PUSH2 0x120 DUP9 ADD MLOAD PUSH2 0x120 DUP8 ADD MSTORE JUMP JUMPDEST PUSH2 0xD4E PUSH2 0x140 DUP9 ADD MLOAD PUSH2 0x140 DUP8 ADD MSTORE JUMP JUMPDEST PUSH2 0xD5F PUSH2 0x160 DUP9 ADD MLOAD PUSH2 0x160 DUP8 ADD MSTORE JUMP JUMPDEST PUSH2 0x180 DUP8 ADD MLOAD DUP6 DUP3 SUB PUSH2 0x180 DUP8 ADD MSTORE PUSH2 0xC1C JUMP JUMPDEST SWAP5 PUSH2 0xD85 PUSH2 0x1A0 DUP3 ADD MLOAD PUSH2 0x1A0 DUP7 ADD MSTORE JUMP JUMPDEST ADD MLOAD ISZERO ISZERO SWAP2 ADD MSTORE JUMP JUMPDEST SWAP1 PUSH2 0x1C7 SWAP2 PUSH2 0xC77 JUMP JUMPDEST SWAP1 PUSH2 0xDA4 PUSH2 0x9AF DUP4 MLOAD SWAP1 JUMP JUMPDEST SWAP1 DUP2 PUSH2 0xDB6 PUSH1 0x20 DUP4 MUL DUP5 ADD SWAP5 PUSH1 0x20 ADD SWAP1 JUMP JUMPDEST SWAP3 PUSH1 0x0 SWAP2 JUMPDEST DUP4 DUP4 LT PUSH2 0xDCA JUMPI POP POP POP POP POP SWAP1 JUMP JUMPDEST SWAP1 SWAP2 SWAP3 SWAP4 SWAP5 PUSH1 0x20 PUSH2 0xDE6 PUSH2 0x9FB DUP4 DUP6 PUSH1 0x1 SWAP6 SUB DUP8 MSTORE DUP10 MLOAD PUSH2 0xD8E JUMP JUMPDEST SWAP4 ADD SWAP4 ADD SWAP2 SWAP4 SWAP3 SWAP1 PUSH2 0xDBB JUMP JUMPDEST PUSH1 0x20 DUP1 DUP3 MSTORE PUSH2 0x1C7 SWAP3 SWAP2 ADD SWAP1 PUSH2 0xD98 JUMP JUMPDEST CALLVALUE PUSH2 0x176 JUMPI PUSH2 0xE14 CALLDATASIZE PUSH1 0x4 PUSH2 0x17B JUMP JUMPDEST PUSH2 0x1B8 PUSH2 0xE1F PUSH2 0x2EC5 JUMP JUMPDEST PUSH1 0x40 MLOAD SWAP2 DUP3 SWAP2 DUP3 PUSH2 0xDF3 JUMP JUMPDEST CALLVALUE PUSH2 0x176 JUMPI PUSH2 0xE3B CALLDATASIZE PUSH1 0x4 PUSH2 0x17B JUMP JUMPDEST PUSH2 0x1B8 PUSH32 0x0 PUSH2 0xBF8 JUMP JUMPDEST PUSH2 0x1C7 SWAP1 PUSH2 0x473 SWAP1 PUSH1 0x1 PUSH1 0x1 PUSH1 0xA0 SHL SUB AND DUP3 JUMP JUMPDEST PUSH2 0x1C7 SWAP1 PUSH2 0xE64 JUMP JUMPDEST PUSH2 0x1C7 SWAP1 PUSH2 0xE78 JUMP JUMPDEST PUSH2 0x186 SWAP1 PUSH2 0xE81 JUMP JUMPDEST PUSH1 0x20 DUP2 ADD SWAP3 SWAP2 PUSH2 0x18A SWAP2 SWAP1 PUSH2 0xE8A JUMP JUMPDEST CALLVALUE PUSH2 0x176 JUMPI PUSH2 0xEB3 CALLDATASIZE PUSH1 0x4 PUSH2 0x17B JUMP JUMPDEST PUSH1 0x40 MLOAD DUP1 PUSH2 0x1B8 PUSH32 0x0 DUP3 PUSH2 0xE93 JUMP JUMPDEST CALLVALUE PUSH2 0x176 JUMPI PUSH2 0x1B8 PUSH2 0x1A7 PUSH2 0xEF7 CALLDATASIZE PUSH1 0x4 PUSH2 0x346 JUMP JUMPDEST PUSH2 0x2F46 JUMP JUMPDEST CALLVALUE PUSH2 0x176 JUMPI PUSH2 0x7FD PUSH2 0xF0F CALLDATASIZE PUSH1 0x4 PUSH2 0x7C8 JUMP JUMPDEST SWAP1 PUSH2 0x3003 JUMP JUMPDEST SWAP1 POP MLOAD SWAP1 PUSH2 0x18A DUP3 PUSH2 0x1FC JUMP JUMPDEST SWAP1 PUSH1 0x20 DUP3 DUP3 SUB SLT PUSH2 0x176 JUMPI PUSH2 0x1C7 SWAP2 PUSH2 0xF15 JUMP JUMPDEST PUSH1 0x40 MLOAD RETURNDATASIZE PUSH1 0x0 DUP3 RETURNDATACOPY RETURNDATASIZE SWAP1 REVERT JUMPDEST PUSH2 0xFA5 PUSH1 0x20 PUSH2 0xF78 PUSH2 0xF73 PUSH32 0x0 PUSH2 0xE81 JUMP JUMPDEST PUSH2 0xE81 JUMP JUMPDEST PUSH2 0xF81 ADDRESS PUSH2 0xE81 JUMP JUMPDEST SWAP1 PUSH2 0xF8B PUSH1 0x40 MLOAD SWAP1 JUMP JUMPDEST SWAP4 DUP5 SWAP3 DUP4 SWAP2 DUP3 SWAP2 PUSH4 0x70A08231 PUSH1 0xE0 SHL DUP4 MSTORE PUSH1 0x4 DUP4 ADD PUSH2 0xBB3 JUMP JUMPDEST SUB SWAP2 GAS STATICCALL SWAP1 DUP2 ISZERO PUSH2 0xFE4 JUMPI PUSH1 0x0 SWAP2 PUSH2 0xFBB JUMPI POP SWAP1 JUMP JUMPDEST PUSH2 0x1C7 SWAP2 POP PUSH1 0x20 RETURNDATASIZE PUSH1 0x20 GT PUSH2 0xFDD JUMPI JUMPDEST PUSH2 0xFD5 DUP2 DUP4 PUSH2 0x228 JUMP JUMPDEST DUP2 ADD SWAP1 PUSH2 0xF22 JUMP JUMPDEST POP RETURNDATASIZE PUSH2 0xFCB JUMP JUMPDEST PUSH2 0xF36 JUMP JUMPDEST SWAP1 PUSH2 0xFFD SWAP4 SWAP3 SWAP2 PUSH2 0xFF8 PUSH2 0x3074 JUMP JUMPDEST PUSH2 0x14B5 JUMP JUMPDEST SWAP1 PUSH2 0x18A PUSH2 0x30B4 JUMP JUMPDEST PUSH1 0x20 DUP1 DUP3 MSTORE PUSH1 0x13 SWAP1 DUP3 ADD MSTORE PUSH19 0x125B9D985B1A590818D85B5C185A59DB881251 PUSH1 0x6A SHL PUSH1 0x40 DUP3 ADD MSTORE PUSH1 0x60 ADD SWAP1 JUMP JUMPDEST ISZERO PUSH2 0x103A JUMPI JUMP JUMPDEST PUSH1 0x40 MLOAD PUSH3 0x461BCD PUSH1 0xE5 SHL DUP2 MSTORE DUP1 PUSH2 0x1053 PUSH1 0x4 DUP3 ADD PUSH2 0x1006 JUMP JUMPDEST SUB SWAP1 REVERT JUMPDEST PUSH1 0x20 DUP1 DUP3 MSTORE PUSH1 0x22 SWAP1 DUP3 ADD MSTORE PUSH32 0x446F6E6174696F6E206D7573742062652067726561746572207468616E207A65 PUSH1 0x40 DUP3 ADD MSTORE PUSH2 0x726F PUSH1 0xF0 SHL PUSH1 0x60 DUP3 ADD MSTORE PUSH1 0x80 ADD SWAP1 JUMP JUMPDEST ISZERO PUSH2 0x10A0 JUMPI JUMP JUMPDEST PUSH1 0x40 MLOAD PUSH3 0x461BCD PUSH1 0xE5 SHL DUP2 MSTORE DUP1 PUSH2 0x1053 PUSH1 0x4 DUP3 ADD PUSH2 0x1057 JUMP JUMPDEST PUSH1 0x20 DUP1 DUP3 MSTORE PUSH1 0x13 SWAP1 DUP3 ADD MSTORE PUSH19 0x43616D706169676E2069732050656E64696E67 PUSH1 0x68 SHL PUSH1 0x40 DUP3 ADD MSTORE PUSH1 0x60 ADD SWAP1 JUMP JUMPDEST ISZERO PUSH2 0x10ED JUMPI JUMP JUMPDEST PUSH1 0x40 MLOAD PUSH3 0x461BCD PUSH1 0xE5 SHL DUP2 MSTORE DUP1 PUSH2 0x1053 PUSH1 0x4 DUP3 ADD PUSH2 0x10B9 JUMP JUMPDEST PUSH1 0x20 DUP1 DUP3 MSTORE PUSH1 0x12 SWAP1 DUP3 ADD MSTORE PUSH18 0x10D85B5C185A59DB881A185CC8195B991959 PUSH1 0x72 SHL PUSH1 0x40 DUP3 ADD MSTORE PUSH1 0x60 ADD SWAP1 JUMP JUMPDEST ISZERO PUSH2 0x1139 JUMPI JUMP JUMPDEST PUSH1 0x40 MLOAD PUSH3 0x461BCD PUSH1 0xE5 SHL DUP2 MSTORE DUP1 PUSH2 0x1053 PUSH1 0x4 DUP3 ADD PUSH2 0x1106 JUMP JUMPDEST PUSH2 0x1C7 PUSH1 0xC0 PUSH2 0x24F JUMP JUMPDEST SWAP1 PUSH2 0x186 SWAP1 PUSH2 0x473 JUMP JUMPDEST DUP1 SLOAD DUP3 LT ISZERO PUSH2 0xA80 JUMPI PUSH2 0xA77 PUSH1 0x6 SWAP2 PUSH1 0x0 MSTORE PUSH1 0x20 PUSH1 0x0 KECCAK256 SWAP1 JUMP JUMPDEST PUSH4 0x4E487B71 PUSH1 0xE0 SHL PUSH1 0x0 MSTORE PUSH1 0x0 PUSH1 0x4 MSTORE PUSH1 0x24 PUSH1 0x0 REVERT JUMPDEST PUSH2 0x1C7 SWAP1 MLOAD PUSH2 0x473 JUMP JUMPDEST SWAP1 PUSH1 0x1 PUSH1 0x1 PUSH1 0xA0 SHL SUB SWAP1 JUMPDEST SWAP2 DUP2 NOT AND SWAP2 AND OR SWAP1 JUMP JUMPDEST SWAP1 PUSH2 0x11C5 PUSH2 0x1C7 PUSH2 0x11CC SWAP3 PUSH2 0xE81 JUMP JUMPDEST DUP3 SLOAD PUSH2 0x11A0 JUMP JUMPDEST SWAP1 SSTORE JUMP JUMPDEST SWAP2 PUSH1 0x0 NOT PUSH1 0x8 SWAP3 SWAP1 SWAP3 MUL SWAP2 DUP3 SHL SWAP2 SHL PUSH2 0x11AB JUMP JUMPDEST SWAP2 SWAP1 PUSH2 0x11F5 PUSH2 0x1C7 PUSH2 0x11CC SWAP4 PUSH2 0x35A JUMP JUMPDEST SWAP1 DUP4 SLOAD PUSH2 0x11D0 JUMP JUMPDEST PUSH2 0x18A SWAP2 PUSH1 0x0 SWAP2 PUSH2 0x11E4 JUMP JUMPDEST DUP2 DUP2 LT PUSH2 0x1214 JUMPI POP POP JUMP JUMPDEST DUP1 PUSH2 0x1222 PUSH1 0x0 PUSH1 0x1 SWAP4 PUSH2 0x11FD JUMP JUMPDEST ADD PUSH2 0x1209 JUMP JUMPDEST SWAP2 SWAP1 PUSH1 0x1F DUP2 GT PUSH2 0x1237 JUMPI POP POP POP JUMP JUMPDEST PUSH2 0x1249 PUSH2 0x18A SWAP4 PUSH1 0x0 MSTORE PUSH1 0x20 PUSH1 0x0 KECCAK256 SWAP1 JUMP JUMPDEST SWAP1 PUSH1 0x20 PUSH1 0x1F DUP5 ADD DUP2 SWAP1 DIV DUP4 ADD SWAP4 LT PUSH2 0x126C JUMPI JUMPDEST PUSH1 0x20 PUSH1 0x1F SWAP1 SWAP2 ADD DIV JUMPDEST ADD SWAP1 PUSH2 0x1209 JUMP JUMPDEST SWAP1 SWAP2 POP DUP2 SWAP1 PUSH2 0x125C JUMP JUMPDEST PUSH1 0x0 NOT PUSH1 0x8 DUP4 MUL SHR NOT AND SWAP1 PUSH1 0x2 MUL OR SWAP1 JUMP JUMPDEST SWAP1 PUSH2 0x1291 DUP2 MLOAD SWAP1 JUMP JUMPDEST SWAP1 PUSH8 0xFFFFFFFFFFFFFFFF DUP3 GT PUSH2 0x24A JUMPI PUSH2 0x12B5 DUP3 PUSH2 0x12AF DUP6 SLOAD PUSH2 0x395 JUMP JUMPDEST DUP6 PUSH2 0x1228 JUMP JUMPDEST PUSH1 0x20 SWAP1 PUSH1 0x1F DUP4 GT PUSH1 0x1 EQ PUSH2 0x12E3 JUMPI PUSH2 0x11CC SWAP3 SWAP2 PUSH1 0x0 SWAP2 DUP4 PUSH2 0x12D8 JUMPI JUMPDEST POP POP PUSH2 0x1276 JUMP JUMPDEST ADD MLOAD SWAP1 POP CODESIZE DUP1 PUSH2 0x12D1 JUMP JUMPDEST PUSH1 0x1F NOT DUP4 AND SWAP2 PUSH2 0x12F8 DUP6 PUSH1 0x0 MSTORE PUSH1 0x20 PUSH1 0x0 KECCAK256 SWAP1 JUMP JUMPDEST SWAP3 PUSH1 0x0 JUMPDEST DUP2 DUP2 LT PUSH2 0x1336 JUMPI POP SWAP2 PUSH1 0x2 SWAP4 SWAP2 DUP6 PUSH1 0x1 SWAP7 SWAP5 LT PUSH2 0x131D JUMPI JUMPDEST POP POP POP MUL ADD SWAP1 SSTORE JUMP JUMPDEST ADD MLOAD PUSH1 0x0 NOT PUSH1 0x8 PUSH1 0x1F DUP6 AND MUL SHR NOT AND SWAP1 SSTORE CODESIZE DUP1 DUP1 PUSH2 0x1314 JUMP JUMPDEST SWAP2 SWAP4 PUSH1 0x20 PUSH1 0x1 DUP2 SWAP3 DUP8 DUP8 ADD MLOAD DUP2 SSTORE ADD SWAP6 ADD SWAP3 ADD PUSH2 0x12FC JUMP JUMPDEST SWAP1 PUSH2 0x18A SWAP2 PUSH2 0x1288 JUMP JUMPDEST MLOAD SWAP1 JUMP JUMPDEST SWAP1 PUSH1 0x0 NOT SWAP1 PUSH2 0x11AB JUMP JUMPDEST SWAP1 PUSH2 0x1376 PUSH2 0x1C7 PUSH2 0x11CC SWAP3 PUSH2 0x35A JUMP JUMPDEST DUP3 SLOAD PUSH2 0x135C JUMP JUMPDEST PUSH1 0x5 PUSH2 0x1401 PUSH1 0xA0 PUSH2 0x18A SWAP5 PUSH2 0x139D PUSH2 0x1397 PUSH1 0x0 DUP4 ADD PUSH2 0x1196 JUMP JUMPDEST DUP7 PUSH2 0x11B5 JUMP JUMPDEST PUSH2 0x13B4 PUSH2 0x13AB PUSH1 0x20 DUP4 ADD MLOAD SWAP1 JUMP JUMPDEST PUSH1 0x1 DUP8 ADD PUSH2 0x134E JUMP JUMPDEST PUSH2 0x13CB PUSH2 0x13C2 PUSH1 0x40 DUP4 ADD MLOAD SWAP1 JUMP JUMPDEST PUSH1 0x2 DUP8 ADD PUSH2 0x134E JUMP JUMPDEST PUSH2 0x13E3 PUSH2 0x13DA PUSH1 0x60 DUP4 ADD PUSH2 0x1358 JUMP JUMPDEST PUSH1 0x3 DUP8 ADD PUSH2 0x1366 JUMP JUMPDEST PUSH2 0x13FB PUSH2 0x13F2 PUSH1 0x80 DUP4 ADD PUSH2 0x1358 JUMP JUMPDEST PUSH1 0x4 DUP8 ADD PUSH2 0x1366 JUMP JUMPDEST ADD PUSH2 0x1358 JUMP JUMPDEST SWAP2 ADD PUSH2 0x1366 JUMP JUMPDEST SWAP2 SWAP1 PUSH2 0x1417 JUMPI PUSH2 0x18A SWAP2 PUSH2 0x137D JUMP JUMPDEST PUSH2 0x1180 JUMP JUMPDEST SWAP1 DUP2 SLOAD SWAP2 PUSH1 0x1 PUSH1 0x40 SHL DUP4 LT ISZERO PUSH2 0x24A JUMPI DUP3 PUSH2 0x143F SWAP2 PUSH1 0x1 PUSH2 0x18A SWAP6 ADD DUP2 SSTORE PUSH2 0x1166 JUMP JUMPDEST SWAP1 PUSH2 0x1408 JUMP JUMPDEST PUSH4 0x4E487B71 PUSH1 0xE0 SHL PUSH1 0x0 MSTORE PUSH1 0x11 PUSH1 0x4 MSTORE PUSH1 0x24 PUSH1 0x0 REVERT JUMPDEST SWAP2 SWAP1 DUP3 ADD DUP1 SWAP3 GT PUSH2 0x1468 JUMPI JUMP JUMPDEST PUSH2 0x1445 JUMP JUMPDEST SWAP1 PUSH2 0x18A SWAP5 PUSH2 0x14AE PUSH2 0x14A6 PUSH1 0x80 SWAP6 PUSH2 0x1498 PUSH2 0xB01 SWAP6 SWAP12 SWAP11 SWAP9 SWAP12 PUSH1 0xA0 DUP9 ADD SWAP1 DUP9 DUP3 SUB PUSH1 0x0 DUP11 ADD MSTORE PUSH2 0x58A JUMP JUMPDEST SWAP1 DUP7 DUP3 SUB PUSH1 0x20 DUP9 ADD MSTORE PUSH2 0x58A JUMP JUMPDEST SWAP9 PUSH1 0x40 DUP6 ADD MSTORE JUMP JUMPDEST PUSH1 0x60 DUP4 ADD MSTORE JUMP JUMPDEST PUSH1 0x9 SWAP4 SWAP3 SWAP2 PUSH32 0x84038083661AB3698BFE2B1202FA65E8FD987CEF13606F396BE72C1685B8172C SWAP2 POP PUSH2 0x14F4 PUSH2 0x14ED PUSH2 0x1C7 PUSH1 0x2 PUSH2 0x490 JUMP JUMPDEST DUP3 LT PUSH2 0x1033 JUMP JUMPDEST PUSH2 0x1508 PUSH2 0x1501 PUSH1 0x0 PUSH2 0x35A JUMP JUMPDEST CALLVALUE GT PUSH2 0x1099 JUMP JUMPDEST PUSH2 0x15F7 PUSH2 0x1519 PUSH2 0x1C7 DUP4 PUSH1 0x1 PUSH2 0x367 JUMP JUMPDEST SWAP2 PUSH2 0x1541 PUSH2 0x1529 PUSH1 0xA DUP6 ADD PUSH2 0x490 JUMP JUMPDEST PUSH2 0x153A PUSH2 0x1536 PUSH1 0x0 PUSH2 0x35A JUMP JUMPDEST SWAP2 SWAP1 JUMP JUMPDEST EQ ISZERO PUSH2 0x10E6 JUMP JUMPDEST PUSH2 0x155A PUSH2 0x1553 PUSH2 0x1C7 PUSH1 0x7 DUP7 ADD PUSH2 0x490 JUMP JUMPDEST TIMESTAMP LT PUSH2 0x1132 JUMP JUMPDEST PUSH2 0x15F2 PUSH2 0x1566 CALLVALUE PUSH2 0x31C3 JUMP JUMPDEST SWAP8 DUP9 SWAP5 PUSH2 0x15BF PUSH1 0xC DUP3 ADD PUSH2 0x1578 PUSH2 0x1152 JUMP JUMPDEST SWAP1 PUSH2 0x1583 CALLER DUP4 PUSH2 0x115C JUMP JUMPDEST PUSH2 0x158E DUP12 PUSH1 0x20 DUP5 ADD MSTORE JUMP JUMPDEST PUSH2 0x1599 DUP13 PUSH1 0x40 DUP5 ADD MSTORE JUMP JUMPDEST PUSH2 0x15A4 CALLVALUE PUSH1 0x60 DUP5 ADD MSTORE JUMP JUMPDEST PUSH2 0x15AF DUP10 PUSH1 0x80 DUP5 ADD MSTORE JUMP JUMPDEST PUSH2 0x15BA TIMESTAMP PUSH1 0xA0 DUP5 ADD MSTORE JUMP JUMPDEST PUSH2 0x141C JUMP JUMPDEST PUSH2 0x15DF PUSH1 0x8 DUP3 ADD PUSH2 0x15D9 PUSH2 0x15D2 DUP3 PUSH2 0x490 JUMP JUMPDEST CALLVALUE SWAP1 PUSH2 0x145B JUMP JUMPDEST SWAP1 PUSH2 0x1366 JUMP JUMPDEST ADD PUSH2 0x15D9 DUP6 PUSH2 0x15ED DUP4 PUSH2 0x490 JUMP JUMPDEST PUSH2 0x145B JUMP JUMPDEST PUSH2 0x35A JUMP JUMPDEST SWAP3 PUSH2 0x161B PUSH2 0x1604 CALLER PUSH2 0xE81 JUMP JUMPDEST SWAP6 PUSH2 0x160E PUSH1 0x40 MLOAD SWAP1 JUMP JUMPDEST SWAP4 DUP5 SWAP4 TIMESTAMP SWAP3 CALLVALUE SWAP2 DUP7 PUSH2 0x146D JUMP JUMPDEST SUB SWAP1 LOG3 SWAP1 JUMP JUMPDEST PUSH2 0x1C7 SWAP3 SWAP2 SWAP1 PUSH1 0x0 PUSH2 0xFE9 JUMP JUMPDEST PUSH1 0x20 DUP1 DUP3 MSTORE PUSH1 0x14 SWAP1 DUP3 ADD MSTORE PUSH20 0x4E616D652063616E6E6F7420626520656D707479 PUSH1 0x60 SHL PUSH1 0x40 DUP3 ADD MSTORE PUSH1 0x60 ADD SWAP1 JUMP JUMPDEST ISZERO PUSH2 0x1663 JUMPI JUMP JUMPDEST PUSH1 0x40 MLOAD PUSH3 0x461BCD PUSH1 0xE5 SHL DUP2 MSTORE DUP1 PUSH2 0x1053 PUSH1 0x4 DUP3 ADD PUSH2 0x162E JUMP JUMPDEST PUSH2 0x473 PUSH2 0x1C7 PUSH2 0x1C7 SWAP3 SWAP1 JUMP JUMPDEST PUSH2 0x1C7 SWAP1 PUSH2 0x167C JUMP JUMPDEST PUSH1 0x20 DUP1 DUP3 MSTORE PUSH1 0x15 SWAP1 DUP3 ADD MSTORE PUSH21 0x496E76616C6964206F776E65722061646472657373 PUSH1 0x58 SHL PUSH1 0x40 DUP3 ADD MSTORE PUSH1 0x60 ADD SWAP1 JUMP JUMPDEST ISZERO PUSH2 0x16C8 JUMPI JUMP JUMPDEST PUSH1 0x40 MLOAD PUSH3 0x461BCD PUSH1 0xE5 SHL DUP2 MSTORE DUP1 PUSH2 0x1053 PUSH1 0x4 DUP3 ADD PUSH2 0x1692 JUMP JUMPDEST PUSH1 0x20 DUP1 DUP3 MSTORE PUSH1 0x15 SWAP1 DUP3 ADD MSTORE PUSH21 0x5469746C652063616E6E6F7420626520656D707479 PUSH1 0x58 SHL PUSH1 0x40 DUP3 ADD MSTORE PUSH1 0x60 ADD SWAP1 JUMP JUMPDEST ISZERO PUSH2 0x1717 JUMPI JUMP JUMPDEST PUSH1 0x40 MLOAD PUSH3 0x461BCD PUSH1 0xE5 SHL DUP2 MSTORE DUP1 PUSH2 0x1053 PUSH1 0x4 DUP3 ADD PUSH2 0x16E1 JUMP JUMPDEST PUSH1 0x20 DUP1 DUP3 MSTORE PUSH1 0x1B SWAP1 DUP3 ADD MSTORE PUSH32 0x4465736372697074696F6E2063616E6E6F7420626520656D7074790000000000 PUSH1 0x40 DUP3 ADD MSTORE PUSH1 0x60 ADD SWAP1 JUMP JUMPDEST ISZERO PUSH2 0x176E JUMPI JUMP JUMPDEST PUSH1 0x40 MLOAD PUSH3 0x461BCD PUSH1 0xE5 SHL DUP2 MSTORE DUP1 PUSH2 0x1053 PUSH1 0x4 DUP3 ADD PUSH2 0x1730 JUMP JUMPDEST PUSH1 0x20 DUP1 DUP3 MSTORE PUSH1 0x18 SWAP1 DUP3 ADD MSTORE PUSH32 0x43617465676F72792063616E6E6F7420626520656D7074790000000000000000 PUSH1 0x40 DUP3 ADD MSTORE PUSH1 0x60 ADD SWAP1 JUMP JUMPDEST ISZERO PUSH2 0x17C5 JUMPI JUMP JUMPDEST PUSH1 0x40 MLOAD PUSH3 0x461BCD PUSH1 0xE5 SHL DUP2 MSTORE DUP1 PUSH2 0x1053 PUSH1 0x4 DUP3 ADD PUSH2 0x1787 JUMP JUMPDEST PUSH1 0x20 DUP1 DUP3 MSTORE PUSH1 0x1D SWAP1 DUP3 ADD MSTORE PUSH32 0x546172676574206D7573742062652067726561746572207468616E2030000000 PUSH1 0x40 DUP3 ADD MSTORE PUSH1 0x60 ADD SWAP1 JUMP JUMPDEST ISZERO PUSH2 0x181C JUMPI JUMP JUMPDEST PUSH1 0x40 MLOAD PUSH3 0x461BCD PUSH1 0xE5 SHL DUP2 MSTORE DUP1 PUSH2 0x1053 PUSH1 0x4 DUP3 ADD PUSH2 0x17DE JUMP JUMPDEST PUSH1 0x20 DUP1 DUP3 MSTORE PUSH1 0x1E SWAP1 DUP3 ADD MSTORE PUSH32 0x446561646C696E65206D75737420626520696E20746865206675747572650000 PUSH1 0x40 DUP3 ADD MSTORE PUSH1 0x60 ADD SWAP1 JUMP JUMPDEST ISZERO PUSH2 0x1873 JUMPI JUMP JUMPDEST PUSH1 0x40 MLOAD PUSH3 0x461BCD PUSH1 0xE5 SHL DUP2 MSTORE DUP1 PUSH2 0x1053 PUSH1 0x4 DUP3 ADD PUSH2 0x1835 JUMP JUMPDEST SWAP1 DUP2 MSTORE PUSH1 0x60 DUP2 ADD SWAP4 SWAP3 PUSH2 0x18A SWAP3 SWAP1 SWAP2 PUSH1 0x40 SWAP2 PUSH2 0xB01 SWAP1 JUMPDEST PUSH1 0x20 DUP4 ADD MSTORE JUMP JUMPDEST PUSH1 0x0 NOT DUP2 EQ PUSH2 0x1468 JUMPI PUSH1 0x1 ADD SWAP1 JUMP JUMPDEST SWAP2 SWAP1 DUP3 SUB SWAP2 DUP3 GT PUSH2 0x1468 JUMPI JUMP JUMPDEST SWAP1 SWAP5 SWAP4 SWAP1 SWAP3 DUP4 MLOAD SWAP3 PUSH1 0x0 SWAP4 PUSH2 0x18DA DUP6 PUSH2 0x35A JUMP JUMPDEST LT PUSH2 0x18E4 SWAP1 PUSH2 0x165C JUMP JUMPDEST PUSH2 0x18ED DUP5 PUSH2 0x1689 JUMP JUMPDEST PUSH2 0x18F6 SWAP1 PUSH2 0x473 JUMP JUMPDEST PUSH2 0x18FF DUP9 PUSH2 0x473 JUMP JUMPDEST EQ ISZERO PUSH2 0x190A SWAP1 PUSH2 0x16C1 JUMP JUMPDEST DUP1 MLOAD PUSH2 0x1915 DUP6 PUSH2 0x35A JUMP JUMPDEST LT PUSH2 0x191F SWAP1 PUSH2 0x1710 JUMP JUMPDEST DUP2 MLOAD PUSH2 0x192A DUP6 PUSH2 0x35A JUMP JUMPDEST LT PUSH2 0x1934 SWAP1 PUSH2 0x1767 JUMP JUMPDEST DUP3 MLOAD PUSH2 0x193F DUP6 PUSH2 0x35A JUMP JUMPDEST LT PUSH2 0x1949 SWAP1 PUSH2 0x17BE JUMP JUMPDEST PUSH2 0x1952 DUP5 PUSH2 0x35A JUMP JUMPDEST DUP7 GT PUSH2 0x195D SWAP1 PUSH2 0x1815 JUMP JUMPDEST PUSH2 0x1968 TIMESTAMP DUP10 GT PUSH2 0x186C JUMP JUMPDEST PUSH2 0x1972 PUSH1 0x2 PUSH2 0x490 JUMP JUMPDEST PUSH2 0x197D SWAP1 PUSH1 0x1 PUSH2 0x367 JUMP JUMPDEST SWAP5 PUSH2 0x198B DUP9 PUSH1 0x1 DUP9 ADD PUSH2 0x11B5 JUMP JUMPDEST PUSH2 0x1997 SWAP1 DUP7 DUP7 ADD PUSH2 0x134E JUMP JUMPDEST PUSH2 0x19A4 SWAP1 PUSH1 0x3 DUP7 ADD PUSH2 0x134E JUMP JUMPDEST PUSH2 0x19B1 SWAP1 PUSH1 0x4 DUP6 ADD PUSH2 0x134E JUMP JUMPDEST PUSH2 0x19BE SWAP1 PUSH1 0x2 DUP5 ADD PUSH2 0x134E JUMP JUMPDEST PUSH2 0x19CB DUP4 PUSH1 0x6 DUP5 ADD PUSH2 0x1366 JUMP JUMPDEST PUSH2 0x19D8 DUP6 PUSH1 0x7 DUP5 ADD PUSH2 0x1366 JUMP JUMPDEST PUSH2 0x19E1 SWAP1 PUSH2 0x35A JUMP JUMPDEST PUSH2 0x19EE DUP2 PUSH1 0x8 DUP5 ADD PUSH2 0x1366 JUMP JUMPDEST PUSH2 0x19FB DUP2 PUSH1 0x9 DUP5 ADD PUSH2 0x1366 JUMP JUMPDEST PUSH2 0x1A08 SWAP1 PUSH1 0xA DUP4 ADD PUSH2 0x1366 JUMP JUMPDEST PUSH2 0x1A12 PUSH1 0x2 PUSH2 0x490 JUMP JUMPDEST PUSH2 0x1A1F SWAP1 PUSH1 0x5 DUP4 ADD PUSH2 0x1366 JUMP JUMPDEST PUSH2 0x1A2D SWAP1 TIMESTAMP SWAP1 PUSH1 0xB ADD PUSH2 0x1366 JUMP JUMPDEST PUSH2 0x1A37 PUSH1 0x2 PUSH2 0x490 JUMP JUMPDEST PUSH2 0x1A40 SWAP1 PUSH2 0x35A JUMP JUMPDEST SWAP2 PUSH2 0x1A4A SWAP1 PUSH2 0xE81 JUMP JUMPDEST SWAP3 PUSH2 0x1A54 PUSH1 0x40 MLOAD SWAP1 JUMP JUMPDEST SWAP2 DUP3 SWAP2 TIMESTAMP SWAP1 PUSH2 0x1A63 SWAP3 DUP5 PUSH2 0x188C JUMP JUMPDEST SUB PUSH32 0x532CE22D86C3D75E9E14507FDC84D53517C2726EDB5C97AF3C34FB362233B071 SWAP2 LOG3 PUSH2 0x1A91 PUSH1 0x2 PUSH2 0x490 JUMP JUMPDEST PUSH2 0x1A9A SWAP1 PUSH2 0x18AA JUMP JUMPDEST PUSH2 0x1AA5 SWAP1 PUSH1 0x2 PUSH2 0x1366 JUMP JUMPDEST PUSH2 0x1AAF PUSH1 0x2 PUSH2 0x490 JUMP JUMPDEST PUSH2 0x1AB9 PUSH1 0x1 PUSH2 0x35A JUMP JUMPDEST PUSH2 0x1C7 SWAP2 PUSH2 0x18B9 JUMP JUMPDEST SWAP1 PUSH2 0x1AD4 SWAP2 PUSH2 0x1ACF PUSH2 0x3074 JUMP JUMPDEST PUSH2 0x1D19 JUMP JUMPDEST PUSH2 0x18A PUSH2 0x30B4 JUMP JUMPDEST PUSH1 0x20 DUP1 DUP3 MSTORE PUSH1 0x15 SWAP1 DUP3 ADD MSTORE PUSH21 0x496E76616C69642063616D706169676E20636F6465 PUSH1 0x58 SHL PUSH1 0x40 DUP3 ADD MSTORE PUSH1 0x60 ADD SWAP1 JUMP JUMPDEST ISZERO PUSH2 0x1B12 JUMPI JUMP JUMPDEST PUSH1 0x40 MLOAD PUSH3 0x461BCD PUSH1 0xE5 SHL DUP2 MSTORE DUP1 PUSH2 0x1053 PUSH1 0x4 DUP3 ADD PUSH2 0x1ADC JUMP JUMPDEST PUSH1 0x20 DUP1 DUP3 MSTORE DUP2 DUP2 ADD MSTORE PUSH32 0x4F6E6C792063616D706169676E206F776E65722063616E207769746864726177 PUSH1 0x40 DUP3 ADD MSTORE PUSH1 0x60 ADD SWAP1 JUMP JUMPDEST ISZERO PUSH2 0x1B67 JUMPI JUMP JUMPDEST PUSH1 0x40 MLOAD PUSH3 0x461BCD PUSH1 0xE5 SHL DUP2 MSTORE DUP1 PUSH2 0x1053 PUSH1 0x4 DUP3 ADD PUSH2 0x1B2B JUMP JUMPDEST PUSH1 0x20 DUP1 DUP3 MSTORE PUSH1 0x12 SWAP1 DUP3 ADD MSTORE PUSH18 0x496E73756666696369656E742066756E6473 PUSH1 0x70 SHL PUSH1 0x40 DUP3 ADD MSTORE PUSH1 0x60 ADD SWAP1 JUMP JUMPDEST ISZERO PUSH2 0x1BB3 JUMPI JUMP JUMPDEST PUSH1 0x40 MLOAD PUSH3 0x461BCD PUSH1 0xE5 SHL DUP2 MSTORE DUP1 PUSH2 0x1053 PUSH1 0x4 DUP3 ADD PUSH2 0x1B80 JUMP JUMPDEST DUP2 DUP2 MUL SWAP3 SWAP2 DUP2 ISZERO SWAP2 DUP5 DIV EQ OR ISZERO PUSH2 0x1468 JUMPI JUMP JUMPDEST PUSH4 0x4E487B71 PUSH1 0xE0 SHL PUSH1 0x0 MSTORE PUSH1 0x12 PUSH1 0x4 MSTORE PUSH1 0x24 PUSH1 0x0 REVERT JUMPDEST DUP2 ISZERO PUSH2 0x1BFF JUMPI DIV SWAP1 JUMP JUMPDEST PUSH2 0x1BDF JUMP JUMPDEST DUP1 ISZERO ISZERO PUSH2 0x1FE JUMP JUMPDEST SWAP1 POP MLOAD SWAP1 PUSH2 0x18A DUP3 PUSH2 0x1C04 JUMP JUMPDEST SWAP1 PUSH1 0x20 DUP3 DUP3 SUB SLT PUSH2 0x176 JUMPI PUSH2 0x1C7 SWAP2 PUSH2 0x1C0C JUMP JUMPDEST SWAP2 PUSH1 0x20 PUSH2 0x18A SWAP3 SWAP5 SWAP4 PUSH2 0xB01 PUSH1 0x40 DUP3 ADD SWAP7 PUSH1 0x0 DUP4 ADD SWAP1 PUSH2 0x5BE JUMP JUMPDEST SWAP1 PUSH1 0xFF SWAP1 PUSH2 0x11AB JUMP JUMPDEST ISZERO ISZERO SWAP1 JUMP JUMPDEST SWAP1 PUSH2 0x1C66 PUSH2 0x1C7 PUSH2 0x11CC SWAP3 PUSH2 0x1C51 JUMP JUMPDEST DUP3 SLOAD PUSH2 0x1C48 JUMP JUMPDEST PUSH2 0x1C7 PUSH1 0x80 PUSH2 0x24F JUMP JUMPDEST PUSH1 0x3 PUSH2 0x1401 PUSH1 0x60 PUSH2 0x18A SWAP5 PUSH2 0x1C91 PUSH2 0x1397 PUSH1 0x0 DUP4 ADD PUSH2 0x1196 JUMP JUMPDEST PUSH2 0x1CA9 PUSH2 0x1CA0 PUSH1 0x20 DUP4 ADD PUSH2 0x1358 JUMP JUMPDEST PUSH1 0x1 DUP8 ADD PUSH2 0x1366 JUMP JUMPDEST PUSH2 0x13FB PUSH2 0x1CB8 PUSH1 0x40 DUP4 ADD PUSH2 0x1358 JUMP JUMPDEST PUSH1 0x2 DUP8 ADD PUSH2 0x1366 JUMP JUMPDEST SWAP2 SWAP1 PUSH2 0x1417 JUMPI PUSH2 0x18A SWAP2 PUSH2 0x1C77 JUMP JUMPDEST SWAP1 DUP2 SLOAD SWAP2 PUSH1 0x1 PUSH1 0x40 SHL DUP4 LT ISZERO PUSH2 0x24A JUMPI DUP3 PUSH2 0x1CF3 SWAP2 PUSH1 0x1 PUSH2 0x18A SWAP6 ADD DUP2 SSTORE PUSH2 0xA5D JUMP JUMPDEST SWAP1 PUSH2 0x1CC1 JUMP JUMPDEST PUSH1 0x40 SWAP1 PUSH2 0xB01 PUSH2 0x18A SWAP5 SWAP7 SWAP6 SWAP4 SWAP7 PUSH2 0x18A3 PUSH1 0x60 DUP5 ADD SWAP9 PUSH1 0x0 DUP6 ADD SWAP1 PUSH2 0x5BE JUMP JUMPDEST PUSH2 0x1D30 PUSH2 0x1D29 PUSH2 0x1C7 PUSH1 0x2 PUSH2 0x490 JUMP JUMPDEST DUP3 LT PUSH2 0x1B0B JUMP JUMPDEST PUSH2 0x1D3E PUSH2 0x1C7 DUP3 PUSH1 0x1 PUSH2 0x367 JUMP JUMPDEST SWAP1 PUSH1 0x1 DUP3 ADD SWAP2 PUSH2 0x1D67 PUSH2 0x1D58 PUSH2 0x1D53 DUP6 PUSH2 0x47F JUMP JUMPDEST PUSH2 0x473 JUMP JUMPDEST PUSH2 0x1D61 CALLER PUSH2 0x473 JUMP JUMPDEST EQ PUSH2 0x1B60 JUMP JUMPDEST PUSH2 0x1D7E PUSH2 0x1D76 PUSH2 0x1C7 DUP5 PUSH2 0x2F46 JUMP JUMPDEST DUP6 GT ISZERO PUSH2 0x1BAC JUMP JUMPDEST PUSH1 0xE DUP2 ADD PUSH2 0x1D92 PUSH2 0x1D8E DUP3 PUSH2 0x4A0 JUMP JUMPDEST ISZERO SWAP1 JUMP JUMPDEST PUSH2 0x1EE7 JUMPI JUMPDEST POP PUSH1 0xD PUSH2 0x1DAC SWAP2 ADD PUSH2 0x15D9 DUP6 PUSH2 0x15ED DUP4 PUSH2 0x490 JUMP JUMPDEST PUSH2 0x1E11 PUSH1 0x20 DUP5 PUSH2 0x1DDE PUSH2 0xF73 PUSH32 0x0 PUSH2 0xE81 JUMP JUMPDEST PUSH2 0x1DE7 DUP7 PUSH2 0x47F JUMP JUMPDEST PUSH1 0x0 PUSH2 0x1DF2 PUSH1 0x40 MLOAD SWAP1 JUMP JUMPDEST DUP1 SWAP7 DUP2 SWAP6 DUP3 SWAP5 PUSH2 0x1E06 PUSH4 0xA9059CBB PUSH1 0xE0 SHL SWAP1 JUMP JUMPDEST DUP5 MSTORE PUSH1 0x4 DUP5 ADD PUSH2 0x1C2D JUMP JUMPDEST SUB SWAP3 GAS CALL DUP1 ISZERO PUSH2 0xFE4 JUMPI PUSH32 0x887CC922C9FB6A3A66AC86CA7A5550189370DBE58CAA712BD060AD70F5328164 SWAP4 PUSH2 0x1E9D SWAP3 PUSH2 0x1E97 SWAP3 PUSH2 0x1EBA JUMPI JUMPDEST POP PUSH2 0x1E92 PUSH1 0x3 PUSH2 0x1E59 DUP4 PUSH2 0x47F JUMP JUMPDEST SWAP1 PUSH2 0x1E6C PUSH2 0x1E65 PUSH2 0x1C6D JUMP JUMPDEST SWAP3 DUP4 PUSH2 0x115C JUMP JUMPDEST PUSH2 0x1E77 DUP10 PUSH1 0x20 DUP5 ADD MSTORE JUMP JUMPDEST PUSH2 0x1E82 DUP8 PUSH1 0x40 DUP5 ADD MSTORE JUMP JUMPDEST PUSH2 0x1E8D TIMESTAMP PUSH1 0x60 DUP5 ADD MSTORE JUMP JUMPDEST PUSH2 0x1CD0 JUMP JUMPDEST PUSH2 0x47F JUMP JUMPDEST SWAP2 PUSH2 0x35A JUMP JUMPDEST SWAP3 PUSH2 0x1EB5 PUSH2 0x1EAA PUSH1 0x40 MLOAD SWAP1 JUMP JUMPDEST SWAP3 DUP4 SWAP3 TIMESTAMP SWAP2 DUP5 PUSH2 0x1CF9 JUMP JUMPDEST SUB SWAP1 LOG2 JUMP JUMPDEST PUSH2 0x1EDB SWAP1 PUSH1 0x20 RETURNDATASIZE PUSH1 0x20 GT PUSH2 0x1EE0 JUMPI JUMPDEST PUSH2 0x1ED3 DUP2 DUP4 PUSH2 0x228 JUMP JUMPDEST DUP2 ADD SWAP1 PUSH2 0x1C19 JUMP JUMPDEST PUSH2 0x1E4A JUMP JUMPDEST POP RETURNDATASIZE PUSH2 0x1EC9 JUMP JUMPDEST DUP2 PUSH2 0x1F1B PUSH2 0x1F0B PUSH2 0x1EFD PUSH1 0x9 PUSH2 0x1F72 SWAP7 ADD PUSH2 0x490 JUMP JUMPDEST PUSH2 0x1F05 PUSH2 0x79B JUMP JUMPDEST SWAP1 PUSH2 0x1BCC JUMP JUMPDEST PUSH2 0x1F15 PUSH1 0x64 PUSH2 0x35A JUMP JUMPDEST SWAP1 PUSH2 0x1BF5 JUMP JUMPDEST PUSH1 0x20 DUP2 PUSH2 0x1F4A PUSH2 0xF73 PUSH32 0x0 PUSH2 0xE81 JUMP JUMPDEST PUSH2 0x1F53 ADDRESS PUSH2 0xE81 JUMP JUMPDEST PUSH1 0x0 PUSH2 0x1F5E PUSH1 0x40 MLOAD SWAP1 JUMP JUMPDEST DUP1 SWAP10 DUP2 SWAP6 DUP3 SWAP5 PUSH2 0x1E06 PUSH4 0xA9059CBB PUSH1 0xE0 SHL SWAP1 JUMP JUMPDEST SUB SWAP3 GAS CALL SWAP4 DUP5 ISZERO PUSH2 0xFE4 JUMPI PUSH1 0x1 PUSH1 0xD SWAP5 PUSH2 0x1F95 SWAP3 PUSH2 0x1DAC SWAP8 PUSH2 0x1FD6 JUMPI JUMPDEST POP PUSH2 0x1C56 JUMP JUMPDEST PUSH32 0x93E7AAA64DB1F3164FB844C7465BE63C3D09A211E1307C3FE2A96A3F585D4415 PUSH2 0x1FCC PUSH2 0x1FC2 DUP8 PUSH2 0x35A JUMP JUMPDEST SWAP3 PUSH2 0x1AB PUSH1 0x40 MLOAD SWAP1 JUMP JUMPDEST SUB SWAP1 LOG2 SWAP2 POP PUSH2 0x1D97 JUMP JUMPDEST PUSH2 0x1FEE SWAP1 PUSH1 0x20 RETURNDATASIZE PUSH1 0x20 GT PUSH2 0x1EE0 JUMPI PUSH2 0x1ED3 DUP2 DUP4 PUSH2 0x228 JUMP JUMPDEST PUSH2 0x1F8F JUMP JUMPDEST SWAP1 PUSH2 0x18A SWAP2 PUSH2 0x1AC2 JUMP JUMPDEST PUSH8 0xFFFFFFFFFFFFFFFF DUP2 GT PUSH2 0x24A JUMPI PUSH1 0x20 DUP1 SWAP2 MUL ADD SWAP1 JUMP JUMPDEST SWAP1 PUSH2 0x2022 PUSH2 0x2A0 DUP4 PUSH2 0x1FFD JUMP JUMPDEST SWAP2 DUP3 MSTORE JUMP JUMPDEST SWAP1 PUSH2 0x18A PUSH2 0x207D PUSH1 0x3 PUSH2 0x2038 PUSH2 0x1C6D JUMP JUMPDEST SWAP5 PUSH2 0x204B PUSH2 0x2045 DUP3 PUSH2 0x47F JUMP JUMPDEST DUP8 PUSH2 0x115C JUMP JUMPDEST PUSH2 0x2061 PUSH2 0x205A PUSH1 0x1 DUP4 ADD PUSH2 0x490 JUMP JUMPDEST PUSH1 0x20 DUP9 ADD MSTORE JUMP JUMPDEST PUSH2 0x2077 PUSH2 0x2070 PUSH1 0x2 DUP4 ADD PUSH2 0x490 JUMP JUMPDEST PUSH1 0x40 DUP9 ADD MSTORE JUMP JUMPDEST ADD PUSH2 0x490 JUMP JUMPDEST PUSH1 0x60 DUP5 ADD MSTORE JUMP JUMPDEST PUSH2 0x1C7 SWAP1 PUSH2 0x2027 JUMP JUMPDEST SWAP1 PUSH2 0x2096 DUP3 SLOAD SWAP1 JUMP JUMPDEST PUSH2 0x209F DUP2 PUSH2 0x2015 JUMP JUMPDEST SWAP3 PUSH2 0x20B3 PUSH1 0x20 DUP6 ADD SWAP2 PUSH1 0x0 MSTORE PUSH1 0x20 PUSH1 0x0 KECCAK256 SWAP1 JUMP JUMPDEST PUSH1 0x0 SWAP2 JUMPDEST DUP4 DUP4 LT PUSH2 0x20C4 JUMPI POP POP POP POP JUMP JUMPDEST PUSH1 0x4 PUSH1 0x20 PUSH1 0x1 SWAP3 PUSH2 0x20D4 DUP6 PUSH2 0x2084 JUMP JUMPDEST DUP2 MSTORE ADD SWAP3 ADD SWAP3 ADD SWAP2 SWAP1 PUSH2 0x20B7 JUMP JUMPDEST PUSH2 0x1C7 SWAP1 PUSH2 0x208D JUMP JUMPDEST PUSH2 0x1C7 PUSH1 0x3 PUSH2 0x20E2 JUMP JUMPDEST SWAP1 PUSH2 0x18A PUSH2 0x215D PUSH1 0x5 PUSH2 0x2106 PUSH2 0x1152 JUMP JUMPDEST SWAP5 PUSH2 0x2113 PUSH2 0x2045 DUP3 PUSH2 0x47F JUMP JUMPDEST PUSH2 0x2122 PUSH2 0x205A PUSH1 0x1 DUP4 ADD PUSH2 0x44D JUMP JUMPDEST PUSH2 0x2131 PUSH2 0x2070 PUSH1 0x2 DUP4 ADD PUSH2 0x44D JUMP JUMPDEST PUSH2 0x2147 PUSH2 0x2140 PUSH1 0x3 DUP4 ADD PUSH2 0x490 JUMP JUMPDEST PUSH1 0x60 DUP9 ADD MSTORE JUMP JUMPDEST PUSH2 0x2077 PUSH2 0x2156 PUSH1 0x4 DUP4 ADD PUSH2 0x490 JUMP JUMPDEST PUSH1 0x80 DUP9 ADD MSTORE JUMP JUMPDEST PUSH1 0xA0 DUP5 ADD MSTORE JUMP JUMPDEST PUSH2 0x1C7 SWAP1 PUSH2 0x20F5 JUMP JUMPDEST SWAP1 PUSH2 0x2176 DUP3 SLOAD SWAP1 JUMP JUMPDEST PUSH2 0x217F DUP2 PUSH2 0x2015 JUMP JUMPDEST SWAP3 PUSH2 0x2193 PUSH1 0x20 DUP6 ADD SWAP2 PUSH1 0x0 MSTORE PUSH1 0x20 PUSH1 0x0 KECCAK256 SWAP1 JUMP JUMPDEST PUSH1 0x0 SWAP2 JUMPDEST DUP4 DUP4 LT PUSH2 0x21A4 JUMPI POP POP POP POP JUMP JUMPDEST PUSH1 0x6 PUSH1 0x20 PUSH1 0x1 SWAP3 PUSH2 0x21B4 DUP6 PUSH2 0x2164 JUMP JUMPDEST DUP2 MSTORE ADD SWAP3 ADD SWAP3 ADD SWAP2 SWAP1 PUSH2 0x2197 JUMP JUMPDEST PUSH2 0x1C7 SWAP1 PUSH2 0x216D JUMP JUMPDEST PUSH1 0xC PUSH2 0x21F4 PUSH2 0x1C7 SWAP3 PUSH2 0x21DC PUSH1 0x60 SWAP1 JUMP JUMPDEST POP PUSH2 0x21ED PUSH2 0x14ED PUSH2 0x1C7 PUSH1 0x2 PUSH2 0x490 JUMP JUMPDEST PUSH1 0x1 PUSH2 0x367 JUMP JUMPDEST ADD PUSH2 0x21C2 JUMP JUMPDEST PUSH1 0x20 PUSH2 0xFA5 SWAP2 PUSH2 0x2208 PUSH1 0x0 SWAP1 JUMP JUMPDEST POP PUSH2 0x2235 PUSH2 0xF73 PUSH32 0x0 PUSH2 0xE81 JUMP JUMPDEST PUSH1 0x40 MLOAD PUSH2 0xF8B JUMP JUMPDEST PUSH2 0x2246 ADDRESS PUSH2 0xE81 JUMP JUMPDEST BALANCE SWAP1 JUMP JUMPDEST PUSH1 0x20 DUP1 DUP3 MSTORE PUSH1 0x38 SWAP1 DUP3 ADD MSTORE PUSH32 0x4F6E6C79207468652063616D706169676E206F776E6572206F722061646D696E PUSH1 0x40 DUP3 ADD MSTORE PUSH32 0x2063616E2064656C657465207468652063616D706169676E0000000000000000 PUSH1 0x60 DUP3 ADD MSTORE PUSH1 0x80 ADD SWAP1 JUMP JUMPDEST ISZERO PUSH2 0x22AE JUMPI JUMP JUMPDEST PUSH1 0x40 MLOAD PUSH3 0x461BCD PUSH1 0xE5 SHL DUP2 MSTORE DUP1 PUSH2 0x1053 PUSH1 0x4 DUP3 ADD PUSH2 0x224A JUMP JUMPDEST SWAP1 PUSH2 0x22DA SWAP1 PUSH1 0x0 NOT SWAP1 PUSH1 0x20 SUB PUSH1 0x8 MUL SHR SWAP1 JUMP JUMPDEST DUP2 SLOAD AND SWAP1 SSTORE JUMP JUMPDEST SWAP1 PUSH1 0x0 SWAP2 PUSH2 0x22FF PUSH2 0x22F7 DUP3 PUSH1 0x0 MSTORE PUSH1 0x20 PUSH1 0x0 KECCAK256 SWAP1 JUMP JUMPDEST SWAP3 DUP4 SLOAD PUSH2 0x1276 JUMP JUMPDEST SWAP1 SSTORE SSTORE JUMP JUMPDEST SWAP2 SWAP3 SWAP1 PUSH1 0x20 DUP3 LT ISZERO PUSH2 0x235C JUMPI PUSH1 0x1F DUP5 GT PUSH1 0x1 EQ PUSH2 0x2326 JUMPI PUSH2 0x11CC SWAP3 SWAP4 POP PUSH2 0x1276 JUMP JUMPDEST POP SWAP1 PUSH2 0x2357 PUSH2 0x18A SWAP4 PUSH1 0x1 PUSH2 0x234E PUSH2 0x2343 DUP6 PUSH1 0x0 MSTORE PUSH1 0x20 PUSH1 0x0 KECCAK256 SWAP1 JUMP JUMPDEST SWAP3 PUSH1 0x1F PUSH1 0x20 SWAP2 ADD DIV SWAP1 JUMP JUMPDEST DUP3 ADD SWAP2 ADD PUSH2 0x1209 JUMP JUMPDEST PUSH2 0x22E1 JUMP JUMPDEST POP PUSH2 0x2395 DUP3 SWAP4 PUSH2 0x2373 PUSH1 0x1 SWAP5 PUSH1 0x0 MSTORE PUSH1 0x20 PUSH1 0x0 KECCAK256 SWAP1 JUMP JUMPDEST PUSH2 0x1265 PUSH1 0x20 PUSH1 0x1F DUP7 ADD DIV DUP3 ADD SWAP3 PUSH1 0x1F DUP7 AND DUP1 PUSH2 0x239D JUMPI JUMPDEST POP PUSH1 0x1F PUSH1 0x20 SWAP2 ADD DIV SWAP1 JUMP JUMPDEST PUSH1 0x2 MUL OR SWAP1 SSTORE JUMP JUMPDEST PUSH2 0x23A9 SWAP1 DUP9 DUP7 SUB PUSH2 0x22C7 JUMP JUMPDEST CODESIZE PUSH2 0x238A JUMP JUMPDEST SWAP3 SWAP1 SWAP2 PUSH1 0x1 PUSH1 0x40 SHL DUP3 GT PUSH2 0x24A JUMPI PUSH1 0x20 GT ISZERO PUSH2 0x23F6 JUMPI PUSH1 0x20 DUP2 LT ISZERO PUSH2 0x23D7 JUMPI PUSH2 0x11CC SWAP2 PUSH2 0x1276 JUMP JUMPDEST PUSH1 0x1 SWAP2 PUSH1 0xFF NOT AND PUSH2 0x23ED DUP5 PUSH1 0x0 MSTORE PUSH1 0x20 PUSH1 0x0 KECCAK256 SWAP1 JUMP JUMPDEST SSTORE PUSH1 0x2 MUL ADD SWAP1 SSTORE JUMP JUMPDEST PUSH1 0x1 SWAP2 POP PUSH1 0x2 MUL ADD SWAP1 SSTORE JUMP JUMPDEST SWAP1 DUP2 SLOAD PUSH2 0x240E DUP2 PUSH2 0x395 JUMP JUMPDEST SWAP1 DUP2 DUP4 GT PUSH2 0x2437 JUMPI JUMPDEST DUP2 DUP4 LT PUSH2 0x2425 JUMPI JUMPDEST POP POP POP POP JUMP JUMPDEST PUSH2 0x242E SWAP4 PUSH2 0x2304 JUMP JUMPDEST CODESIZE DUP1 DUP1 DUP1 PUSH2 0x241F JUMP JUMPDEST PUSH2 0x2443 DUP4 DUP4 DUP4 DUP8 PUSH2 0x23AF JUMP JUMPDEST PUSH2 0x2417 JUMP JUMPDEST PUSH1 0x0 PUSH2 0x18A SWAP2 PUSH2 0x2402 JUMP JUMPDEST SWAP1 PUSH1 0x0 SUB PUSH2 0x1417 JUMPI PUSH2 0x18A SWAP1 PUSH2 0x2448 JUMP JUMPDEST PUSH2 0x1C7 SWAP1 PUSH1 0x6 PUSH2 0x1BCC JUMP JUMPDEST PUSH1 0x0 DUP1 DUP3 SSTORE PUSH2 0x18A SWAP2 PUSH1 0x5 SWAP1 PUSH2 0x2488 DUP4 PUSH1 0x1 DUP4 ADD PUSH2 0x2453 JUMP JUMPDEST PUSH2 0x2495 DUP4 PUSH1 0x2 DUP4 ADD PUSH2 0x2453 JUMP JUMPDEST PUSH2 0x24A2 DUP4 PUSH1 0x3 DUP4 ADD PUSH2 0x11FD JUMP JUMPDEST PUSH2 0x24AF DUP4 PUSH1 0x4 DUP4 ADD PUSH2 0x11FD JUMP JUMPDEST ADD PUSH2 0x11FD JUMP JUMPDEST SWAP1 PUSH1 0x0 SUB PUSH2 0x1417 JUMPI PUSH2 0x18A SWAP1 PUSH2 0x246F JUMP JUMPDEST DUP2 DUP2 LT PUSH2 0x24D1 JUMPI POP POP JUMP JUMPDEST DUP1 PUSH2 0x24DF PUSH1 0x0 PUSH1 0x6 SWAP4 PUSH2 0x24B5 JUMP JUMPDEST ADD PUSH2 0x24C6 JUMP JUMPDEST SWAP2 SWAP1 SWAP2 DUP3 DUP3 LT PUSH2 0x24F4 JUMPI POP POP POP JUMP JUMPDEST PUSH2 0x2518 PUSH2 0x250C PUSH2 0x2506 PUSH2 0x18A SWAP6 PUSH2 0x2464 JUMP JUMPDEST SWAP4 PUSH2 0x2464 JUMP JUMPDEST SWAP2 PUSH1 0x0 MSTORE PUSH1 0x20 PUSH1 0x0 KECCAK256 SWAP1 JUMP JUMPDEST SWAP2 DUP3 ADD SWAP2 ADD PUSH2 0x24C6 JUMP JUMPDEST SWAP1 PUSH1 0x1 PUSH1 0x40 SHL DUP2 GT PUSH2 0x24A JUMPI DUP2 PUSH2 0x253A PUSH2 0x18A SWAP4 SLOAD SWAP1 JUMP JUMPDEST SWAP1 DUP3 DUP2 SSTORE PUSH2 0x24E5 JUMP JUMPDEST PUSH1 0x0 PUSH2 0x18A SWAP2 PUSH2 0x2522 JUMP JUMPDEST SWAP1 PUSH1 0x0 SUB PUSH2 0x1417 JUMPI PUSH2 0x18A SWAP1 PUSH2 0x2543 JUMP JUMPDEST PUSH1 0x0 SWAP1 PUSH1 0xE SWAP1 PUSH2 0x256F DUP4 DUP3 PUSH2 0x2453 JUMP JUMPDEST DUP3 PUSH1 0x1 DUP3 ADD SSTORE PUSH2 0x2582 DUP4 PUSH1 0x2 DUP4 ADD PUSH2 0x2453 JUMP JUMPDEST PUSH2 0x258F DUP4 PUSH1 0x3 DUP4 ADD PUSH2 0x2453 JUMP JUMPDEST PUSH2 0x259C DUP4 PUSH1 0x4 DUP4 ADD PUSH2 0x2453 JUMP JUMPDEST PUSH2 0x25A9 DUP4 PUSH1 0x5 DUP4 ADD PUSH2 0x11FD JUMP JUMPDEST PUSH2 0x25B6 DUP4 PUSH1 0x6 DUP4 ADD PUSH2 0x11FD JUMP JUMPDEST PUSH2 0x25C3 DUP4 PUSH1 0x7 DUP4 ADD PUSH2 0x11FD JUMP JUMPDEST PUSH2 0x25D0 DUP4 PUSH1 0x8 DUP4 ADD PUSH2 0x11FD JUMP JUMPDEST PUSH2 0x25DD DUP4 PUSH1 0x9 DUP4 ADD PUSH2 0x11FD JUMP JUMPDEST PUSH2 0x25EA DUP4 PUSH1 0xA DUP4 ADD PUSH2 0x11FD JUMP JUMPDEST PUSH2 0x25F7 DUP4 PUSH1 0xB DUP4 ADD PUSH2 0x11FD JUMP JUMPDEST PUSH2 0x2604 DUP4 PUSH1 0xC DUP4 ADD PUSH2 0x254E JUMP JUMPDEST PUSH2 0x2611 DUP4 PUSH1 0xD DUP4 ADD PUSH2 0x11FD JUMP JUMPDEST ADD SSTORE JUMP JUMPDEST SWAP1 PUSH1 0x0 SUB PUSH2 0x1417 JUMPI PUSH2 0x18A SWAP1 PUSH2 0x255F JUMP JUMPDEST DUP1 ISZERO PUSH2 0x1468 JUMPI PUSH1 0x0 NOT ADD SWAP1 JUMP JUMPDEST PUSH2 0x26B2 SWAP1 PUSH2 0x2647 PUSH2 0x14ED PUSH2 0x1C7 PUSH1 0x2 PUSH2 0x490 JUMP JUMPDEST PUSH2 0x2696 PUSH1 0x0 PUSH2 0x2691 DUP4 PUSH1 0x1 PUSH2 0x2669 DUP2 PUSH2 0x2663 PUSH2 0x1C7 DUP6 DUP4 PUSH2 0x367 JUMP JUMPDEST ADD PUSH2 0x47F JUMP JUMPDEST PUSH2 0x267B PUSH2 0x2675 CALLER PUSH2 0x473 JUMP JUMPDEST SWAP2 PUSH2 0x473 JUMP JUMPDEST EQ DUP1 ISZERO PUSH2 0x26E3 JUMPI JUMPDEST PUSH2 0x268C SWAP1 PUSH2 0x22A7 JUMP JUMPDEST PUSH2 0x367 JUMP JUMPDEST PUSH2 0x2615 JUMP JUMPDEST PUSH2 0x15F2 PUSH2 0x26AB PUSH2 0x26A6 PUSH1 0x2 PUSH2 0x490 JUMP JUMPDEST PUSH2 0x2626 JUMP JUMPDEST PUSH1 0x2 PUSH2 0x1366 JUMP JUMPDEST PUSH32 0xA61E586BD6A065BDE887AF9EC4705829557488D3CCDEA823AB66AAFD7C3AA099 PUSH2 0x26DC PUSH1 0x40 MLOAD SWAP1 JUMP JUMPDEST DUP1 DUP1 PUSH2 0x1EB5 JUMP JUMPDEST POP PUSH2 0x268C PUSH2 0x2704 PUSH20 0xF39FD6E51AAD88F6F4CE6AB8827279CFFFB92266 PUSH2 0x473 JUMP JUMPDEST PUSH2 0x270D CALLER PUSH2 0x473 JUMP JUMPDEST EQ SWAP1 POP PUSH2 0x2683 JUMP JUMPDEST PUSH1 0x1 ADD SWAP1 JUMP JUMPDEST PUSH2 0x2723 PUSH2 0x1152 JUMP JUMPDEST SWAP1 PUSH1 0x0 DUP3 MSTORE PUSH1 0x20 DUP1 DUP1 DUP1 DUP1 DUP1 DUP8 ADD PUSH1 0x60 DUP2 MSTORE ADD PUSH1 0x60 DUP2 MSTORE ADD PUSH1 0x0 DUP2 MSTORE ADD PUSH1 0x0 DUP2 MSTORE ADD PUSH1 0x0 SWAP1 MSTORE POP JUMP JUMPDEST PUSH2 0x1C7 PUSH2 0x271B JUMP JUMPDEST PUSH1 0x0 JUMPDEST DUP3 DUP2 LT PUSH2 0x2763 JUMPI POP POP POP JUMP JUMPDEST PUSH1 0x20 SWAP1 PUSH2 0x276E PUSH2 0x274C JUMP JUMPDEST DUP2 DUP5 ADD MSTORE ADD PUSH2 0x2757 JUMP JUMPDEST SWAP1 PUSH2 0x18A PUSH2 0x278E PUSH2 0x2788 DUP5 PUSH2 0x2015 JUMP JUMPDEST SWAP4 PUSH2 0x1FFD JUMP JUMPDEST PUSH1 0x1F NOT ADD PUSH1 0x20 DUP5 ADD PUSH2 0x2754 JUMP JUMPDEST SWAP1 PUSH2 0x27A4 DUP3 MLOAD SWAP1 JUMP JUMPDEST DUP2 LT ISZERO PUSH2 0xA80 JUMPI PUSH1 0x20 DUP1 SWAP2 MUL ADD ADD SWAP1 JUMP JUMPDEST PUSH1 0x0 SWAP1 PUSH2 0x27C1 DUP3 PUSH2 0x35A JUMP JUMPDEST SWAP3 DUP4 JUMPDEST PUSH2 0x27D1 PUSH2 0x1C7 PUSH1 0x2 PUSH2 0x490 JUMP JUMPDEST DUP2 LT ISZERO PUSH2 0x2832 JUMPI PUSH1 0x1 PUSH2 0x27E8 DUP2 PUSH2 0x2663 DUP5 DUP3 PUSH2 0x367 JUMP JUMPDEST PUSH2 0x27F4 PUSH2 0x2675 DUP7 PUSH2 0x473 JUMP JUMPDEST EQ PUSH2 0x2809 JUMPI JUMPDEST POP PUSH2 0x2804 SWAP1 PUSH2 0x2715 JUMP JUMPDEST PUSH2 0x27C4 JUMP JUMPDEST DUP2 SWAP6 PUSH2 0x2825 PUSH1 0xC PUSH2 0x2820 PUSH2 0x2804 SWAP6 PUSH2 0x282B SWAP6 PUSH2 0x367 JUMP JUMPDEST ADD SLOAD SWAP1 JUMP JUMPDEST SWAP1 PUSH2 0x145B JUMP JUMPDEST SWAP5 SWAP1 PUSH2 0x27FA JUMP JUMPDEST POP SWAP3 PUSH2 0x2840 SWAP1 SWAP3 SWAP2 SWAP3 PUSH2 0x2778 JUMP JUMPDEST PUSH2 0x2849 DUP3 PUSH2 0x35A JUMP JUMPDEST SWAP2 DUP3 JUMPDEST PUSH2 0x2859 PUSH2 0x1C7 PUSH1 0x2 PUSH2 0x490 JUMP JUMPDEST DUP2 LT ISZERO PUSH2 0x2917 JUMPI PUSH1 0x1 PUSH2 0x2870 DUP2 PUSH2 0x2663 DUP5 DUP3 PUSH2 0x367 JUMP JUMPDEST PUSH2 0x287C PUSH2 0x2675 DUP9 PUSH2 0x473 JUMP JUMPDEST EQ PUSH2 0x2891 JUMPI JUMPDEST POP PUSH2 0x288C SWAP1 PUSH2 0x2715 JUMP JUMPDEST PUSH2 0x284C JUMP JUMPDEST DUP1 PUSH2 0x289B DUP5 PUSH2 0x35A JUMP JUMPDEST SWAP2 JUMPDEST PUSH2 0x28A8 JUMPI JUMPDEST POP PUSH2 0x2882 JUMP JUMPDEST SWAP1 SWAP5 PUSH2 0x28BC PUSH2 0x1C7 PUSH1 0xC PUSH2 0x2820 DUP7 DUP7 PUSH2 0x367 JUMP JUMPDEST DUP7 LT ISZERO PUSH2 0x2911 JUMPI PUSH2 0x290B PUSH2 0x2905 DUP4 SWAP3 PUSH2 0x28EA PUSH2 0x28E4 DUP11 PUSH1 0xC PUSH2 0x28DE DUP11 DUP10 PUSH2 0x367 JUMP JUMPDEST ADD PUSH2 0x1166 JUMP JUMPDEST POP PUSH2 0x2164 JUMP JUMPDEST PUSH2 0x28F4 DUP3 DUP11 PUSH2 0x279B JUMP JUMPDEST MSTORE PUSH2 0x28FF DUP2 DUP10 PUSH2 0x279B JUMP JUMPDEST POP PUSH2 0x18AA JUMP JUMPDEST SWAP7 PUSH2 0x2715 JUMP JUMPDEST SWAP2 PUSH2 0x289D JUMP JUMPDEST SWAP5 PUSH2 0x28A2 JUMP JUMPDEST POP SWAP1 SWAP3 POP PUSH2 0x2925 SWAP2 POP PUSH2 0x35A JUMP JUMPDEST PUSH2 0x2930 PUSH2 0x1C7 DUP4 MLOAD SWAP1 JUMP JUMPDEST DUP2 LT ISZERO PUSH2 0x2A01 JUMPI PUSH1 0x1 DUP1 PUSH2 0x294C PUSH2 0x2946 DUP3 PUSH2 0x35A JUMP JUMPDEST DUP5 PUSH2 0x145B JUMP JUMPDEST SWAP1 JUMPDEST PUSH2 0x2963 JUMPI JUMPDEST POP POP PUSH2 0x295E SWAP1 PUSH2 0x2715 JUMP JUMPDEST PUSH2 0x2925 JUMP JUMPDEST PUSH2 0x296E PUSH2 0x1C7 DUP6 MLOAD SWAP1 JUMP JUMPDEST DUP2 LT ISZERO PUSH2 0x29FC JUMPI PUSH2 0x29AF DUP3 SWAP2 PUSH2 0x2990 PUSH1 0xA0 PUSH2 0x2989 DUP8 DUP10 PUSH2 0x279B JUMP JUMPDEST MLOAD ADD PUSH2 0x1358 JUMP JUMPDEST PUSH2 0x29A5 PUSH2 0x1536 PUSH2 0x1C7 PUSH1 0xA0 PUSH2 0x2989 DUP7 DUP13 PUSH2 0x279B JUMP JUMPDEST GT PUSH2 0x29B5 JUMPI PUSH2 0x2715 JUMP JUMPDEST SWAP1 PUSH2 0x294E JUMP JUMPDEST PUSH2 0x29BF DUP6 DUP8 PUSH2 0x279B JUMP JUMPDEST MLOAD PUSH2 0x29CA DUP3 DUP9 PUSH2 0x279B JUMP JUMPDEST MLOAD PUSH2 0x29D5 DUP8 DUP10 PUSH2 0x279B JUMP JUMPDEST MSTORE PUSH2 0x29E0 DUP7 DUP9 PUSH2 0x279B JUMP JUMPDEST POP PUSH2 0x29EB DUP3 DUP9 PUSH2 0x279B JUMP JUMPDEST MSTORE PUSH2 0x29F6 DUP2 DUP8 PUSH2 0x279B JUMP JUMPDEST POP PUSH2 0x2715 JUMP JUMPDEST PUSH2 0x2953 JUMP JUMPDEST POP SWAP1 JUMP JUMPDEST PUSH2 0x1AD4 SWAP1 PUSH2 0x2A11 PUSH2 0x3074 JUMP JUMPDEST PUSH2 0x2A6D JUMP JUMPDEST PUSH1 0x20 DUP1 DUP3 MSTORE PUSH1 0x1E SWAP1 DUP3 ADD MSTORE PUSH32 0x4E6F2066756E647320617661696C61626C6520746F2077697468647261770000 PUSH1 0x40 DUP3 ADD MSTORE PUSH1 0x60 ADD SWAP1 JUMP JUMPDEST ISZERO PUSH2 0x2A54 JUMPI JUMP JUMPDEST PUSH1 0x40 MLOAD PUSH3 0x461BCD PUSH1 0xE5 SHL DUP2 MSTORE DUP1 PUSH2 0x1053 PUSH1 0x4 DUP3 ADD PUSH2 0x2A16 JUMP JUMPDEST PUSH2 0x2A7D PUSH2 0x1D29 PUSH2 0x1C7 PUSH1 0x2 PUSH2 0x490 JUMP JUMPDEST PUSH2 0x2A8B PUSH2 0x1C7 DUP3 PUSH1 0x1 PUSH2 0x367 JUMP JUMPDEST SWAP1 PUSH1 0x1 DUP3 ADD SWAP1 PUSH2 0x2AA0 PUSH2 0x1D58 PUSH2 0x1D53 DUP5 PUSH2 0x47F JUMP JUMPDEST PUSH2 0x2AA9 DUP2 PUSH2 0x2F46 JUMP JUMPDEST SWAP3 PUSH1 0x0 SWAP1 PUSH2 0x2AC0 PUSH2 0x2AB9 DUP4 PUSH2 0x35A JUMP JUMPDEST DUP7 GT PUSH2 0x2A4D JUMP JUMPDEST PUSH1 0xE DUP2 ADD PUSH2 0x2AD0 PUSH2 0x1D8E DUP3 PUSH2 0x4A0 JUMP JUMPDEST PUSH2 0x2BA9 JUMPI JUMPDEST POP PUSH1 0xD PUSH2 0x2AEA SWAP2 ADD PUSH2 0x15D9 DUP7 PUSH2 0x15ED DUP4 PUSH2 0x490 JUMP JUMPDEST PUSH2 0x2B2F PUSH1 0x20 DUP6 PUSH2 0x2B1C PUSH2 0xF73 PUSH32 0x0 PUSH2 0xE81 JUMP JUMPDEST PUSH2 0x2B25 DUP8 PUSH2 0x47F JUMP JUMPDEST DUP6 PUSH2 0x1DF2 PUSH1 0x40 MLOAD SWAP1 JUMP JUMPDEST SUB SWAP3 GAS CALL SWAP4 DUP5 ISZERO PUSH2 0xFE4 JUMPI PUSH32 0x887CC922C9FB6A3A66AC86CA7A5550189370DBE58CAA712BD060AD70F5328164 SWAP5 PUSH2 0x1E9D SWAP4 PUSH2 0x1E97 SWAP4 PUSH2 0x1E92 SWAP3 PUSH2 0x2B8C JUMPI JUMPDEST POP PUSH1 0x3 PUSH2 0x1E6C PUSH2 0x2B7C DUP6 PUSH2 0x47F JUMP JUMPDEST PUSH2 0x2B84 PUSH2 0x1C6D JUMP JUMPDEST SWAP4 DUP5 ADD PUSH2 0x115C JUMP JUMPDEST PUSH2 0x2BA4 SWAP1 PUSH1 0x20 RETURNDATASIZE PUSH1 0x20 GT PUSH2 0x1EE0 JUMPI PUSH2 0x1ED3 DUP2 DUP4 PUSH2 0x228 JUMP JUMPDEST PUSH2 0x2B6D JUMP JUMPDEST DUP2 PUSH2 0x2BBF PUSH2 0x1F0B PUSH2 0x1EFD PUSH1 0x9 PUSH2 0x2C01 SWAP7 ADD PUSH2 0x490 JUMP JUMPDEST PUSH1 0x20 DUP2 PUSH2 0x2BEE PUSH2 0xF73 PUSH32 0x0 PUSH2 0xE81 JUMP JUMPDEST PUSH2 0x2BF7 ADDRESS PUSH2 0xE81 JUMP JUMPDEST DUP9 PUSH2 0x1F5E PUSH1 0x40 MLOAD SWAP1 JUMP JUMPDEST SUB SWAP3 GAS CALL SWAP4 DUP5 ISZERO PUSH2 0xFE4 JUMPI PUSH1 0x1 PUSH1 0xD SWAP5 PUSH2 0x2C23 SWAP3 PUSH2 0x2AEA SWAP8 PUSH2 0x1FD6 JUMPI POP PUSH2 0x1C56 JUMP JUMPDEST PUSH32 0x93E7AAA64DB1F3164FB844C7465BE63C3D09A211E1307C3FE2A96A3F585D4415 PUSH2 0x2C50 PUSH2 0x1FC2 DUP9 PUSH2 0x35A JUMP JUMPDEST SUB SWAP1 LOG2 SWAP2 POP PUSH2 0x2AD5 JUMP JUMPDEST PUSH2 0x18A SWAP1 PUSH2 0x2A05 JUMP JUMPDEST PUSH1 0x20 DUP1 DUP3 MSTORE PUSH1 0x16 SWAP1 DUP3 ADD MSTORE PUSH22 0x4E6F2063616D706169676E7320617661696C61626C65 PUSH1 0x50 SHL PUSH1 0x40 DUP3 ADD MSTORE PUSH1 0x60 ADD SWAP1 JUMP JUMPDEST ISZERO PUSH2 0x2C9A JUMPI JUMP JUMPDEST PUSH1 0x40 MLOAD PUSH3 0x461BCD PUSH1 0xE5 SHL DUP2 MSTORE DUP1 PUSH2 0x1053 PUSH1 0x4 DUP3 ADD PUSH2 0x2C63 JUMP JUMPDEST PUSH2 0x1C7 PUSH2 0x1E0 PUSH2 0x24F JUMP JUMPDEST PUSH2 0x2CC6 PUSH2 0x2CB3 JUMP JUMPDEST SWAP1 PUSH1 0x60 DUP3 MSTORE PUSH1 0x20 DUP3 ADD PUSH1 0x0 DUP2 MSTORE PUSH1 0x20 ADD PUSH1 0x60 DUP2 MSTORE PUSH1 0x20 ADD PUSH1 0x60 DUP2 MSTORE PUSH1 0x20 ADD PUSH1 0x60 DUP2 MSTORE PUSH1 0x20 ADD PUSH1 0x0 DUP2 MSTORE PUSH1 0x20 ADD PUSH1 0x0 DUP2 MSTORE PUSH1 0x20 ADD PUSH1 0x0 DUP2 MSTORE PUSH1 0x20 ADD PUSH1 0x0 DUP2 MSTORE PUSH1 0x20 ADD PUSH1 0x0 DUP2 MSTORE PUSH1 0x20 ADD PUSH1 0x0 DUP2 MSTORE PUSH1 0x20 ADD PUSH1 0x0 DUP2 MSTORE PUSH1 0x20 ADD PUSH1 0x60 DUP2 MSTORE PUSH1 0x20 ADD PUSH1 0x0 DUP2 MSTORE PUSH1 0x20 ADD PUSH1 0x0 SWAP1 MSTORE JUMP JUMPDEST PUSH2 0x1C7 PUSH2 0x2CBE JUMP JUMPDEST PUSH1 0x0 JUMPDEST DUP3 DUP2 LT PUSH2 0x2D47 JUMPI POP POP POP JUMP JUMPDEST PUSH1 0x20 SWAP1 PUSH2 0x2D52 PUSH2 0x2D30 JUMP JUMPDEST DUP2 DUP5 ADD MSTORE ADD PUSH2 0x2D3B JUMP JUMPDEST SWAP1 PUSH2 0x18A PUSH2 0x2D6C PUSH2 0x2788 DUP5 PUSH2 0x2015 JUMP JUMPDEST PUSH1 0x1F NOT ADD PUSH1 0x20 DUP5 ADD PUSH2 0x2D38 JUMP JUMPDEST SWAP1 PUSH2 0x18A PUSH2 0x2EB2 PUSH1 0xE PUSH2 0x2D8A PUSH2 0x2CB3 JUMP JUMPDEST SWAP5 PUSH2 0x2D9B PUSH2 0x2D97 DUP3 PUSH2 0x44D JUMP JUMPDEST DUP8 MSTORE JUMP JUMPDEST PUSH2 0x2DB3 PUSH2 0x2DAA PUSH1 0x1 DUP4 ADD PUSH2 0x47F JUMP JUMPDEST PUSH1 0x20 DUP9 ADD PUSH2 0x115C JUMP JUMPDEST PUSH2 0x2DC2 PUSH2 0x2070 PUSH1 0x2 DUP4 ADD PUSH2 0x44D JUMP JUMPDEST PUSH2 0x2DD1 PUSH2 0x2140 PUSH1 0x3 DUP4 ADD PUSH2 0x44D JUMP JUMPDEST PUSH2 0x2DE0 PUSH2 0x2156 PUSH1 0x4 DUP4 ADD PUSH2 0x44D JUMP JUMPDEST PUSH2 0x2DF6 PUSH2 0x2DEF PUSH1 0x5 DUP4 ADD PUSH2 0x490 JUMP JUMPDEST PUSH1 0xA0 DUP9 ADD MSTORE JUMP JUMPDEST PUSH2 0x2E0C PUSH2 0x2E05 PUSH1 0x6 DUP4 ADD PUSH2 0x490 JUMP JUMPDEST PUSH1 0xC0 DUP9 ADD MSTORE JUMP JUMPDEST PUSH2 0x2E22 PUSH2 0x2E1B PUSH1 0x7 DUP4 ADD PUSH2 0x490 JUMP JUMPDEST PUSH1 0xE0 DUP9 ADD MSTORE JUMP JUMPDEST PUSH2 0x2E39 PUSH2 0x2E31 PUSH1 0x8 DUP4 ADD PUSH2 0x490 JUMP JUMPDEST PUSH2 0x100 DUP9 ADD MSTORE JUMP JUMPDEST PUSH2 0x2E50 PUSH2 0x2E48 PUSH1 0x9 DUP4 ADD PUSH2 0x490 JUMP JUMPDEST PUSH2 0x120 DUP9 ADD MSTORE JUMP JUMPDEST PUSH2 0x2E67 PUSH2 0x2E5F PUSH1 0xA DUP4 ADD PUSH2 0x490 JUMP JUMPDEST PUSH2 0x140 DUP9 ADD MSTORE JUMP JUMPDEST PUSH2 0x2E7E PUSH2 0x2E76 PUSH1 0xB DUP4 ADD PUSH2 0x490 JUMP JUMPDEST PUSH2 0x160 DUP9 ADD MSTORE JUMP JUMPDEST PUSH2 0x2E95 PUSH2 0x2E8D PUSH1 0xC DUP4 ADD PUSH2 0x216D JUMP JUMPDEST PUSH2 0x180 DUP9 ADD MSTORE JUMP JUMPDEST PUSH2 0x2EAC PUSH2 0x2EA4 PUSH1 0xD DUP4 ADD PUSH2 0x490 JUMP JUMPDEST PUSH2 0x1A0 DUP9 ADD MSTORE JUMP JUMPDEST ADD PUSH2 0x4A0 JUMP JUMPDEST ISZERO ISZERO PUSH2 0x1C0 DUP5 ADD MSTORE JUMP JUMPDEST PUSH2 0x1C7 SWAP1 PUSH2 0x2D79 JUMP JUMPDEST PUSH2 0x2EE5 PUSH2 0x2ED2 PUSH1 0x2 PUSH2 0x490 JUMP JUMPDEST PUSH2 0x2EDF PUSH2 0x1536 PUSH1 0x0 PUSH2 0x35A JUMP JUMPDEST GT PUSH2 0x2C93 JUMP JUMPDEST PUSH2 0x2EF7 PUSH2 0x2EF2 PUSH1 0x2 PUSH2 0x490 JUMP JUMPDEST PUSH2 0x2D5C JUMP JUMPDEST PUSH2 0x2F01 PUSH1 0x0 PUSH2 0x35A JUMP JUMPDEST PUSH2 0x2F0E PUSH2 0x1C7 PUSH1 0x2 PUSH2 0x490 JUMP JUMPDEST DUP2 LT ISZERO PUSH2 0x2A01 JUMPI DUP1 PUSH2 0x2F2C PUSH2 0x2F27 PUSH2 0x2F41 SWAP4 PUSH1 0x1 PUSH2 0x367 JUMP JUMPDEST PUSH2 0x2EBC JUMP JUMPDEST PUSH2 0x2F36 DUP3 DUP6 PUSH2 0x279B JUMP JUMPDEST MSTORE PUSH2 0x29F6 DUP2 DUP5 PUSH2 0x279B JUMP JUMPDEST PUSH2 0x2F01 JUMP JUMPDEST PUSH2 0x1C7 PUSH2 0x2F66 SWAP2 PUSH2 0x2F55 PUSH1 0x0 SWAP1 JUMP JUMPDEST POP PUSH2 0x21ED PUSH2 0x1D29 PUSH2 0x1C7 PUSH1 0x2 PUSH2 0x490 JUMP JUMPDEST PUSH2 0x2F72 PUSH1 0x9 DUP3 ADD PUSH2 0x490 JUMP JUMPDEST PUSH2 0x2F87 PUSH2 0x2F81 PUSH1 0xD DUP5 ADD PUSH2 0x490 JUMP JUMPDEST DUP3 PUSH2 0x18B9 JUMP JUMPDEST SWAP1 PUSH2 0x2F98 PUSH2 0x1D8E PUSH1 0xE DUP5 SWAP6 ADD PUSH2 0x4A0 JUMP JUMPDEST PUSH2 0x2FA1 JUMPI POP POP SWAP1 JUMP JUMPDEST PUSH2 0x1C7 SWAP3 POP PUSH2 0x1F0B PUSH2 0x2FB5 SWAP2 PUSH2 0x1F05 PUSH2 0x79B JUMP JUMPDEST SWAP1 PUSH2 0x18B9 JUMP JUMPDEST PUSH1 0x20 DUP1 DUP3 MSTORE PUSH1 0xE SWAP1 DUP3 ADD MSTORE PUSH14 0x496E76616C696420737461747573 PUSH1 0x90 SHL PUSH1 0x40 DUP3 ADD MSTORE PUSH1 0x60 ADD SWAP1 JUMP JUMPDEST ISZERO PUSH2 0x2FEA JUMPI JUMP JUMPDEST PUSH1 0x40 MLOAD PUSH3 0x461BCD PUSH1 0xE5 SHL DUP2 MSTORE DUP1 PUSH2 0x1053 PUSH1 0x4 DUP3 ADD PUSH2 0x2FBB JUMP JUMPDEST PUSH2 0x1EB5 PUSH2 0x1FC2 PUSH32 0x8F91FEA7C957B922286B233AACDBEF39C778FBF18B1E208359140DFA65BFD3C2 SWAP3 PUSH2 0x303B PUSH2 0x14ED PUSH2 0x1C7 PUSH1 0x2 PUSH2 0x490 JUMP JUMPDEST PUSH2 0x3050 PUSH2 0x3048 PUSH1 0x2 PUSH2 0x35A JUMP JUMPDEST DUP7 GT ISZERO PUSH2 0x2FE3 JUMP JUMPDEST PUSH2 0x15F2 DUP6 PUSH1 0xA PUSH2 0x3064 PUSH2 0x1C7 DUP6 PUSH1 0x1 PUSH2 0x367 JUMP JUMPDEST ADD PUSH2 0x1366 JUMP JUMPDEST PUSH2 0x1C7 PUSH1 0x2 PUSH2 0x35A JUMP JUMPDEST PUSH2 0x307E PUSH1 0x0 PUSH2 0x490 JUMP JUMPDEST PUSH2 0x3086 PUSH2 0x306A JUMP JUMPDEST SWAP1 DUP2 EQ PUSH2 0x3098 JUMPI PUSH2 0x18A SWAP1 PUSH1 0x0 PUSH2 0x1366 JUMP JUMPDEST PUSH1 0x40 MLOAD PUSH4 0x3EE5AEB5 PUSH1 0xE0 SHL DUP2 MSTORE PUSH1 0x4 SWAP1 REVERT JUMPDEST PUSH2 0x1C7 PUSH1 0x1 PUSH2 0x35A JUMP JUMPDEST PUSH2 0x18A PUSH2 0x30BF PUSH2 0x30AA JUMP JUMPDEST PUSH1 0x0 PUSH2 0x1366 JUMP JUMPDEST PUSH1 0x20 DUP1 DUP3 MSTORE PUSH1 0x1D SWAP1 DUP3 ADD MSTORE PUSH32 0x416D6F756E74206D7573742062652067726561746572207468616E2030000000 PUSH1 0x40 DUP3 ADD MSTORE PUSH1 0x60 ADD SWAP1 JUMP JUMPDEST ISZERO PUSH2 0x3104 JUMPI JUMP JUMPDEST PUSH1 0x40 MLOAD PUSH3 0x461BCD PUSH1 0xE5 SHL DUP2 MSTORE DUP1 PUSH2 0x1053 PUSH1 0x4 DUP3 ADD PUSH2 0x30C6 JUMP JUMPDEST PUSH2 0x1C7 PUSH2 0x100 PUSH2 0x24F JUMP JUMPDEST SWAP1 PUSH1 0xE0 DUP1 PUSH2 0x18A SWAP4 PUSH2 0x3142 PUSH1 0x0 DUP3 ADD MLOAD PUSH1 0x0 DUP7 ADD SWAP1 PUSH2 0x5BE JUMP JUMPDEST PUSH2 0x3154 PUSH1 0x20 DUP3 ADD MLOAD PUSH1 0x20 DUP7 ADD SWAP1 PUSH2 0x5BE JUMP JUMPDEST PUSH1 0x40 DUP2 DUP2 ADD MLOAD PUSH3 0xFFFFFF AND SWAP1 DUP6 ADD MSTORE PUSH2 0x3175 PUSH1 0x60 DUP3 ADD MLOAD PUSH1 0x60 DUP7 ADD SWAP1 PUSH2 0x5BE JUMP JUMPDEST PUSH2 0x3184 PUSH1 0x80 DUP3 ADD MLOAD PUSH1 0x80 DUP7 ADD MSTORE JUMP JUMPDEST PUSH2 0x3193 PUSH1 0xA0 DUP3 ADD MLOAD PUSH1 0xA0 DUP7 ADD MSTORE JUMP JUMPDEST PUSH2 0x31A2 PUSH1 0xC0 DUP3 ADD MLOAD PUSH1 0xC0 DUP7 ADD MSTORE JUMP JUMPDEST ADD MLOAD PUSH1 0x1 PUSH1 0x1 PUSH1 0xA0 SHL SUB AND SWAP2 ADD MSTORE JUMP JUMPDEST PUSH2 0x100 DUP2 ADD SWAP3 SWAP2 PUSH2 0x18A SWAP2 SWAP1 PUSH2 0x3128 JUMP JUMPDEST PUSH1 0x0 PUSH2 0x31D8 PUSH2 0x31D1 DUP3 PUSH2 0x35A JUMP JUMPDEST DUP4 GT PUSH2 0x30FD JUMP JUMPDEST PUSH32 0x0 SWAP2 PUSH2 0x3206 PUSH2 0xF73 DUP5 PUSH2 0xE81 JUMP JUMPDEST SWAP1 PUSH4 0xD0E30DB0 SWAP2 DUP1 EXTCODESIZE ISZERO PUSH2 0x176 JUMPI PUSH2 0x322C SWAP3 DUP5 SWAP2 PUSH2 0x3223 PUSH1 0x40 MLOAD SWAP1 JUMP JUMPDEST SWAP5 DUP6 SWAP3 PUSH1 0xE0 SHL SWAP1 JUMP JUMPDEST DUP3 MSTORE PUSH1 0x4 SWAP1 DUP3 SWAP1 DUP6 SWAP1 GAS CALL SWAP2 DUP3 ISZERO PUSH2 0xFE4 JUMPI DUP4 SWAP3 PUSH2 0x33A0 JUMPI JUMPDEST POP PUSH2 0x330B PUSH2 0x3272 PUSH32 0x0 PUSH2 0xE81 JUMP JUMPDEST SWAP2 PUSH2 0x327E DUP2 DUP5 DUP9 PUSH2 0x3434 JUMP JUMPDEST PUSH2 0x215D DUP7 PUSH2 0x3304 PUSH32 0x0 PUSH2 0x32FB PUSH2 0x32B1 PUSH2 0x817 JUMP JUMPDEST PUSH2 0x32EF PUSH2 0x32BD ADDRESS PUSH2 0xE81 JUMP JUMPDEST SWAP4 PUSH2 0x32E6 PUSH2 0x32D5 PUSH2 0x32CF PUSH2 0x258 PUSH2 0x35A JUMP JUMPDEST TIMESTAMP PUSH2 0x145B JUMP JUMPDEST SWAP8 PUSH2 0x32DE PUSH2 0x311D JUMP JUMPDEST SWAP14 DUP15 ADD PUSH2 0x115C JUMP JUMPDEST PUSH1 0x20 DUP13 ADD PUSH2 0x115C JUMP JUMPDEST PUSH3 0xFFFFFF AND PUSH1 0x40 DUP11 ADD MSTORE JUMP JUMPDEST PUSH1 0x60 DUP9 ADD PUSH2 0x115C JUMP JUMPDEST PUSH1 0x80 DUP7 ADD MSTORE JUMP JUMPDEST PUSH2 0x335D PUSH1 0x20 PUSH2 0x3319 DUP6 PUSH2 0x35A JUMP JUMPDEST SWAP4 PUSH2 0x3325 DUP6 PUSH1 0xC0 DUP4 ADD MSTORE JUMP JUMPDEST PUSH2 0x3341 PUSH2 0x3331 DUP8 PUSH2 0x167C JUMP JUMPDEST PUSH1 0x1 PUSH1 0x1 PUSH1 0xA0 SHL SUB AND PUSH1 0xE0 DUP4 ADD MSTORE JUMP JUMPDEST PUSH1 0x40 MLOAD SWAP3 DUP4 SWAP2 DUP3 SWAP2 SWAP1 PUSH4 0x414BF389 PUSH1 0xE0 SHL DUP4 MSTORE PUSH1 0x4 DUP4 ADD PUSH2 0x31B2 JUMP JUMPDEST SUB DUP2 DUP8 DUP7 GAS CALL SWAP4 DUP5 ISZERO PUSH2 0xFE4 JUMPI SWAP4 PUSH2 0x337D JUMPI JUMPDEST POP DUP3 SWAP4 PUSH2 0x1C7 SWAP4 POP PUSH2 0x3434 JUMP JUMPDEST PUSH2 0x1C7 SWAP4 POP PUSH2 0x339A SWAP1 PUSH1 0x20 RETURNDATASIZE PUSH1 0x20 GT PUSH2 0xFDD JUMPI PUSH2 0xFD5 DUP2 DUP4 PUSH2 0x228 JUMP JUMPDEST SWAP3 PUSH2 0x3370 JUMP JUMPDEST PUSH2 0x33BF SWAP1 DUP4 RETURNDATASIZE DUP6 GT PUSH2 0x33C5 JUMPI JUMPDEST PUSH2 0x33B7 DUP2 DUP4 PUSH2 0x228 JUMP JUMPDEST DUP2 ADD SWAP1 PUSH2 0x17B JUMP JUMPDEST CODESIZE PUSH2 0x3245 JUMP JUMPDEST POP RETURNDATASIZE PUSH2 0x33AD JUMP JUMPDEST SWAP1 PUSH2 0x2022 PUSH2 0x2A0 DUP4 PUSH2 0x263 JUMP JUMPDEST RETURNDATASIZE ISZERO PUSH2 0x33F3 JUMPI PUSH2 0x33E8 RETURNDATASIZE PUSH2 0x33CC JUMP JUMPDEST SWAP1 RETURNDATASIZE PUSH1 0x0 PUSH1 0x20 DUP5 ADD RETURNDATACOPY JUMP JUMPDEST PUSH1 0x60 SWAP1 JUMP JUMPDEST PUSH1 0x20 DUP1 DUP3 MSTORE PUSH1 0x2 SWAP1 DUP3 ADD MSTORE PUSH2 0x5341 PUSH1 0xF0 SHL PUSH1 0x40 DUP3 ADD MSTORE PUSH1 0x60 ADD SWAP1 JUMP JUMPDEST ISZERO PUSH2 0x341B JUMPI JUMP JUMPDEST PUSH1 0x40 MLOAD PUSH3 0x461BCD PUSH1 0xE5 SHL DUP2 MSTORE DUP1 PUSH2 0x1053 PUSH1 0x4 DUP3 ADD PUSH2 0x33F8 JUMP JUMPDEST PUSH2 0x18A SWAP3 PUSH1 0x0 SWAP3 SWAP2 PUSH2 0x3475 DUP5 SWAP4 PUSH2 0x3466 PUSH2 0x344D PUSH1 0x40 MLOAD SWAP1 JUMP JUMPDEST PUSH4 0x95EA7B3 PUSH1 0xE0 SHL PUSH1 0x20 DUP3 ADD MSTORE SWAP5 DUP6 SWAP3 PUSH1 0x24 DUP5 ADD PUSH2 0x1C2D JUMP JUMPDEST PUSH1 0x20 DUP3 ADD DUP2 SUB DUP3 MSTORE SUB DUP4 PUSH2 0x228 JUMP JUMPDEST DUP3 PUSH1 0x20 DUP4 MLOAD SWAP4 ADD SWAP2 GAS CALL PUSH2 0x3487 PUSH2 0x33D9 JUMP JUMPDEST DUP2 PUSH2 0x3493 JUMPI JUMPDEST POP PUSH2 0x3414 JUMP JUMPDEST SWAP1 POP PUSH2 0x349D DUP2 MLOAD SWAP1 JUMP JUMPDEST PUSH2 0x34AA PUSH2 0x1536 PUSH1 0x0 PUSH2 0x35A JUMP JUMPDEST EQ SWAP1 DUP2 ISZERO PUSH2 0x34BA JUMPI JUMPDEST POP CODESIZE PUSH2 0x348D JUMP JUMPDEST PUSH2 0x34D4 SWAP2 POP PUSH1 0x20 PUSH2 0x34C9 DUP3 MLOAD SWAP1 JUMP JUMPDEST DUP2 DUP4 ADD ADD SWAP2 ADD PUSH2 0x1C19 JUMP JUMPDEST CODESIZE PUSH2 0x34B3 JUMP INVALID LOG2 PUSH5 0x6970667358 0x22 SLT KECCAK256 SUB 0xB5 PUSH13 0x7A3D6E32E88121CADFCD7AAB50 DIV 0x4D PUSH11 0xBB5F44C9CF142336DEE106 0xBD CALLDATALOAD PUSH5 0x736F6C6343 STOP ADDMOD XOR STOP CALLER "},"methodIdentifiers":{"FEE_TIER()":"4c69a6c9","PLATFORM_FEE()":"34fbc9a1","USDC()":"89a30271","WETH()":"ad5c4648","campaigns(uint256)":"141961bc","createCampaign(string,address,string,string,string,uint256,uint256)":"2828f2ee","deleteCampaign(uint256)":"75970193","donateToCampaign(uint256,string,string)":"131be674","getCampaigns()":"a6b03633","getContractBalance()":"6f9fb98a","getContractUSDCBalance()":"002772c2","getDonations(uint256)":"596d9ce2","getUSDCBalance(address)":"68024717","getUserDonationsByDate(address)":"7eb483c9","getWithdrawals()":"50d6c1e8","numberOfCampaigns()":"07ca140d","swapRouter()":"c31c9c07","updateCampaignStatus(uint256,uint256)":"eaa1b0bc","withdraw(uint256,uint256)":"441a3e70","withdrawAll(uint256)":"958e2d31","withdrawableAmount(uint256)":"d0cee66a","withdrawals(uint256)":"5cc07076"}}}}}