{
  "_format": "hh-sol-artifact-1",
  "contractName": "UserAuthentication",
  "sourceName": "contracts/userAuthentication.sol",
  "abi": [
    {
      "anonymous": false,
      "inputs": [
        {
          "indexed": false,
          "internalType": "address",
          "name": "walletAddress",
          "type": "address"
        },
        {
          "indexed": false,
          "internalType": "string",
          "name": "email",
          "type": "string"
        }
      ],
      "name": "UserLoggedIn",
      "type": "event"
    },
    {
      "anonymous": false,
      "inputs": [
        {
          "indexed": false,
          "internalType": "address",
          "name": "walletAddress",
          "type": "address"
        },
        {
          "indexed": false,
          "internalType": "string",
          "name": "email",
          "type": "string"
        }
      ],
      "name": "UserRegistered",
      "type": "event"
    },
    {
      "inputs": [],
      "name": "getUserInfo",
      "outputs": [
        {
          "internalType": "string",
          "name": "",
          "type": "string"
        },
        {
          "internalType": "string",
          "name": "",
          "type": "string"
        },
        {
          "internalType": "string",
          "name": "",
          "type": "string"
        },
        {
          "internalType": "address",
          "name": "",
          "type": "address"
        }
      ],
      "stateMutability": "view",
      "type": "function"
    },
    {
      "inputs": [
        {
          "internalType": "string",
          "name": "_email",
          "type": "string"
        },
        {
          "internalType": "string",
          "name": "_password",
          "type": "string"
        }
      ],
      "name": "loginWithEmail",
      "outputs": [
        {
          "internalType": "bool",
          "name": "",
          "type": "bool"
        }
      ],
      "stateMutability": "view",
      "type": "function"
    },
    {
      "inputs": [],
      "name": "loginWithWallet",
      "outputs": [
        {
          "internalType": "bool",
          "name": "",
          "type": "bool"
        }
      ],
      "stateMutability": "view",
      "type": "function"
    },
    {
      "inputs": [
        {
          "internalType": "string",
          "name": "_name",
          "type": "string"
        },
        {
          "internalType": "string",
          "name": "_email",
          "type": "string"
        },
        {
          "internalType": "string",
          "name": "_mobileNo",
          "type": "string"
        },
        {
          "internalType": "string",
          "name": "_password",
          "type": "string"
        }
      ],
      "name": "register",
      "outputs": [],
      "stateMutability": "nonpayable",
      "type": "function"
    }
  ],
  "bytecode": "0x608060405234801561001057600080fd5b5061142e806100206000396000f3fe608060405234801561001057600080fd5b506004361061004c5760003560e01c80630e24c52c1461005157806334e7fa681461006d5780635d8d15851461008b578063b2c79123146100ac575b600080fd5b61006b60048036038101906100669190610c3e565b6100dc565b005b61007561033c565b6040516100829190610d30565b60405180910390f35b6100936103d1565b6040516100a39493929190610e0b565b60405180910390f35b6100c660048036038101906100c19190610e65565b6106ea565b6040516100d39190610d30565b60405180910390f35b600160003373ffffffffffffffffffffffffffffffffffffffff1673ffffffffffffffffffffffffffffffffffffffff16815260200190815260200160002060009054906101000a900460ff1615610169576040517f08c379a000000000000000000000000000000000000000000000000000000000815260040161016090610f29565b60405180910390fd5b60008160405160200161017c9190610f85565b6040516020818303038152906040528051906020012090506040518060a001604052808681526020018581526020018481526020018281526020013373ffffffffffffffffffffffffffffffffffffffff168152506000803373ffffffffffffffffffffffffffffffffffffffff1673ffffffffffffffffffffffffffffffffffffffff168152602001908152602001600020600082015181600001908161022491906111b2565b50602082015181600101908161023a91906111b2565b50604082015181600201908161025091906111b2565b506060820151816003015560808201518160040160006101000a81548173ffffffffffffffffffffffffffffffffffffffff021916908373ffffffffffffffffffffffffffffffffffffffff16021790555090505060018060003373ffffffffffffffffffffffffffffffffffffffff1673ffffffffffffffffffffffffffffffffffffffff16815260200190815260200160002060006101000a81548160ff0219169083151502179055507f48cac28ad4dc618e15f4c2dd5e97751182f166de97b25618318b2112aa951a2f338560405161032d929190611284565b60405180910390a15050505050565b6000600160003373ffffffffffffffffffffffffffffffffffffffff1673ffffffffffffffffffffffffffffffffffffffff16815260200190815260200160002060009054906101000a900460ff166103ca576040517f08c379a00000000000000000000000000000000000000000000000000000000081526004016103c190611300565b60405180910390fd5b6001905090565b60608060606000600160003373ffffffffffffffffffffffffffffffffffffffff1673ffffffffffffffffffffffffffffffffffffffff16815260200190815260200160002060009054906101000a900460ff16610464576040517f08c379a000000000000000000000000000000000000000000000000000000000815260040161045b90611300565b60405180910390fd5b60008060003373ffffffffffffffffffffffffffffffffffffffff1673ffffffffffffffffffffffffffffffffffffffff1681526020019081526020016000206040518060a00160405290816000820180546104bf90610fcb565b80601f01602080910402602001604051908101604052809291908181526020018280546104eb90610fcb565b80156105385780601f1061050d57610100808354040283529160200191610538565b820191906000526020600020905b81548152906001019060200180831161051b57829003601f168201915b5050505050815260200160018201805461055190610fcb565b80601f016020809104026020016040519081016040528092919081815260200182805461057d90610fcb565b80156105ca5780601f1061059f576101008083540402835291602001916105ca565b820191906000526020600020905b8154815290600101906020018083116105ad57829003601f168201915b505050505081526020016002820180546105e390610fcb565b80601f016020809104026020016040519081016040528092919081815260200182805461060f90610fcb565b801561065c5780601f106106315761010080835404028352916020019161065c565b820191906000526020600020905b81548152906001019060200180831161063f57829003601f168201915b50505050508152602001600382015481526020016004820160009054906101000a900473ffffffffffffffffffffffffffffffffffffffff1673ffffffffffffffffffffffffffffffffffffffff1673ffffffffffffffffffffffffffffffffffffffff16815250509050806000015181602001518260400151836080015194509450945094505090919293565b6000600160003373ffffffffffffffffffffffffffffffffffffffff1673ffffffffffffffffffffffffffffffffffffffff16815260200190815260200160002060009054906101000a900460ff16610778576040517f08c379a000000000000000000000000000000000000000000000000000000000815260040161076f90611300565b60405180910390fd5b60008060003373ffffffffffffffffffffffffffffffffffffffff1673ffffffffffffffffffffffffffffffffffffffff1681526020019081526020016000206040518060a00160405290816000820180546107d390610fcb565b80601f01602080910402602001604051908101604052809291908181526020018280546107ff90610fcb565b801561084c5780601f106108215761010080835404028352916020019161084c565b820191906000526020600020905b81548152906001019060200180831161082f57829003601f168201915b5050505050815260200160018201805461086590610fcb565b80601f016020809104026020016040519081016040528092919081815260200182805461089190610fcb565b80156108de5780601f106108b3576101008083540402835291602001916108de565b820191906000526020600020905b8154815290600101906020018083116108c157829003601f168201915b505050505081526020016002820180546108f790610fcb565b80601f016020809104026020016040519081016040528092919081815260200182805461092390610fcb565b80156109705780601f1061094557610100808354040283529160200191610970565b820191906000526020600020905b81548152906001019060200180831161095357829003601f168201915b50505050508152602001600382015481526020016004820160009054906101000a900473ffffffffffffffffffffffffffffffffffffffff1673ffffffffffffffffffffffffffffffffffffffff1673ffffffffffffffffffffffffffffffffffffffff1681525050905080602001516040516020016109f09190610f85565b6040516020818303038152906040528051906020012084604051602001610a179190610f85565b6040516020818303038152906040528051906020012014610a6d576040517f08c379a0000000000000000000000000000000000000000000000000000000008152600401610a649061136c565b60405180910390fd5b806060015183604051602001610a839190610f85565b6040516020818303038152906040528051906020012014610ad9576040517f08c379a0000000000000000000000000000000000000000000000000000000008152600401610ad0906113d8565b60405180910390fd5b600191505092915050565b6000604051905090565b600080fd5b600080fd5b600080fd5b600080fd5b6000601f19601f8301169050919050565b7f4e487b7100000000000000000000000000000000000000000000000000000000600052604160045260246000fd5b610b4b82610b02565b810181811067ffffffffffffffff82111715610b6a57610b69610b13565b5b80604052505050565b6000610b7d610ae4565b9050610b898282610b42565b919050565b600067ffffffffffffffff821115610ba957610ba8610b13565b5b610bb282610b02565b9050602081019050919050565b82818337600083830152505050565b6000610be1610bdc84610b8e565b610b73565b905082815260208101848484011115610bfd57610bfc610afd565b5b610c08848285610bbf565b509392505050565b600082601f830112610c2557610c24610af8565b5b8135610c35848260208601610bce565b91505092915050565b60008060008060808587031215610c5857610c57610aee565b5b600085013567ffffffffffffffff811115610c7657610c75610af3565b5b610c8287828801610c10565b945050602085013567ffffffffffffffff811115610ca357610ca2610af3565b5b610caf87828801610c10565b935050604085013567ffffffffffffffff811115610cd057610ccf610af3565b5b610cdc87828801610c10565b925050606085013567ffffffffffffffff811115610cfd57610cfc610af3565b5b610d0987828801610c10565b91505092959194509250565b60008115159050919050565b610d2a81610d15565b82525050565b6000602082019050610d456000830184610d21565b92915050565b600081519050919050565b600082825260208201905092915050565b60005b83811015610d85578082015181840152602081019050610d6a565b60008484015250505050565b6000610d9c82610d4b565b610da68185610d56565b9350610db6818560208601610d67565b610dbf81610b02565b840191505092915050565b600073ffffffffffffffffffffffffffffffffffffffff82169050919050565b6000610df582610dca565b9050919050565b610e0581610dea565b82525050565b60006080820190508181036000830152610e258187610d91565b90508181036020830152610e398186610d91565b90508181036040830152610e4d8185610d91565b9050610e5c6060830184610dfc565b95945050505050565b60008060408385031215610e7c57610e7b610aee565b5b600083013567ffffffffffffffff811115610e9a57610e99610af3565b5b610ea685828601610c10565b925050602083013567ffffffffffffffff811115610ec757610ec6610af3565b5b610ed385828601610c10565b9150509250929050565b7f5573657220616c72656164792072656769737465726564000000000000000000600082015250565b6000610f13601783610d56565b9150610f1e82610edd565b602082019050919050565b60006020820190508181036000830152610f4281610f06565b9050919050565b600081905092915050565b6000610f5f82610d4b565b610f698185610f49565b9350610f79818560208601610d67565b80840191505092915050565b6000610f918284610f54565b915081905092915050565b7f4e487b7100000000000000000000000000000000000000000000000000000000600052602260045260246000fd5b60006002820490506001821680610fe357607f821691505b602082108103610ff657610ff5610f9c565b5b50919050565b60008190508160005260206000209050919050565b60006020601f8301049050919050565b600082821b905092915050565b60006008830261105e7fffffffffffffffffffffffffffffffffffffffffffffffffffffffffffffffff82611021565b6110688683611021565b95508019841693508086168417925050509392505050565b6000819050919050565b6000819050919050565b60006110af6110aa6110a584611080565b61108a565b611080565b9050919050565b6000819050919050565b6110c983611094565b6110dd6110d5826110b6565b84845461102e565b825550505050565b600090565b6110f26110e5565b6110fd8184846110c0565b505050565b5b81811015611121576111166000826110ea565b600181019050611103565b5050565b601f8211156111665761113781610ffc565b61114084611011565b8101602085101561114f578190505b61116361115b85611011565b830182611102565b50505b505050565b600082821c905092915050565b60006111896000198460080261116b565b1980831691505092915050565b60006111a28383611178565b9150826002028217905092915050565b6111bb82610d4b565b67ffffffffffffffff8111156111d4576111d3610b13565b5b6111de8254610fcb565b6111e9828285611125565b600060209050601f83116001811461121c576000841561120a578287015190505b6112148582611196565b86555061127c565b601f19841661122a86610ffc565b60005b828110156112525784890151825560018201915060208501945060208101905061122d565b8683101561126f578489015161126b601f891682611178565b8355505b6001600288020188555050505b505050505050565b60006040820190506112996000830185610dfc565b81810360208301526112ab8184610d91565b90509392505050565b7f55736572206e6f74207265676973746572656400000000000000000000000000600082015250565b60006112ea601383610d56565b91506112f5826112b4565b602082019050919050565b60006020820190508181036000830152611319816112dd565b9050919050565b7f456d61696c20646f6573206e6f74206d61746368000000000000000000000000600082015250565b6000611356601483610d56565b915061136182611320565b602082019050919050565b6000602082019050818103600083015261138581611349565b9050919050565b7f50617373776f726420646f6573206e6f74206d61746368000000000000000000600082015250565b60006113c2601783610d56565b91506113cd8261138c565b602082019050919050565b600060208201905081810360008301526113f1816113b5565b905091905056fea2646970667358221220f722ae0ce0b4195fc11266486e28de4585667117841c9c6284a3868d54ff855a64736f6c63430008180033",
  "linkReferences": {},
  "deployedLinkReferences": {}
}