{
  "_format": "hh-sol-artifact-1",
  "contractName": "CryptoBacker",
  "sourceName": "contracts/cryptoBacker.sol",
  "abi": [
    {
      "stateMutability": "payable",
      "type": "fallback"
    },
    {
      "inputs": [],
      "name": "USDC",
      "outputs": [
        {
          "internalType": "address",
          "name": "",
          "type": "address"
        }
      ],
      "stateMutability": "view",
      "type": "function"
    },
    {
      "inputs": [],
      "name": "WETH",
      "outputs": [
        {
          "internalType": "address",
          "name": "",
          "type": "address"
        }
      ],
      "stateMutability": "view",
      "type": "function"
    },
    {
      "inputs": [
        {
          "internalType": "uint256",
          "name": "",
          "type": "uint256"
        }
      ],
      "name": "campaigns",
      "outputs": [
        {
          "internalType": "string",
          "name": "name",
          "type": "string"
        },
        {
          "internalType": "address",
          "name": "owner",
          "type": "address"
        },
        {
          "internalType": "string",
          "name": "title",
          "type": "string"
        },
        {
          "internalType": "string",
          "name": "description",
          "type": "string"
        },
        {
          "internalType": "uint256",
          "name": "campaignCode",
          "type": "uint256"
        },
        {
          "internalType": "uint256",
          "name": "target",
          "type": "uint256"
        },
        {
          "internalType": "uint256",
          "name": "deadline",
          "type": "uint256"
        },
        {
          "internalType": "uint256",
          "name": "amountCollected",
          "type": "uint256"
        },
        {
          "internalType": "uint256",
          "name": "amountCollectedInUSDC",
          "type": "uint256"
        },
        {
          "internalType": "string",
          "name": "image",
          "type": "string"
        },
        {
          "internalType": "uint256",
          "name": "status",
          "type": "uint256"
        }
      ],
      "stateMutability": "view",
      "type": "function"
    },
    {
      "inputs": [
        {
          "internalType": "string",
          "name": "_name",
          "type": "string"
        },
        {
          "internalType": "address",
          "name": "_owner",
          "type": "address"
        },
        {
          "internalType": "string",
          "name": "_title",
          "type": "string"
        },
        {
          "internalType": "string",
          "name": "_description",
          "type": "string"
        },
        {
          "internalType": "uint256",
          "name": "_target",
          "type": "uint256"
        },
        {
          "internalType": "uint256",
          "name": "_deadline",
          "type": "uint256"
        },
        {
          "internalType": "string",
          "name": "_image",
          "type": "string"
        }
      ],
      "name": "createCampaign",
      "outputs": [
        {
          "internalType": "uint256",
          "name": "",
          "type": "uint256"
        }
      ],
      "stateMutability": "nonpayable",
      "type": "function"
    },
    {
      "inputs": [
        {
          "internalType": "uint256",
          "name": "_id",
          "type": "uint256"
        }
      ],
      "name": "donateToCampaign",
      "outputs": [
        {
          "internalType": "uint256",
          "name": "",
          "type": "uint256"
        }
      ],
      "stateMutability": "payable",
      "type": "function"
    },
    {
      "inputs": [],
      "name": "feeTier",
      "outputs": [
        {
          "internalType": "uint24",
          "name": "",
          "type": "uint24"
        }
      ],
      "stateMutability": "view",
      "type": "function"
    },
    {
      "inputs": [],
      "name": "getCompaigns",
      "outputs": [
        {
          "components": [
            {
              "internalType": "string",
              "name": "name",
              "type": "string"
            },
            {
              "internalType": "address",
              "name": "owner",
              "type": "address"
            },
            {
              "internalType": "string",
              "name": "title",
              "type": "string"
            },
            {
              "internalType": "string",
              "name": "description",
              "type": "string"
            },
            {
              "internalType": "uint256",
              "name": "campaignCode",
              "type": "uint256"
            },
            {
              "internalType": "uint256",
              "name": "target",
              "type": "uint256"
            },
            {
              "internalType": "uint256",
              "name": "deadline",
              "type": "uint256"
            },
            {
              "internalType": "uint256",
              "name": "amountCollected",
              "type": "uint256"
            },
            {
              "internalType": "uint256",
              "name": "amountCollectedInUSDC",
              "type": "uint256"
            },
            {
              "internalType": "string",
              "name": "image",
              "type": "string"
            },
            {
              "internalType": "uint256",
              "name": "status",
              "type": "uint256"
            },
            {
              "internalType": "address[]",
              "name": "donators",
              "type": "address[]"
            },
            {
              "internalType": "uint256[]",
              "name": "donation",
              "type": "uint256[]"
            }
          ],
          "internalType": "struct CryptoBacker.Campaign[]",
          "name": "",
          "type": "tuple[]"
        }
      ],
      "stateMutability": "view",
      "type": "function"
    },
    {
      "inputs": [],
      "name": "getContractBalance",
      "outputs": [
        {
          "internalType": "uint256",
          "name": "",
          "type": "uint256"
        }
      ],
      "stateMutability": "view",
      "type": "function"
    },
    {
      "inputs": [],
      "name": "getContractUSDCBalance",
      "outputs": [
        {
          "internalType": "uint256",
          "name": "",
          "type": "uint256"
        }
      ],
      "stateMutability": "view",
      "type": "function"
    },
    {
      "inputs": [
        {
          "internalType": "uint256",
          "name": "_id",
          "type": "uint256"
        }
      ],
      "name": "getDonator",
      "outputs": [
        {
          "internalType": "address[]",
          "name": "",
          "type": "address[]"
        },
        {
          "internalType": "uint256[]",
          "name": "",
          "type": "uint256[]"
        }
      ],
      "stateMutability": "view",
      "type": "function"
    },
    {
      "inputs": [],
      "name": "numberOfCampaign",
      "outputs": [
        {
          "internalType": "uint256",
          "name": "",
          "type": "uint256"
        }
      ],
      "stateMutability": "view",
      "type": "function"
    },
    {
      "inputs": [],
      "name": "swapRouter",
      "outputs": [
        {
          "internalType": "contract ISwapRouter",
          "name": "",
          "type": "address"
        }
      ],
      "stateMutability": "view",
      "type": "function"
    },
    {
      "stateMutability": "payable",
      "type": "receive"
    }
  ],
  "bytecode": "0x60a060405273e592427a0aece92de3edee1f18e0157c0586156473ffffffffffffffffffffffffffffffffffffffff1660809073ffffffffffffffffffffffffffffffffffffffff16815250600060015534801561005c57600080fd5b5060805161263661008d60003960008181610f1401528181610fc7015281816110c4015261117a01526126366000f3fe6080604052600436106100aa5760003560e01c80637b66e17f116100645780637b66e17f146101d657806389a3027114610214578063ab4a0b321461023f578063ad5c46481461026a578063b25cc34614610295578063c31c9c07146102d2576100b1565b80622772c2146100b3578063141961bc146100de57806318ed9aa61461012557806342a4fda8146101505780636f9fb98a1461018057806372f5d98a146101ab576100b1565b366100b157005b005b3480156100bf57600080fd5b506100c86102fd565b6040516100d59190611396565b60405180910390f35b3480156100ea57600080fd5b50610105600480360381019061010091906113f1565b610392565b60405161011c9b9a999897969594939291906114ef565b60405180910390f35b34801561013157600080fd5b5061013a61062c565b604051610147919061197a565b60405180910390f35b61016a600480360381019061016591906113f1565b610af1565b6040516101779190611396565b60405180910390f35b34801561018c57600080fd5b50610195610c73565b6040516101a29190611396565b60405180910390f35b3480156101b757600080fd5b506101c0610c7b565b6040516101cd91906119ba565b60405180910390f35b3480156101e257600080fd5b506101fd60048036038101906101f891906113f1565b610c81565b60405161020b929190611ab3565b60405180910390f35b34801561022057600080fd5b50610229610d91565b6040516102369190611aea565b60405180910390f35b34801561024b57600080fd5b50610254610da9565b6040516102619190611396565b60405180910390f35b34801561027657600080fd5b5061027f610daf565b60405161028c9190611aea565b60405180910390f35b3480156102a157600080fd5b506102bc60048036038101906102b79190611c66565b610dc7565b6040516102c99190611396565b60405180910390f35b3480156102de57600080fd5b506102e7610f12565b6040516102f49190611dd7565b60405180910390f35b600073a0b86991c6218b36c1d19d4a2e9eb0ce3606eb4873ffffffffffffffffffffffffffffffffffffffff166370a08231306040518263ffffffff1660e01b815260040161034c9190611aea565b602060405180830381865afa158015610369573d6000803e3d6000fd5b505050506040513d601f19601f8201168201806040525081019061038d9190611e07565b905090565b60006020528060005260406000206000915090508060000180546103b590611e63565b80601f01602080910402602001604051908101604052809291908181526020018280546103e190611e63565b801561042e5780601f106104035761010080835404028352916020019161042e565b820191906000526020600020905b81548152906001019060200180831161041157829003601f168201915b5050505050908060010160009054906101000a900473ffffffffffffffffffffffffffffffffffffffff169080600201805461046990611e63565b80601f016020809104026020016040519081016040528092919081815260200182805461049590611e63565b80156104e25780601f106104b7576101008083540402835291602001916104e2565b820191906000526020600020905b8154815290600101906020018083116104c557829003601f168201915b5050505050908060030180546104f790611e63565b80601f016020809104026020016040519081016040528092919081815260200182805461052390611e63565b80156105705780601f1061054557610100808354040283529160200191610570565b820191906000526020600020905b81548152906001019060200180831161055357829003601f168201915b5050505050908060040154908060050154908060060154908060070154908060080154908060090180546105a390611e63565b80601f01602080910402602001604051908101604052809291908181526020018280546105cf90611e63565b801561061c5780601f106105f15761010080835404028352916020019161061c565b820191906000526020600020905b8154815290600101906020018083116105ff57829003601f168201915b50505050509080600a015490508b565b6060600060015403610673576040517f08c379a000000000000000000000000000000000000000000000000000000000815260040161066a90611f06565b60405180910390fd5b600060015467ffffffffffffffff81111561069157610690611b0f565b5b6040519080825280602002602001820160405280156106ca57816020015b6106b76112ff565b8152602001906001900390816106af5790505b50905060005b600154811015610ae9576000806000838152602001908152602001600020905080604051806101a001604052908160008201805461070d90611e63565b80601f016020809104026020016040519081016040528092919081815260200182805461073990611e63565b80156107865780601f1061075b57610100808354040283529160200191610786565b820191906000526020600020905b81548152906001019060200180831161076957829003601f168201915b505050505081526020016001820160009054906101000a900473ffffffffffffffffffffffffffffffffffffffff1673ffffffffffffffffffffffffffffffffffffffff1673ffffffffffffffffffffffffffffffffffffffff1681526020016002820180546107f590611e63565b80601f016020809104026020016040519081016040528092919081815260200182805461082190611e63565b801561086e5780601f106108435761010080835404028352916020019161086e565b820191906000526020600020905b81548152906001019060200180831161085157829003601f168201915b5050505050815260200160038201805461088790611e63565b80601f01602080910402602001604051908101604052809291908181526020018280546108b390611e63565b80156109005780601f106108d557610100808354040283529160200191610900565b820191906000526020600020905b8154815290600101906020018083116108e357829003601f168201915b50505050508152602001600482015481526020016005820154815260200160068201548152602001600782015481526020016008820154815260200160098201805461094b90611e63565b80601f016020809104026020016040519081016040528092919081815260200182805461097790611e63565b80156109c45780601f10610999576101008083540402835291602001916109c4565b820191906000526020600020905b8154815290600101906020018083116109a757829003601f168201915b50505050508152602001600a8201548152602001600b8201805480602002602001604051908101604052809291908181526020018280548015610a5c57602002820191906000526020600020905b8160009054906101000a900473ffffffffffffffffffffffffffffffffffffffff1673ffffffffffffffffffffffffffffffffffffffff1681526020019060010190808311610a12575b50505050508152602001600c8201805480602002602001604051908101604052809291908181526020018280548015610ab457602002820191906000526020600020905b815481526020019060010190808311610aa0575b505050505081525050838381518110610ad057610acf611f26565b5b60200260200101819052505080806001019150506106d0565b508091505090565b60008060015403610b37576040517f08c379a0000000000000000000000000000000000000000000000000000000008152600401610b2e90611f06565b60405180910390fd5b60003411610b7a576040517f08c379a0000000000000000000000000000000000000000000000000000000008152600401610b7190611fc7565b60405180910390fd5b60003490506000806000858152602001908152602001600020905080600b01339080600181540180825580915050600190039060005260206000200160009091909190916101000a81548173ffffffffffffffffffffffffffffffffffffffff021916908373ffffffffffffffffffffffffffffffffffffffff16021790555080600c018290806001815401808255809150506001900390600052602060002001600090919091909150556000610c3083610f36565b905082826007016000828254610c469190612016565b9250508190555080826008016000828254610c619190612016565b92505081905550809350505050919050565b600047905090565b610bb881565b606080600080848152602001908152602001600020600b01600080858152602001908152602001600020600c0181805480602002602001604051908101604052809291908181526020018280548015610d2f57602002820191906000526020600020905b8160009054906101000a900473ffffffffffffffffffffffffffffffffffffffff1673ffffffffffffffffffffffffffffffffffffffff1681526020019060010190808311610ce5575b5050505050915080805480602002602001604051908101604052809291908181526020018280548015610d8157602002820191906000526020600020905b815481526020019060010190808311610d6d575b5050505050905091509150915091565b73a0b86991c6218b36c1d19d4a2e9eb0ce3606eb4881565b60015481565b73c02aaa39b223fe8d0a0e5c4f27ead9083c756cc281565b60008060008060015481526020019081526020016000209050428411610e22576040517f08c379a0000000000000000000000000000000000000000000000000000000008152600401610e19906120bc565b60405180910390fd5b878160010160006101000a81548173ffffffffffffffffffffffffffffffffffffffff021916908373ffffffffffffffffffffffffffffffffffffffff16021790555088816000019081610e76919061227e565b5086816002019081610e88919061227e565b5085816003019081610e9a919061227e565b508481600501819055508381600601819055506000816007018190555082816009019081610ec8919061227e565b50600081600a0181905550600154816004018190555060016000815480929190610ef190612350565b919050555060018054610f049190612398565b915050979650505050505050565b7f000000000000000000000000000000000000000000000000000000000000000081565b600073c02aaa39b223fe8d0a0e5c4f27ead9083c756cc273ffffffffffffffffffffffffffffffffffffffff1663d0e30db0836040518263ffffffff1660e01b81526004016000604051808303818588803b158015610f9457600080fd5b505af1158015610fa8573d6000803e3d6000fd5b5050505050610fec73c02aaa39b223fe8d0a0e5c4f27ead9083c756cc27f0000000000000000000000000000000000000000000000000000000000000000846111aa565b600060405180610100016040528073c02aaa39b223fe8d0a0e5c4f27ead9083c756cc273ffffffffffffffffffffffffffffffffffffffff16815260200173a0b86991c6218b36c1d19d4a2e9eb0ce3606eb4873ffffffffffffffffffffffffffffffffffffffff168152602001610bb862ffffff1681526020013073ffffffffffffffffffffffffffffffffffffffff168152602001610258426110919190612016565b815260200184815260200160008152602001600073ffffffffffffffffffffffffffffffffffffffff16815250905060007f000000000000000000000000000000000000000000000000000000000000000073ffffffffffffffffffffffffffffffffffffffff1663414bf389836040518263ffffffff1660e01b815260040161111b919061248c565b6020604051808303816000875af115801561113a573d6000803e3d6000fd5b505050506040513d601f19601f8201168201806040525081019061115e9190611e07565b90506111a073c02aaa39b223fe8d0a0e5c4f27ead9083c756cc27f000000000000000000000000000000000000000000000000000000000000000060006111aa565b8092505050919050565b6000808473ffffffffffffffffffffffffffffffffffffffff1663095ea7b360e01b85856040516024016111df9291906124a8565b604051602081830303815290604052907bffffffffffffffffffffffffffffffffffffffffffffffffffffffff19166020820180517bffffffffffffffffffffffffffffffffffffffffffffffffffffffff83818316178352505050506040516112499190612518565b6000604051808303816000865af19150503d8060008114611286576040519150601f19603f3d011682016040523d82523d6000602084013e61128b565b606091505b50915091508180156112b957506000815114806112b85750808060200190518101906112b79190612567565b5b5b6112f8576040517f08c379a00000000000000000000000000000000000000000000000000000000081526004016112ef906125e0565b60405180910390fd5b5050505050565b604051806101a0016040528060608152602001600073ffffffffffffffffffffffffffffffffffffffff16815260200160608152602001606081526020016000815260200160008152602001600081526020016000815260200160008152602001606081526020016000815260200160608152602001606081525090565b6000819050919050565b6113908161137d565b82525050565b60006020820190506113ab6000830184611387565b92915050565b6000604051905090565b600080fd5b600080fd5b6113ce8161137d565b81146113d957600080fd5b50565b6000813590506113eb816113c5565b92915050565b600060208284031215611407576114066113bb565b5b6000611415848285016113dc565b91505092915050565b600081519050919050565b600082825260208201905092915050565b60005b8381101561145857808201518184015260208101905061143d565b60008484015250505050565b6000601f19601f8301169050919050565b60006114808261141e565b61148a8185611429565b935061149a81856020860161143a565b6114a381611464565b840191505092915050565b600073ffffffffffffffffffffffffffffffffffffffff82169050919050565b60006114d9826114ae565b9050919050565b6114e9816114ce565b82525050565b600061016082019050818103600083015261150a818e611475565b9050611519602083018d6114e0565b818103604083015261152b818c611475565b9050818103606083015261153f818b611475565b905061154e608083018a611387565b61155b60a0830189611387565b61156860c0830188611387565b61157560e0830187611387565b611583610100830186611387565b8181036101208301526115968185611475565b90506115a6610140830184611387565b9c9b505050505050505050505050565b600081519050919050565b600082825260208201905092915050565b6000819050602082019050919050565b600082825260208201905092915050565b60006115fe8261141e565b61160881856115e2565b935061161881856020860161143a565b61162181611464565b840191505092915050565b611635816114ce565b82525050565b6116448161137d565b82525050565b600081519050919050565b600082825260208201905092915050565b6000819050602082019050919050565b6000611682838361162c565b60208301905092915050565b6000602082019050919050565b60006116a68261164a565b6116b08185611655565b93506116bb83611666565b8060005b838110156116ec5781516116d38882611676565b97506116de8361168e565b9250506001810190506116bf565b5085935050505092915050565b600081519050919050565b600082825260208201905092915050565b6000819050602082019050919050565b6000611731838361163b565b60208301905092915050565b6000602082019050919050565b6000611755826116f9565b61175f8185611704565b935061176a83611715565b8060005b8381101561179b5781516117828882611725565b975061178d8361173d565b92505060018101905061176e565b5085935050505092915050565b60006101a08301600083015184820360008601526117c682826115f3565b91505060208301516117db602086018261162c565b50604083015184820360408601526117f382826115f3565b9150506060830151848203606086015261180d82826115f3565b9150506080830151611822608086018261163b565b5060a083015161183560a086018261163b565b5060c083015161184860c086018261163b565b5060e083015161185b60e086018261163b565b5061010083015161187061010086018261163b565b5061012083015184820361012086015261188a82826115f3565b9150506101408301516118a161014086018261163b565b506101608301518482036101608601526118bb828261169b565b9150506101808301518482036101808601526118d7828261174a565b9150508091505092915050565b60006118f083836117a8565b905092915050565b6000602082019050919050565b6000611910826115b6565b61191a81856115c1565b93508360208202850161192c856115d2565b8060005b85811015611968578484038952815161194985826118e4565b9450611954836118f8565b925060208a01995050600181019050611930565b50829750879550505050505092915050565b600060208201905081810360008301526119948184611905565b905092915050565b600062ffffff82169050919050565b6119b48161199c565b82525050565b60006020820190506119cf60008301846119ab565b92915050565b600082825260208201905092915050565b60006119f18261164a565b6119fb81856119d5565b9350611a0683611666565b8060005b83811015611a37578151611a1e8882611676565b9750611a298361168e565b925050600181019050611a0a565b5085935050505092915050565b600082825260208201905092915050565b6000611a60826116f9565b611a6a8185611a44565b9350611a7583611715565b8060005b83811015611aa6578151611a8d8882611725565b9750611a988361173d565b925050600181019050611a79565b5085935050505092915050565b60006040820190508181036000830152611acd81856119e6565b90508181036020830152611ae18184611a55565b90509392505050565b6000602082019050611aff60008301846114e0565b92915050565b600080fd5b600080fd5b7f4e487b7100000000000000000000000000000000000000000000000000000000600052604160045260246000fd5b611b4782611464565b810181811067ffffffffffffffff82111715611b6657611b65611b0f565b5b80604052505050565b6000611b796113b1565b9050611b858282611b3e565b919050565b600067ffffffffffffffff821115611ba557611ba4611b0f565b5b611bae82611464565b9050602081019050919050565b82818337600083830152505050565b6000611bdd611bd884611b8a565b611b6f565b905082815260208101848484011115611bf957611bf8611b0a565b5b611c04848285611bbb565b509392505050565b600082601f830112611c2157611c20611b05565b5b8135611c31848260208601611bca565b91505092915050565b611c43816114ce565b8114611c4e57600080fd5b50565b600081359050611c6081611c3a565b92915050565b600080600080600080600060e0888a031215611c8557611c846113bb565b5b600088013567ffffffffffffffff811115611ca357611ca26113c0565b5b611caf8a828b01611c0c565b9750506020611cc08a828b01611c51565b965050604088013567ffffffffffffffff811115611ce157611ce06113c0565b5b611ced8a828b01611c0c565b955050606088013567ffffffffffffffff811115611d0e57611d0d6113c0565b5b611d1a8a828b01611c0c565b9450506080611d2b8a828b016113dc565b93505060a0611d3c8a828b016113dc565b92505060c088013567ffffffffffffffff811115611d5d57611d5c6113c0565b5b611d698a828b01611c0c565b91505092959891949750929550565b6000819050919050565b6000611d9d611d98611d93846114ae565b611d78565b6114ae565b9050919050565b6000611daf82611d82565b9050919050565b6000611dc182611da4565b9050919050565b611dd181611db6565b82525050565b6000602082019050611dec6000830184611dc8565b92915050565b600081519050611e01816113c5565b92915050565b600060208284031215611e1d57611e1c6113bb565b5b6000611e2b84828501611df2565b91505092915050565b7f4e487b7100000000000000000000000000000000000000000000000000000000600052602260045260246000fd5b60006002820490506001821680611e7b57607f821691505b602082108103611e8e57611e8d611e34565b5b50919050565b7f5468657265206973206e6f7420616e792063616d706169676e20746f20646f6e60008201527f6174650000000000000000000000000000000000000000000000000000000000602082015250565b6000611ef0602383611429565b9150611efb82611e94565b604082019050919050565b60006020820190508181036000830152611f1f81611ee3565b9050919050565b7f4e487b7100000000000000000000000000000000000000000000000000000000600052603260045260246000fd5b7f446f6e6174696f6e20616d6f756e74206d75737420626520677265617465722060008201527f7468616e207a65726f0000000000000000000000000000000000000000000000602082015250565b6000611fb1602983611429565b9150611fbc82611f55565b604082019050919050565b60006020820190508181036000830152611fe081611fa4565b9050919050565b7f4e487b7100000000000000000000000000000000000000000000000000000000600052601160045260246000fd5b60006120218261137d565b915061202c8361137d565b925082820190508082111561204457612043611fe7565b5b92915050565b7f446561646c696e652063616e6e6f74206265206c65737320746861742063757260008201527f72656e742074696d652e00000000000000000000000000000000000000000000602082015250565b60006120a6602a83611429565b91506120b18261204a565b604082019050919050565b600060208201905081810360008301526120d581612099565b9050919050565b60008190508160005260206000209050919050565b60006020601f8301049050919050565b600082821b905092915050565b60006008830261213e7fffffffffffffffffffffffffffffffffffffffffffffffffffffffffffffffff82612101565b6121488683612101565b95508019841693508086168417925050509392505050565b600061217b6121766121718461137d565b611d78565b61137d565b9050919050565b6000819050919050565b61219583612160565b6121a96121a182612182565b84845461210e565b825550505050565b600090565b6121be6121b1565b6121c981848461218c565b505050565b5b818110156121ed576121e26000826121b6565b6001810190506121cf565b5050565b601f82111561223257612203816120dc565b61220c846120f1565b8101602085101561221b578190505b61222f612227856120f1565b8301826121ce565b50505b505050565b600082821c905092915050565b600061225560001984600802612237565b1980831691505092915050565b600061226e8383612244565b9150826002028217905092915050565b6122878261141e565b67ffffffffffffffff8111156122a05761229f611b0f565b5b6122aa8254611e63565b6122b58282856121f1565b600060209050601f8311600181146122e857600084156122d6578287015190505b6122e08582612262565b865550612348565b601f1984166122f6866120dc565b60005b8281101561231e578489015182556001820191506020850194506020810190506122f9565b8683101561233b5784890151612337601f891682612244565b8355505b6001600288020188555050505b505050505050565b600061235b8261137d565b91507fffffffffffffffffffffffffffffffffffffffffffffffffffffffffffffffff820361238d5761238c611fe7565b5b600182019050919050565b60006123a38261137d565b91506123ae8361137d565b92508282039050818111156123c6576123c5611fe7565b5b92915050565b6123d58161199c565b82525050565b6123e4816114ae565b82525050565b61010082016000820151612401600085018261162c565b506020820151612414602085018261162c565b50604082015161242760408501826123cc565b50606082015161243a606085018261162c565b50608082015161244d608085018261163b565b5060a082015161246060a085018261163b565b5060c082015161247360c085018261163b565b5060e082015161248660e08501826123db565b50505050565b6000610100820190506124a260008301846123ea565b92915050565b60006040820190506124bd60008301856114e0565b6124ca6020830184611387565b9392505050565b600081519050919050565b600081905092915050565b60006124f2826124d1565b6124fc81856124dc565b935061250c81856020860161143a565b80840191505092915050565b600061252482846124e7565b915081905092915050565b60008115159050919050565b6125448161252f565b811461254f57600080fd5b50565b6000815190506125618161253b565b92915050565b60006020828403121561257d5761257c6113bb565b5b600061258b84828501612552565b91505092915050565b7f5341000000000000000000000000000000000000000000000000000000000000600082015250565b60006125ca600283611429565b91506125d582612594565b602082019050919050565b600060208201905081810360008301526125f9816125bd565b905091905056fea2646970667358221220697def5a4138f543d79477cb5f44eb06f8782229ff6e18c3561dd428b60e3c0664736f6c63430008180033",
  "linkReferences": {},
  "deployedLinkReferences": {}
}