{
  "_format": "hh-sol-artifact-1",
  "contractName": "CryptoBacker",
  "sourceName": "contracts/CryptoBacker.sol",
  "abi": [
    {
      "inputs": [
        {
          "internalType": "address",
          "name": "_swapRouter",
          "type": "address"
        },
        {
          "internalType": "address",
          "name": "_WETH",
          "type": "address"
        },
        {
          "internalType": "address",
          "name": "_USDC",
          "type": "address"
        }
      ],
      "stateMutability": "nonpayable",
      "type": "constructor"
    },
    {
      "inputs": [],
      "name": "ReentrancyGuardReentrantCall",
      "type": "error"
    },
    {
      "anonymous": false,
      "inputs": [
        {
          "indexed": true,
          "internalType": "uint256",
          "name": "campaignCode",
          "type": "uint256"
        },
        {
          "indexed": true,
          "internalType": "address",
          "name": "owner",
          "type": "address"
        },
        {
          "indexed": false,
          "internalType": "uint256",
          "name": "target",
          "type": "uint256"
        },
        {
          "indexed": false,
          "internalType": "uint256",
          "name": "deadline",
          "type": "uint256"
        },
        {
          "indexed": false,
          "internalType": "uint256",
          "name": "createdAt",
          "type": "uint256"
        }
      ],
      "name": "CampaignCreated",
      "type": "event"
    },
    {
      "anonymous": false,
      "inputs": [
        {
          "indexed": true,
          "internalType": "uint256",
          "name": "campaignCode",
          "type": "uint256"
        }
      ],
      "name": "CampaignDeleted",
      "type": "event"
    },
    {
      "anonymous": false,
      "inputs": [
        {
          "indexed": true,
          "internalType": "uint256",
          "name": "campaignCode",
          "type": "uint256"
        },
        {
          "indexed": true,
          "internalType": "address",
          "name": "donor",
          "type": "address"
        },
        {
          "indexed": false,
          "internalType": "string",
          "name": "donorName",
          "type": "string"
        },
        {
          "indexed": false,
          "internalType": "string",
          "name": "donorEmail",
          "type": "string"
        },
        {
          "indexed": false,
          "internalType": "uint256",
          "name": "amountETH",
          "type": "uint256"
        },
        {
          "indexed": false,
          "internalType": "uint256",
          "name": "amountUSDC",
          "type": "uint256"
        },
        {
          "indexed": false,
          "internalType": "uint256",
          "name": "timestamp",
          "type": "uint256"
        }
      ],
      "name": "DonationReceived",
      "type": "event"
    },
    {
      "inputs": [],
      "name": "FEE_TIER",
      "outputs": [
        {
          "internalType": "uint24",
          "name": "",
          "type": "uint24"
        }
      ],
      "stateMutability": "view",
      "type": "function"
    },
    {
      "inputs": [],
      "name": "USDC",
      "outputs": [
        {
          "internalType": "address",
          "name": "",
          "type": "address"
        }
      ],
      "stateMutability": "view",
      "type": "function"
    },
    {
      "inputs": [],
      "name": "WETH",
      "outputs": [
        {
          "internalType": "address",
          "name": "",
          "type": "address"
        }
      ],
      "stateMutability": "view",
      "type": "function"
    },
    {
      "inputs": [
        {
          "internalType": "uint256",
          "name": "",
          "type": "uint256"
        }
      ],
      "name": "campaigns",
      "outputs": [
        {
          "internalType": "string",
          "name": "name",
          "type": "string"
        },
        {
          "internalType": "address",
          "name": "owner",
          "type": "address"
        },
        {
          "internalType": "string",
          "name": "category",
          "type": "string"
        },
        {
          "internalType": "string",
          "name": "title",
          "type": "string"
        },
        {
          "internalType": "string",
          "name": "description",
          "type": "string"
        },
        {
          "internalType": "uint256",
          "name": "campaignCode",
          "type": "uint256"
        },
        {
          "internalType": "uint256",
          "name": "target",
          "type": "uint256"
        },
        {
          "internalType": "uint256",
          "name": "deadline",
          "type": "uint256"
        },
        {
          "internalType": "uint256",
          "name": "amountCollectedETH",
          "type": "uint256"
        },
        {
          "internalType": "uint256",
          "name": "amountCollectedUSDC",
          "type": "uint256"
        },
        {
          "internalType": "uint256",
          "name": "status",
          "type": "uint256"
        },
        {
          "internalType": "uint256",
          "name": "createdAt",
          "type": "uint256"
        }
      ],
      "stateMutability": "view",
      "type": "function"
    },
    {
      "inputs": [
        {
          "internalType": "string",
          "name": "_name",
          "type": "string"
        },
        {
          "internalType": "address",
          "name": "_owner",
          "type": "address"
        },
        {
          "internalType": "string",
          "name": "_title",
          "type": "string"
        },
        {
          "internalType": "string",
          "name": "_description",
          "type": "string"
        },
        {
          "internalType": "string",
          "name": "_category",
          "type": "string"
        },
        {
          "internalType": "uint256",
          "name": "_target",
          "type": "uint256"
        },
        {
          "internalType": "uint256",
          "name": "_deadline",
          "type": "uint256"
        }
      ],
      "name": "createCampaign",
      "outputs": [
        {
          "internalType": "uint256",
          "name": "",
          "type": "uint256"
        }
      ],
      "stateMutability": "nonpayable",
      "type": "function"
    },
    {
      "inputs": [
        {
          "internalType": "uint256",
          "name": "_id",
          "type": "uint256"
        }
      ],
      "name": "deleteCampaign",
      "outputs": [],
      "stateMutability": "nonpayable",
      "type": "function"
    },
    {
      "inputs": [
        {
          "internalType": "uint256",
          "name": "_id",
          "type": "uint256"
        },
        {
          "internalType": "string",
          "name": "_userName",
          "type": "string"
        },
        {
          "internalType": "string",
          "name": "_userEmail",
          "type": "string"
        }
      ],
      "name": "donateToCampaign",
      "outputs": [
        {
          "internalType": "uint256",
          "name": "",
          "type": "uint256"
        }
      ],
      "stateMutability": "payable",
      "type": "function"
    },
    {
      "inputs": [],
      "name": "getCampaigns",
      "outputs": [
        {
          "components": [
            {
              "internalType": "string",
              "name": "name",
              "type": "string"
            },
            {
              "internalType": "address",
              "name": "owner",
              "type": "address"
            },
            {
              "internalType": "string",
              "name": "category",
              "type": "string"
            },
            {
              "internalType": "string",
              "name": "title",
              "type": "string"
            },
            {
              "internalType": "string",
              "name": "description",
              "type": "string"
            },
            {
              "internalType": "uint256",
              "name": "campaignCode",
              "type": "uint256"
            },
            {
              "internalType": "uint256",
              "name": "target",
              "type": "uint256"
            },
            {
              "internalType": "uint256",
              "name": "deadline",
              "type": "uint256"
            },
            {
              "internalType": "uint256",
              "name": "amountCollectedETH",
              "type": "uint256"
            },
            {
              "internalType": "uint256",
              "name": "amountCollectedUSDC",
              "type": "uint256"
            },
            {
              "internalType": "uint256",
              "name": "status",
              "type": "uint256"
            },
            {
              "internalType": "uint256",
              "name": "createdAt",
              "type": "uint256"
            },
            {
              "components": [
                {
                  "internalType": "address",
                  "name": "donor",
                  "type": "address"
                },
                {
                  "internalType": "string",
                  "name": "donorName",
                  "type": "string"
                },
                {
                  "internalType": "string",
                  "name": "donorEmail",
                  "type": "string"
                },
                {
                  "internalType": "uint256",
                  "name": "amountETH",
                  "type": "uint256"
                },
                {
                  "internalType": "uint256",
                  "name": "amountUSDC",
                  "type": "uint256"
                },
                {
                  "internalType": "uint256",
                  "name": "timestamp",
                  "type": "uint256"
                }
              ],
              "internalType": "struct CryptoBacker.Donation[]",
              "name": "donations",
              "type": "tuple[]"
            }
          ],
          "internalType": "struct CryptoBacker.Campaign[]",
          "name": "",
          "type": "tuple[]"
        }
      ],
      "stateMutability": "view",
      "type": "function"
    },
    {
      "inputs": [],
      "name": "getContractBalance",
      "outputs": [
        {
          "internalType": "uint256",
          "name": "",
          "type": "uint256"
        }
      ],
      "stateMutability": "view",
      "type": "function"
    },
    {
      "inputs": [],
      "name": "getContractUSDCBalance",
      "outputs": [
        {
          "internalType": "uint256",
          "name": "",
          "type": "uint256"
        }
      ],
      "stateMutability": "view",
      "type": "function"
    },
    {
      "inputs": [
        {
          "internalType": "uint256",
          "name": "_id",
          "type": "uint256"
        }
      ],
      "name": "getDonations",
      "outputs": [
        {
          "components": [
            {
              "internalType": "address",
              "name": "donor",
              "type": "address"
            },
            {
              "internalType": "string",
              "name": "donorName",
              "type": "string"
            },
            {
              "internalType": "string",
              "name": "donorEmail",
              "type": "string"
            },
            {
              "internalType": "uint256",
              "name": "amountETH",
              "type": "uint256"
            },
            {
              "internalType": "uint256",
              "name": "amountUSDC",
              "type": "uint256"
            },
            {
              "internalType": "uint256",
              "name": "timestamp",
              "type": "uint256"
            }
          ],
          "internalType": "struct CryptoBacker.Donation[]",
          "name": "",
          "type": "tuple[]"
        }
      ],
      "stateMutability": "view",
      "type": "function"
    },
    {
      "inputs": [
        {
          "internalType": "address",
          "name": "_user",
          "type": "address"
        }
      ],
      "name": "getUserDonationsByDate",
      "outputs": [
        {
          "components": [
            {
              "internalType": "address",
              "name": "donor",
              "type": "address"
            },
            {
              "internalType": "string",
              "name": "donorName",
              "type": "string"
            },
            {
              "internalType": "string",
              "name": "donorEmail",
              "type": "string"
            },
            {
              "internalType": "uint256",
              "name": "amountETH",
              "type": "uint256"
            },
            {
              "internalType": "uint256",
              "name": "amountUSDC",
              "type": "uint256"
            },
            {
              "internalType": "uint256",
              "name": "timestamp",
              "type": "uint256"
            }
          ],
          "internalType": "struct CryptoBacker.Donation[]",
          "name": "",
          "type": "tuple[]"
        }
      ],
      "stateMutability": "view",
      "type": "function"
    },
    {
      "inputs": [],
      "name": "numberOfCampaigns",
      "outputs": [
        {
          "internalType": "uint256",
          "name": "",
          "type": "uint256"
        }
      ],
      "stateMutability": "view",
      "type": "function"
    },
    {
      "inputs": [],
      "name": "swapRouter",
      "outputs": [
        {
          "internalType": "contract ISwapRouter",
          "name": "",
          "type": "address"
        }
      ],
      "stateMutability": "view",
      "type": "function"
    }
  ],
  "bytecode": "0x60e060405260006002553480156200001657600080fd5b5060405162003d5a38038062003d5a83398181016040528101906200003c919062000153565b60016000819055508273ffffffffffffffffffffffffffffffffffffffff1660808173ffffffffffffffffffffffffffffffffffffffff16815250508173ffffffffffffffffffffffffffffffffffffffff1660a08173ffffffffffffffffffffffffffffffffffffffff16815250508073ffffffffffffffffffffffffffffffffffffffff1660c08173ffffffffffffffffffffffffffffffffffffffff1681525050505050620001af565b600080fd5b600073ffffffffffffffffffffffffffffffffffffffff82169050919050565b60006200011b82620000ee565b9050919050565b6200012d816200010e565b81146200013957600080fd5b50565b6000815190506200014d8162000122565b92915050565b6000806000606084860312156200016f576200016e620000e9565b5b60006200017f868287016200013c565b935050602062000192868287016200013c565b9250506040620001a5868287016200013c565b9150509250925092565b60805160a05160c051613b3c6200021e60003960008181610395015281816116660152611e4d015260008181611c6501528181611d3701528181611dbb01528181611e110152611f90015260008181611c8901528181611ddc01528181611eef0152611fb10152613b3c6000f3fe6080604052600436106100dc5760003560e01c80636f9fb98a1161007f57806389a302711161005957806389a30271146102e5578063a6b0363314610310578063ad5c46481461033b578063c31c9c0714610366576100dc565b80636f9fb98a14610254578063759701931461027f5780637eb483c9146102a8576100dc565b8063141961bc116100bb578063141961bc146101675780632828f2ee146101af5780634c69a6c9146101ec578063596d9ce214610217576100dc565b80622772c2146100e157806307ca140d1461010c578063131be67414610137575b600080fd5b3480156100ed57600080fd5b506100f6610391565b6040516101039190612316565b60405180910390f35b34801561011857600080fd5b50610121610432565b60405161012e9190612316565b60405180910390f35b610151600480360381019061014c91906124b7565b610438565b60405161015e9190612316565b60405180910390f35b34801561017357600080fd5b5061018e60048036038101906101899190612542565b610724565b6040516101a69c9b9a9998979695949392919061262f565b60405180910390f35b3480156101bb57600080fd5b506101d660048036038101906101d19190612731565b6109c4565b6040516101e39190612316565b60405180910390f35b3480156101f857600080fd5b50610201610d3b565b60405161020e9190612861565b60405180910390f35b34801561022357600080fd5b5061023e60048036038101906102399190612542565b610d41565b60405161024b9190612a36565b60405180910390f35b34801561026057600080fd5b50610269610f92565b6040516102769190612316565b60405180910390f35b34801561028b57600080fd5b506102a660048036038101906102a19190612542565b610f9a565b005b3480156102b457600080fd5b506102cf60048036038101906102ca9190612a58565b611195565b6040516102dc9190612a36565b60405180910390f35b3480156102f157600080fd5b506102fa611664565b6040516103079190612a85565b60405180910390f35b34801561031c57600080fd5b50610325611688565b6040516103329190612d1d565b60405180910390f35b34801561034757600080fd5b50610350611c63565b60405161035d9190612a85565b60405180910390f35b34801561037257600080fd5b5061037b611c87565b6040516103889190612d9e565b60405180910390f35b60007f000000000000000000000000000000000000000000000000000000000000000073ffffffffffffffffffffffffffffffffffffffff166370a08231306040518263ffffffff1660e01b81526004016103ec9190612a85565b602060405180830381865afa158015610409573d6000803e3d6000fd5b505050506040513d601f19601f8201168201806040525081019061042d9190612dce565b905090565b60025481565b6000610442611cab565b6002548410610486576040517f08c379a000000000000000000000000000000000000000000000000000000000815260040161047d90612e47565b60405180910390fd5b600034116104c9576040517f08c379a00000000000000000000000000000000000000000000000000000000081526004016104c090612ed9565b60405180910390fd5b6000600160008681526020019081526020016000209050600081600a015403610527576040517f08c379a000000000000000000000000000000000000000000000000000000000815260040161051e90612f45565b60405180910390fd5b8060070154421061056d576040517f08c379a000000000000000000000000000000000000000000000000000000000815260040161056490612fb1565b60405180910390fd5b6000349050600061057d82611cf1565b905082600c016040518060c001604052803373ffffffffffffffffffffffffffffffffffffffff16815260200188815260200187815260200184815260200183815260200142815250908060018154018082558091505060019003906000526020600020906006020160009091909190915060008201518160000160006101000a81548173ffffffffffffffffffffffffffffffffffffffff021916908373ffffffffffffffffffffffffffffffffffffffff160217905550602082015181600101908161064b91906131d3565b50604082015181600201908161066191906131d3565b50606082015181600301556080820151816004015560a0820151816005015550508183600801600082825461069691906132d4565b92505081905550808360090160008282546106b191906132d4565b925050819055503373ffffffffffffffffffffffffffffffffffffffff16877f84038083661ab3698bfe2b1202fa65e8fd987cef13606f396be72c1685b8172c8888868642604051610707959493929190613308565b60405180910390a380935050505061071d611fdd565b9392505050565b600160205280600052604060002060009150905080600001805461074790613000565b80601f016020809104026020016040519081016040528092919081815260200182805461077390613000565b80156107c05780601f10610795576101008083540402835291602001916107c0565b820191906000526020600020905b8154815290600101906020018083116107a357829003601f168201915b5050505050908060010160009054906101000a900473ffffffffffffffffffffffffffffffffffffffff16908060020180546107fb90613000565b80601f016020809104026020016040519081016040528092919081815260200182805461082790613000565b80156108745780601f1061084957610100808354040283529160200191610874565b820191906000526020600020905b81548152906001019060200180831161085757829003601f168201915b50505050509080600301805461088990613000565b80601f01602080910402602001604051908101604052809291908181526020018280546108b590613000565b80156109025780601f106108d757610100808354040283529160200191610902565b820191906000526020600020905b8154815290600101906020018083116108e557829003601f168201915b50505050509080600401805461091790613000565b80601f016020809104026020016040519081016040528092919081815260200182805461094390613000565b80156109905780601f1061096557610100808354040283529160200191610990565b820191906000526020600020905b81548152906001019060200180831161097357829003601f168201915b50505050509080600501549080600601549080600701549080600801549080600901549080600a01549080600b015490508c565b600080885111610a09576040517f08c379a0000000000000000000000000000000000000000000000000000000008152600401610a00906133b5565b60405180910390fd5b600073ffffffffffffffffffffffffffffffffffffffff168773ffffffffffffffffffffffffffffffffffffffff1603610a78576040517f08c379a0000000000000000000000000000000000000000000000000000000008152600401610a6f90613421565b60405180910390fd5b6000865111610abc576040517f08c379a0000000000000000000000000000000000000000000000000000000008152600401610ab39061348d565b60405180910390fd5b6000855111610b00576040517f08c379a0000000000000000000000000000000000000000000000000000000008152600401610af7906134f9565b60405180910390fd5b6000845111610b44576040517f08c379a0000000000000000000000000000000000000000000000000000000008152600401610b3b90613565565b60405180910390fd5b60008311610b87576040517f08c379a0000000000000000000000000000000000000000000000000000000008152600401610b7e906135d1565b60405180910390fd5b428211610bc9576040517f08c379a0000000000000000000000000000000000000000000000000000000008152600401610bc09061363d565b60405180910390fd5b60006001600060025481526020019081526020016000209050878160010160006101000a81548173ffffffffffffffffffffffffffffffffffffffff021916908373ffffffffffffffffffffffffffffffffffffffff16021790555088816000019081610c3691906131d3565b5086816003019081610c4891906131d3565b5085816004019081610c5a91906131d3565b5084816002019081610c6c91906131d3565b508381600601819055508281600701819055506000816008018190555060008160090181905550600081600a018190555060025481600501819055504281600b01819055508773ffffffffffffffffffffffffffffffffffffffff166002547f532ce22d86c3d75e9e14507fdc84d53517c2726edb5c97af3c34fb362233b071868642604051610cfe9392919061365d565b60405180910390a360026000815480929190610d1990613694565b91905055506001600254610d2d91906136dc565b915050979650505050505050565b610bb881565b60606002548210610d87576040517f08c379a0000000000000000000000000000000000000000000000000000000008152600401610d7e90612e47565b60405180910390fd5b60016000838152602001908152602001600020600c01805480602002602001604051908101604052809291908181526020016000905b82821015610f8757838290600052602060002090600602016040518060c00160405290816000820160009054906101000a900473ffffffffffffffffffffffffffffffffffffffff1673ffffffffffffffffffffffffffffffffffffffff1673ffffffffffffffffffffffffffffffffffffffff168152602001600182018054610e4690613000565b80601f0160208091040260200160405190810160405280929190818152602001828054610e7290613000565b8015610ebf5780601f10610e9457610100808354040283529160200191610ebf565b820191906000526020600020905b815481529060010190602001808311610ea257829003601f168201915b50505050508152602001600282018054610ed890613000565b80601f0160208091040260200160405190810160405280929190818152602001828054610f0490613000565b8015610f515780601f10610f2657610100808354040283529160200191610f51565b820191906000526020600020905b815481529060010190602001808311610f3457829003601f168201915b50505050508152602001600382015481526020016004820154815260200160058201548152505081526020019060010190610dbd565b505050509050919050565b600047905090565b6002548110610fde576040517f08c379a0000000000000000000000000000000000000000000000000000000008152600401610fd590612e47565b60405180910390fd5b60006001600083815260200190815260200160002090503373ffffffffffffffffffffffffffffffffffffffff168160010160009054906101000a900473ffffffffffffffffffffffffffffffffffffffff1673ffffffffffffffffffffffffffffffffffffffff1614611087576040517f08c379a000000000000000000000000000000000000000000000000000000000815260040161107e90613782565b60405180910390fd5b60016000838152602001908152602001600020600080820160006110ab919061213c565b6001820160006101000a81549073ffffffffffffffffffffffffffffffffffffffff02191690556002820160006110e2919061213c565b6003820160006110f2919061213c565b600482016000611102919061213c565b60058201600090556006820160009055600782016000905560088201600090556009820160009055600a820160009055600b820160009055600c8201600061114a919061217c565b50506002600081548092919061115f906137a2565b9190505550817fa61e586bd6a065bde887af9ec4705829557488d3ccdea823ab66aafd7c3aa09960405160405180910390a25050565b60606000805b600254811015611243578373ffffffffffffffffffffffffffffffffffffffff166001600083815260200190815260200160002060010160009054906101000a900473ffffffffffffffffffffffffffffffffffffffff1673ffffffffffffffffffffffffffffffffffffffff16036112365760016000828152602001908152602001600020600c01805490508261123391906132d4565b91505b808060010191505061119b565b5060008167ffffffffffffffff8111156112605761125f61238c565b5b60405190808252806020026020018201604052801561129957816020015b6112866121a0565b81526020019060019003908161127e5790505b5090506000805b600254811015611558578573ffffffffffffffffffffffffffffffffffffffff166001600083815260200190815260200160002060010160009054906101000a900473ffffffffffffffffffffffffffffffffffffffff1673ffffffffffffffffffffffffffffffffffffffff160361154b5760005b60016000838152602001908152602001600020600c01805490508110156115495760016000838152602001908152602001600020600c01818154811061135f5761135e6137cb565b5b90600052602060002090600602016040518060c00160405290816000820160009054906101000a900473ffffffffffffffffffffffffffffffffffffffff1673ffffffffffffffffffffffffffffffffffffffff1673ffffffffffffffffffffffffffffffffffffffff1681526020016001820180546113de90613000565b80601f016020809104026020016040519081016040528092919081815260200182805461140a90613000565b80156114575780601f1061142c57610100808354040283529160200191611457565b820191906000526020600020905b81548152906001019060200180831161143a57829003601f168201915b5050505050815260200160028201805461147090613000565b80601f016020809104026020016040519081016040528092919081815260200182805461149c90613000565b80156114e95780601f106114be576101008083540402835291602001916114e9565b820191906000526020600020905b8154815290600101906020018083116114cc57829003601f168201915b505050505081526020016003820154815260200160048201548152602001600582015481525050848481518110611523576115226137cb565b5b6020026020010181905250828061153990613694565b9350508080600101915050611316565b505b80806001019150506112a0565b5060005b825181101561165857600060018261157491906132d4565b90505b835181101561164a57838181518110611593576115926137cb565b5b602002602001015160a001518483815181106115b2576115b16137cb565b5b602002602001015160a00151111561163d5760008483815181106115d9576115d86137cb565b5b602002602001015190508482815181106115f6576115f56137cb565b5b6020026020010151858481518110611611576116106137cb565b5b6020026020010181905250808583815181106116305761162f6137cb565b5b6020026020010181905250505b8080600101915050611577565b50808060010191505061155c565b50819350505050919050565b7f000000000000000000000000000000000000000000000000000000000000000081565b60606000600254116116cf576040517f08c379a00000000000000000000000000000000000000000000000000000000081526004016116c690613846565b60405180910390fd5b600060025467ffffffffffffffff8111156116ed576116ec61238c565b5b60405190808252806020026020018201604052801561172657816020015b6117136121ec565b81526020019060019003908161170b5790505b50905060005b600254811015611c5b5760016000828152602001908152602001600020604051806101a001604052908160008201805461176590613000565b80601f016020809104026020016040519081016040528092919081815260200182805461179190613000565b80156117de5780601f106117b3576101008083540402835291602001916117de565b820191906000526020600020905b8154815290600101906020018083116117c157829003601f168201915b505050505081526020016001820160009054906101000a900473ffffffffffffffffffffffffffffffffffffffff1673ffffffffffffffffffffffffffffffffffffffff1673ffffffffffffffffffffffffffffffffffffffff16815260200160028201805461184d90613000565b80601f016020809104026020016040519081016040528092919081815260200182805461187990613000565b80156118c65780601f1061189b576101008083540402835291602001916118c6565b820191906000526020600020905b8154815290600101906020018083116118a957829003601f168201915b505050505081526020016003820180546118df90613000565b80601f016020809104026020016040519081016040528092919081815260200182805461190b90613000565b80156119585780601f1061192d57610100808354040283529160200191611958565b820191906000526020600020905b81548152906001019060200180831161193b57829003601f168201915b5050505050815260200160048201805461197190613000565b80601f016020809104026020016040519081016040528092919081815260200182805461199d90613000565b80156119ea5780601f106119bf576101008083540402835291602001916119ea565b820191906000526020600020905b8154815290600101906020018083116119cd57829003601f168201915b505050505081526020016005820154815260200160068201548152602001600782015481526020016008820154815260200160098201548152602001600a8201548152602001600b8201548152602001600c8201805480602002602001604051908101604052809291908181526020016000905b82821015611c2857838290600052602060002090600602016040518060c00160405290816000820160009054906101000a900473ffffffffffffffffffffffffffffffffffffffff1673ffffffffffffffffffffffffffffffffffffffff1673ffffffffffffffffffffffffffffffffffffffff168152602001600182018054611ae790613000565b80601f0160208091040260200160405190810160405280929190818152602001828054611b1390613000565b8015611b605780601f10611b3557610100808354040283529160200191611b60565b820191906000526020600020905b815481529060010190602001808311611b4357829003601f168201915b50505050508152602001600282018054611b7990613000565b80601f0160208091040260200160405190810160405280929190818152602001828054611ba590613000565b8015611bf25780601f10611bc757610100808354040283529160200191611bf2565b820191906000526020600020905b815481529060010190602001808311611bd557829003601f168201915b50505050508152602001600382015481526020016004820154815260200160058201548152505081526020019060010190611a5e565b5050505081525050828281518110611c4357611c426137cb565b5b6020026020010181905250808060010191505061172c565b508091505090565b7f000000000000000000000000000000000000000000000000000000000000000081565b7f000000000000000000000000000000000000000000000000000000000000000081565b600260005403611ce7576040517f3ee5aeb500000000000000000000000000000000000000000000000000000000815260040160405180910390fd5b6002600081905550565b6000808211611d35576040517f08c379a0000000000000000000000000000000000000000000000000000000008152600401611d2c906138b2565b60405180910390fd5b7f000000000000000000000000000000000000000000000000000000000000000073ffffffffffffffffffffffffffffffffffffffff1663d0e30db0836040518263ffffffff1660e01b81526004016000604051808303818588803b158015611d9d57600080fd5b505af1158015611db1573d6000803e3d6000fd5b5050505050611e017f00000000000000000000000000000000000000000000000000000000000000007f000000000000000000000000000000000000000000000000000000000000000084611fe7565b60006040518061010001604052807f000000000000000000000000000000000000000000000000000000000000000073ffffffffffffffffffffffffffffffffffffffff1681526020017f000000000000000000000000000000000000000000000000000000000000000073ffffffffffffffffffffffffffffffffffffffff168152602001610bb862ffffff1681526020013073ffffffffffffffffffffffffffffffffffffffff16815260200161025842611ebe91906132d4565b815260200184815260200160008152602001600073ffffffffffffffffffffffffffffffffffffffff1681525090507f000000000000000000000000000000000000000000000000000000000000000073ffffffffffffffffffffffffffffffffffffffff1663414bf389826040518263ffffffff1660e01b8152600401611f469190613992565b6020604051808303816000875af1158015611f65573d6000803e3d6000fd5b505050506040513d601f19601f82011682018060405250810190611f899190612dce565b9150611fd77f00000000000000000000000000000000000000000000000000000000000000007f00000000000000000000000000000000000000000000000000000000000000006000611fe7565b50919050565b6001600081905550565b6000808473ffffffffffffffffffffffffffffffffffffffff1663095ea7b360e01b858560405160240161201c9291906139ae565b604051602081830303815290604052907bffffffffffffffffffffffffffffffffffffffffffffffffffffffff19166020820180517bffffffffffffffffffffffffffffffffffffffffffffffffffffffff83818316178352505050506040516120869190613a1e565b6000604051808303816000865af19150503d80600081146120c3576040519150601f19603f3d011682016040523d82523d6000602084013e6120c8565b606091505b50915091508180156120f657506000815114806120f55750808060200190518101906120f49190613a6d565b5b5b612135576040517f08c379a000000000000000000000000000000000000000000000000000000000815260040161212c90613ae6565b60405180910390fd5b5050505050565b50805461214890613000565b6000825580601f1061215a5750612179565b601f016020900490600052602060002090810190612178919061226a565b5b50565b508054600082556006029060005260206000209081019061219d9190612287565b50565b6040518060c00160405280600073ffffffffffffffffffffffffffffffffffffffff16815260200160608152602001606081526020016000815260200160008152602001600081525090565b604051806101a0016040528060608152602001600073ffffffffffffffffffffffffffffffffffffffff16815260200160608152602001606081526020016060815260200160008152602001600081526020016000815260200160008152602001600081526020016000815260200160008152602001606081525090565b5b8082111561228357600081600090555060010161226b565b5090565b5b808211156122f957600080820160006101000a81549073ffffffffffffffffffffffffffffffffffffffff02191690556001820160006122c8919061213c565b6002820160006122d8919061213c565b60038201600090556004820160009055600582016000905550600601612288565b5090565b6000819050919050565b612310816122fd565b82525050565b600060208201905061232b6000830184612307565b92915050565b6000604051905090565b600080fd5b600080fd5b61234e816122fd565b811461235957600080fd5b50565b60008135905061236b81612345565b92915050565b600080fd5b600080fd5b6000601f19601f8301169050919050565b7f4e487b7100000000000000000000000000000000000000000000000000000000600052604160045260246000fd5b6123c48261237b565b810181811067ffffffffffffffff821117156123e3576123e261238c565b5b80604052505050565b60006123f6612331565b905061240282826123bb565b919050565b600067ffffffffffffffff8211156124225761242161238c565b5b61242b8261237b565b9050602081019050919050565b82818337600083830152505050565b600061245a61245584612407565b6123ec565b90508281526020810184848401111561247657612475612376565b5b612481848285612438565b509392505050565b600082601f83011261249e5761249d612371565b5b81356124ae848260208601612447565b91505092915050565b6000806000606084860312156124d0576124cf61233b565b5b60006124de8682870161235c565b935050602084013567ffffffffffffffff8111156124ff576124fe612340565b5b61250b86828701612489565b925050604084013567ffffffffffffffff81111561252c5761252b612340565b5b61253886828701612489565b9150509250925092565b6000602082840312156125585761255761233b565b5b60006125668482850161235c565b91505092915050565b600081519050919050565b600082825260208201905092915050565b60005b838110156125a957808201518184015260208101905061258e565b60008484015250505050565b60006125c08261256f565b6125ca818561257a565b93506125da81856020860161258b565b6125e38161237b565b840191505092915050565b600073ffffffffffffffffffffffffffffffffffffffff82169050919050565b6000612619826125ee565b9050919050565b6126298161260e565b82525050565b600061018082019050818103600083015261264a818f6125b5565b9050612659602083018e612620565b818103604083015261266b818d6125b5565b9050818103606083015261267f818c6125b5565b90508181036080830152612693818b6125b5565b90506126a260a083018a612307565b6126af60c0830189612307565b6126bc60e0830188612307565b6126ca610100830187612307565b6126d8610120830186612307565b6126e6610140830185612307565b6126f4610160830184612307565b9d9c50505050505050505050505050565b61270e8161260e565b811461271957600080fd5b50565b60008135905061272b81612705565b92915050565b600080600080600080600060e0888a0312156127505761274f61233b565b5b600088013567ffffffffffffffff81111561276e5761276d612340565b5b61277a8a828b01612489565b975050602061278b8a828b0161271c565b965050604088013567ffffffffffffffff8111156127ac576127ab612340565b5b6127b88a828b01612489565b955050606088013567ffffffffffffffff8111156127d9576127d8612340565b5b6127e58a828b01612489565b945050608088013567ffffffffffffffff81111561280657612805612340565b5b6128128a828b01612489565b93505060a06128238a828b0161235c565b92505060c06128348a828b0161235c565b91505092959891949750929550565b600062ffffff82169050919050565b61285b81612843565b82525050565b60006020820190506128766000830184612852565b92915050565b600081519050919050565b600082825260208201905092915050565b6000819050602082019050919050565b6128b18161260e565b82525050565b600082825260208201905092915050565b60006128d38261256f565b6128dd81856128b7565b93506128ed81856020860161258b565b6128f68161237b565b840191505092915050565b61290a816122fd565b82525050565b600060c08301600083015161292860008601826128a8565b506020830151848203602086015261294082826128c8565b9150506040830151848203604086015261295a82826128c8565b915050606083015161296f6060860182612901565b5060808301516129826080860182612901565b5060a083015161299560a0860182612901565b508091505092915050565b60006129ac8383612910565b905092915050565b6000602082019050919050565b60006129cc8261287c565b6129d68185612887565b9350836020820285016129e885612898565b8060005b85811015612a245784840389528151612a0585826129a0565b9450612a10836129b4565b925060208a019950506001810190506129ec565b50829750879550505050505092915050565b60006020820190508181036000830152612a5081846129c1565b905092915050565b600060208284031215612a6e57612a6d61233b565b5b6000612a7c8482850161271c565b91505092915050565b6000602082019050612a9a6000830184612620565b92915050565b600081519050919050565b600082825260208201905092915050565b6000819050602082019050919050565b600082825260208201905092915050565b6000612ae88261287c565b612af28185612acc565b935083602082028501612b0485612898565b8060005b85811015612b405784840389528151612b2185826129a0565b9450612b2c836129b4565b925060208a01995050600181019050612b08565b50829750879550505050505092915050565b60006101a0830160008301518482036000860152612b7082826128c8565b9150506020830151612b8560208601826128a8565b5060408301518482036040860152612b9d82826128c8565b91505060608301518482036060860152612bb782826128c8565b91505060808301518482036080860152612bd182826128c8565b91505060a0830151612be660a0860182612901565b5060c0830151612bf960c0860182612901565b5060e0830151612c0c60e0860182612901565b50610100830151612c21610100860182612901565b50610120830151612c36610120860182612901565b50610140830151612c4b610140860182612901565b50610160830151612c60610160860182612901565b50610180830151848203610180860152612c7a8282612add565b9150508091505092915050565b6000612c938383612b52565b905092915050565b6000602082019050919050565b6000612cb382612aa0565b612cbd8185612aab565b935083602082028501612ccf85612abc565b8060005b85811015612d0b5784840389528151612cec8582612c87565b9450612cf783612c9b565b925060208a01995050600181019050612cd3565b50829750879550505050505092915050565b60006020820190508181036000830152612d378184612ca8565b905092915050565b6000819050919050565b6000612d64612d5f612d5a846125ee565b612d3f565b6125ee565b9050919050565b6000612d7682612d49565b9050919050565b6000612d8882612d6b565b9050919050565b612d9881612d7d565b82525050565b6000602082019050612db36000830184612d8f565b92915050565b600081519050612dc881612345565b92915050565b600060208284031215612de457612de361233b565b5b6000612df284828501612db9565b91505092915050565b7f496e76616c69642063616d706169676e20494400000000000000000000000000600082015250565b6000612e3160138361257a565b9150612e3c82612dfb565b602082019050919050565b60006020820190508181036000830152612e6081612e24565b9050919050565b7f446f6e6174696f6e206d7573742062652067726561746572207468616e207a6560008201527f726f000000000000000000000000000000000000000000000000000000000000602082015250565b6000612ec360228361257a565b9150612ece82612e67565b604082019050919050565b60006020820190508181036000830152612ef281612eb6565b9050919050565b7f43616d706169676e2069732050656e64696e6700000000000000000000000000600082015250565b6000612f2f60138361257a565b9150612f3a82612ef9565b602082019050919050565b60006020820190508181036000830152612f5e81612f22565b9050919050565b7f43616d706169676e2068617320656e6465640000000000000000000000000000600082015250565b6000612f9b60128361257a565b9150612fa682612f65565b602082019050919050565b60006020820190508181036000830152612fca81612f8e565b9050919050565b7f4e487b7100000000000000000000000000000000000000000000000000000000600052602260045260246000fd5b6000600282049050600182168061301857607f821691505b60208210810361302b5761302a612fd1565b5b50919050565b60008190508160005260206000209050919050565b60006020601f8301049050919050565b600082821b905092915050565b6000600883026130937fffffffffffffffffffffffffffffffffffffffffffffffffffffffffffffffff82613056565b61309d8683613056565b95508019841693508086168417925050509392505050565b60006130d06130cb6130c6846122fd565b612d3f565b6122fd565b9050919050565b6000819050919050565b6130ea836130b5565b6130fe6130f6826130d7565b848454613063565b825550505050565b600090565b613113613106565b61311e8184846130e1565b505050565b5b818110156131425761313760008261310b565b600181019050613124565b5050565b601f8211156131875761315881613031565b61316184613046565b81016020851015613170578190505b61318461317c85613046565b830182613123565b50505b505050565b600082821c905092915050565b60006131aa6000198460080261318c565b1980831691505092915050565b60006131c38383613199565b9150826002028217905092915050565b6131dc8261256f565b67ffffffffffffffff8111156131f5576131f461238c565b5b6131ff8254613000565b61320a828285613146565b600060209050601f83116001811461323d576000841561322b578287015190505b61323585826131b7565b86555061329d565b601f19841661324b86613031565b60005b828110156132735784890151825560018201915060208501945060208101905061324e565b86831015613290578489015161328c601f891682613199565b8355505b6001600288020188555050505b505050505050565b7f4e487b7100000000000000000000000000000000000000000000000000000000600052601160045260246000fd5b60006132df826122fd565b91506132ea836122fd565b9250828201905080821115613302576133016132a5565b5b92915050565b600060a082019050818103600083015261332281886125b5565b9050818103602083015261333681876125b5565b90506133456040830186612307565b6133526060830185612307565b61335f6080830184612307565b9695505050505050565b7f4e616d652063616e6e6f7420626520656d707479000000000000000000000000600082015250565b600061339f60148361257a565b91506133aa82613369565b602082019050919050565b600060208201905081810360008301526133ce81613392565b9050919050565b7f496e76616c6964206f776e657220616464726573730000000000000000000000600082015250565b600061340b60158361257a565b9150613416826133d5565b602082019050919050565b6000602082019050818103600083015261343a816133fe565b9050919050565b7f5469746c652063616e6e6f7420626520656d7074790000000000000000000000600082015250565b600061347760158361257a565b915061348282613441565b602082019050919050565b600060208201905081810360008301526134a68161346a565b9050919050565b7f4465736372697074696f6e2063616e6e6f7420626520656d7074790000000000600082015250565b60006134e3601b8361257a565b91506134ee826134ad565b602082019050919050565b60006020820190508181036000830152613512816134d6565b9050919050565b7f43617465676f72792063616e6e6f7420626520656d7074790000000000000000600082015250565b600061354f60188361257a565b915061355a82613519565b602082019050919050565b6000602082019050818103600083015261357e81613542565b9050919050565b7f546172676574206d7573742062652067726561746572207468616e2030000000600082015250565b60006135bb601d8361257a565b91506135c682613585565b602082019050919050565b600060208201905081810360008301526135ea816135ae565b9050919050565b7f446561646c696e65206d75737420626520696e20746865206675747572650000600082015250565b6000613627601e8361257a565b9150613632826135f1565b602082019050919050565b600060208201905081810360008301526136568161361a565b9050919050565b60006060820190506136726000830186612307565b61367f6020830185612307565b61368c6040830184612307565b949350505050565b600061369f826122fd565b91507fffffffffffffffffffffffffffffffffffffffffffffffffffffffffffffffff82036136d1576136d06132a5565b5b600182019050919050565b60006136e7826122fd565b91506136f2836122fd565b925082820390508181111561370a576137096132a5565b5b92915050565b7f4f6e6c79207468652063616d706169676e206f776e65722063616e2064656c6560008201527f7465207468652063616d706169676e0000000000000000000000000000000000602082015250565b600061376c602f8361257a565b915061377782613710565b604082019050919050565b6000602082019050818103600083015261379b8161375f565b9050919050565b60006137ad826122fd565b9150600082036137c0576137bf6132a5565b5b600182039050919050565b7f4e487b7100000000000000000000000000000000000000000000000000000000600052603260045260246000fd5b7f4e6f2063616d706169676e7320617661696c61626c6500000000000000000000600082015250565b600061383060168361257a565b915061383b826137fa565b602082019050919050565b6000602082019050818103600083015261385f81613823565b9050919050565b7f416d6f756e74206d7573742062652067726561746572207468616e2030000000600082015250565b600061389c601d8361257a565b91506138a782613866565b602082019050919050565b600060208201905081810360008301526138cb8161388f565b9050919050565b6138db81612843565b82525050565b6138ea816125ee565b82525050565b6101008201600082015161390760008501826128a8565b50602082015161391a60208501826128a8565b50604082015161392d60408501826138d2565b50606082015161394060608501826128a8565b5060808201516139536080850182612901565b5060a082015161396660a0850182612901565b5060c082015161397960c0850182612901565b5060e082015161398c60e08501826138e1565b50505050565b6000610100820190506139a860008301846138f0565b92915050565b60006040820190506139c36000830185612620565b6139d06020830184612307565b9392505050565b600081519050919050565b600081905092915050565b60006139f8826139d7565b613a0281856139e2565b9350613a1281856020860161258b565b80840191505092915050565b6000613a2a82846139ed565b915081905092915050565b60008115159050919050565b613a4a81613a35565b8114613a5557600080fd5b50565b600081519050613a6781613a41565b92915050565b600060208284031215613a8357613a8261233b565b5b6000613a9184828501613a58565b91505092915050565b7f5341000000000000000000000000000000000000000000000000000000000000600082015250565b6000613ad060028361257a565b9150613adb82613a9a565b602082019050919050565b60006020820190508181036000830152613aff81613ac3565b905091905056fea2646970667358221220312e33c62e0b35bede3c20b48122004e8c742dbbe6417f50dc73d4493d43cd1f64736f6c63430008180033",
  "linkReferences": {},
  "deployedLinkReferences": {}
}