{
  "_format": "hh-sol-artifact-1",
  "contractName": "CryptoBacker",
  "sourceName": "contracts/CryptoBacker.sol",
  "abi": [
    {
      "inputs": [
        {
          "internalType": "address",
          "name": "_swapRouter",
          "type": "address"
        },
        {
          "internalType": "address",
          "name": "_WETH",
          "type": "address"
        },
        {
          "internalType": "address",
          "name": "_USDC",
          "type": "address"
        }
      ],
      "stateMutability": "nonpayable",
      "type": "constructor"
    },
    {
      "inputs": [],
      "name": "ReentrancyGuardReentrantCall",
      "type": "error"
    },
    {
      "anonymous": false,
      "inputs": [
        {
          "indexed": true,
          "internalType": "uint256",
          "name": "campaignCode",
          "type": "uint256"
        },
        {
          "indexed": true,
          "internalType": "address",
          "name": "owner",
          "type": "address"
        },
        {
          "indexed": false,
          "internalType": "uint256",
          "name": "target",
          "type": "uint256"
        },
        {
          "indexed": false,
          "internalType": "uint256",
          "name": "deadline",
          "type": "uint256"
        },
        {
          "indexed": false,
          "internalType": "uint256",
          "name": "createdAt",
          "type": "uint256"
        }
      ],
      "name": "CampaignCreated",
      "type": "event"
    },
    {
      "anonymous": false,
      "inputs": [
        {
          "indexed": true,
          "internalType": "uint256",
          "name": "campaignCode",
          "type": "uint256"
        }
      ],
      "name": "CampaignDeleted",
      "type": "event"
    },
    {
      "anonymous": false,
      "inputs": [
        {
          "indexed": true,
          "internalType": "uint256",
          "name": "campaignCode",
          "type": "uint256"
        },
        {
          "indexed": false,
          "internalType": "uint256",
          "name": "newStatus",
          "type": "uint256"
        }
      ],
      "name": "CampaignStatusUpdated",
      "type": "event"
    },
    {
      "anonymous": false,
      "inputs": [
        {
          "indexed": true,
          "internalType": "uint256",
          "name": "campaignCode",
          "type": "uint256"
        },
        {
          "indexed": true,
          "internalType": "address",
          "name": "donor",
          "type": "address"
        },
        {
          "indexed": false,
          "internalType": "string",
          "name": "donorName",
          "type": "string"
        },
        {
          "indexed": false,
          "internalType": "string",
          "name": "donorEmail",
          "type": "string"
        },
        {
          "indexed": false,
          "internalType": "uint256",
          "name": "amountETH",
          "type": "uint256"
        },
        {
          "indexed": false,
          "internalType": "uint256",
          "name": "amountUSDC",
          "type": "uint256"
        },
        {
          "indexed": false,
          "internalType": "uint256",
          "name": "timestamp",
          "type": "uint256"
        }
      ],
      "name": "DonationReceived",
      "type": "event"
    },
    {
      "inputs": [],
      "name": "FEE_TIER",
      "outputs": [
        {
          "internalType": "uint24",
          "name": "",
          "type": "uint24"
        }
      ],
      "stateMutability": "view",
      "type": "function"
    },
    {
      "inputs": [],
      "name": "USDC",
      "outputs": [
        {
          "internalType": "address",
          "name": "",
          "type": "address"
        }
      ],
      "stateMutability": "view",
      "type": "function"
    },
    {
      "inputs": [],
      "name": "WETH",
      "outputs": [
        {
          "internalType": "address",
          "name": "",
          "type": "address"
        }
      ],
      "stateMutability": "view",
      "type": "function"
    },
    {
      "inputs": [
        {
          "internalType": "uint256",
          "name": "",
          "type": "uint256"
        }
      ],
      "name": "campaigns",
      "outputs": [
        {
          "internalType": "string",
          "name": "name",
          "type": "string"
        },
        {
          "internalType": "address",
          "name": "owner",
          "type": "address"
        },
        {
          "internalType": "string",
          "name": "category",
          "type": "string"
        },
        {
          "internalType": "string",
          "name": "title",
          "type": "string"
        },
        {
          "internalType": "string",
          "name": "description",
          "type": "string"
        },
        {
          "internalType": "uint256",
          "name": "campaignCode",
          "type": "uint256"
        },
        {
          "internalType": "uint256",
          "name": "target",
          "type": "uint256"
        },
        {
          "internalType": "uint256",
          "name": "deadline",
          "type": "uint256"
        },
        {
          "internalType": "uint256",
          "name": "amountCollectedETH",
          "type": "uint256"
        },
        {
          "internalType": "uint256",
          "name": "amountCollectedUSDC",
          "type": "uint256"
        },
        {
          "internalType": "uint256",
          "name": "status",
          "type": "uint256"
        },
        {
          "internalType": "uint256",
          "name": "createdAt",
          "type": "uint256"
        }
      ],
      "stateMutability": "view",
      "type": "function"
    },
    {
      "inputs": [
        {
          "internalType": "string",
          "name": "_name",
          "type": "string"
        },
        {
          "internalType": "address",
          "name": "_owner",
          "type": "address"
        },
        {
          "internalType": "string",
          "name": "_title",
          "type": "string"
        },
        {
          "internalType": "string",
          "name": "_description",
          "type": "string"
        },
        {
          "internalType": "string",
          "name": "_category",
          "type": "string"
        },
        {
          "internalType": "uint256",
          "name": "_target",
          "type": "uint256"
        },
        {
          "internalType": "uint256",
          "name": "_deadline",
          "type": "uint256"
        }
      ],
      "name": "createCampaign",
      "outputs": [
        {
          "internalType": "uint256",
          "name": "",
          "type": "uint256"
        }
      ],
      "stateMutability": "nonpayable",
      "type": "function"
    },
    {
      "inputs": [
        {
          "internalType": "uint256",
          "name": "_id",
          "type": "uint256"
        }
      ],
      "name": "deleteCampaign",
      "outputs": [],
      "stateMutability": "nonpayable",
      "type": "function"
    },
    {
      "inputs": [
        {
          "internalType": "uint256",
          "name": "_id",
          "type": "uint256"
        },
        {
          "internalType": "string",
          "name": "_userName",
          "type": "string"
        },
        {
          "internalType": "string",
          "name": "_userEmail",
          "type": "string"
        }
      ],
      "name": "donateToCampaign",
      "outputs": [
        {
          "internalType": "uint256",
          "name": "",
          "type": "uint256"
        }
      ],
      "stateMutability": "payable",
      "type": "function"
    },
    {
      "inputs": [],
      "name": "getCampaigns",
      "outputs": [
        {
          "components": [
            {
              "internalType": "string",
              "name": "name",
              "type": "string"
            },
            {
              "internalType": "address",
              "name": "owner",
              "type": "address"
            },
            {
              "internalType": "string",
              "name": "category",
              "type": "string"
            },
            {
              "internalType": "string",
              "name": "title",
              "type": "string"
            },
            {
              "internalType": "string",
              "name": "description",
              "type": "string"
            },
            {
              "internalType": "uint256",
              "name": "campaignCode",
              "type": "uint256"
            },
            {
              "internalType": "uint256",
              "name": "target",
              "type": "uint256"
            },
            {
              "internalType": "uint256",
              "name": "deadline",
              "type": "uint256"
            },
            {
              "internalType": "uint256",
              "name": "amountCollectedETH",
              "type": "uint256"
            },
            {
              "internalType": "uint256",
              "name": "amountCollectedUSDC",
              "type": "uint256"
            },
            {
              "internalType": "uint256",
              "name": "status",
              "type": "uint256"
            },
            {
              "internalType": "uint256",
              "name": "createdAt",
              "type": "uint256"
            },
            {
              "components": [
                {
                  "internalType": "address",
                  "name": "donor",
                  "type": "address"
                },
                {
                  "internalType": "string",
                  "name": "donorName",
                  "type": "string"
                },
                {
                  "internalType": "string",
                  "name": "donorEmail",
                  "type": "string"
                },
                {
                  "internalType": "uint256",
                  "name": "amountETH",
                  "type": "uint256"
                },
                {
                  "internalType": "uint256",
                  "name": "amountUSDC",
                  "type": "uint256"
                },
                {
                  "internalType": "uint256",
                  "name": "timestamp",
                  "type": "uint256"
                }
              ],
              "internalType": "struct CryptoBacker.Donation[]",
              "name": "donations",
              "type": "tuple[]"
            }
          ],
          "internalType": "struct CryptoBacker.Campaign[]",
          "name": "",
          "type": "tuple[]"
        }
      ],
      "stateMutability": "view",
      "type": "function"
    },
    {
      "inputs": [],
      "name": "getContractBalance",
      "outputs": [
        {
          "internalType": "uint256",
          "name": "",
          "type": "uint256"
        }
      ],
      "stateMutability": "view",
      "type": "function"
    },
    {
      "inputs": [],
      "name": "getContractUSDCBalance",
      "outputs": [
        {
          "internalType": "uint256",
          "name": "",
          "type": "uint256"
        }
      ],
      "stateMutability": "view",
      "type": "function"
    },
    {
      "inputs": [
        {
          "internalType": "uint256",
          "name": "_id",
          "type": "uint256"
        }
      ],
      "name": "getDonations",
      "outputs": [
        {
          "components": [
            {
              "internalType": "address",
              "name": "donor",
              "type": "address"
            },
            {
              "internalType": "string",
              "name": "donorName",
              "type": "string"
            },
            {
              "internalType": "string",
              "name": "donorEmail",
              "type": "string"
            },
            {
              "internalType": "uint256",
              "name": "amountETH",
              "type": "uint256"
            },
            {
              "internalType": "uint256",
              "name": "amountUSDC",
              "type": "uint256"
            },
            {
              "internalType": "uint256",
              "name": "timestamp",
              "type": "uint256"
            }
          ],
          "internalType": "struct CryptoBacker.Donation[]",
          "name": "",
          "type": "tuple[]"
        }
      ],
      "stateMutability": "view",
      "type": "function"
    },
    {
      "inputs": [
        {
          "internalType": "address",
          "name": "_user",
          "type": "address"
        }
      ],
      "name": "getUserDonationsByDate",
      "outputs": [
        {
          "components": [
            {
              "internalType": "address",
              "name": "donor",
              "type": "address"
            },
            {
              "internalType": "string",
              "name": "donorName",
              "type": "string"
            },
            {
              "internalType": "string",
              "name": "donorEmail",
              "type": "string"
            },
            {
              "internalType": "uint256",
              "name": "amountETH",
              "type": "uint256"
            },
            {
              "internalType": "uint256",
              "name": "amountUSDC",
              "type": "uint256"
            },
            {
              "internalType": "uint256",
              "name": "timestamp",
              "type": "uint256"
            }
          ],
          "internalType": "struct CryptoBacker.Donation[]",
          "name": "",
          "type": "tuple[]"
        }
      ],
      "stateMutability": "view",
      "type": "function"
    },
    {
      "inputs": [],
      "name": "numberOfCampaigns",
      "outputs": [
        {
          "internalType": "uint256",
          "name": "",
          "type": "uint256"
        }
      ],
      "stateMutability": "view",
      "type": "function"
    },
    {
      "inputs": [],
      "name": "swapRouter",
      "outputs": [
        {
          "internalType": "contract ISwapRouter",
          "name": "",
          "type": "address"
        }
      ],
      "stateMutability": "view",
      "type": "function"
    },
    {
      "inputs": [
        {
          "internalType": "uint256",
          "name": "_id",
          "type": "uint256"
        },
        {
          "internalType": "uint256",
          "name": "_newStatus",
          "type": "uint256"
        }
      ],
      "name": "updateCampaignStatus",
      "outputs": [],
      "stateMutability": "nonpayable",
      "type": "function"
    }
  ],
  "bytecode": "0x60e060405260006002553480156200001657600080fd5b5060405162003f6938038062003f6983398181016040528101906200003c919062000153565b60016000819055508273ffffffffffffffffffffffffffffffffffffffff1660808173ffffffffffffffffffffffffffffffffffffffff16815250508173ffffffffffffffffffffffffffffffffffffffff1660a08173ffffffffffffffffffffffffffffffffffffffff16815250508073ffffffffffffffffffffffffffffffffffffffff1660c08173ffffffffffffffffffffffffffffffffffffffff1681525050505050620001af565b600080fd5b600073ffffffffffffffffffffffffffffffffffffffff82169050919050565b60006200011b82620000ee565b9050919050565b6200012d816200010e565b81146200013957600080fd5b50565b6000815190506200014d8162000122565b92915050565b6000806000606084860312156200016f576200016e620000e9565b5b60006200017f868287016200013c565b935050602062000192868287016200013c565b9250506040620001a5868287016200013c565b9150509250925092565b60805160a05160c051613d4b6200021e600039600081816103c9015281816116e40152611fb0015260008181611ce301528181611e9a01528181611f1e01528181611f7401526120f3015260008181611d0701528181611f3f0152818161205201526121140152613d4b6000f3fe6080604052600436106100e75760003560e01c80636f9fb98a1161008a578063a6b0363311610059578063a6b036331461031b578063ad5c464814610346578063c31c9c0714610371578063eaa1b0bc1461039c576100e7565b80636f9fb98a1461025f578063759701931461028a5780637eb483c9146102b357806389a30271146102f0576100e7565b8063141961bc116100c6578063141961bc146101725780632828f2ee146101ba5780634c69a6c9146101f7578063596d9ce214610222576100e7565b80622772c2146100ec57806307ca140d14610117578063131be67414610142575b600080fd5b3480156100f857600080fd5b506101016103c5565b60405161010e9190612479565b60405180910390f35b34801561012357600080fd5b5061012c610466565b6040516101399190612479565b60405180910390f35b61015c6004803603810190610157919061261a565b61046c565b6040516101699190612479565b60405180910390f35b34801561017e57600080fd5b50610199600480360381019061019491906126a5565b610758565b6040516101b19c9b9a99989796959493929190612792565b60405180910390f35b3480156101c657600080fd5b506101e160048036038101906101dc9190612894565b6109f8565b6040516101ee9190612479565b60405180910390f35b34801561020357600080fd5b5061020c610d6f565b60405161021991906129c4565b60405180910390f35b34801561022e57600080fd5b50610249600480360381019061024491906126a5565b610d75565b6040516102569190612b99565b60405180910390f35b34801561026b57600080fd5b50610274610fc6565b6040516102819190612479565b60405180910390f35b34801561029657600080fd5b506102b160048036038101906102ac91906126a5565b610fce565b005b3480156102bf57600080fd5b506102da60048036038101906102d59190612bbb565b611213565b6040516102e79190612b99565b60405180910390f35b3480156102fc57600080fd5b506103056116e2565b6040516103129190612be8565b60405180910390f35b34801561032757600080fd5b50610330611706565b60405161033d9190612e80565b60405180910390f35b34801561035257600080fd5b5061035b611ce1565b6040516103689190612be8565b60405180910390f35b34801561037d57600080fd5b50610386611d05565b6040516103939190612f01565b60405180910390f35b3480156103a857600080fd5b506103c360048036038101906103be9190612f1c565b611d29565b005b60007f000000000000000000000000000000000000000000000000000000000000000073ffffffffffffffffffffffffffffffffffffffff166370a08231306040518263ffffffff1660e01b81526004016104209190612be8565b602060405180830381865afa15801561043d573d6000803e3d6000fd5b505050506040513d601f19601f820116820180604052508101906104619190612f71565b905090565b60025481565b6000610476611e0e565b60025484106104ba576040517f08c379a00000000000000000000000000000000000000000000000000000000081526004016104b190612fea565b60405180910390fd5b600034116104fd576040517f08c379a00000000000000000000000000000000000000000000000000000000081526004016104f49061307c565b60405180910390fd5b6000600160008681526020019081526020016000209050600081600a01540361055b576040517f08c379a0000000000000000000000000000000000000000000000000000000008152600401610552906130e8565b60405180910390fd5b806007015442106105a1576040517f08c379a000000000000000000000000000000000000000000000000000000000815260040161059890613154565b60405180910390fd5b600034905060006105b182611e54565b905082600c016040518060c001604052803373ffffffffffffffffffffffffffffffffffffffff16815260200188815260200187815260200184815260200183815260200142815250908060018154018082558091505060019003906000526020600020906006020160009091909190915060008201518160000160006101000a81548173ffffffffffffffffffffffffffffffffffffffff021916908373ffffffffffffffffffffffffffffffffffffffff160217905550602082015181600101908161067f9190613376565b5060408201518160020190816106959190613376565b50606082015181600301556080820151816004015560a082015181600501555050818360080160008282546106ca9190613477565b92505081905550808360090160008282546106e59190613477565b925050819055503373ffffffffffffffffffffffffffffffffffffffff16877f84038083661ab3698bfe2b1202fa65e8fd987cef13606f396be72c1685b8172c888886864260405161073b9594939291906134ab565b60405180910390a3809350505050610751612140565b9392505050565b600160205280600052604060002060009150905080600001805461077b906131a3565b80601f01602080910402602001604051908101604052809291908181526020018280546107a7906131a3565b80156107f45780601f106107c9576101008083540402835291602001916107f4565b820191906000526020600020905b8154815290600101906020018083116107d757829003601f168201915b5050505050908060010160009054906101000a900473ffffffffffffffffffffffffffffffffffffffff169080600201805461082f906131a3565b80601f016020809104026020016040519081016040528092919081815260200182805461085b906131a3565b80156108a85780601f1061087d576101008083540402835291602001916108a8565b820191906000526020600020905b81548152906001019060200180831161088b57829003601f168201915b5050505050908060030180546108bd906131a3565b80601f01602080910402602001604051908101604052809291908181526020018280546108e9906131a3565b80156109365780601f1061090b57610100808354040283529160200191610936565b820191906000526020600020905b81548152906001019060200180831161091957829003601f168201915b50505050509080600401805461094b906131a3565b80601f0160208091040260200160405190810160405280929190818152602001828054610977906131a3565b80156109c45780601f10610999576101008083540402835291602001916109c4565b820191906000526020600020905b8154815290600101906020018083116109a757829003601f168201915b50505050509080600501549080600601549080600701549080600801549080600901549080600a01549080600b015490508c565b600080885111610a3d576040517f08c379a0000000000000000000000000000000000000000000000000000000008152600401610a3490613558565b60405180910390fd5b600073ffffffffffffffffffffffffffffffffffffffff168773ffffffffffffffffffffffffffffffffffffffff1603610aac576040517f08c379a0000000000000000000000000000000000000000000000000000000008152600401610aa3906135c4565b60405180910390fd5b6000865111610af0576040517f08c379a0000000000000000000000000000000000000000000000000000000008152600401610ae790613630565b60405180910390fd5b6000855111610b34576040517f08c379a0000000000000000000000000000000000000000000000000000000008152600401610b2b9061369c565b60405180910390fd5b6000845111610b78576040517f08c379a0000000000000000000000000000000000000000000000000000000008152600401610b6f90613708565b60405180910390fd5b60008311610bbb576040517f08c379a0000000000000000000000000000000000000000000000000000000008152600401610bb290613774565b60405180910390fd5b428211610bfd576040517f08c379a0000000000000000000000000000000000000000000000000000000008152600401610bf4906137e0565b60405180910390fd5b60006001600060025481526020019081526020016000209050878160010160006101000a81548173ffffffffffffffffffffffffffffffffffffffff021916908373ffffffffffffffffffffffffffffffffffffffff16021790555088816000019081610c6a9190613376565b5086816003019081610c7c9190613376565b5085816004019081610c8e9190613376565b5084816002019081610ca09190613376565b508381600601819055508281600701819055506000816008018190555060008160090181905550600081600a018190555060025481600501819055504281600b01819055508773ffffffffffffffffffffffffffffffffffffffff166002547f532ce22d86c3d75e9e14507fdc84d53517c2726edb5c97af3c34fb362233b071868642604051610d3293929190613800565b60405180910390a360026000815480929190610d4d90613837565b91905055506001600254610d61919061387f565b915050979650505050505050565b610bb881565b60606002548210610dbb576040517f08c379a0000000000000000000000000000000000000000000000000000000008152600401610db290612fea565b60405180910390fd5b60016000838152602001908152602001600020600c01805480602002602001604051908101604052809291908181526020016000905b82821015610fbb57838290600052602060002090600602016040518060c00160405290816000820160009054906101000a900473ffffffffffffffffffffffffffffffffffffffff1673ffffffffffffffffffffffffffffffffffffffff1673ffffffffffffffffffffffffffffffffffffffff168152602001600182018054610e7a906131a3565b80601f0160208091040260200160405190810160405280929190818152602001828054610ea6906131a3565b8015610ef35780601f10610ec857610100808354040283529160200191610ef3565b820191906000526020600020905b815481529060010190602001808311610ed657829003601f168201915b50505050508152602001600282018054610f0c906131a3565b80601f0160208091040260200160405190810160405280929190818152602001828054610f38906131a3565b8015610f855780601f10610f5a57610100808354040283529160200191610f85565b820191906000526020600020905b815481529060010190602001808311610f6857829003601f168201915b50505050508152602001600382015481526020016004820154815260200160058201548152505081526020019060010190610df1565b505050509050919050565b600047905090565b6002548110611012576040517f08c379a000000000000000000000000000000000000000000000000000000000815260040161100990612fea565b60405180910390fd5b60006001600083815260200190815260200160002090503373ffffffffffffffffffffffffffffffffffffffff168160010160009054906101000a900473ffffffffffffffffffffffffffffffffffffffff1673ffffffffffffffffffffffffffffffffffffffff1614806110c6575073f39fd6e51aad88f6f4ce6ab8827279cfffb9226673ffffffffffffffffffffffffffffffffffffffff163373ffffffffffffffffffffffffffffffffffffffff16145b611105576040517f08c379a00000000000000000000000000000000000000000000000000000000081526004016110fc90613925565b60405180910390fd5b6001600083815260200190815260200160002060008082016000611129919061229f565b6001820160006101000a81549073ffffffffffffffffffffffffffffffffffffffff0219169055600282016000611160919061229f565b600382016000611170919061229f565b600482016000611180919061229f565b60058201600090556006820160009055600782016000905560088201600090556009820160009055600a820160009055600b820160009055600c820160006111c891906122df565b5050600260008154809291906111dd90613945565b9190505550817fa61e586bd6a065bde887af9ec4705829557488d3ccdea823ab66aafd7c3aa09960405160405180910390a25050565b60606000805b6002548110156112c1578373ffffffffffffffffffffffffffffffffffffffff166001600083815260200190815260200160002060010160009054906101000a900473ffffffffffffffffffffffffffffffffffffffff1673ffffffffffffffffffffffffffffffffffffffff16036112b45760016000828152602001908152602001600020600c0180549050826112b19190613477565b91505b8080600101915050611219565b5060008167ffffffffffffffff8111156112de576112dd6124ef565b5b60405190808252806020026020018201604052801561131757816020015b611304612303565b8152602001906001900390816112fc5790505b5090506000805b6002548110156115d6578573ffffffffffffffffffffffffffffffffffffffff166001600083815260200190815260200160002060010160009054906101000a900473ffffffffffffffffffffffffffffffffffffffff1673ffffffffffffffffffffffffffffffffffffffff16036115c95760005b60016000838152602001908152602001600020600c01805490508110156115c75760016000838152602001908152602001600020600c0181815481106113dd576113dc61396e565b5b90600052602060002090600602016040518060c00160405290816000820160009054906101000a900473ffffffffffffffffffffffffffffffffffffffff1673ffffffffffffffffffffffffffffffffffffffff1673ffffffffffffffffffffffffffffffffffffffff16815260200160018201805461145c906131a3565b80601f0160208091040260200160405190810160405280929190818152602001828054611488906131a3565b80156114d55780601f106114aa576101008083540402835291602001916114d5565b820191906000526020600020905b8154815290600101906020018083116114b857829003601f168201915b505050505081526020016002820180546114ee906131a3565b80601f016020809104026020016040519081016040528092919081815260200182805461151a906131a3565b80156115675780601f1061153c57610100808354040283529160200191611567565b820191906000526020600020905b81548152906001019060200180831161154a57829003601f168201915b5050505050815260200160038201548152602001600482015481526020016005820154815250508484815181106115a1576115a061396e565b5b602002602001018190525082806115b790613837565b9350508080600101915050611394565b505b808060010191505061131e565b5060005b82518110156116d65760006001826115f29190613477565b90505b83518110156116c8578381815181106116115761161061396e565b5b602002602001015160a001518483815181106116305761162f61396e565b5b602002602001015160a0015111156116bb5760008483815181106116575761165661396e565b5b602002602001015190508482815181106116745761167361396e565b5b602002602001015185848151811061168f5761168e61396e565b5b6020026020010181905250808583815181106116ae576116ad61396e565b5b6020026020010181905250505b80806001019150506115f5565b5080806001019150506115da565b50819350505050919050565b7f000000000000000000000000000000000000000000000000000000000000000081565b606060006002541161174d576040517f08c379a0000000000000000000000000000000000000000000000000000000008152600401611744906139e9565b60405180910390fd5b600060025467ffffffffffffffff81111561176b5761176a6124ef565b5b6040519080825280602002602001820160405280156117a457816020015b61179161234f565b8152602001906001900390816117895790505b50905060005b600254811015611cd95760016000828152602001908152602001600020604051806101a00160405290816000820180546117e3906131a3565b80601f016020809104026020016040519081016040528092919081815260200182805461180f906131a3565b801561185c5780601f106118315761010080835404028352916020019161185c565b820191906000526020600020905b81548152906001019060200180831161183f57829003601f168201915b505050505081526020016001820160009054906101000a900473ffffffffffffffffffffffffffffffffffffffff1673ffffffffffffffffffffffffffffffffffffffff1673ffffffffffffffffffffffffffffffffffffffff1681526020016002820180546118cb906131a3565b80601f01602080910402602001604051908101604052809291908181526020018280546118f7906131a3565b80156119445780601f1061191957610100808354040283529160200191611944565b820191906000526020600020905b81548152906001019060200180831161192757829003601f168201915b5050505050815260200160038201805461195d906131a3565b80601f0160208091040260200160405190810160405280929190818152602001828054611989906131a3565b80156119d65780601f106119ab576101008083540402835291602001916119d6565b820191906000526020600020905b8154815290600101906020018083116119b957829003601f168201915b505050505081526020016004820180546119ef906131a3565b80601f0160208091040260200160405190810160405280929190818152602001828054611a1b906131a3565b8015611a685780601f10611a3d57610100808354040283529160200191611a68565b820191906000526020600020905b815481529060010190602001808311611a4b57829003601f168201915b505050505081526020016005820154815260200160068201548152602001600782015481526020016008820154815260200160098201548152602001600a8201548152602001600b8201548152602001600c8201805480602002602001604051908101604052809291908181526020016000905b82821015611ca657838290600052602060002090600602016040518060c00160405290816000820160009054906101000a900473ffffffffffffffffffffffffffffffffffffffff1673ffffffffffffffffffffffffffffffffffffffff1673ffffffffffffffffffffffffffffffffffffffff168152602001600182018054611b65906131a3565b80601f0160208091040260200160405190810160405280929190818152602001828054611b91906131a3565b8015611bde5780601f10611bb357610100808354040283529160200191611bde565b820191906000526020600020905b815481529060010190602001808311611bc157829003601f168201915b50505050508152602001600282018054611bf7906131a3565b80601f0160208091040260200160405190810160405280929190818152602001828054611c23906131a3565b8015611c705780601f10611c4557610100808354040283529160200191611c70565b820191906000526020600020905b815481529060010190602001808311611c5357829003601f168201915b50505050508152602001600382015481526020016004820154815260200160058201548152505081526020019060010190611adc565b5050505081525050828281518110611cc157611cc061396e565b5b602002602001018190525080806001019150506117aa565b508091505090565b7f000000000000000000000000000000000000000000000000000000000000000081565b7f000000000000000000000000000000000000000000000000000000000000000081565b6002548210611d6d576040517f08c379a0000000000000000000000000000000000000000000000000000000008152600401611d6490612fea565b60405180910390fd5b6002811115611db1576040517f08c379a0000000000000000000000000000000000000000000000000000000008152600401611da890613a55565b60405180910390fd5b60006001600084815260200190815260200160002090508181600a0181905550827f8f91fea7c957b922286b233aacdbef39c778fbf18b1e208359140dfa65bfd3c283604051611e019190612479565b60405180910390a2505050565b600260005403611e4a576040517f3ee5aeb500000000000000000000000000000000000000000000000000000000815260040160405180910390fd5b6002600081905550565b6000808211611e98576040517f08c379a0000000000000000000000000000000000000000000000000000000008152600401611e8f90613ac1565b60405180910390fd5b7f000000000000000000000000000000000000000000000000000000000000000073ffffffffffffffffffffffffffffffffffffffff1663d0e30db0836040518263ffffffff1660e01b81526004016000604051808303818588803b158015611f0057600080fd5b505af1158015611f14573d6000803e3d6000fd5b5050505050611f647f00000000000000000000000000000000000000000000000000000000000000007f00000000000000000000000000000000000000000000000000000000000000008461214a565b60006040518061010001604052807f000000000000000000000000000000000000000000000000000000000000000073ffffffffffffffffffffffffffffffffffffffff1681526020017f000000000000000000000000000000000000000000000000000000000000000073ffffffffffffffffffffffffffffffffffffffff168152602001610bb862ffffff1681526020013073ffffffffffffffffffffffffffffffffffffffff168152602001610258426120219190613477565b815260200184815260200160008152602001600073ffffffffffffffffffffffffffffffffffffffff1681525090507f000000000000000000000000000000000000000000000000000000000000000073ffffffffffffffffffffffffffffffffffffffff1663414bf389826040518263ffffffff1660e01b81526004016120a99190613ba1565b6020604051808303816000875af11580156120c8573d6000803e3d6000fd5b505050506040513d601f19601f820116820180604052508101906120ec9190612f71565b915061213a7f00000000000000000000000000000000000000000000000000000000000000007f0000000000000000000000000000000000000000000000000000000000000000600061214a565b50919050565b6001600081905550565b6000808473ffffffffffffffffffffffffffffffffffffffff1663095ea7b360e01b858560405160240161217f929190613bbd565b604051602081830303815290604052907bffffffffffffffffffffffffffffffffffffffffffffffffffffffff19166020820180517bffffffffffffffffffffffffffffffffffffffffffffffffffffffff83818316178352505050506040516121e99190613c2d565b6000604051808303816000865af19150503d8060008114612226576040519150601f19603f3d011682016040523d82523d6000602084013e61222b565b606091505b509150915081801561225957506000815114806122585750808060200190518101906122579190613c7c565b5b5b612298576040517f08c379a000000000000000000000000000000000000000000000000000000000815260040161228f90613cf5565b60405180910390fd5b5050505050565b5080546122ab906131a3565b6000825580601f106122bd57506122dc565b601f0160209004906000526020600020908101906122db91906123cd565b5b50565b508054600082556006029060005260206000209081019061230091906123ea565b50565b6040518060c00160405280600073ffffffffffffffffffffffffffffffffffffffff16815260200160608152602001606081526020016000815260200160008152602001600081525090565b604051806101a0016040528060608152602001600073ffffffffffffffffffffffffffffffffffffffff16815260200160608152602001606081526020016060815260200160008152602001600081526020016000815260200160008152602001600081526020016000815260200160008152602001606081525090565b5b808211156123e65760008160009055506001016123ce565b5090565b5b8082111561245c57600080820160006101000a81549073ffffffffffffffffffffffffffffffffffffffff021916905560018201600061242b919061229f565b60028201600061243b919061229f565b600382016000905560048201600090556005820160009055506006016123eb565b5090565b6000819050919050565b61247381612460565b82525050565b600060208201905061248e600083018461246a565b92915050565b6000604051905090565b600080fd5b600080fd5b6124b181612460565b81146124bc57600080fd5b50565b6000813590506124ce816124a8565b92915050565b600080fd5b600080fd5b6000601f19601f8301169050919050565b7f4e487b7100000000000000000000000000000000000000000000000000000000600052604160045260246000fd5b612527826124de565b810181811067ffffffffffffffff82111715612546576125456124ef565b5b80604052505050565b6000612559612494565b9050612565828261251e565b919050565b600067ffffffffffffffff821115612585576125846124ef565b5b61258e826124de565b9050602081019050919050565b82818337600083830152505050565b60006125bd6125b88461256a565b61254f565b9050828152602081018484840111156125d9576125d86124d9565b5b6125e484828561259b565b509392505050565b600082601f830112612601576126006124d4565b5b81356126118482602086016125aa565b91505092915050565b6000806000606084860312156126335761263261249e565b5b6000612641868287016124bf565b935050602084013567ffffffffffffffff811115612662576126616124a3565b5b61266e868287016125ec565b925050604084013567ffffffffffffffff81111561268f5761268e6124a3565b5b61269b868287016125ec565b9150509250925092565b6000602082840312156126bb576126ba61249e565b5b60006126c9848285016124bf565b91505092915050565b600081519050919050565b600082825260208201905092915050565b60005b8381101561270c5780820151818401526020810190506126f1565b60008484015250505050565b6000612723826126d2565b61272d81856126dd565b935061273d8185602086016126ee565b612746816124de565b840191505092915050565b600073ffffffffffffffffffffffffffffffffffffffff82169050919050565b600061277c82612751565b9050919050565b61278c81612771565b82525050565b60006101808201905081810360008301526127ad818f612718565b90506127bc602083018e612783565b81810360408301526127ce818d612718565b905081810360608301526127e2818c612718565b905081810360808301526127f6818b612718565b905061280560a083018a61246a565b61281260c083018961246a565b61281f60e083018861246a565b61282d61010083018761246a565b61283b61012083018661246a565b61284961014083018561246a565b61285761016083018461246a565b9d9c50505050505050505050505050565b61287181612771565b811461287c57600080fd5b50565b60008135905061288e81612868565b92915050565b600080600080600080600060e0888a0312156128b3576128b261249e565b5b600088013567ffffffffffffffff8111156128d1576128d06124a3565b5b6128dd8a828b016125ec565b97505060206128ee8a828b0161287f565b965050604088013567ffffffffffffffff81111561290f5761290e6124a3565b5b61291b8a828b016125ec565b955050606088013567ffffffffffffffff81111561293c5761293b6124a3565b5b6129488a828b016125ec565b945050608088013567ffffffffffffffff811115612969576129686124a3565b5b6129758a828b016125ec565b93505060a06129868a828b016124bf565b92505060c06129978a828b016124bf565b91505092959891949750929550565b600062ffffff82169050919050565b6129be816129a6565b82525050565b60006020820190506129d960008301846129b5565b92915050565b600081519050919050565b600082825260208201905092915050565b6000819050602082019050919050565b612a1481612771565b82525050565b600082825260208201905092915050565b6000612a36826126d2565b612a408185612a1a565b9350612a508185602086016126ee565b612a59816124de565b840191505092915050565b612a6d81612460565b82525050565b600060c083016000830151612a8b6000860182612a0b565b5060208301518482036020860152612aa38282612a2b565b91505060408301518482036040860152612abd8282612a2b565b9150506060830151612ad26060860182612a64565b506080830151612ae56080860182612a64565b5060a0830151612af860a0860182612a64565b508091505092915050565b6000612b0f8383612a73565b905092915050565b6000602082019050919050565b6000612b2f826129df565b612b3981856129ea565b935083602082028501612b4b856129fb565b8060005b85811015612b875784840389528151612b688582612b03565b9450612b7383612b17565b925060208a01995050600181019050612b4f565b50829750879550505050505092915050565b60006020820190508181036000830152612bb38184612b24565b905092915050565b600060208284031215612bd157612bd061249e565b5b6000612bdf8482850161287f565b91505092915050565b6000602082019050612bfd6000830184612783565b92915050565b600081519050919050565b600082825260208201905092915050565b6000819050602082019050919050565b600082825260208201905092915050565b6000612c4b826129df565b612c558185612c2f565b935083602082028501612c67856129fb565b8060005b85811015612ca35784840389528151612c848582612b03565b9450612c8f83612b17565b925060208a01995050600181019050612c6b565b50829750879550505050505092915050565b60006101a0830160008301518482036000860152612cd38282612a2b565b9150506020830151612ce86020860182612a0b565b5060408301518482036040860152612d008282612a2b565b91505060608301518482036060860152612d1a8282612a2b565b91505060808301518482036080860152612d348282612a2b565b91505060a0830151612d4960a0860182612a64565b5060c0830151612d5c60c0860182612a64565b5060e0830151612d6f60e0860182612a64565b50610100830151612d84610100860182612a64565b50610120830151612d99610120860182612a64565b50610140830151612dae610140860182612a64565b50610160830151612dc3610160860182612a64565b50610180830151848203610180860152612ddd8282612c40565b9150508091505092915050565b6000612df68383612cb5565b905092915050565b6000602082019050919050565b6000612e1682612c03565b612e208185612c0e565b935083602082028501612e3285612c1f565b8060005b85811015612e6e5784840389528151612e4f8582612dea565b9450612e5a83612dfe565b925060208a01995050600181019050612e36565b50829750879550505050505092915050565b60006020820190508181036000830152612e9a8184612e0b565b905092915050565b6000819050919050565b6000612ec7612ec2612ebd84612751565b612ea2565b612751565b9050919050565b6000612ed982612eac565b9050919050565b6000612eeb82612ece565b9050919050565b612efb81612ee0565b82525050565b6000602082019050612f166000830184612ef2565b92915050565b60008060408385031215612f3357612f3261249e565b5b6000612f41858286016124bf565b9250506020612f52858286016124bf565b9150509250929050565b600081519050612f6b816124a8565b92915050565b600060208284031215612f8757612f8661249e565b5b6000612f9584828501612f5c565b91505092915050565b7f496e76616c69642063616d706169676e20494400000000000000000000000000600082015250565b6000612fd46013836126dd565b9150612fdf82612f9e565b602082019050919050565b6000602082019050818103600083015261300381612fc7565b9050919050565b7f446f6e6174696f6e206d7573742062652067726561746572207468616e207a6560008201527f726f000000000000000000000000000000000000000000000000000000000000602082015250565b60006130666022836126dd565b91506130718261300a565b604082019050919050565b6000602082019050818103600083015261309581613059565b9050919050565b7f43616d706169676e2069732050656e64696e6700000000000000000000000000600082015250565b60006130d26013836126dd565b91506130dd8261309c565b602082019050919050565b60006020820190508181036000830152613101816130c5565b9050919050565b7f43616d706169676e2068617320656e6465640000000000000000000000000000600082015250565b600061313e6012836126dd565b915061314982613108565b602082019050919050565b6000602082019050818103600083015261316d81613131565b9050919050565b7f4e487b7100000000000000000000000000000000000000000000000000000000600052602260045260246000fd5b600060028204905060018216806131bb57607f821691505b6020821081036131ce576131cd613174565b5b50919050565b60008190508160005260206000209050919050565b60006020601f8301049050919050565b600082821b905092915050565b6000600883026132367fffffffffffffffffffffffffffffffffffffffffffffffffffffffffffffffff826131f9565b61324086836131f9565b95508019841693508086168417925050509392505050565b600061327361326e61326984612460565b612ea2565b612460565b9050919050565b6000819050919050565b61328d83613258565b6132a16132998261327a565b848454613206565b825550505050565b600090565b6132b66132a9565b6132c1818484613284565b505050565b5b818110156132e5576132da6000826132ae565b6001810190506132c7565b5050565b601f82111561332a576132fb816131d4565b613304846131e9565b81016020851015613313578190505b61332761331f856131e9565b8301826132c6565b50505b505050565b600082821c905092915050565b600061334d6000198460080261332f565b1980831691505092915050565b6000613366838361333c565b9150826002028217905092915050565b61337f826126d2565b67ffffffffffffffff811115613398576133976124ef565b5b6133a282546131a3565b6133ad8282856132e9565b600060209050601f8311600181146133e057600084156133ce578287015190505b6133d8858261335a565b865550613440565b601f1984166133ee866131d4565b60005b82811015613416578489015182556001820191506020850194506020810190506133f1565b86831015613433578489015161342f601f89168261333c565b8355505b6001600288020188555050505b505050505050565b7f4e487b7100000000000000000000000000000000000000000000000000000000600052601160045260246000fd5b600061348282612460565b915061348d83612460565b92508282019050808211156134a5576134a4613448565b5b92915050565b600060a08201905081810360008301526134c58188612718565b905081810360208301526134d98187612718565b90506134e8604083018661246a565b6134f5606083018561246a565b613502608083018461246a565b9695505050505050565b7f4e616d652063616e6e6f7420626520656d707479000000000000000000000000600082015250565b60006135426014836126dd565b915061354d8261350c565b602082019050919050565b6000602082019050818103600083015261357181613535565b9050919050565b7f496e76616c6964206f776e657220616464726573730000000000000000000000600082015250565b60006135ae6015836126dd565b91506135b982613578565b602082019050919050565b600060208201905081810360008301526135dd816135a1565b9050919050565b7f5469746c652063616e6e6f7420626520656d7074790000000000000000000000600082015250565b600061361a6015836126dd565b9150613625826135e4565b602082019050919050565b600060208201905081810360008301526136498161360d565b9050919050565b7f4465736372697074696f6e2063616e6e6f7420626520656d7074790000000000600082015250565b6000613686601b836126dd565b915061369182613650565b602082019050919050565b600060208201905081810360008301526136b581613679565b9050919050565b7f43617465676f72792063616e6e6f7420626520656d7074790000000000000000600082015250565b60006136f26018836126dd565b91506136fd826136bc565b602082019050919050565b60006020820190508181036000830152613721816136e5565b9050919050565b7f546172676574206d7573742062652067726561746572207468616e2030000000600082015250565b600061375e601d836126dd565b915061376982613728565b602082019050919050565b6000602082019050818103600083015261378d81613751565b9050919050565b7f446561646c696e65206d75737420626520696e20746865206675747572650000600082015250565b60006137ca601e836126dd565b91506137d582613794565b602082019050919050565b600060208201905081810360008301526137f9816137bd565b9050919050565b6000606082019050613815600083018661246a565b613822602083018561246a565b61382f604083018461246a565b949350505050565b600061384282612460565b91507fffffffffffffffffffffffffffffffffffffffffffffffffffffffffffffffff820361387457613873613448565b5b600182019050919050565b600061388a82612460565b915061389583612460565b92508282039050818111156138ad576138ac613448565b5b92915050565b7f4f6e6c79207468652063616d706169676e206f776e6572206f722061646d696e60008201527f2063616e2064656c657465207468652063616d706169676e0000000000000000602082015250565b600061390f6038836126dd565b915061391a826138b3565b604082019050919050565b6000602082019050818103600083015261393e81613902565b9050919050565b600061395082612460565b91506000820361396357613962613448565b5b600182039050919050565b7f4e487b7100000000000000000000000000000000000000000000000000000000600052603260045260246000fd5b7f4e6f2063616d706169676e7320617661696c61626c6500000000000000000000600082015250565b60006139d36016836126dd565b91506139de8261399d565b602082019050919050565b60006020820190508181036000830152613a02816139c6565b9050919050565b7f496e76616c696420737461747573000000000000000000000000000000000000600082015250565b6000613a3f600e836126dd565b9150613a4a82613a09565b602082019050919050565b60006020820190508181036000830152613a6e81613a32565b9050919050565b7f416d6f756e74206d7573742062652067726561746572207468616e2030000000600082015250565b6000613aab601d836126dd565b9150613ab682613a75565b602082019050919050565b60006020820190508181036000830152613ada81613a9e565b9050919050565b613aea816129a6565b82525050565b613af981612751565b82525050565b61010082016000820151613b166000850182612a0b565b506020820151613b296020850182612a0b565b506040820151613b3c6040850182613ae1565b506060820151613b4f6060850182612a0b565b506080820151613b626080850182612a64565b5060a0820151613b7560a0850182612a64565b5060c0820151613b8860c0850182612a64565b5060e0820151613b9b60e0850182613af0565b50505050565b600061010082019050613bb76000830184613aff565b92915050565b6000604082019050613bd26000830185612783565b613bdf602083018461246a565b9392505050565b600081519050919050565b600081905092915050565b6000613c0782613be6565b613c118185613bf1565b9350613c218185602086016126ee565b80840191505092915050565b6000613c398284613bfc565b915081905092915050565b60008115159050919050565b613c5981613c44565b8114613c6457600080fd5b50565b600081519050613c7681613c50565b92915050565b600060208284031215613c9257613c9161249e565b5b6000613ca084828501613c67565b91505092915050565b7f5341000000000000000000000000000000000000000000000000000000000000600082015250565b6000613cdf6002836126dd565b9150613cea82613ca9565b602082019050919050565b60006020820190508181036000830152613d0e81613cd2565b905091905056fea26469706673582212204454c4638e37871ac15407a4e2cb780b1ea4ee9065a2250ada9711f6551ea61c64736f6c63430008180033",
  "linkReferences": {},
  "deployedLinkReferences": {}
}