{
  "_format": "hh-sol-artifact-1",
  "contractName": "CryptoBacker",
  "sourceName": "contracts/CryptoBacker.sol",
  "abi": [
    {
      "inputs": [
        {
          "internalType": "address",
          "name": "_swapRouter",
          "type": "address"
        },
        {
          "internalType": "address",
          "name": "_WETH",
          "type": "address"
        },
        {
          "internalType": "address",
          "name": "_USDC",
          "type": "address"
        },
        {
          "internalType": "address",
          "name": "_superAdmin",
          "type": "address"
        }
      ],
      "stateMutability": "nonpayable",
      "type": "constructor"
    },
    {
      "inputs": [],
      "name": "ReentrancyGuardReentrantCall",
      "type": "error"
    },
    {
      "anonymous": false,
      "inputs": [
        {
          "indexed": true,
          "internalType": "address",
          "name": "admin",
          "type": "address"
        }
      ],
      "name": "AdminAdded",
      "type": "event"
    },
    {
      "anonymous": false,
      "inputs": [
        {
          "indexed": true,
          "internalType": "address",
          "name": "admin",
          "type": "address"
        }
      ],
      "name": "AdminRemoved",
      "type": "event"
    },
    {
      "anonymous": false,
      "inputs": [
        {
          "indexed": true,
          "internalType": "uint256",
          "name": "campaignCode",
          "type": "uint256"
        },
        {
          "indexed": true,
          "internalType": "address",
          "name": "owner",
          "type": "address"
        },
        {
          "indexed": false,
          "internalType": "uint256",
          "name": "target",
          "type": "uint256"
        },
        {
          "indexed": false,
          "internalType": "uint256",
          "name": "deadline",
          "type": "uint256"
        },
        {
          "indexed": false,
          "internalType": "uint256",
          "name": "createdAt",
          "type": "uint256"
        }
      ],
      "name": "CampaignCreated",
      "type": "event"
    },
    {
      "anonymous": false,
      "inputs": [
        {
          "indexed": true,
          "internalType": "uint256",
          "name": "campaignCode",
          "type": "uint256"
        }
      ],
      "name": "CampaignDeleted",
      "type": "event"
    },
    {
      "anonymous": false,
      "inputs": [
        {
          "indexed": true,
          "internalType": "uint256",
          "name": "campaignCode",
          "type": "uint256"
        },
        {
          "indexed": false,
          "internalType": "uint256",
          "name": "newStatus",
          "type": "uint256"
        },
        {
          "indexed": true,
          "internalType": "address",
          "name": "admin",
          "type": "address"
        }
      ],
      "name": "CampaignStatusUpdated",
      "type": "event"
    },
    {
      "anonymous": false,
      "inputs": [
        {
          "indexed": true,
          "internalType": "uint256",
          "name": "campaignCode",
          "type": "uint256"
        },
        {
          "indexed": true,
          "internalType": "address",
          "name": "donor",
          "type": "address"
        },
        {
          "indexed": false,
          "internalType": "string",
          "name": "donorName",
          "type": "string"
        },
        {
          "indexed": false,
          "internalType": "string",
          "name": "donorEmail",
          "type": "string"
        },
        {
          "indexed": false,
          "internalType": "uint256",
          "name": "amountETH",
          "type": "uint256"
        },
        {
          "indexed": false,
          "internalType": "uint256",
          "name": "amountUSDC",
          "type": "uint256"
        },
        {
          "indexed": false,
          "internalType": "uint256",
          "name": "timestamp",
          "type": "uint256"
        }
      ],
      "name": "DonationReceived",
      "type": "event"
    },
    {
      "inputs": [],
      "name": "FEE_TIER",
      "outputs": [
        {
          "internalType": "uint24",
          "name": "",
          "type": "uint24"
        }
      ],
      "stateMutability": "view",
      "type": "function"
    },
    {
      "inputs": [],
      "name": "USDC",
      "outputs": [
        {
          "internalType": "address",
          "name": "",
          "type": "address"
        }
      ],
      "stateMutability": "view",
      "type": "function"
    },
    {
      "inputs": [],
      "name": "WETH",
      "outputs": [
        {
          "internalType": "address",
          "name": "",
          "type": "address"
        }
      ],
      "stateMutability": "view",
      "type": "function"
    },
    {
      "inputs": [
        {
          "internalType": "address",
          "name": "_admin",
          "type": "address"
        }
      ],
      "name": "addAdmin",
      "outputs": [],
      "stateMutability": "nonpayable",
      "type": "function"
    },
    {
      "inputs": [
        {
          "internalType": "address",
          "name": "",
          "type": "address"
        }
      ],
      "name": "admins",
      "outputs": [
        {
          "internalType": "bool",
          "name": "",
          "type": "bool"
        }
      ],
      "stateMutability": "view",
      "type": "function"
    },
    {
      "inputs": [
        {
          "internalType": "uint256",
          "name": "",
          "type": "uint256"
        }
      ],
      "name": "campaigns",
      "outputs": [
        {
          "internalType": "string",
          "name": "name",
          "type": "string"
        },
        {
          "internalType": "address",
          "name": "owner",
          "type": "address"
        },
        {
          "internalType": "string",
          "name": "category",
          "type": "string"
        },
        {
          "internalType": "string",
          "name": "title",
          "type": "string"
        },
        {
          "internalType": "string",
          "name": "description",
          "type": "string"
        },
        {
          "internalType": "uint256",
          "name": "campaignCode",
          "type": "uint256"
        },
        {
          "internalType": "uint256",
          "name": "target",
          "type": "uint256"
        },
        {
          "internalType": "uint256",
          "name": "deadline",
          "type": "uint256"
        },
        {
          "internalType": "uint256",
          "name": "amountCollectedETH",
          "type": "uint256"
        },
        {
          "internalType": "uint256",
          "name": "amountCollectedUSDC",
          "type": "uint256"
        },
        {
          "internalType": "uint256",
          "name": "status",
          "type": "uint256"
        },
        {
          "internalType": "uint256",
          "name": "createdAt",
          "type": "uint256"
        }
      ],
      "stateMutability": "view",
      "type": "function"
    },
    {
      "inputs": [
        {
          "internalType": "string",
          "name": "_name",
          "type": "string"
        },
        {
          "internalType": "address",
          "name": "_owner",
          "type": "address"
        },
        {
          "internalType": "string",
          "name": "_title",
          "type": "string"
        },
        {
          "internalType": "string",
          "name": "_description",
          "type": "string"
        },
        {
          "internalType": "string",
          "name": "_category",
          "type": "string"
        },
        {
          "internalType": "uint256",
          "name": "_target",
          "type": "uint256"
        },
        {
          "internalType": "uint256",
          "name": "_deadline",
          "type": "uint256"
        }
      ],
      "name": "createCampaign",
      "outputs": [
        {
          "internalType": "uint256",
          "name": "",
          "type": "uint256"
        }
      ],
      "stateMutability": "nonpayable",
      "type": "function"
    },
    {
      "inputs": [
        {
          "internalType": "uint256",
          "name": "_id",
          "type": "uint256"
        }
      ],
      "name": "deleteCampaign",
      "outputs": [],
      "stateMutability": "nonpayable",
      "type": "function"
    },
    {
      "inputs": [
        {
          "internalType": "uint256",
          "name": "_id",
          "type": "uint256"
        },
        {
          "internalType": "string",
          "name": "_userName",
          "type": "string"
        },
        {
          "internalType": "string",
          "name": "_userEmail",
          "type": "string"
        }
      ],
      "name": "donateToCampaign",
      "outputs": [
        {
          "internalType": "uint256",
          "name": "",
          "type": "uint256"
        }
      ],
      "stateMutability": "payable",
      "type": "function"
    },
    {
      "inputs": [],
      "name": "getCampaigns",
      "outputs": [
        {
          "components": [
            {
              "internalType": "string",
              "name": "name",
              "type": "string"
            },
            {
              "internalType": "address",
              "name": "owner",
              "type": "address"
            },
            {
              "internalType": "string",
              "name": "category",
              "type": "string"
            },
            {
              "internalType": "string",
              "name": "title",
              "type": "string"
            },
            {
              "internalType": "string",
              "name": "description",
              "type": "string"
            },
            {
              "internalType": "uint256",
              "name": "campaignCode",
              "type": "uint256"
            },
            {
              "internalType": "uint256",
              "name": "target",
              "type": "uint256"
            },
            {
              "internalType": "uint256",
              "name": "deadline",
              "type": "uint256"
            },
            {
              "internalType": "uint256",
              "name": "amountCollectedETH",
              "type": "uint256"
            },
            {
              "internalType": "uint256",
              "name": "amountCollectedUSDC",
              "type": "uint256"
            },
            {
              "internalType": "uint256",
              "name": "status",
              "type": "uint256"
            },
            {
              "internalType": "uint256",
              "name": "createdAt",
              "type": "uint256"
            },
            {
              "components": [
                {
                  "internalType": "address",
                  "name": "donor",
                  "type": "address"
                },
                {
                  "internalType": "string",
                  "name": "donorName",
                  "type": "string"
                },
                {
                  "internalType": "string",
                  "name": "donorEmail",
                  "type": "string"
                },
                {
                  "internalType": "uint256",
                  "name": "amountETH",
                  "type": "uint256"
                },
                {
                  "internalType": "uint256",
                  "name": "amountUSDC",
                  "type": "uint256"
                },
                {
                  "internalType": "uint256",
                  "name": "timestamp",
                  "type": "uint256"
                }
              ],
              "internalType": "struct CryptoBacker.Donation[]",
              "name": "donations",
              "type": "tuple[]"
            }
          ],
          "internalType": "struct CryptoBacker.Campaign[]",
          "name": "",
          "type": "tuple[]"
        }
      ],
      "stateMutability": "view",
      "type": "function"
    },
    {
      "inputs": [],
      "name": "getContractBalance",
      "outputs": [
        {
          "internalType": "uint256",
          "name": "",
          "type": "uint256"
        }
      ],
      "stateMutability": "view",
      "type": "function"
    },
    {
      "inputs": [],
      "name": "getContractUSDCBalance",
      "outputs": [
        {
          "internalType": "uint256",
          "name": "",
          "type": "uint256"
        }
      ],
      "stateMutability": "view",
      "type": "function"
    },
    {
      "inputs": [
        {
          "internalType": "uint256",
          "name": "_id",
          "type": "uint256"
        }
      ],
      "name": "getDonations",
      "outputs": [
        {
          "components": [
            {
              "internalType": "address",
              "name": "donor",
              "type": "address"
            },
            {
              "internalType": "string",
              "name": "donorName",
              "type": "string"
            },
            {
              "internalType": "string",
              "name": "donorEmail",
              "type": "string"
            },
            {
              "internalType": "uint256",
              "name": "amountETH",
              "type": "uint256"
            },
            {
              "internalType": "uint256",
              "name": "amountUSDC",
              "type": "uint256"
            },
            {
              "internalType": "uint256",
              "name": "timestamp",
              "type": "uint256"
            }
          ],
          "internalType": "struct CryptoBacker.Donation[]",
          "name": "",
          "type": "tuple[]"
        }
      ],
      "stateMutability": "view",
      "type": "function"
    },
    {
      "inputs": [
        {
          "internalType": "address",
          "name": "_user",
          "type": "address"
        }
      ],
      "name": "getUserDonationsByDate",
      "outputs": [
        {
          "components": [
            {
              "internalType": "address",
              "name": "donor",
              "type": "address"
            },
            {
              "internalType": "string",
              "name": "donorName",
              "type": "string"
            },
            {
              "internalType": "string",
              "name": "donorEmail",
              "type": "string"
            },
            {
              "internalType": "uint256",
              "name": "amountETH",
              "type": "uint256"
            },
            {
              "internalType": "uint256",
              "name": "amountUSDC",
              "type": "uint256"
            },
            {
              "internalType": "uint256",
              "name": "timestamp",
              "type": "uint256"
            }
          ],
          "internalType": "struct CryptoBacker.Donation[]",
          "name": "",
          "type": "tuple[]"
        }
      ],
      "stateMutability": "view",
      "type": "function"
    },
    {
      "inputs": [],
      "name": "numberOfCampaigns",
      "outputs": [
        {
          "internalType": "uint256",
          "name": "",
          "type": "uint256"
        }
      ],
      "stateMutability": "view",
      "type": "function"
    },
    {
      "inputs": [
        {
          "internalType": "address",
          "name": "_admin",
          "type": "address"
        }
      ],
      "name": "removeAdmin",
      "outputs": [],
      "stateMutability": "nonpayable",
      "type": "function"
    },
    {
      "inputs": [],
      "name": "superAdmin",
      "outputs": [
        {
          "internalType": "address",
          "name": "",
          "type": "address"
        }
      ],
      "stateMutability": "view",
      "type": "function"
    },
    {
      "inputs": [],
      "name": "swapRouter",
      "outputs": [
        {
          "internalType": "contract ISwapRouter",
          "name": "",
          "type": "address"
        }
      ],
      "stateMutability": "view",
      "type": "function"
    },
    {
      "inputs": [
        {
          "internalType": "uint256",
          "name": "_id",
          "type": "uint256"
        },
        {
          "internalType": "uint256",
          "name": "_newStatus",
          "type": "uint256"
        }
      ],
      "name": "updateCampaignStatus",
      "outputs": [],
      "stateMutability": "nonpayable",
      "type": "function"
    }
  ],
  "bytecode": "0x60e060405260006002553480156200001657600080fd5b50604051620048cd380380620048cd83398181016040528101906200003c9190620001ed565b60016000819055508373ffffffffffffffffffffffffffffffffffffffff1660808173ffffffffffffffffffffffffffffffffffffffff16815250508273ffffffffffffffffffffffffffffffffffffffff1660a08173ffffffffffffffffffffffffffffffffffffffff16815250508173ffffffffffffffffffffffffffffffffffffffff1660c08173ffffffffffffffffffffffffffffffffffffffff168152505080600460006101000a81548173ffffffffffffffffffffffffffffffffffffffff021916908373ffffffffffffffffffffffffffffffffffffffff1602179055506001600360008373ffffffffffffffffffffffffffffffffffffffff1673ffffffffffffffffffffffffffffffffffffffff16815260200190815260200160002060006101000a81548160ff021916908315150217905550505050506200025f565b600080fd5b600073ffffffffffffffffffffffffffffffffffffffff82169050919050565b6000620001b58262000188565b9050919050565b620001c781620001a8565b8114620001d357600080fd5b50565b600081519050620001e781620001bc565b92915050565b600080600080608085870312156200020a576200020962000183565b5b60006200021a87828801620001d6565b94505060206200022d87828801620001d6565b93505060406200024087828801620001d6565b92505060606200025387828801620001d6565b91505092959194509250565b60805160a05160c0516145ff620002ce600039600081816104af01528181611c6301526125d2015260008181612262015281816124bc015281816125400152818161259601526127150152600081816122860152818161256101528181612674015261273601526145ff6000f3fe6080604052600436106101135760003560e01c8063596d9ce2116100a057806389a302711161006457806389a30271146103d6578063a6b0363314610401578063ad5c46481461042c578063c31c9c0714610457578063eaa1b0bc1461048257610113565b8063596d9ce2146102df5780636f9fb98a1461031c578063704802751461034757806375970193146103705780637eb483c91461039957610113565b80631785f53c116100e75780631785f53c146101e65780632828f2ee1461020f57806329575f6a1461024c578063429b62e5146102775780634c69a6c9146102b457610113565b80622772c21461011857806307ca140d14610143578063131be6741461016e578063141961bc1461019e575b600080fd5b34801561012457600080fd5b5061012d6104ab565b60405161013a9190612a9b565b60405180910390f35b34801561014f57600080fd5b5061015861054c565b6040516101659190612a9b565b60405180910390f35b61018860048036038101906101839190612c3c565b610552565b6040516101959190612a9b565b60405180910390f35b3480156101aa57600080fd5b506101c560048036038101906101c09190612cc7565b61083e565b6040516101dd9c9b9a99989796959493929190612db4565b60405180910390f35b3480156101f257600080fd5b5061020d60048036038101906102089190612eb6565b610ade565b005b34801561021b57600080fd5b5061023660048036038101906102319190612ee3565b610d07565b6040516102439190612a9b565b60405180910390f35b34801561025857600080fd5b5061026161107e565b60405161026e9190612ff5565b60405180910390f35b34801561028357600080fd5b5061029e60048036038101906102999190612eb6565b6110a4565b6040516102ab919061302b565b60405180910390f35b3480156102c057600080fd5b506102c96110c4565b6040516102d69190613064565b60405180910390f35b3480156102eb57600080fd5b5061030660048036038101906103019190612cc7565b6110ca565b6040516103139190613239565b60405180910390f35b34801561032857600080fd5b5061033161131b565b60405161033e9190612a9b565b60405180910390f35b34801561035357600080fd5b5061036e60048036038101906103699190612eb6565b611323565b005b34801561037c57600080fd5b5061039760048036038101906103929190612cc7565b61154d565b005b3480156103a557600080fd5b506103c060048036038101906103bb9190612eb6565b611792565b6040516103cd9190613239565b60405180910390f35b3480156103e257600080fd5b506103eb611c61565b6040516103f89190612ff5565b60405180910390f35b34801561040d57600080fd5b50610416611c85565b60405161042391906134d8565b60405180910390f35b34801561043857600080fd5b50610441612260565b60405161044e9190612ff5565b60405180910390f35b34801561046357600080fd5b5061046c612284565b6040516104799190613559565b60405180910390f35b34801561048e57600080fd5b506104a960048036038101906104a49190613574565b6122a8565b005b60007f000000000000000000000000000000000000000000000000000000000000000073ffffffffffffffffffffffffffffffffffffffff166370a08231306040518263ffffffff1660e01b81526004016105069190612ff5565b602060405180830381865afa158015610523573d6000803e3d6000fd5b505050506040513d601f19601f8201168201806040525081019061054791906135c9565b905090565b60025481565b600061055c612430565b60025484106105a0576040517f08c379a000000000000000000000000000000000000000000000000000000000815260040161059790613642565b60405180910390fd5b600034116105e3576040517f08c379a00000000000000000000000000000000000000000000000000000000081526004016105da906136d4565b60405180910390fd5b6000600160008681526020019081526020016000209050600081600a015403610641576040517f08c379a000000000000000000000000000000000000000000000000000000000815260040161063890613740565b60405180910390fd5b80600701544210610687576040517f08c379a000000000000000000000000000000000000000000000000000000000815260040161067e906137ac565b60405180910390fd5b6000349050600061069782612476565b905082600c016040518060c001604052803373ffffffffffffffffffffffffffffffffffffffff16815260200188815260200187815260200184815260200183815260200142815250908060018154018082558091505060019003906000526020600020906006020160009091909190915060008201518160000160006101000a81548173ffffffffffffffffffffffffffffffffffffffff021916908373ffffffffffffffffffffffffffffffffffffffff160217905550602082015181600101908161076591906139ce565b50604082015181600201908161077b91906139ce565b50606082015181600301556080820151816004015560a082015181600501555050818360080160008282546107b09190613acf565b92505081905550808360090160008282546107cb9190613acf565b925050819055503373ffffffffffffffffffffffffffffffffffffffff16877f84038083661ab3698bfe2b1202fa65e8fd987cef13606f396be72c1685b8172c8888868642604051610821959493929190613b03565b60405180910390a3809350505050610837612762565b9392505050565b6001602052806000526040600020600091509050806000018054610861906137fb565b80601f016020809104026020016040519081016040528092919081815260200182805461088d906137fb565b80156108da5780601f106108af576101008083540402835291602001916108da565b820191906000526020600020905b8154815290600101906020018083116108bd57829003601f168201915b5050505050908060010160009054906101000a900473ffffffffffffffffffffffffffffffffffffffff1690806002018054610915906137fb565b80601f0160208091040260200160405190810160405280929190818152602001828054610941906137fb565b801561098e5780601f106109635761010080835404028352916020019161098e565b820191906000526020600020905b81548152906001019060200180831161097157829003601f168201915b5050505050908060030180546109a3906137fb565b80601f01602080910402602001604051908101604052809291908181526020018280546109cf906137fb565b8015610a1c5780601f106109f157610100808354040283529160200191610a1c565b820191906000526020600020905b8154815290600101906020018083116109ff57829003601f168201915b505050505090806004018054610a31906137fb565b80601f0160208091040260200160405190810160405280929190818152602001828054610a5d906137fb565b8015610aaa5780601f10610a7f57610100808354040283529160200191610aaa565b820191906000526020600020905b815481529060010190602001808311610a8d57829003601f168201915b50505050509080600501549080600601549080600701549080600801549080600901549080600a01549080600b015490508c565b600460009054906101000a900473ffffffffffffffffffffffffffffffffffffffff1673ffffffffffffffffffffffffffffffffffffffff163373ffffffffffffffffffffffffffffffffffffffff1614610b6e576040517f08c379a0000000000000000000000000000000000000000000000000000000008152600401610b6590613bd6565b60405180910390fd5b600073ffffffffffffffffffffffffffffffffffffffff168173ffffffffffffffffffffffffffffffffffffffff1603610bdd576040517f08c379a0000000000000000000000000000000000000000000000000000000008152600401610bd490613c42565b60405180910390fd5b600360008273ffffffffffffffffffffffffffffffffffffffff1673ffffffffffffffffffffffffffffffffffffffff16815260200190815260200160002060009054906101000a900460ff16610c69576040517f08c379a0000000000000000000000000000000000000000000000000000000008152600401610c6090613cae565b60405180910390fd5b6000600360008373ffffffffffffffffffffffffffffffffffffffff1673ffffffffffffffffffffffffffffffffffffffff16815260200190815260200160002060006101000a81548160ff0219169083151502179055508073ffffffffffffffffffffffffffffffffffffffff167fa3b62bc36326052d97ea62d63c3d60308ed4c3ea8ac079dd8499f1e9c4f80c0f60405160405180910390a250565b600080885111610d4c576040517f08c379a0000000000000000000000000000000000000000000000000000000008152600401610d4390613d1a565b60405180910390fd5b600073ffffffffffffffffffffffffffffffffffffffff168773ffffffffffffffffffffffffffffffffffffffff1603610dbb576040517f08c379a0000000000000000000000000000000000000000000000000000000008152600401610db290613d86565b60405180910390fd5b6000865111610dff576040517f08c379a0000000000000000000000000000000000000000000000000000000008152600401610df690613df2565b60405180910390fd5b6000855111610e43576040517f08c379a0000000000000000000000000000000000000000000000000000000008152600401610e3a90613e5e565b60405180910390fd5b6000845111610e87576040517f08c379a0000000000000000000000000000000000000000000000000000000008152600401610e7e90613eca565b60405180910390fd5b60008311610eca576040517f08c379a0000000000000000000000000000000000000000000000000000000008152600401610ec190613f36565b60405180910390fd5b428211610f0c576040517f08c379a0000000000000000000000000000000000000000000000000000000008152600401610f0390613fa2565b60405180910390fd5b60006001600060025481526020019081526020016000209050878160010160006101000a81548173ffffffffffffffffffffffffffffffffffffffff021916908373ffffffffffffffffffffffffffffffffffffffff16021790555088816000019081610f7991906139ce565b5086816003019081610f8b91906139ce565b5085816004019081610f9d91906139ce565b5084816002019081610faf91906139ce565b508381600601819055508281600701819055506000816008018190555060008160090181905550600081600a018190555060025481600501819055504281600b01819055508773ffffffffffffffffffffffffffffffffffffffff166002547f532ce22d86c3d75e9e14507fdc84d53517c2726edb5c97af3c34fb362233b07186864260405161104193929190613fc2565b60405180910390a36002600081548092919061105c90613ff9565b919050555060016002546110709190614041565b915050979650505050505050565b600460009054906101000a900473ffffffffffffffffffffffffffffffffffffffff1681565b60036020528060005260406000206000915054906101000a900460ff1681565b610bb881565b60606002548210611110576040517f08c379a000000000000000000000000000000000000000000000000000000000815260040161110790613642565b60405180910390fd5b60016000838152602001908152602001600020600c01805480602002602001604051908101604052809291908181526020016000905b8282101561131057838290600052602060002090600602016040518060c00160405290816000820160009054906101000a900473ffffffffffffffffffffffffffffffffffffffff1673ffffffffffffffffffffffffffffffffffffffff1673ffffffffffffffffffffffffffffffffffffffff1681526020016001820180546111cf906137fb565b80601f01602080910402602001604051908101604052809291908181526020018280546111fb906137fb565b80156112485780601f1061121d57610100808354040283529160200191611248565b820191906000526020600020905b81548152906001019060200180831161122b57829003601f168201915b50505050508152602001600282018054611261906137fb565b80601f016020809104026020016040519081016040528092919081815260200182805461128d906137fb565b80156112da5780601f106112af576101008083540402835291602001916112da565b820191906000526020600020905b8154815290600101906020018083116112bd57829003601f168201915b50505050508152602001600382015481526020016004820154815260200160058201548152505081526020019060010190611146565b505050509050919050565b600047905090565b600460009054906101000a900473ffffffffffffffffffffffffffffffffffffffff1673ffffffffffffffffffffffffffffffffffffffff163373ffffffffffffffffffffffffffffffffffffffff16146113b3576040517f08c379a00000000000000000000000000000000000000000000000000000000081526004016113aa90613bd6565b60405180910390fd5b600073ffffffffffffffffffffffffffffffffffffffff168173ffffffffffffffffffffffffffffffffffffffff1603611422576040517f08c379a000000000000000000000000000000000000000000000000000000000815260040161141990613c42565b60405180910390fd5b600360008273ffffffffffffffffffffffffffffffffffffffff1673ffffffffffffffffffffffffffffffffffffffff16815260200190815260200160002060009054906101000a900460ff16156114af576040517f08c379a00000000000000000000000000000000000000000000000000000000081526004016114a6906140c1565b60405180910390fd5b6001600360008373ffffffffffffffffffffffffffffffffffffffff1673ffffffffffffffffffffffffffffffffffffffff16815260200190815260200160002060006101000a81548160ff0219169083151502179055508073ffffffffffffffffffffffffffffffffffffffff167f44d6d25963f097ad14f29f06854a01f575648a1ef82f30e562ccd3889717e33960405160405180910390a250565b6002548110611591576040517f08c379a000000000000000000000000000000000000000000000000000000000815260040161158890613642565b60405180910390fd5b60006001600083815260200190815260200160002090503373ffffffffffffffffffffffffffffffffffffffff168160010160009054906101000a900473ffffffffffffffffffffffffffffffffffffffff1673ffffffffffffffffffffffffffffffffffffffff161480611645575073f39fd6e51aad88f6f4ce6ab8827279cfffb9226673ffffffffffffffffffffffffffffffffffffffff163373ffffffffffffffffffffffffffffffffffffffff16145b611684576040517f08c379a000000000000000000000000000000000000000000000000000000000815260040161167b90614153565b60405180910390fd5b60016000838152602001908152602001600020600080820160006116a891906128c1565b6001820160006101000a81549073ffffffffffffffffffffffffffffffffffffffff02191690556002820160006116df91906128c1565b6003820160006116ef91906128c1565b6004820160006116ff91906128c1565b60058201600090556006820160009055600782016000905560088201600090556009820160009055600a820160009055600b820160009055600c820160006117479190612901565b50506002600081548092919061175c90614173565b9190505550817fa61e586bd6a065bde887af9ec4705829557488d3ccdea823ab66aafd7c3aa09960405160405180910390a25050565b60606000805b600254811015611840578373ffffffffffffffffffffffffffffffffffffffff166001600083815260200190815260200160002060010160009054906101000a900473ffffffffffffffffffffffffffffffffffffffff1673ffffffffffffffffffffffffffffffffffffffff16036118335760016000828152602001908152602001600020600c0180549050826118309190613acf565b91505b8080600101915050611798565b5060008167ffffffffffffffff81111561185d5761185c612b11565b5b60405190808252806020026020018201604052801561189657816020015b611883612925565b81526020019060019003908161187b5790505b5090506000805b600254811015611b55578573ffffffffffffffffffffffffffffffffffffffff166001600083815260200190815260200160002060010160009054906101000a900473ffffffffffffffffffffffffffffffffffffffff1673ffffffffffffffffffffffffffffffffffffffff1603611b485760005b60016000838152602001908152602001600020600c0180549050811015611b465760016000838152602001908152602001600020600c01818154811061195c5761195b61419c565b5b90600052602060002090600602016040518060c00160405290816000820160009054906101000a900473ffffffffffffffffffffffffffffffffffffffff1673ffffffffffffffffffffffffffffffffffffffff1673ffffffffffffffffffffffffffffffffffffffff1681526020016001820180546119db906137fb565b80601f0160208091040260200160405190810160405280929190818152602001828054611a07906137fb565b8015611a545780601f10611a2957610100808354040283529160200191611a54565b820191906000526020600020905b815481529060010190602001808311611a3757829003601f168201915b50505050508152602001600282018054611a6d906137fb565b80601f0160208091040260200160405190810160405280929190818152602001828054611a99906137fb565b8015611ae65780601f10611abb57610100808354040283529160200191611ae6565b820191906000526020600020905b815481529060010190602001808311611ac957829003601f168201915b505050505081526020016003820154815260200160048201548152602001600582015481525050848481518110611b2057611b1f61419c565b5b60200260200101819052508280611b3690613ff9565b9350508080600101915050611913565b505b808060010191505061189d565b5060005b8251811015611c55576000600182611b719190613acf565b90505b8351811015611c4757838181518110611b9057611b8f61419c565b5b602002602001015160a00151848381518110611baf57611bae61419c565b5b602002602001015160a001511115611c3a576000848381518110611bd657611bd561419c565b5b60200260200101519050848281518110611bf357611bf261419c565b5b6020026020010151858481518110611c0e57611c0d61419c565b5b602002602001018190525080858381518110611c2d57611c2c61419c565b5b6020026020010181905250505b8080600101915050611b74565b508080600101915050611b59565b50819350505050919050565b7f000000000000000000000000000000000000000000000000000000000000000081565b6060600060025411611ccc576040517f08c379a0000000000000000000000000000000000000000000000000000000008152600401611cc390614217565b60405180910390fd5b600060025467ffffffffffffffff811115611cea57611ce9612b11565b5b604051908082528060200260200182016040528015611d2357816020015b611d10612971565b815260200190600190039081611d085790505b50905060005b6002548110156122585760016000828152602001908152602001600020604051806101a0016040529081600082018054611d62906137fb565b80601f0160208091040260200160405190810160405280929190818152602001828054611d8e906137fb565b8015611ddb5780601f10611db057610100808354040283529160200191611ddb565b820191906000526020600020905b815481529060010190602001808311611dbe57829003601f168201915b505050505081526020016001820160009054906101000a900473ffffffffffffffffffffffffffffffffffffffff1673ffffffffffffffffffffffffffffffffffffffff1673ffffffffffffffffffffffffffffffffffffffff168152602001600282018054611e4a906137fb565b80601f0160208091040260200160405190810160405280929190818152602001828054611e76906137fb565b8015611ec35780601f10611e9857610100808354040283529160200191611ec3565b820191906000526020600020905b815481529060010190602001808311611ea657829003601f168201915b50505050508152602001600382018054611edc906137fb565b80601f0160208091040260200160405190810160405280929190818152602001828054611f08906137fb565b8015611f555780601f10611f2a57610100808354040283529160200191611f55565b820191906000526020600020905b815481529060010190602001808311611f3857829003601f168201915b50505050508152602001600482018054611f6e906137fb565b80601f0160208091040260200160405190810160405280929190818152602001828054611f9a906137fb565b8015611fe75780601f10611fbc57610100808354040283529160200191611fe7565b820191906000526020600020905b815481529060010190602001808311611fca57829003601f168201915b505050505081526020016005820154815260200160068201548152602001600782015481526020016008820154815260200160098201548152602001600a8201548152602001600b8201548152602001600c8201805480602002602001604051908101604052809291908181526020016000905b8282101561222557838290600052602060002090600602016040518060c00160405290816000820160009054906101000a900473ffffffffffffffffffffffffffffffffffffffff1673ffffffffffffffffffffffffffffffffffffffff1673ffffffffffffffffffffffffffffffffffffffff1681526020016001820180546120e4906137fb565b80601f0160208091040260200160405190810160405280929190818152602001828054612110906137fb565b801561215d5780601f106121325761010080835404028352916020019161215d565b820191906000526020600020905b81548152906001019060200180831161214057829003601f168201915b50505050508152602001600282018054612176906137fb565b80601f01602080910402602001604051908101604052809291908181526020018280546121a2906137fb565b80156121ef5780601f106121c4576101008083540402835291602001916121ef565b820191906000526020600020905b8154815290600101906020018083116121d257829003601f168201915b5050505050815260200160038201548152602001600482015481526020016005820154815250508152602001906001019061205b565b50505050815250508282815181106122405761223f61419c565b5b60200260200101819052508080600101915050611d29565b508091505090565b7f000000000000000000000000000000000000000000000000000000000000000081565b7f000000000000000000000000000000000000000000000000000000000000000081565b600360003373ffffffffffffffffffffffffffffffffffffffff1673ffffffffffffffffffffffffffffffffffffffff16815260200190815260200160002060009054906101000a900460ff16612334576040517f08c379a000000000000000000000000000000000000000000000000000000000815260040161232b906142a9565b60405180910390fd5b6002548210612378576040517f08c379a000000000000000000000000000000000000000000000000000000000815260040161236f90613642565b60405180910390fd5b60028111156123bc576040517f08c379a00000000000000000000000000000000000000000000000000000000081526004016123b390614315565b60405180910390fd5b60006001600084815260200190815260200160002090508181600a01819055503373ffffffffffffffffffffffffffffffffffffffff16837f348dbeee4c55419d05597512fb802348ec093445ed30d7e306fda33dd85ea9b0846040516124239190612a9b565b60405180910390a3505050565b60026000540361246c576040517f3ee5aeb500000000000000000000000000000000000000000000000000000000815260040160405180910390fd5b6002600081905550565b60008082116124ba576040517f08c379a00000000000000000000000000000000000000000000000000000000081526004016124b190614381565b60405180910390fd5b7f000000000000000000000000000000000000000000000000000000000000000073ffffffffffffffffffffffffffffffffffffffff1663d0e30db0836040518263ffffffff1660e01b81526004016000604051808303818588803b15801561252257600080fd5b505af1158015612536573d6000803e3d6000fd5b50505050506125867f00000000000000000000000000000000000000000000000000000000000000007f00000000000000000000000000000000000000000000000000000000000000008461276c565b60006040518061010001604052807f000000000000000000000000000000000000000000000000000000000000000073ffffffffffffffffffffffffffffffffffffffff1681526020017f000000000000000000000000000000000000000000000000000000000000000073ffffffffffffffffffffffffffffffffffffffff168152602001610bb862ffffff1681526020013073ffffffffffffffffffffffffffffffffffffffff168152602001610258426126439190613acf565b815260200184815260200160008152602001600073ffffffffffffffffffffffffffffffffffffffff1681525090507f000000000000000000000000000000000000000000000000000000000000000073ffffffffffffffffffffffffffffffffffffffff1663414bf389826040518263ffffffff1660e01b81526004016126cb9190614461565b6020604051808303816000875af11580156126ea573d6000803e3d6000fd5b505050506040513d601f19601f8201168201806040525081019061270e91906135c9565b915061275c7f00000000000000000000000000000000000000000000000000000000000000007f0000000000000000000000000000000000000000000000000000000000000000600061276c565b50919050565b6001600081905550565b6000808473ffffffffffffffffffffffffffffffffffffffff1663095ea7b360e01b85856040516024016127a192919061447d565b604051602081830303815290604052907bffffffffffffffffffffffffffffffffffffffffffffffffffffffff19166020820180517bffffffffffffffffffffffffffffffffffffffffffffffffffffffff838183161783525050505060405161280b91906144ed565b6000604051808303816000865af19150503d8060008114612848576040519150601f19603f3d011682016040523d82523d6000602084013e61284d565b606091505b509150915081801561287b575060008151148061287a5750808060200190518101906128799190614530565b5b5b6128ba576040517f08c379a00000000000000000000000000000000000000000000000000000000081526004016128b1906145a9565b60405180910390fd5b5050505050565b5080546128cd906137fb565b6000825580601f106128df57506128fe565b601f0160209004906000526020600020908101906128fd91906129ef565b5b50565b50805460008255600602906000526020600020908101906129229190612a0c565b50565b6040518060c00160405280600073ffffffffffffffffffffffffffffffffffffffff16815260200160608152602001606081526020016000815260200160008152602001600081525090565b604051806101a0016040528060608152602001600073ffffffffffffffffffffffffffffffffffffffff16815260200160608152602001606081526020016060815260200160008152602001600081526020016000815260200160008152602001600081526020016000815260200160008152602001606081525090565b5b80821115612a085760008160009055506001016129f0565b5090565b5b80821115612a7e57600080820160006101000a81549073ffffffffffffffffffffffffffffffffffffffff0219169055600182016000612a4d91906128c1565b600282016000612a5d91906128c1565b60038201600090556004820160009055600582016000905550600601612a0d565b5090565b6000819050919050565b612a9581612a82565b82525050565b6000602082019050612ab06000830184612a8c565b92915050565b6000604051905090565b600080fd5b600080fd5b612ad381612a82565b8114612ade57600080fd5b50565b600081359050612af081612aca565b92915050565b600080fd5b600080fd5b6000601f19601f8301169050919050565b7f4e487b7100000000000000000000000000000000000000000000000000000000600052604160045260246000fd5b612b4982612b00565b810181811067ffffffffffffffff82111715612b6857612b67612b11565b5b80604052505050565b6000612b7b612ab6565b9050612b878282612b40565b919050565b600067ffffffffffffffff821115612ba757612ba6612b11565b5b612bb082612b00565b9050602081019050919050565b82818337600083830152505050565b6000612bdf612bda84612b8c565b612b71565b905082815260208101848484011115612bfb57612bfa612afb565b5b612c06848285612bbd565b509392505050565b600082601f830112612c2357612c22612af6565b5b8135612c33848260208601612bcc565b91505092915050565b600080600060608486031215612c5557612c54612ac0565b5b6000612c6386828701612ae1565b935050602084013567ffffffffffffffff811115612c8457612c83612ac5565b5b612c9086828701612c0e565b925050604084013567ffffffffffffffff811115612cb157612cb0612ac5565b5b612cbd86828701612c0e565b9150509250925092565b600060208284031215612cdd57612cdc612ac0565b5b6000612ceb84828501612ae1565b91505092915050565b600081519050919050565b600082825260208201905092915050565b60005b83811015612d2e578082015181840152602081019050612d13565b60008484015250505050565b6000612d4582612cf4565b612d4f8185612cff565b9350612d5f818560208601612d10565b612d6881612b00565b840191505092915050565b600073ffffffffffffffffffffffffffffffffffffffff82169050919050565b6000612d9e82612d73565b9050919050565b612dae81612d93565b82525050565b6000610180820190508181036000830152612dcf818f612d3a565b9050612dde602083018e612da5565b8181036040830152612df0818d612d3a565b90508181036060830152612e04818c612d3a565b90508181036080830152612e18818b612d3a565b9050612e2760a083018a612a8c565b612e3460c0830189612a8c565b612e4160e0830188612a8c565b612e4f610100830187612a8c565b612e5d610120830186612a8c565b612e6b610140830185612a8c565b612e79610160830184612a8c565b9d9c50505050505050505050505050565b612e9381612d93565b8114612e9e57600080fd5b50565b600081359050612eb081612e8a565b92915050565b600060208284031215612ecc57612ecb612ac0565b5b6000612eda84828501612ea1565b91505092915050565b600080600080600080600060e0888a031215612f0257612f01612ac0565b5b600088013567ffffffffffffffff811115612f2057612f1f612ac5565b5b612f2c8a828b01612c0e565b9750506020612f3d8a828b01612ea1565b965050604088013567ffffffffffffffff811115612f5e57612f5d612ac5565b5b612f6a8a828b01612c0e565b955050606088013567ffffffffffffffff811115612f8b57612f8a612ac5565b5b612f978a828b01612c0e565b945050608088013567ffffffffffffffff811115612fb857612fb7612ac5565b5b612fc48a828b01612c0e565b93505060a0612fd58a828b01612ae1565b92505060c0612fe68a828b01612ae1565b91505092959891949750929550565b600060208201905061300a6000830184612da5565b92915050565b60008115159050919050565b61302581613010565b82525050565b6000602082019050613040600083018461301c565b92915050565b600062ffffff82169050919050565b61305e81613046565b82525050565b60006020820190506130796000830184613055565b92915050565b600081519050919050565b600082825260208201905092915050565b6000819050602082019050919050565b6130b481612d93565b82525050565b600082825260208201905092915050565b60006130d682612cf4565b6130e081856130ba565b93506130f0818560208601612d10565b6130f981612b00565b840191505092915050565b61310d81612a82565b82525050565b600060c08301600083015161312b60008601826130ab565b506020830151848203602086015261314382826130cb565b9150506040830151848203604086015261315d82826130cb565b91505060608301516131726060860182613104565b5060808301516131856080860182613104565b5060a083015161319860a0860182613104565b508091505092915050565b60006131af8383613113565b905092915050565b6000602082019050919050565b60006131cf8261307f565b6131d9818561308a565b9350836020820285016131eb8561309b565b8060005b85811015613227578484038952815161320885826131a3565b9450613213836131b7565b925060208a019950506001810190506131ef565b50829750879550505050505092915050565b6000602082019050818103600083015261325381846131c4565b905092915050565b600081519050919050565b600082825260208201905092915050565b6000819050602082019050919050565b600082825260208201905092915050565b60006132a38261307f565b6132ad8185613287565b9350836020820285016132bf8561309b565b8060005b858110156132fb57848403895281516132dc85826131a3565b94506132e7836131b7565b925060208a019950506001810190506132c3565b50829750879550505050505092915050565b60006101a083016000830151848203600086015261332b82826130cb565b915050602083015161334060208601826130ab565b506040830151848203604086015261335882826130cb565b9150506060830151848203606086015261337282826130cb565b9150506080830151848203608086015261338c82826130cb565b91505060a08301516133a160a0860182613104565b5060c08301516133b460c0860182613104565b5060e08301516133c760e0860182613104565b506101008301516133dc610100860182613104565b506101208301516133f1610120860182613104565b50610140830151613406610140860182613104565b5061016083015161341b610160860182613104565b506101808301518482036101808601526134358282613298565b9150508091505092915050565b600061344e838361330d565b905092915050565b6000602082019050919050565b600061346e8261325b565b6134788185613266565b93508360208202850161348a85613277565b8060005b858110156134c657848403895281516134a78582613442565b94506134b283613456565b925060208a0199505060018101905061348e565b50829750879550505050505092915050565b600060208201905081810360008301526134f28184613463565b905092915050565b6000819050919050565b600061351f61351a61351584612d73565b6134fa565b612d73565b9050919050565b600061353182613504565b9050919050565b600061354382613526565b9050919050565b61355381613538565b82525050565b600060208201905061356e600083018461354a565b92915050565b6000806040838503121561358b5761358a612ac0565b5b600061359985828601612ae1565b92505060206135aa85828601612ae1565b9150509250929050565b6000815190506135c381612aca565b92915050565b6000602082840312156135df576135de612ac0565b5b60006135ed848285016135b4565b91505092915050565b7f496e76616c69642063616d706169676e20494400000000000000000000000000600082015250565b600061362c601383612cff565b9150613637826135f6565b602082019050919050565b6000602082019050818103600083015261365b8161361f565b9050919050565b7f446f6e6174696f6e206d7573742062652067726561746572207468616e207a6560008201527f726f000000000000000000000000000000000000000000000000000000000000602082015250565b60006136be602283612cff565b91506136c982613662565b604082019050919050565b600060208201905081810360008301526136ed816136b1565b9050919050565b7f43616d706169676e2069732050656e64696e6700000000000000000000000000600082015250565b600061372a601383612cff565b9150613735826136f4565b602082019050919050565b600060208201905081810360008301526137598161371d565b9050919050565b7f43616d706169676e2068617320656e6465640000000000000000000000000000600082015250565b6000613796601283612cff565b91506137a182613760565b602082019050919050565b600060208201905081810360008301526137c581613789565b9050919050565b7f4e487b7100000000000000000000000000000000000000000000000000000000600052602260045260246000fd5b6000600282049050600182168061381357607f821691505b602082108103613826576138256137cc565b5b50919050565b60008190508160005260206000209050919050565b60006020601f8301049050919050565b600082821b905092915050565b60006008830261388e7fffffffffffffffffffffffffffffffffffffffffffffffffffffffffffffffff82613851565b6138988683613851565b95508019841693508086168417925050509392505050565b60006138cb6138c66138c184612a82565b6134fa565b612a82565b9050919050565b6000819050919050565b6138e5836138b0565b6138f96138f1826138d2565b84845461385e565b825550505050565b600090565b61390e613901565b6139198184846138dc565b505050565b5b8181101561393d57613932600082613906565b60018101905061391f565b5050565b601f821115613982576139538161382c565b61395c84613841565b8101602085101561396b578190505b61397f61397785613841565b83018261391e565b50505b505050565b600082821c905092915050565b60006139a560001984600802613987565b1980831691505092915050565b60006139be8383613994565b9150826002028217905092915050565b6139d782612cf4565b67ffffffffffffffff8111156139f0576139ef612b11565b5b6139fa82546137fb565b613a05828285613941565b600060209050601f831160018114613a385760008415613a26578287015190505b613a3085826139b2565b865550613a98565b601f198416613a468661382c565b60005b82811015613a6e57848901518255600182019150602085019450602081019050613a49565b86831015613a8b5784890151613a87601f891682613994565b8355505b6001600288020188555050505b505050505050565b7f4e487b7100000000000000000000000000000000000000000000000000000000600052601160045260246000fd5b6000613ada82612a82565b9150613ae583612a82565b9250828201905080821115613afd57613afc613aa0565b5b92915050565b600060a0820190508181036000830152613b1d8188612d3a565b90508181036020830152613b318187612d3a565b9050613b406040830186612a8c565b613b4d6060830185612a8c565b613b5a6080830184612a8c565b9695505050505050565b7f4f6e6c79207468652073757065722061646d696e2063616e20706572666f726d60008201527f207468697320616374696f6e0000000000000000000000000000000000000000602082015250565b6000613bc0602c83612cff565b9150613bcb82613b64565b604082019050919050565b60006020820190508181036000830152613bef81613bb3565b9050919050565b7f496e76616c69642061646d696e20616464726573730000000000000000000000600082015250565b6000613c2c601583612cff565b9150613c3782613bf6565b602082019050919050565b60006020820190508181036000830152613c5b81613c1f565b9050919050565b7f41646d696e20646f6573206e6f74206578697374000000000000000000000000600082015250565b6000613c98601483612cff565b9150613ca382613c62565b602082019050919050565b60006020820190508181036000830152613cc781613c8b565b9050919050565b7f4e616d652063616e6e6f7420626520656d707479000000000000000000000000600082015250565b6000613d04601483612cff565b9150613d0f82613cce565b602082019050919050565b60006020820190508181036000830152613d3381613cf7565b9050919050565b7f496e76616c6964206f776e657220616464726573730000000000000000000000600082015250565b6000613d70601583612cff565b9150613d7b82613d3a565b602082019050919050565b60006020820190508181036000830152613d9f81613d63565b9050919050565b7f5469746c652063616e6e6f7420626520656d7074790000000000000000000000600082015250565b6000613ddc601583612cff565b9150613de782613da6565b602082019050919050565b60006020820190508181036000830152613e0b81613dcf565b9050919050565b7f4465736372697074696f6e2063616e6e6f7420626520656d7074790000000000600082015250565b6000613e48601b83612cff565b9150613e5382613e12565b602082019050919050565b60006020820190508181036000830152613e7781613e3b565b9050919050565b7f43617465676f72792063616e6e6f7420626520656d7074790000000000000000600082015250565b6000613eb4601883612cff565b9150613ebf82613e7e565b602082019050919050565b60006020820190508181036000830152613ee381613ea7565b9050919050565b7f546172676574206d7573742062652067726561746572207468616e2030000000600082015250565b6000613f20601d83612cff565b9150613f2b82613eea565b602082019050919050565b60006020820190508181036000830152613f4f81613f13565b9050919050565b7f446561646c696e65206d75737420626520696e20746865206675747572650000600082015250565b6000613f8c601e83612cff565b9150613f9782613f56565b602082019050919050565b60006020820190508181036000830152613fbb81613f7f565b9050919050565b6000606082019050613fd76000830186612a8c565b613fe46020830185612a8c565b613ff16040830184612a8c565b949350505050565b600061400482612a82565b91507fffffffffffffffffffffffffffffffffffffffffffffffffffffffffffffffff820361403657614035613aa0565b5b600182019050919050565b600061404c82612a82565b915061405783612a82565b925082820390508181111561406f5761406e613aa0565b5b92915050565b7f41646d696e20616c726561647920657869737473000000000000000000000000600082015250565b60006140ab601483612cff565b91506140b682614075565b602082019050919050565b600060208201905081810360008301526140da8161409e565b9050919050565b7f4f6e6c79207468652063616d706169676e206f776e6572206f722061646d696e60008201527f2063616e2064656c657465207468652063616d706169676e0000000000000000602082015250565b600061413d603883612cff565b9150614148826140e1565b604082019050919050565b6000602082019050818103600083015261416c81614130565b9050919050565b600061417e82612a82565b91506000820361419157614190613aa0565b5b600182039050919050565b7f4e487b7100000000000000000000000000000000000000000000000000000000600052603260045260246000fd5b7f4e6f2063616d706169676e7320617661696c61626c6500000000000000000000600082015250565b6000614201601683612cff565b915061420c826141cb565b602082019050919050565b60006020820190508181036000830152614230816141f4565b9050919050565b7f4f6e6c792061646d696e732063616e20706572666f726d20746869732061637460008201527f696f6e0000000000000000000000000000000000000000000000000000000000602082015250565b6000614293602383612cff565b915061429e82614237565b604082019050919050565b600060208201905081810360008301526142c281614286565b9050919050565b7f496e76616c696420737461747573000000000000000000000000000000000000600082015250565b60006142ff600e83612cff565b915061430a826142c9565b602082019050919050565b6000602082019050818103600083015261432e816142f2565b9050919050565b7f416d6f756e74206d7573742062652067726561746572207468616e2030000000600082015250565b600061436b601d83612cff565b915061437682614335565b602082019050919050565b6000602082019050818103600083015261439a8161435e565b9050919050565b6143aa81613046565b82525050565b6143b981612d73565b82525050565b610100820160008201516143d660008501826130ab565b5060208201516143e960208501826130ab565b5060408201516143fc60408501826143a1565b50606082015161440f60608501826130ab565b5060808201516144226080850182613104565b5060a082015161443560a0850182613104565b5060c082015161444860c0850182613104565b5060e082015161445b60e08501826143b0565b50505050565b60006101008201905061447760008301846143bf565b92915050565b60006040820190506144926000830185612da5565b61449f6020830184612a8c565b9392505050565b600081519050919050565b600081905092915050565b60006144c7826144a6565b6144d181856144b1565b93506144e1818560208601612d10565b80840191505092915050565b60006144f982846144bc565b915081905092915050565b61450d81613010565b811461451857600080fd5b50565b60008151905061452a81614504565b92915050565b60006020828403121561454657614545612ac0565b5b60006145548482850161451b565b91505092915050565b7f5341000000000000000000000000000000000000000000000000000000000000600082015250565b6000614593600283612cff565b915061459e8261455d565b602082019050919050565b600060208201905081810360008301526145c281614586565b905091905056fea2646970667358221220ff9252a61eb6a768e887a84093c14f499fed4643228e2acb46bb196a81f6bb5264736f6c63430008180033",
  "linkReferences": {},
  "deployedLinkReferences": {}
}