{
  "_format": "hh-sol-artifact-1",
  "contractName": "CryptoBacker",
  "sourceName": "contracts/CryptoBacker.sol",
  "abi": [
    {
      "inputs": [
        {
          "internalType": "address",
          "name": "_swapRouter",
          "type": "address"
        },
        {
          "internalType": "address",
          "name": "_WETH",
          "type": "address"
        },
        {
          "internalType": "address",
          "name": "_USDC",
          "type": "address"
        }
      ],
      "stateMutability": "nonpayable",
      "type": "constructor"
    },
    {
      "inputs": [],
      "name": "ReentrancyGuardReentrantCall",
      "type": "error"
    },
    {
      "anonymous": false,
      "inputs": [
        {
          "indexed": true,
          "internalType": "uint256",
          "name": "campaignCode",
          "type": "uint256"
        },
        {
          "indexed": true,
          "internalType": "address",
          "name": "owner",
          "type": "address"
        },
        {
          "indexed": false,
          "internalType": "uint256",
          "name": "target",
          "type": "uint256"
        },
        {
          "indexed": false,
          "internalType": "uint256",
          "name": "deadline",
          "type": "uint256"
        },
        {
          "indexed": false,
          "internalType": "uint256",
          "name": "createdAt",
          "type": "uint256"
        }
      ],
      "name": "CampaignCreated",
      "type": "event"
    },
    {
      "anonymous": false,
      "inputs": [
        {
          "indexed": true,
          "internalType": "uint256",
          "name": "campaignCode",
          "type": "uint256"
        }
      ],
      "name": "CampaignDeleted",
      "type": "event"
    },
    {
      "anonymous": false,
      "inputs": [
        {
          "indexed": true,
          "internalType": "uint256",
          "name": "campaignCode",
          "type": "uint256"
        },
        {
          "indexed": false,
          "internalType": "uint256",
          "name": "newStatus",
          "type": "uint256"
        }
      ],
      "name": "CampaignStatusUpdated",
      "type": "event"
    },
    {
      "anonymous": false,
      "inputs": [
        {
          "indexed": true,
          "internalType": "uint256",
          "name": "campaignCode",
          "type": "uint256"
        },
        {
          "indexed": true,
          "internalType": "address",
          "name": "donor",
          "type": "address"
        },
        {
          "indexed": false,
          "internalType": "string",
          "name": "donorName",
          "type": "string"
        },
        {
          "indexed": false,
          "internalType": "string",
          "name": "donorEmail",
          "type": "string"
        },
        {
          "indexed": false,
          "internalType": "uint256",
          "name": "amountETH",
          "type": "uint256"
        },
        {
          "indexed": false,
          "internalType": "uint256",
          "name": "amountUSDC",
          "type": "uint256"
        },
        {
          "indexed": false,
          "internalType": "uint256",
          "name": "timestamp",
          "type": "uint256"
        }
      ],
      "name": "DonationReceived",
      "type": "event"
    },
    {
      "anonymous": false,
      "inputs": [
        {
          "indexed": true,
          "internalType": "uint256",
          "name": "campaignCode",
          "type": "uint256"
        },
        {
          "indexed": false,
          "internalType": "uint256",
          "name": "feeAmount",
          "type": "uint256"
        }
      ],
      "name": "PlatformFeePaid",
      "type": "event"
    },
    {
      "anonymous": false,
      "inputs": [
        {
          "indexed": true,
          "internalType": "uint256",
          "name": "campaignCode",
          "type": "uint256"
        },
        {
          "indexed": false,
          "internalType": "address",
          "name": "recipient",
          "type": "address"
        },
        {
          "indexed": false,
          "internalType": "uint256",
          "name": "amount",
          "type": "uint256"
        },
        {
          "indexed": false,
          "internalType": "uint256",
          "name": "timestamp",
          "type": "uint256"
        }
      ],
      "name": "WithdrawalMade",
      "type": "event"
    },
    {
      "inputs": [],
      "name": "FEE_TIER",
      "outputs": [
        {
          "internalType": "uint24",
          "name": "",
          "type": "uint24"
        }
      ],
      "stateMutability": "view",
      "type": "function"
    },
    {
      "inputs": [],
      "name": "PLATFORM_FEE",
      "outputs": [
        {
          "internalType": "uint256",
          "name": "",
          "type": "uint256"
        }
      ],
      "stateMutability": "view",
      "type": "function"
    },
    {
      "inputs": [],
      "name": "USDC",
      "outputs": [
        {
          "internalType": "address",
          "name": "",
          "type": "address"
        }
      ],
      "stateMutability": "view",
      "type": "function"
    },
    {
      "inputs": [],
      "name": "WETH",
      "outputs": [
        {
          "internalType": "address",
          "name": "",
          "type": "address"
        }
      ],
      "stateMutability": "view",
      "type": "function"
    },
    {
      "inputs": [
        {
          "internalType": "uint256",
          "name": "",
          "type": "uint256"
        }
      ],
      "name": "campaigns",
      "outputs": [
        {
          "internalType": "string",
          "name": "name",
          "type": "string"
        },
        {
          "internalType": "address",
          "name": "owner",
          "type": "address"
        },
        {
          "internalType": "string",
          "name": "category",
          "type": "string"
        },
        {
          "internalType": "string",
          "name": "title",
          "type": "string"
        },
        {
          "internalType": "string",
          "name": "description",
          "type": "string"
        },
        {
          "internalType": "uint256",
          "name": "campaignCode",
          "type": "uint256"
        },
        {
          "internalType": "uint256",
          "name": "target",
          "type": "uint256"
        },
        {
          "internalType": "uint256",
          "name": "deadline",
          "type": "uint256"
        },
        {
          "internalType": "uint256",
          "name": "amountCollectedETH",
          "type": "uint256"
        },
        {
          "internalType": "uint256",
          "name": "amountCollectedUSDC",
          "type": "uint256"
        },
        {
          "internalType": "uint256",
          "name": "status",
          "type": "uint256"
        },
        {
          "internalType": "uint256",
          "name": "createdAt",
          "type": "uint256"
        },
        {
          "internalType": "uint256",
          "name": "withdrawnAmount",
          "type": "uint256"
        },
        {
          "internalType": "bool",
          "name": "feePaid",
          "type": "bool"
        }
      ],
      "stateMutability": "view",
      "type": "function"
    },
    {
      "inputs": [
        {
          "internalType": "string",
          "name": "_name",
          "type": "string"
        },
        {
          "internalType": "address",
          "name": "_owner",
          "type": "address"
        },
        {
          "internalType": "string",
          "name": "_title",
          "type": "string"
        },
        {
          "internalType": "string",
          "name": "_description",
          "type": "string"
        },
        {
          "internalType": "string",
          "name": "_category",
          "type": "string"
        },
        {
          "internalType": "uint256",
          "name": "_target",
          "type": "uint256"
        },
        {
          "internalType": "uint256",
          "name": "_deadline",
          "type": "uint256"
        }
      ],
      "name": "createCampaign",
      "outputs": [
        {
          "internalType": "uint256",
          "name": "",
          "type": "uint256"
        }
      ],
      "stateMutability": "nonpayable",
      "type": "function"
    },
    {
      "inputs": [
        {
          "internalType": "uint256",
          "name": "_id",
          "type": "uint256"
        }
      ],
      "name": "deleteCampaign",
      "outputs": [],
      "stateMutability": "nonpayable",
      "type": "function"
    },
    {
      "inputs": [
        {
          "internalType": "uint256",
          "name": "_id",
          "type": "uint256"
        },
        {
          "internalType": "string",
          "name": "_userName",
          "type": "string"
        },
        {
          "internalType": "string",
          "name": "_userEmail",
          "type": "string"
        }
      ],
      "name": "donateToCampaign",
      "outputs": [
        {
          "internalType": "uint256",
          "name": "",
          "type": "uint256"
        }
      ],
      "stateMutability": "payable",
      "type": "function"
    },
    {
      "inputs": [],
      "name": "getCampaigns",
      "outputs": [
        {
          "components": [
            {
              "internalType": "string",
              "name": "name",
              "type": "string"
            },
            {
              "internalType": "address",
              "name": "owner",
              "type": "address"
            },
            {
              "internalType": "string",
              "name": "category",
              "type": "string"
            },
            {
              "internalType": "string",
              "name": "title",
              "type": "string"
            },
            {
              "internalType": "string",
              "name": "description",
              "type": "string"
            },
            {
              "internalType": "uint256",
              "name": "campaignCode",
              "type": "uint256"
            },
            {
              "internalType": "uint256",
              "name": "target",
              "type": "uint256"
            },
            {
              "internalType": "uint256",
              "name": "deadline",
              "type": "uint256"
            },
            {
              "internalType": "uint256",
              "name": "amountCollectedETH",
              "type": "uint256"
            },
            {
              "internalType": "uint256",
              "name": "amountCollectedUSDC",
              "type": "uint256"
            },
            {
              "internalType": "uint256",
              "name": "status",
              "type": "uint256"
            },
            {
              "internalType": "uint256",
              "name": "createdAt",
              "type": "uint256"
            },
            {
              "components": [
                {
                  "internalType": "address",
                  "name": "donor",
                  "type": "address"
                },
                {
                  "internalType": "string",
                  "name": "donorName",
                  "type": "string"
                },
                {
                  "internalType": "string",
                  "name": "donorEmail",
                  "type": "string"
                },
                {
                  "internalType": "uint256",
                  "name": "amountETH",
                  "type": "uint256"
                },
                {
                  "internalType": "uint256",
                  "name": "amountUSDC",
                  "type": "uint256"
                },
                {
                  "internalType": "uint256",
                  "name": "timestamp",
                  "type": "uint256"
                }
              ],
              "internalType": "struct CryptoBacker.Donation[]",
              "name": "donations",
              "type": "tuple[]"
            },
            {
              "internalType": "uint256",
              "name": "withdrawnAmount",
              "type": "uint256"
            },
            {
              "internalType": "bool",
              "name": "feePaid",
              "type": "bool"
            }
          ],
          "internalType": "struct CryptoBacker.Campaign[]",
          "name": "",
          "type": "tuple[]"
        }
      ],
      "stateMutability": "view",
      "type": "function"
    },
    {
      "inputs": [],
      "name": "getContractBalance",
      "outputs": [
        {
          "internalType": "uint256",
          "name": "",
          "type": "uint256"
        }
      ],
      "stateMutability": "view",
      "type": "function"
    },
    {
      "inputs": [],
      "name": "getContractUSDCBalance",
      "outputs": [
        {
          "internalType": "uint256",
          "name": "",
          "type": "uint256"
        }
      ],
      "stateMutability": "view",
      "type": "function"
    },
    {
      "inputs": [
        {
          "internalType": "uint256",
          "name": "_id",
          "type": "uint256"
        }
      ],
      "name": "getDonations",
      "outputs": [
        {
          "components": [
            {
              "internalType": "address",
              "name": "donor",
              "type": "address"
            },
            {
              "internalType": "string",
              "name": "donorName",
              "type": "string"
            },
            {
              "internalType": "string",
              "name": "donorEmail",
              "type": "string"
            },
            {
              "internalType": "uint256",
              "name": "amountETH",
              "type": "uint256"
            },
            {
              "internalType": "uint256",
              "name": "amountUSDC",
              "type": "uint256"
            },
            {
              "internalType": "uint256",
              "name": "timestamp",
              "type": "uint256"
            }
          ],
          "internalType": "struct CryptoBacker.Donation[]",
          "name": "",
          "type": "tuple[]"
        }
      ],
      "stateMutability": "view",
      "type": "function"
    },
    {
      "inputs": [
        {
          "internalType": "address",
          "name": "_address",
          "type": "address"
        }
      ],
      "name": "getUSDCBalance",
      "outputs": [
        {
          "internalType": "uint256",
          "name": "",
          "type": "uint256"
        }
      ],
      "stateMutability": "view",
      "type": "function"
    },
    {
      "inputs": [
        {
          "internalType": "address",
          "name": "_user",
          "type": "address"
        }
      ],
      "name": "getUserDonationsByDate",
      "outputs": [
        {
          "components": [
            {
              "internalType": "address",
              "name": "donor",
              "type": "address"
            },
            {
              "internalType": "string",
              "name": "donorName",
              "type": "string"
            },
            {
              "internalType": "string",
              "name": "donorEmail",
              "type": "string"
            },
            {
              "internalType": "uint256",
              "name": "amountETH",
              "type": "uint256"
            },
            {
              "internalType": "uint256",
              "name": "amountUSDC",
              "type": "uint256"
            },
            {
              "internalType": "uint256",
              "name": "timestamp",
              "type": "uint256"
            }
          ],
          "internalType": "struct CryptoBacker.Donation[]",
          "name": "",
          "type": "tuple[]"
        }
      ],
      "stateMutability": "view",
      "type": "function"
    },
    {
      "inputs": [],
      "name": "getWithdrawals",
      "outputs": [
        {
          "components": [
            {
              "internalType": "address",
              "name": "recipient",
              "type": "address"
            },
            {
              "internalType": "uint256",
              "name": "amount",
              "type": "uint256"
            },
            {
              "internalType": "uint256",
              "name": "campaignCode",
              "type": "uint256"
            },
            {
              "internalType": "uint256",
              "name": "timestamp",
              "type": "uint256"
            }
          ],
          "internalType": "struct CryptoBacker.Withdrawal[]",
          "name": "",
          "type": "tuple[]"
        }
      ],
      "stateMutability": "view",
      "type": "function"
    },
    {
      "inputs": [],
      "name": "numberOfCampaigns",
      "outputs": [
        {
          "internalType": "uint256",
          "name": "",
          "type": "uint256"
        }
      ],
      "stateMutability": "view",
      "type": "function"
    },
    {
      "inputs": [],
      "name": "swapRouter",
      "outputs": [
        {
          "internalType": "contract ISwapRouter",
          "name": "",
          "type": "address"
        }
      ],
      "stateMutability": "view",
      "type": "function"
    },
    {
      "inputs": [
        {
          "internalType": "uint256",
          "name": "_id",
          "type": "uint256"
        },
        {
          "internalType": "uint256",
          "name": "_newStatus",
          "type": "uint256"
        }
      ],
      "name": "updateCampaignStatus",
      "outputs": [],
      "stateMutability": "nonpayable",
      "type": "function"
    },
    {
      "inputs": [
        {
          "internalType": "uint256",
          "name": "_campaignCode",
          "type": "uint256"
        },
        {
          "internalType": "uint256",
          "name": "_amount",
          "type": "uint256"
        }
      ],
      "name": "withdraw",
      "outputs": [],
      "stateMutability": "nonpayable",
      "type": "function"
    },
    {
      "inputs": [
        {
          "internalType": "uint256",
          "name": "_campaignCode",
          "type": "uint256"
        }
      ],
      "name": "withdrawAll",
      "outputs": [],
      "stateMutability": "nonpayable",
      "type": "function"
    },
    {
      "inputs": [
        {
          "internalType": "uint256",
          "name": "_campaignCode",
          "type": "uint256"
        }
      ],
      "name": "withdrawableAmount",
      "outputs": [
        {
          "internalType": "uint256",
          "name": "",
          "type": "uint256"
        }
      ],
      "stateMutability": "view",
      "type": "function"
    },
    {
      "inputs": [
        {
          "internalType": "uint256",
          "name": "",
          "type": "uint256"
        }
      ],
      "name": "withdrawals",
      "outputs": [
        {
          "internalType": "address",
          "name": "recipient",
          "type": "address"
        },
        {
          "internalType": "uint256",
          "name": "amount",
          "type": "uint256"
        },
        {
          "internalType": "uint256",
          "name": "campaignCode",
          "type": "uint256"
        },
        {
          "internalType": "uint256",
          "name": "timestamp",
          "type": "uint256"
        }
      ],
      "stateMutability": "view",
      "type": "function"
    }
  ],
  "bytecode": "0x60e0604052346200008b576200001f620000186200014e565b91620001ca565b60405161350e6200021b8239608051818181610ebc015261324c015260a051818181610e4001526131d8015260c051818181610bd801528181610f4f01528181611d3f01528181611eae0152818161219201528181612ae201528181612bb40152613285015261350e90f35b600080fd5b634e487b7160e01b600052604160045260246000fd5b90601f01601f191681019081106001600160401b03821117620000c857604052565b62000090565b90620000e5620000dd60405190565b9283620000a6565b565b6001600160a01b031690565b90565b6001600160a01b038116036200008b57565b90505190620000e582620000f6565b90916060828403126200008b57620000f362000134848462000108565b93604062000146826020870162000108565b940162000108565b6200017162003729803803806200016581620000ce565b92833981019062000117565b909192565b620000f3620000f3620000f39290565b90620000f3620000f36200019a9262000176565b9055565b620000f390620000e7906001600160a01b031682565b620000f3906200019e565b620000f390620001b4565b620001ed90620001d962000204565b620001e76000600262000186565b620001bf565b60805260a05260c052565b620000f3600162000176565b620000e562000212620001f8565b60006200018656fe6080604052600436101561001257600080fd5b60003560e01c80622772c21461017157806307ca140d1461016c578063131be67414610167578063141961bc146101625780632828f2ee1461015d57806334fbc9a114610158578063441a3e70146101535780634c69a6c91461014e57806350d6c1e814610149578063596d9ce2146101445780635cc070761461013f578063680247171461013a5780636f9fb98a1461013557806375970193146101305780637eb483c91461012b57806389a3027114610126578063958e2d3114610121578063a6b036331461011c578063ad5c464814610117578063c31c9c0714610112578063d0cee66a1461010d5763eaa1b0bc0361017657610efc565b610ee1565b610ea3565b610e2b565b610e04565b610c04565b610bc3565b610b98565b610b80565b610b65565b610b4a565b610b05565b610a20565b61090b565b61082a565b6107e4565b6107ad565b610779565b610671565b61032f565b6101e1565b61018c565b600080fd5b600091031261017657565b9052565b565b346101765761019c36600461017b565b6101b86101a7610f42565b6040515b9182918290815260200190565b0390f35b6101c7916008021c81565b90565b906101c791546101bc565b6101c7600060026101ca565b34610176576101f136600461017b565b6101b86101a76101d5565b805b0361017657565b9050359061018a826101fc565b634e487b7160e01b600052604160045260246000fd5b90601f01601f1916810190811067ffffffffffffffff82111761024a57604052565b610212565b9061018a61025c60405190565b9283610228565b67ffffffffffffffff811161024a57602090601f01601f19160190565b0190565b90826000939282370152565b909291926102a56102a082610263565b61024f565b93818552818301116101765761018a916020850190610284565b9080601f83011215610176578160206101c793359101610290565b91606083830312610176576102ef8284610205565b92602081013567ffffffffffffffff811161017657836103109183016102bf565b92604082013567ffffffffffffffff8111610176576101c792016102bf565b6101b86101a76103403660046102da565b91611621565b90602082820312610176576101c791610205565b6101c76101c76101c79290565b906103719061035a565b600052602052604060002090565b634e487b7160e01b600052602260045260246000fd5b90600160028304921680156103b5575b60208310146103b057565b61037f565b91607f16916103a5565b805460009392916103dc6103d283610395565b8085529360200190565b916001811690811561042e57506001146103f557505050565b6104089192939450600052602060002090565b916000925b81841061041a5750500190565b80548484015260209093019260010161040d565b92949550505060ff1916825215156020020190565b906101c7916103bf565b9061018a6104679261045e60405190565b93848092610443565b0383610228565b6101c7905b6001600160a01b031690565b6101c7905461046e565b6101c79081565b6101c79054610489565b60ff1690565b6101c7905461049a565b6104b5906001610367565b906104bf8261044d565b916104cc6001820161047f565b916104d96002830161044d565b916104e66003820161044d565b916104f36004830161044d565b9161050060058201610490565b9161050d60068301610490565b9161051a60078201610490565b9161052760088301610490565b9161053460098201610490565b91610541600a8301610490565b9161054e600b8201610490565b916101c7600e610560600d8501610490565b93016104a0565b60005b83811061057a5750506000910152565b818101518382015260200161056a565b6105ab6105b46020936102809361059f815190565b80835293849260200190565b95869101610567565b601f01601f191690565b61018690610473565b9b9997959e9d9c9a989694939291906101c08d018d80820390600001526105ed9161058a565b9060208d016105fb916105be565b8b810360408d015261060c9161058a565b8a810360608c015261061d9161058a565b89810360808b015261062e9161058a565b9a60a0890161063b919052565b60c088015260e08701526101008601526101208501526101408401526101608301526101808201526101a00161018a9115159052565b34610176576101b861068c610687366004610346565b6104aa565b9a6106a89e9c9e9a919a99929998939897949796959660405190565b9e8f9e8f6105c7565b6101fe81610473565b9050359061018a826106b1565b60e08183031261017657803567ffffffffffffffff811161017657826106ee9183016102bf565b926106fc83602084016106ba565b92604083013567ffffffffffffffff8111610176578161071d9185016102bf565b92606081013567ffffffffffffffff8111610176578261073e9183016102bf565b92608082013567ffffffffffffffff811161017657610762846101c79285016102bf565b9360c06107728260a08701610205565b9401610205565b34610176576101b86101a761078f3660046106c7565b959490949391936118c6565b6101c7600561035a565b6101c761079b565b34610176576107bd36600461017b565b6101b86101a76107a5565b9190604083820312610176576101c79060206107728286610205565b34610176576107fd6107f73660046107c8565b90611f74565b604051005b61080f6101c76101c79290565b62ffffff1690565b6101c7610bb8610802565b6101c7610817565b346101765761083a36600461017b565b6101b8610845610822565b6040519182918262ffffff909116815260200190565b9060608061018a93610875600082015160008601906105be565b61088460208201516020860152565b61089360408201516040860152565b0151910152565b906102808160809361085b565b906108c76108c06108b6845190565b8084529260200190565b9260200190565b9060005b8181106108d85750505090565b9091926108f26108eb600192865161089a565b9460200190565b9291016108cb565b60208082526101c7929101906108a7565b346101765761091b36600461017b565b6101b861092661206c565b604051918291826108fa565b906101c79060a08061097a61096860c08501610956600089015160008801906105be565b6020880151868203602088015261058a565b6040870151858203604087015261058a565b9461098a60608201516060860152565b61089360808201516080860152565b906101c791610932565b906109b96109af835190565b8083529160200190565b90816109cb6020830284019460200190565b926000915b8383106109df57505050505090565b90919293946020610a026109fb83856001950387528951610999565b9760200190565b93019301919392906109d0565b60208082526101c7929101906109a3565b34610176576101b8610a3b610a36366004610346565b61214c565b60405191829182610a0f565b634e487b7160e01b600052603260045260246000fd5b8054821015610a8057610a77600491600052602060002090565b91020190600090565b610a47565b600390610a90825490565b81101561017657610aa091610a5d565b5090610aab8261047f565b91610ab860018201610490565b916101c76003610aca60028501610490565b9301610490565b610b0161018a94610afa606094989795610af3608086019a60008701906105be565b6020850152565b6040830152565b0152565b34610176576101b8610b20610b1b366004610346565b610a85565b90610b2d94929460405190565b94859485610ad1565b90602082820312610176576101c7916106ba565b34610176576101b86101a7610b60366004610b36565b61217b565b3461017657610b7536600461017b565b6101b86101a76121be565b34610176576107fd610b93366004610346565b6125b4565b34610176576101b8610a3b610bae366004610b36565b612736565b60208101929161018a91906105be565b3461017657610bd336600461017b565b6101b87f00000000000000000000000000000000000000000000000000000000000000005b60405191829182610bb3565b34610176576107fd610c17366004610346565b612c58565b90610c286109af835190565b9081610c3a6020830284019460200190565b926000915b838310610c4e57505050505090565b90919293946020610c6a6109fb83856001950387528951610999565b9301930191939290610c3f565b906101c7906101c080610d73610cee610cdc610cca610ca66101e0880160008b015189820360008b015261058a565b610cb860208b015160208a01906105be565b60408a015188820360408a015261058a565b6060890151878203606089015261058a565b6080880151868203608088015261058a565b610cfd60a088015160a0870152565b610d0c60c088015160c0870152565b610d1b60e088015160e0870152565b610d2c610100880151610100870152565b610d3d610120880151610120870152565b610d4e610140880151610140870152565b610d5f610160880151610160870152565b610180870151858203610180870152610c1c565b94610d856101a08201516101a0860152565b01511515910152565b906101c791610c77565b90610da46109af835190565b9081610db66020830284019460200190565b926000915b838310610dca57505050505090565b90919293946020610de66109fb83856001950387528951610d8e565b9301930191939290610dbb565b60208082526101c792910190610d98565b3461017657610e1436600461017b565b6101b8610e1f612ec3565b60405191829182610df3565b3461017657610e3b36600461017b565b6101b87f0000000000000000000000000000000000000000000000000000000000000000610bf8565b6101c790610473906001600160a01b031682565b6101c790610e64565b6101c790610e78565b61018690610e81565b60208101929161018a9190610e8a565b3461017657610eb336600461017b565b604051806101b87f000000000000000000000000000000000000000000000000000000000000000082610e93565b34610176576101b86101a7610ef7366004610346565b612f44565b34610176576107fd610f0f3660046107c8565b90613001565b9050519061018a826101fc565b90602082820312610176576101c791610f15565b6040513d6000823e3d90fd5b610fa56020610f78610f737f0000000000000000000000000000000000000000000000000000000000000000610e81565b610e81565b610f8130610e81565b90610f8b60405190565b938492839182916370a0823160e01b835260048301610bb3565b03915afa908115610fe457600091610fbb575090565b6101c7915060203d602011610fdd575b610fd58183610228565b810190610f22565b503d610fcb565b610f36565b90610ffd939291610ff8613072565b6114b5565b9061018a6130b2565b602080825260139082015272125b9d985b1a590818d85b5c185a59db881251606a1b604082015260600190565b1561103a57565b60405162461bcd60e51b81528061105360048201611006565b0390fd5b60208082526022908201527f446f6e6174696f6e206d7573742062652067726561746572207468616e207a65604082015261726f60f01b606082015260800190565b156110a057565b60405162461bcd60e51b81528061105360048201611057565b60208082526013908201527243616d706169676e2069732050656e64696e6760681b604082015260600190565b156110ed57565b60405162461bcd60e51b815280611053600482016110b9565b60208082526012908201527110d85b5c185a59db881a185cc8195b99195960721b604082015260600190565b1561113957565b60405162461bcd60e51b81528061105360048201611106565b6101c760c061024f565b9061018690610473565b8054821015610a8057610a77600691600052602060002090565b634e487b7160e01b600052600060045260246000fd5b6101c79051610473565b906001600160a01b03905b9181191691161790565b906111c56101c76111cc92610e81565b82546111a0565b9055565b9160001960089290920291821b911b6111ab565b91906111f56101c76111cc9361035a565b9083546111d0565b61018a916000916111e4565b818110611214575050565b8061122260006001936111fd565b01611209565b9190601f811161123757505050565b61124961018a93600052602060002090565b906020601f84018190048301931061126c575b6020601f909101045b0190611209565b909150819061125c565b600019600883021c1916906002021790565b90611291815190565b9067ffffffffffffffff821161024a576112b5826112af8554610395565b85611228565b602090601f83116001146112e3576111cc9291600091836112d8575b5050611276565b0151905038806112d1565b601f198316916112f885600052602060002090565b9260005b8181106113365750916002939185600196941061131d575b50505002019055565b01516000196008601f8516021c19169055388080611314565b919360206001819287870151815501950192016112fc565b9061018a91611288565b5190565b90600019906111ab565b906113766101c76111cc9261035a565b825461135c565b600561140160a061018a9461139d61139760008301611196565b866111b5565b6113b46113ab602083015190565b6001870161134e565b6113cb6113c2604083015190565b6002870161134e565b6113e36113da60608301611358565b60038701611366565b6113fb6113f260808301611358565b60048701611366565b01611358565b9101611366565b91906114175761018a9161137d565b611180565b90815491600160401b83101561024a578261143f91600161018a95018155611166565b90611408565b634e487b7160e01b600052601160045260246000fd5b9190820180921161146857565b611445565b9061018a946114ae6114a6608095611498610b01959b9a989b60a088019088820360008a015261058a565b90868203602088015261058a565b986040850152565b6060830152565b60099392917f84038083661ab3698bfe2b1202fa65e8fd987cef13606f396be72c1685b8172c91506114f46114ed6101c76002610490565b8210611033565b611508611501600061035a565b3411611099565b6115f76115196101c7836001610367565b91611541611529600a8501610490565b61153a611536600061035a565b9190565b14156110e6565b61155a6115536101c760078601610490565b4210611132565b6115f2611566346131c1565b9788946115bf600c8201611578611152565b90611583338361115c565b61158e8b6020840152565b6115998c6040840152565b6115a4346060840152565b6115af896080840152565b6115ba4260a0840152565b61141c565b6115df600882016115d96115d282610490565b349061145b565b90611366565b016115d9856115ed83610490565b61145b565b61035a565b9261161b61160433610e81565b9561160e60405190565b938493429234918661146d565b0390a390565b6101c79291906000610fe9565b6020808252601490820152734e616d652063616e6e6f7420626520656d70747960601b604082015260600190565b1561166357565b60405162461bcd60e51b8152806110536004820161162e565b6104736101c76101c79290565b6101c79061167c565b602080825260159082015274496e76616c6964206f776e6572206164647265737360581b604082015260600190565b156116c857565b60405162461bcd60e51b81528061105360048201611692565b6020808252601590820152745469746c652063616e6e6f7420626520656d70747960581b604082015260600190565b1561171757565b60405162461bcd60e51b815280611053600482016116e1565b6020808252601b908201527f4465736372697074696f6e2063616e6e6f7420626520656d7074790000000000604082015260600190565b1561176e57565b60405162461bcd60e51b81528061105360048201611730565b60208082526018908201527f43617465676f72792063616e6e6f7420626520656d7074790000000000000000604082015260600190565b156117c557565b60405162461bcd60e51b81528061105360048201611787565b6020808252601d908201527f546172676574206d7573742062652067726561746572207468616e2030000000604082015260600190565b1561181c57565b60405162461bcd60e51b815280611053600482016117de565b6020808252601e908201527f446561646c696e65206d75737420626520696e20746865206675747572650000604082015260600190565b1561187357565b60405162461bcd60e51b81528061105360048201611835565b90815260608101939261018a929091604091610b01905b6020830152565b60001981146114685760010190565b9190820391821161146857565b90949390928351926000936118da8561035a565b106118e49061165c565b6118ed84611689565b6118f690610473565b6118ff88610473565b141561190a906116c1565b80516119158561035a565b1061191f90611710565b815161192a8561035a565b1061193490611767565b825161193f8561035a565b10611949906117be565b6119528461035a565b861161195d90611815565b61196842891161186c565b6119726002610490565b61197d906001610367565b9461198b88600188016111b5565b6119979086860161134e565b6119a4906003860161134e565b6119b1906004850161134e565b6119be906002840161134e565b6119cb8360068401611366565b6119d88560078401611366565b6119e19061035a565b6119ee8160088401611366565b6119fb8160098401611366565b611a0890600a8301611366565b611a126002610490565b611a1f9060058301611366565b611a2d904290600b01611366565b611a376002610490565b611a409061035a565b91611a4a90610e81565b92611a5460405190565b9182914290611a63928461188c565b037f532ce22d86c3d75e9e14507fdc84d53517c2726edb5c97af3c34fb362233b07191a3611a916002610490565b611a9a906118aa565b611aa5906002611366565b611aaf6002610490565b611ab9600161035a565b6101c7916118b9565b90611ad491611acf613072565b611cc4565b61018a6130b2565b602080825260159082015274496e76616c69642063616d706169676e20636f646560581b604082015260600190565b15611b1257565b60405162461bcd60e51b81528061105360048201611adc565b602080825260129082015271496e73756666696369656e742066756e647360701b604082015260600190565b15611b5e57565b60405162461bcd60e51b81528061105360048201611b2b565b8181029291811591840414171561146857565b634e487b7160e01b600052601260045260246000fd5b8115611baa570490565b611b8a565b8015156101fe565b9050519061018a82611baf565b90602082820312610176576101c791611bb7565b91602061018a929493610b01604082019660008301906105be565b9060ff906111ab565b151590565b90611c116101c76111cc92611bfc565b8254611bf3565b6101c7608061024f565b6003611401606061018a94611c3c61139760008301611196565b611c54611c4b60208301611358565b60018701611366565b6113fb611c6360408301611358565b60028701611366565b91906114175761018a91611c22565b90815491600160401b83101561024a5782611c9e91600161018a95018155610a5d565b90611c6c565b604090610b0161018a94969593966118a3606084019860008501906105be565b611cdb611cd46101c76002610490565b8210611b0b565b611ce96101c7826001610367565b90611d01611cf96101c783612f44565b841115611b57565b600e8201611d15611d11826104a0565b1590565b611e6f575b50611d2f600d83016115d9856115ed83610490565b611d996020846001611d63610f737f0000000000000000000000000000000000000000000000000000000000000000610e81565b950194611d6f8661047f565b6000611d7a60405190565b809681958294611d8e63a9059cbb60e01b90565b845260048401611bd8565b03925af18015610fe4577f887cc922c9fb6a3a66ac86ca7a5550189370dbe58caa712bd060ad70f532816493611e2592611e1f92611e42575b50611e1a6003611de18361047f565b90611df4611ded611c18565b928361115c565b611dff896020840152565b611e0a876040840152565b611e15426060840152565b611c7b565b61047f565b9161035a565b92611e3d611e3260405190565b928392429184611ca4565b0390a2565b611e639060203d602011611e68575b611e5b8183610228565b810190611bc4565b611dd2565b503d611e51565b611efa611ea2611e92611e8460098701610490565b611e8c61079b565b90611b77565b611e9c606461035a565b90611ba0565b91602083611ed2610f737f0000000000000000000000000000000000000000000000000000000000000000610e81565b611edb30610e81565b6000611ee660405190565b809781958294611d8e63a9059cbb60e01b90565b03925af1908115610fe457611f1792600192611f57575b50611c01565b7f93e7aaa64db1f3164fb844c7465be63c3d09a211e1307c3fe2a96a3f585d4415611f4e611f448461035a565b926101ab60405190565b0390a238611d1a565b611f6f9060203d602011611e6857611e5b8183610228565b611f11565b9061018a91611ac2565b67ffffffffffffffff811161024a5760208091020190565b90611fa36102a083611f7e565b918252565b9061018a611ffe6003611fb9611c18565b94611fcc611fc68261047f565b8761115c565b611fe2611fdb60018301610490565b6020880152565b611ff8611ff160028301610490565b6040880152565b01610490565b6060840152565b6101c790611fa8565b90612017825490565b61202081611f96565b926120346020850191600052602060002090565b6000915b8383106120455750505050565b6004602060019261205585612005565b815201920192019190612038565b6101c79061200e565b6101c76003612063565b9061018a6120de6005612087611152565b94612094611fc68261047f565b6120a3611fdb6001830161044d565b6120b2611ff16002830161044d565b6120c86120c160038301610490565b6060880152565b611ff86120d760048301610490565b6080880152565b60a0840152565b6101c790612076565b906120f7825490565b61210081611f96565b926121146020850191600052602060002090565b6000915b8383106121255750505050565b60066020600192612135856120e5565b815201920192019190612118565b6101c7906120ee565b600c6121756101c79261215d606090565b5061216e6114ed6101c76002610490565b6001610367565b01612143565b6020610fa591612189600090565b506121b6610f737f0000000000000000000000000000000000000000000000000000000000000000610e81565b604051610f8b565b6121c730610e81565b3190565b60208082526038908201527f4f6e6c79207468652063616d706169676e206f776e6572206f722061646d696e60408201527f2063616e2064656c657465207468652063616d706169676e0000000000000000606082015260800190565b1561222f57565b60405162461bcd60e51b815280611053600482016121cb565b9061225b90600019906020036008021c90565b8154169055565b9060009161228061227882600052602060002090565b928354611276565b905555565b91929060208210156122dd57601f84116001146122a7576111cc929350611276565b50906122d861018a9360016122cf6122c485600052602060002090565b92601f602091010490565b82019101611209565b612262565b5061231682936122f4600194600052602060002090565b6112656020601f860104820192601f86168061231e575b50601f602091010490565b600202179055565b61232a90888603612248565b3861230b565b929091600160401b821161024a5760201115612377576020811015612358576111cc91611276565b60019160ff191661236e84600052602060002090565b55600202019055565b60019150600202019055565b90815461238f81610395565b908183116123b8575b8183106123a6575b50505050565b6123af93612285565b388080806123a0565b6123c483838387612330565b612398565b600061018a91612383565b906000036114175761018a906123c9565b6101c7906006611b77565b600080825561018a9160059061240983600183016123d4565b61241683600283016123d4565b61242383600383016111fd565b61243083600483016111fd565b016111fd565b906000036114175761018a906123f0565b818110612452575050565b806124606000600693612436565b01612447565b91909182821061247557505050565b61249961248d61248761018a956123e5565b936123e5565b91600052602060002090565b9182019101612447565b90600160401b811161024a57816124bb61018a935490565b90828155612466565b600061018a916124a3565b906000036114175761018a906124c4565b600090600e906124f083826123d4565b82600182015561250383600283016123d4565b61251083600383016123d4565b61251d83600483016123d4565b61252a83600583016111fd565b61253783600683016111fd565b61254483600783016111fd565b61255183600883016111fd565b61255e83600983016111fd565b61256b83600a83016111fd565b61257883600b83016111fd565b61258583600c83016124cf565b61259283600d83016111fd565b0155565b906000036114175761018a906124e0565b8015611468576000190190565b612633906125c86114ed6101c76002610490565b61261760006126128360016125ea816125e46101c78583610367565b0161047f565b6125fc6125f633610473565b91610473565b148015612664575b61260d90612228565b610367565b612596565b6115f261262c6126276002610490565b6125a7565b6002611366565b7fa61e586bd6a065bde887af9ec4705829557488d3ccdea823ab66aafd7c3aa09961265d60405190565b8080611e3d565b5061260d61268573f39fd6e51aad88f6f4ce6ab8827279cfffb92266610473565b61268e33610473565b149050612604565b60010190565b6126a4611152565b906000825260208080808080870160608152016060815201600081520160008152016000905250565b6101c761269c565b60005b8281106126e457505050565b6020906126ef6126cd565b81840152016126d8565b9061018a61270f61270984611f96565b93611f7e565b601f1901602084016126d5565b90612725825190565b811015610a80576020809102010190565b6000906127428261035a565b92835b6127526101c76002610490565b8110156127b3576001612769816125e48482610367565b6127756125f686610473565b1461278a575b5061278590612696565b612745565b81956127a6600c6127a1612785956127ac95610367565b015490565b9061145b565b949061277b565b50926127c1909291926126f9565b6127ca8261035a565b91825b6127da6101c76002610490565b8110156128985760016127f1816125e48482610367565b6127fd6125f688610473565b14612812575b5061280d90612696565b6127cd565b8061281c8461035a565b915b612829575b50612803565b909461283d6101c7600c6127a18686610367565b8610156128925761288c612886839261286b6128658a600c61285f8a89610367565b01611166565b506120e5565b612875828a61271c565b52612880818961271c565b506118aa565b96612696565b9161281e565b94612823565b509092506128a6915061035a565b6128b16101c7835190565b811015612982576001806128cd6128c78261035a565b8461145b565b905b6128e4575b50506128df90612696565b6128a6565b6128ef6101c7855190565b81101561297d57612930829161291160a061290a878961271c565b5101611358565b6129266115366101c760a061290a868c61271c565b1161293657612696565b906128cf565b612940858761271c565b5161294b828861271c565b51612956878961271c565b52612961868861271c565b5061296c828861271c565b52612977818761271c565b50612696565b6128d4565b5090565b611ad490612992613072565b612a43565b6020808252818101527f4f6e6c792063616d706169676e206f776e65722063616e207769746864726177604082015260600190565b156129d357565b60405162461bcd60e51b81528061105360048201612997565b6020808252601e908201527f4e6f2066756e647320617661696c61626c6520746f2077697468647261770000604082015260600190565b15612a2a57565b60405162461bcd60e51b815280611053600482016129ec565b612a53611cd46101c76002610490565b612a616101c7826001610367565b906001820190612a8a612a7b612a768461047f565b610473565b612a8433610473565b146129cc565b612a9381612f44565b92600090612aaa612aa38361035a565b8611612a23565b600e8101612aba611d11826104a0565b612b93575b50600d612ad491016115d9866115ed83610490565b612b19602085612b06610f737f0000000000000000000000000000000000000000000000000000000000000000610e81565b612b0f8761047f565b85611d7a60405190565b03925af1938415610fe4577f887cc922c9fb6a3a66ac86ca7a5550189370dbe58caa712bd060ad70f532816494611e2593611e1f93611e1a92612b76575b506003611df4612b668561047f565b612b6e611c18565b93840161115c565b612b8e9060203d602011611e6857611e5b8183610228565b612b57565b81612ba9611e92611e846009612bff9601610490565b602081612bd8610f737f0000000000000000000000000000000000000000000000000000000000000000610e81565b612be130610e81565b88612beb60405190565b809981958294611d8e63a9059cbb60e01b90565b03925af1938415610fe4576001600d94612c2192612ad497611f575750611c01565b7f93e7aaa64db1f3164fb844c7465be63c3d09a211e1307c3fe2a96a3f585d4415612c4e611f448861035a565b0390a29150612abf565b61018a90612986565b6020808252601690820152754e6f2063616d706169676e7320617661696c61626c6560501b604082015260600190565b15612c9857565b60405162461bcd60e51b81528061105360048201612c61565b6101c76101e061024f565b612cc4612cb1565b9060608252602082016000815260200160608152602001606081526020016060815260200160008152602001600081526020016000815260200160008152602001600081526020016000815260200160008152602001606081526020016000815260200160009052565b6101c7612cbc565b60005b828110612d4557505050565b602090612d50612d2e565b8184015201612d39565b9061018a612d6a61270984611f96565b601f190160208401612d36565b9061018a612eb0600e612d88612cb1565b94612d99612d958261044d565b8752565b612db1612da86001830161047f565b6020880161115c565b612dc0611ff16002830161044d565b612dcf6120c16003830161044d565b612dde6120d76004830161044d565b612df4612ded60058301610490565b60a0880152565b612e0a612e0360068301610490565b60c0880152565b612e20612e1960078301610490565b60e0880152565b612e37612e2f60088301610490565b610100880152565b612e4e612e4660098301610490565b610120880152565b612e65612e5d600a8301610490565b610140880152565b612e7c612e74600b8301610490565b610160880152565b612e93612e8b600c83016120ee565b610180880152565b612eaa612ea2600d8301610490565b6101a0880152565b016104a0565b15156101c0840152565b6101c790612d77565b612ee3612ed06002610490565b612edd611536600061035a565b11612c91565b612ef5612ef06002610490565b612d5a565b612eff600061035a565b612f0c6101c76002610490565b8110156129825780612f2a612f25612f3f936001610367565b612eba565b612f34828561271c565b52612977818461271c565b612eff565b6101c7612f6491612f53600090565b5061216e611cd46101c76002610490565b612f7060098201610490565b612f85612f7f600d8401610490565b826118b9565b90612f96611d11600e8495016104a0565b612f9f57505090565b6101c79250611e92612fb391611e8c61079b565b906118b9565b6020808252600e908201526d496e76616c69642073746174757360901b604082015260600190565b15612fe857565b60405162461bcd60e51b81528061105360048201612fb9565b611e3d611f447f8f91fea7c957b922286b233aacdbef39c778fbf18b1e208359140dfa65bfd3c2926130396114ed6101c76002610490565b61304e613046600261035a565b861115612fe1565b6115f285600a6130626101c7856001610367565b01611366565b6101c7600261035a565b61307c6000610490565b613084613068565b9081146130965761018a906000611366565b604051633ee5aeb560e01b8152600490fd5b6101c7600161035a565b61018a6130bd6130a8565b6000611366565b6020808252601d908201527f416d6f756e74206d7573742062652067726561746572207468616e2030000000604082015260600190565b1561310257565b60405162461bcd60e51b815280611053600482016130c4565b6101c761010061024f565b9060e08061018a93613140600082015160008601906105be565b613152602082015160208601906105be565b60408181015162ffffff1690850152613173606082015160608601906105be565b61318260808201516080860152565b61319160a082015160a0860152565b6131a060c082015160c0860152565b01516001600160a01b0316910152565b6101008101929161018a9190613126565b60006131d66131cf8261035a565b83116130fb565b7f000000000000000000000000000000000000000000000000000000000000000091613204610f7384610e81565b9063d0e30db091803b156101765761322a92849161322160405190565b94859260e01b90565b8252600490829085905af1918215610fe457839261339e575b506133096132707f0000000000000000000000000000000000000000000000000000000000000000610e81565b9161327c818488613432565b6120de866133027f00000000000000000000000000000000000000000000000000000000000000006132f96132af610817565b6132ed6132bb30610e81565b936132e46132d36132cd61025861035a565b4261145b565b976132dc61311b565b9d8e0161115c565b60208c0161115c565b62ffffff1660408a0152565b6060880161115c565b6080860152565b61335b60206133178561035a565b936133238560c0830152565b61333f61332f8761167c565b6001600160a01b031660e0830152565b60405192839182919063414bf38960e01b8352600483016131b0565b038187865af1938415610fe4579361337b575b5082936101c79350613432565b6101c793506133989060203d602011610fdd57610fd58183610228565b9261336e565b6133bd90833d85116133c3575b6133b58183610228565b81019061017b565b38613243565b503d6133ab565b90611fa36102a083610263565b3d156133f1576133e63d6133ca565b903d6000602084013e565b606090565b602080825260029082015261534160f01b604082015260600190565b1561341957565b60405162461bcd60e51b815280611053600482016133f6565b61018a9260009291613473849361346461344b60405190565b63095ea7b360e01b602082015294859260248401611bd8565b60208201810382520383610228565b82602083519301915af16134856133d7565b81613491575b50613412565b905061349b815190565b6134a8611536600061035a565b149081156134b8575b503861348b565b6134d2915060206134c7825190565b818301019101611bc4565b386134b156fea26469706673582212206ef010d14f3e03d4c4fcaa64fd63629d8a72fedf0d3835e7e9ad6e0fd335dd8d64736f6c63430008180033",
  "linkReferences": {},
  "deployedLinkReferences": {}
}