{
  "_format": "hh-sol-artifact-1",
  "contractName": "CryptoBacker",
  "sourceName": "contracts/CryptoBacker.sol",
  "abi": [
    {
      "inputs": [
        {
          "internalType": "address",
          "name": "_swapRouter",
          "type": "address"
        },
        {
          "internalType": "address",
          "name": "_WETH",
          "type": "address"
        },
        {
          "internalType": "address",
          "name": "_USDC",
          "type": "address"
        }
      ],
      "stateMutability": "nonpayable",
      "type": "constructor"
    },
    {
      "inputs": [],
      "name": "ReentrancyGuardReentrantCall",
      "type": "error"
    },
    {
      "anonymous": false,
      "inputs": [
        {
          "indexed": true,
          "internalType": "uint256",
          "name": "campaignCode",
          "type": "uint256"
        },
        {
          "indexed": true,
          "internalType": "address",
          "name": "owner",
          "type": "address"
        },
        {
          "indexed": false,
          "internalType": "uint256",
          "name": "target",
          "type": "uint256"
        },
        {
          "indexed": false,
          "internalType": "uint256",
          "name": "deadline",
          "type": "uint256"
        }
      ],
      "name": "CampaignCreated",
      "type": "event"
    },
    {
      "anonymous": false,
      "inputs": [
        {
          "indexed": true,
          "internalType": "uint256",
          "name": "campaignCode",
          "type": "uint256"
        }
      ],
      "name": "CampaignDeleted",
      "type": "event"
    },
    {
      "anonymous": false,
      "inputs": [
        {
          "indexed": true,
          "internalType": "uint256",
          "name": "campaignCode",
          "type": "uint256"
        },
        {
          "indexed": false,
          "internalType": "uint256",
          "name": "newStatus",
          "type": "uint256"
        }
      ],
      "name": "CampaignStatusUpdated",
      "type": "event"
    },
    {
      "anonymous": false,
      "inputs": [
        {
          "indexed": true,
          "internalType": "uint256",
          "name": "campaignCode",
          "type": "uint256"
        },
        {
          "indexed": true,
          "internalType": "address",
          "name": "donor",
          "type": "address"
        },
        {
          "indexed": false,
          "internalType": "uint256",
          "name": "amountETH",
          "type": "uint256"
        },
        {
          "indexed": false,
          "internalType": "uint256",
          "name": "amountUSDC",
          "type": "uint256"
        }
      ],
      "name": "DonationReceived",
      "type": "event"
    },
    {
      "stateMutability": "payable",
      "type": "fallback"
    },
    {
      "inputs": [],
      "name": "FEE_TIER",
      "outputs": [
        {
          "internalType": "uint24",
          "name": "",
          "type": "uint24"
        }
      ],
      "stateMutability": "view",
      "type": "function"
    },
    {
      "inputs": [],
      "name": "USDC",
      "outputs": [
        {
          "internalType": "address",
          "name": "",
          "type": "address"
        }
      ],
      "stateMutability": "view",
      "type": "function"
    },
    {
      "inputs": [],
      "name": "WETH",
      "outputs": [
        {
          "internalType": "address",
          "name": "",
          "type": "address"
        }
      ],
      "stateMutability": "view",
      "type": "function"
    },
    {
      "inputs": [
        {
          "internalType": "uint256",
          "name": "",
          "type": "uint256"
        }
      ],
      "name": "campaigns",
      "outputs": [
        {
          "internalType": "string",
          "name": "name",
          "type": "string"
        },
        {
          "internalType": "address",
          "name": "owner",
          "type": "address"
        },
        {
          "internalType": "string",
          "name": "category",
          "type": "string"
        },
        {
          "internalType": "string",
          "name": "title",
          "type": "string"
        },
        {
          "internalType": "string",
          "name": "description",
          "type": "string"
        },
        {
          "internalType": "uint256",
          "name": "campaignCode",
          "type": "uint256"
        },
        {
          "internalType": "uint256",
          "name": "target",
          "type": "uint256"
        },
        {
          "internalType": "uint256",
          "name": "deadline",
          "type": "uint256"
        },
        {
          "internalType": "uint256",
          "name": "amountCollectedETH",
          "type": "uint256"
        },
        {
          "internalType": "uint256",
          "name": "amountCollectedUSDC",
          "type": "uint256"
        },
        {
          "internalType": "string",
          "name": "image",
          "type": "string"
        },
        {
          "internalType": "uint256",
          "name": "status",
          "type": "uint256"
        }
      ],
      "stateMutability": "view",
      "type": "function"
    },
    {
      "inputs": [
        {
          "internalType": "string",
          "name": "_name",
          "type": "string"
        },
        {
          "internalType": "address",
          "name": "_owner",
          "type": "address"
        },
        {
          "internalType": "string",
          "name": "_title",
          "type": "string"
        },
        {
          "internalType": "string",
          "name": "_description",
          "type": "string"
        },
        {
          "internalType": "string",
          "name": "_category",
          "type": "string"
        },
        {
          "internalType": "uint256",
          "name": "_target",
          "type": "uint256"
        },
        {
          "internalType": "uint256",
          "name": "_deadline",
          "type": "uint256"
        },
        {
          "internalType": "string",
          "name": "_image",
          "type": "string"
        }
      ],
      "name": "createCampaign",
      "outputs": [
        {
          "internalType": "uint256",
          "name": "",
          "type": "uint256"
        }
      ],
      "stateMutability": "nonpayable",
      "type": "function"
    },
    {
      "inputs": [
        {
          "internalType": "uint256",
          "name": "_id",
          "type": "uint256"
        }
      ],
      "name": "deleteCampaign",
      "outputs": [],
      "stateMutability": "nonpayable",
      "type": "function"
    },
    {
      "inputs": [
        {
          "internalType": "uint256",
          "name": "_id",
          "type": "uint256"
        }
      ],
      "name": "donateToCampaign",
      "outputs": [
        {
          "internalType": "uint256",
          "name": "",
          "type": "uint256"
        }
      ],
      "stateMutability": "payable",
      "type": "function"
    },
    {
      "inputs": [],
      "name": "getCampaigns",
      "outputs": [
        {
          "components": [
            {
              "internalType": "string",
              "name": "name",
              "type": "string"
            },
            {
              "internalType": "address",
              "name": "owner",
              "type": "address"
            },
            {
              "internalType": "string",
              "name": "category",
              "type": "string"
            },
            {
              "internalType": "string",
              "name": "title",
              "type": "string"
            },
            {
              "internalType": "string",
              "name": "description",
              "type": "string"
            },
            {
              "internalType": "uint256",
              "name": "campaignCode",
              "type": "uint256"
            },
            {
              "internalType": "uint256",
              "name": "target",
              "type": "uint256"
            },
            {
              "internalType": "uint256",
              "name": "deadline",
              "type": "uint256"
            },
            {
              "internalType": "uint256",
              "name": "amountCollectedETH",
              "type": "uint256"
            },
            {
              "internalType": "uint256",
              "name": "amountCollectedUSDC",
              "type": "uint256"
            },
            {
              "internalType": "string",
              "name": "image",
              "type": "string"
            },
            {
              "internalType": "uint256",
              "name": "status",
              "type": "uint256"
            },
            {
              "internalType": "address[]",
              "name": "donators",
              "type": "address[]"
            },
            {
              "internalType": "uint256[]",
              "name": "donationETH",
              "type": "uint256[]"
            },
            {
              "internalType": "uint256[]",
              "name": "donationUSDC",
              "type": "uint256[]"
            }
          ],
          "internalType": "struct CryptoBacker.Campaign[]",
          "name": "",
          "type": "tuple[]"
        }
      ],
      "stateMutability": "view",
      "type": "function"
    },
    {
      "inputs": [],
      "name": "getContractBalance",
      "outputs": [
        {
          "internalType": "uint256",
          "name": "",
          "type": "uint256"
        }
      ],
      "stateMutability": "view",
      "type": "function"
    },
    {
      "inputs": [],
      "name": "getContractUSDCBalance",
      "outputs": [
        {
          "internalType": "uint256",
          "name": "",
          "type": "uint256"
        }
      ],
      "stateMutability": "view",
      "type": "function"
    },
    {
      "inputs": [
        {
          "internalType": "uint256",
          "name": "_id",
          "type": "uint256"
        }
      ],
      "name": "getDonator",
      "outputs": [
        {
          "internalType": "address[]",
          "name": "",
          "type": "address[]"
        },
        {
          "internalType": "uint256[]",
          "name": "",
          "type": "uint256[]"
        },
        {
          "internalType": "uint256[]",
          "name": "",
          "type": "uint256[]"
        }
      ],
      "stateMutability": "view",
      "type": "function"
    },
    {
      "inputs": [],
      "name": "numberOfCampaigns",
      "outputs": [
        {
          "internalType": "uint256",
          "name": "",
          "type": "uint256"
        }
      ],
      "stateMutability": "view",
      "type": "function"
    },
    {
      "inputs": [],
      "name": "swapRouter",
      "outputs": [
        {
          "internalType": "contract ISwapRouter",
          "name": "",
          "type": "address"
        }
      ],
      "stateMutability": "view",
      "type": "function"
    },
    {
      "inputs": [
        {
          "internalType": "uint256",
          "name": "_id",
          "type": "uint256"
        },
        {
          "internalType": "uint256",
          "name": "_newStatus",
          "type": "uint256"
        }
      ],
      "name": "updateCampaignStatus",
      "outputs": [],
      "stateMutability": "nonpayable",
      "type": "function"
    },
    {
      "stateMutability": "payable",
      "type": "receive"
    }
  ],
  "bytecode": "0x60e060405260006002553480156200001657600080fd5b5060405162003c2838038062003c2883398181016040528101906200003c919062000153565b60016000819055508273ffffffffffffffffffffffffffffffffffffffff1660808173ffffffffffffffffffffffffffffffffffffffff16815250508173ffffffffffffffffffffffffffffffffffffffff1660a08173ffffffffffffffffffffffffffffffffffffffff16815250508073ffffffffffffffffffffffffffffffffffffffff1660c08173ffffffffffffffffffffffffffffffffffffffff1681525050505050620001af565b600080fd5b600073ffffffffffffffffffffffffffffffffffffffff82169050919050565b60006200011b82620000ee565b9050919050565b6200012d816200010e565b81146200013957600080fd5b50565b6000815190506200014d8162000122565b92915050565b6000806000606084860312156200016f576200016e620000e9565b5b60006200017f868287016200013c565b935050602062000192868287016200013c565b9250506040620001a5868287016200013c565b9150509250925092565b60805160a05160c051613a0a6200021e6000396000818161038b01528181610ee30152611bc30152600081816114b101528181611aad01528181611b3101528181611b870152611d060152600081816114d501528181611b5201528181611c650152611d270152613a0a6000f3fe6080604052600436106100e05760003560e01c80637b66e17f1161007f578063ad5c464811610059578063ad5c4648146102cb578063c31c9c07146102f6578063c579dfe414610321578063eaa1b0bc1461035e576100e7565b80637b66e17f1461023657806389a3027114610275578063a6b03633146102a0576100e7565b806342a4fda8116100bb57806342a4fda8146101875780634c69a6c9146101b75780636f9fb98a146101e2578063759701931461020d576100e7565b80622772c2146100e957806307ca140d14610114578063141961bc1461013f576100e7565b366100e757005b005b3480156100f557600080fd5b506100fe610387565b60405161010b9190611ff6565b60405180910390f35b34801561012057600080fd5b50610129610428565b6040516101369190611ff6565b60405180910390f35b34801561014b57600080fd5b5061016660048036038101906101619190612051565b61042e565b60405161017e9c9b9a9998979695949392919061214f565b60405180910390f35b6101a1600480360381019061019c9190612051565b610756565b6040516101ae9190611ff6565b60405180910390f35b3480156101c357600080fd5b506101cc610aba565b6040516101d9919061224a565b60405180910390f35b3480156101ee57600080fd5b506101f7610ac0565b6040516102049190611ff6565b60405180910390f35b34801561021957600080fd5b50610234600480360381019061022f9190612051565b610ac8565b005b34801561024257600080fd5b5061025d60048036038101906102589190612051565b610d1d565b60405161026c939291906123e1565b60405180910390f35b34801561028157600080fd5b5061028a610ee1565b604051610297919061242d565b60405180910390f35b3480156102ac57600080fd5b506102b5610f05565b6040516102c291906127a6565b60405180910390f35b3480156102d757600080fd5b506102e06114af565b6040516102ed919061242d565b60405180910390f35b34801561030257600080fd5b5061030b6114d3565b6040516103189190612827565b60405180910390f35b34801561032d57600080fd5b50610348600480360381019061034391906129a3565b6114f7565b6040516103559190611ff6565b60405180910390f35b34801561036a57600080fd5b5061038560048036038101906103809190612ae5565b6118ba565b005b60007f000000000000000000000000000000000000000000000000000000000000000073ffffffffffffffffffffffffffffffffffffffff166370a08231306040518263ffffffff1660e01b81526004016103e2919061242d565b602060405180830381865afa1580156103ff573d6000803e3d6000fd5b505050506040513d601f19601f820116820180604052508101906104239190612b3a565b905090565b60025481565b600160205280600052604060002060009150905080600001805461045190612b96565b80601f016020809104026020016040519081016040528092919081815260200182805461047d90612b96565b80156104ca5780601f1061049f576101008083540402835291602001916104ca565b820191906000526020600020905b8154815290600101906020018083116104ad57829003601f168201915b5050505050908060010160009054906101000a900473ffffffffffffffffffffffffffffffffffffffff169080600201805461050590612b96565b80601f016020809104026020016040519081016040528092919081815260200182805461053190612b96565b801561057e5780601f106105535761010080835404028352916020019161057e565b820191906000526020600020905b81548152906001019060200180831161056157829003601f168201915b50505050509080600301805461059390612b96565b80601f01602080910402602001604051908101604052809291908181526020018280546105bf90612b96565b801561060c5780601f106105e15761010080835404028352916020019161060c565b820191906000526020600020905b8154815290600101906020018083116105ef57829003601f168201915b50505050509080600401805461062190612b96565b80601f016020809104026020016040519081016040528092919081815260200182805461064d90612b96565b801561069a5780601f1061066f5761010080835404028352916020019161069a565b820191906000526020600020905b81548152906001019060200180831161067d57829003601f168201915b50505050509080600501549080600601549080600701549080600801549080600901549080600a0180546106cd90612b96565b80601f01602080910402602001604051908101604052809291908181526020018280546106f990612b96565b80156107465780601f1061071b57610100808354040283529160200191610746565b820191906000526020600020905b81548152906001019060200180831161072957829003601f168201915b50505050509080600b015490508c565b6000610760611a21565b6000600254116107a5576040517f08c379a000000000000000000000000000000000000000000000000000000000815260040161079c90612c13565b60405180910390fd5b60025482106107e9576040517f08c379a00000000000000000000000000000000000000000000000000000000081526004016107e090612c7f565b60405180910390fd5b6000341161082c576040517f08c379a000000000000000000000000000000000000000000000000000000000815260040161082390612d11565b60405180910390fd5b6000600160008481526020019081526020016000209050600081600b01541461088a576040517f08c379a000000000000000000000000000000000000000000000000000000000815260040161088190612d7d565b60405180910390fd5b806007015442106108d0576040517f08c379a00000000000000000000000000000000000000000000000000000000081526004016108c790612de9565b60405180910390fd5b600034905060006108ec6002836108e79190612e67565b611a67565b905082600c01339080600181540180825580915050600190039060005260206000200160009091909190916101000a81548173ffffffffffffffffffffffffffffffffffffffff021916908373ffffffffffffffffffffffffffffffffffffffff16021790555082600d016002836109649190612e67565b908060018154018082558091505060019003906000526020600020016000909190919091505582600e018190806001815401808255809150506001900390600052602060002001600090919091909150556002826109c29190612e67565b8360080160008282546109d59190612e98565b92505081905550808360090160008282546109f09190612e98565b925050819055503373ffffffffffffffffffffffffffffffffffffffff16857f3dbea1b4ce5f95137fdcac9b1d685825c3d70ace830df1ca5a181d3887add410600285610a3d9190612e67565b84604051610a4c929190612ecc565b60405180910390a38260060154836008015410610aa757600183600b0181905550847f8f91fea7c957b922286b233aacdbef39c778fbf18b1e208359140dfa65bfd3c26001604051610a9e9190612f30565b60405180910390a25b809350505050610ab5611d53565b919050565b610bb881565b600047905090565b6002548110610b0c576040517f08c379a0000000000000000000000000000000000000000000000000000000008152600401610b0390612c7f565b60405180910390fd5b60006001600083815260200190815260200160002090503373ffffffffffffffffffffffffffffffffffffffff168160010160009054906101000a900473ffffffffffffffffffffffffffffffffffffffff1673ffffffffffffffffffffffffffffffffffffffff161480610bc0575073f39fd6e51aad88f6f4ce6ab8827279cfffb9226673ffffffffffffffffffffffffffffffffffffffff163373ffffffffffffffffffffffffffffffffffffffff16145b610bff576040517f08c379a0000000000000000000000000000000000000000000000000000000008152600401610bf690612fbd565b60405180910390fd5b6001600083815260200190815260200160002060008082016000610c239190611eb2565b6001820160006101000a81549073ffffffffffffffffffffffffffffffffffffffff0219169055600282016000610c5a9190611eb2565b600382016000610c6a9190611eb2565b600482016000610c7a9190611eb2565b60058201600090556006820160009055600782016000905560088201600090556009820160009055600a82016000610cb29190611eb2565b600b820160009055600c82016000610cca9190611ef2565b600d82016000610cda9190611f13565b600e82016000610cea9190611f13565b5050817fa61e586bd6a065bde887af9ec4705829557488d3ccdea823ab66aafd7c3aa09960405160405180910390a25050565b60608060606002548410610d66576040517f08c379a0000000000000000000000000000000000000000000000000000000008152600401610d5d90612c7f565b60405180910390fd5b60016000858152602001908152602001600020600c0160016000868152602001908152602001600020600d0160016000878152602001908152602001600020600e0182805480602002602001604051908101604052809291908181526020018280548015610e2957602002820191906000526020600020905b8160009054906101000a900473ffffffffffffffffffffffffffffffffffffffff1673ffffffffffffffffffffffffffffffffffffffff1681526020019060010190808311610ddf575b5050505050925081805480602002602001604051908101604052809291908181526020018280548015610e7b57602002820191906000526020600020905b815481526020019060010190808311610e67575b5050505050915080805480602002602001604051908101604052809291908181526020018280548015610ecd57602002820191906000526020600020905b815481526020019060010190808311610eb9575b505050505090509250925092509193909250565b7f000000000000000000000000000000000000000000000000000000000000000081565b6060600060025411610f4c576040517f08c379a0000000000000000000000000000000000000000000000000000000008152600401610f4390612c13565b60405180910390fd5b600060025467ffffffffffffffff811115610f6a57610f6961284c565b5b604051908082528060200260200182016040528015610fa357816020015b610f90611f34565b815260200190600190039081610f885790505b50905060005b6002548110156114a75760016000828152602001908152602001600020604051806101e0016040529081600082018054610fe290612b96565b80601f016020809104026020016040519081016040528092919081815260200182805461100e90612b96565b801561105b5780601f106110305761010080835404028352916020019161105b565b820191906000526020600020905b81548152906001019060200180831161103e57829003601f168201915b505050505081526020016001820160009054906101000a900473ffffffffffffffffffffffffffffffffffffffff1673ffffffffffffffffffffffffffffffffffffffff1673ffffffffffffffffffffffffffffffffffffffff1681526020016002820180546110ca90612b96565b80601f01602080910402602001604051908101604052809291908181526020018280546110f690612b96565b80156111435780601f1061111857610100808354040283529160200191611143565b820191906000526020600020905b81548152906001019060200180831161112657829003601f168201915b5050505050815260200160038201805461115c90612b96565b80601f016020809104026020016040519081016040528092919081815260200182805461118890612b96565b80156111d55780601f106111aa576101008083540402835291602001916111d5565b820191906000526020600020905b8154815290600101906020018083116111b857829003601f168201915b505050505081526020016004820180546111ee90612b96565b80601f016020809104026020016040519081016040528092919081815260200182805461121a90612b96565b80156112675780601f1061123c57610100808354040283529160200191611267565b820191906000526020600020905b81548152906001019060200180831161124a57829003601f168201915b505050505081526020016005820154815260200160068201548152602001600782015481526020016008820154815260200160098201548152602001600a820180546112b290612b96565b80601f01602080910402602001604051908101604052809291908181526020018280546112de90612b96565b801561132b5780601f106113005761010080835404028352916020019161132b565b820191906000526020600020905b81548152906001019060200180831161130e57829003601f168201915b50505050508152602001600b8201548152602001600c82018054806020026020016040519081016040528092919081815260200182805480156113c357602002820191906000526020600020905b8160009054906101000a900473ffffffffffffffffffffffffffffffffffffffff1673ffffffffffffffffffffffffffffffffffffffff1681526020019060010190808311611379575b50505050508152602001600d820180548060200260200160405190810160405280929190818152602001828054801561141b57602002820191906000526020600020905b815481526020019060010190808311611407575b50505050508152602001600e820180548060200260200160405190810160405280929190818152602001828054801561147357602002820191906000526020600020905b81548152602001906001019080831161145f575b50505050508152505082828151811061148f5761148e612fdd565b5b60200260200101819052508080600101915050610fa9565b508091505090565b7f000000000000000000000000000000000000000000000000000000000000000081565b7f000000000000000000000000000000000000000000000000000000000000000081565b60008089511161153c576040517f08c379a000000000000000000000000000000000000000000000000000000000815260040161153390613058565b60405180910390fd5b600073ffffffffffffffffffffffffffffffffffffffff168873ffffffffffffffffffffffffffffffffffffffff16036115ab576040517f08c379a00000000000000000000000000000000000000000000000000000000081526004016115a2906130c4565b60405180910390fd5b60008751116115ef576040517f08c379a00000000000000000000000000000000000000000000000000000000081526004016115e690613130565b60405180910390fd5b6000865111611633576040517f08c379a000000000000000000000000000000000000000000000000000000000815260040161162a9061319c565b60405180910390fd5b6000855111611677576040517f08c379a000000000000000000000000000000000000000000000000000000000815260040161166e90613208565b60405180910390fd5b600084116116ba576040517f08c379a00000000000000000000000000000000000000000000000000000000081526004016116b190613274565b60405180910390fd5b4283116116fc576040517f08c379a00000000000000000000000000000000000000000000000000000000081526004016116f3906132e0565b60405180910390fd5b6000825111611740576040517f08c379a00000000000000000000000000000000000000000000000000000000081526004016117379061334c565b60405180910390fd5b60006001600060025481526020019081526020016000209050888160010160006101000a81548173ffffffffffffffffffffffffffffffffffffffff021916908373ffffffffffffffffffffffffffffffffffffffff160217905550898160000190816117ad919061350e565b50878160030190816117bf919061350e565b50868160040190816117d1919061350e565b50858160020190816117e3919061350e565b5084816006018190555083816007018190555060008160080181905550600081600901819055508281600a01908161181b919061350e565b50600081600b018190555060025481600501819055508873ffffffffffffffffffffffffffffffffffffffff166002547f91b289a829e71d811b8c69e4a24ba2d40d115d8a236e9a724cb3bb2d43cf7223878760405161187c929190612ecc565b60405180910390a360026000815480929190611897906135e0565b919050555060016002546118ab9190613628565b91505098975050505050505050565b60025482106118fe576040517f08c379a00000000000000000000000000000000000000000000000000000000081526004016118f590612c7f565b60405180910390fd5b6002811115611942576040517f08c379a0000000000000000000000000000000000000000000000000000000008152600401611939906136a8565b60405180910390fd5b600060016000848152602001908152602001600020905073f39fd6e51aad88f6f4ce6ab8827279cfffb9226673ffffffffffffffffffffffffffffffffffffffff163373ffffffffffffffffffffffffffffffffffffffff16146119db576040517f08c379a00000000000000000000000000000000000000000000000000000000081526004016119d290613714565b60405180910390fd5b8181600b0181905550827f8f91fea7c957b922286b233aacdbef39c778fbf18b1e208359140dfa65bfd3c283604051611a149190611ff6565b60405180910390a2505050565b600260005403611a5d576040517f3ee5aeb500000000000000000000000000000000000000000000000000000000815260040160405180910390fd5b6002600081905550565b6000808211611aab576040517f08c379a0000000000000000000000000000000000000000000000000000000008152600401611aa290613780565b60405180910390fd5b7f000000000000000000000000000000000000000000000000000000000000000073ffffffffffffffffffffffffffffffffffffffff1663d0e30db0836040518263ffffffff1660e01b81526004016000604051808303818588803b158015611b1357600080fd5b505af1158015611b27573d6000803e3d6000fd5b5050505050611b777f00000000000000000000000000000000000000000000000000000000000000007f000000000000000000000000000000000000000000000000000000000000000084611d5d565b60006040518061010001604052807f000000000000000000000000000000000000000000000000000000000000000073ffffffffffffffffffffffffffffffffffffffff1681526020017f000000000000000000000000000000000000000000000000000000000000000073ffffffffffffffffffffffffffffffffffffffff168152602001610bb862ffffff1681526020013073ffffffffffffffffffffffffffffffffffffffff16815260200161025842611c349190612e98565b815260200184815260200160008152602001600073ffffffffffffffffffffffffffffffffffffffff1681525090507f000000000000000000000000000000000000000000000000000000000000000073ffffffffffffffffffffffffffffffffffffffff1663414bf389826040518263ffffffff1660e01b8152600401611cbc9190613860565b6020604051808303816000875af1158015611cdb573d6000803e3d6000fd5b505050506040513d601f19601f82011682018060405250810190611cff9190612b3a565b9150611d4d7f00000000000000000000000000000000000000000000000000000000000000007f00000000000000000000000000000000000000000000000000000000000000006000611d5d565b50919050565b6001600081905550565b6000808473ffffffffffffffffffffffffffffffffffffffff1663095ea7b360e01b8585604051602401611d9292919061387c565b604051602081830303815290604052907bffffffffffffffffffffffffffffffffffffffffffffffffffffffff19166020820180517bffffffffffffffffffffffffffffffffffffffffffffffffffffffff8381831617835250505050604051611dfc91906138ec565b6000604051808303816000865af19150503d8060008114611e39576040519150601f19603f3d011682016040523d82523d6000602084013e611e3e565b606091505b5091509150818015611e6c5750600081511480611e6b575080806020019051810190611e6a919061393b565b5b5b611eab576040517f08c379a0000000000000000000000000000000000000000000000000000000008152600401611ea2906139b4565b60405180910390fd5b5050505050565b508054611ebe90612b96565b6000825580601f10611ed05750611eef565b601f016020900490600052602060002090810190611eee9190611fc0565b5b50565b5080546000825590600052602060002090810190611f109190611fc0565b50565b5080546000825590600052602060002090810190611f319190611fc0565b50565b604051806101e0016040528060608152602001600073ffffffffffffffffffffffffffffffffffffffff168152602001606081526020016060815260200160608152602001600081526020016000815260200160008152602001600081526020016000815260200160608152602001600081526020016060815260200160608152602001606081525090565b5b80821115611fd9576000816000905550600101611fc1565b5090565b6000819050919050565b611ff081611fdd565b82525050565b600060208201905061200b6000830184611fe7565b92915050565b6000604051905090565b600080fd5b600080fd5b61202e81611fdd565b811461203957600080fd5b50565b60008135905061204b81612025565b92915050565b6000602082840312156120675761206661201b565b5b60006120758482850161203c565b91505092915050565b600081519050919050565b600082825260208201905092915050565b60005b838110156120b857808201518184015260208101905061209d565b60008484015250505050565b6000601f19601f8301169050919050565b60006120e08261207e565b6120ea8185612089565b93506120fa81856020860161209a565b612103816120c4565b840191505092915050565b600073ffffffffffffffffffffffffffffffffffffffff82169050919050565b60006121398261210e565b9050919050565b6121498161212e565b82525050565b600061018082019050818103600083015261216a818f6120d5565b9050612179602083018e612140565b818103604083015261218b818d6120d5565b9050818103606083015261219f818c6120d5565b905081810360808301526121b3818b6120d5565b90506121c260a083018a611fe7565b6121cf60c0830189611fe7565b6121dc60e0830188611fe7565b6121ea610100830187611fe7565b6121f8610120830186611fe7565b81810361014083015261220b81856120d5565b905061221b610160830184611fe7565b9d9c50505050505050505050505050565b600062ffffff82169050919050565b6122448161222c565b82525050565b600060208201905061225f600083018461223b565b92915050565b600081519050919050565b600082825260208201905092915050565b6000819050602082019050919050565b61229a8161212e565b82525050565b60006122ac8383612291565b60208301905092915050565b6000602082019050919050565b60006122d082612265565b6122da8185612270565b93506122e583612281565b8060005b838110156123165781516122fd88826122a0565b9750612308836122b8565b9250506001810190506122e9565b5085935050505092915050565b600081519050919050565b600082825260208201905092915050565b6000819050602082019050919050565b61235881611fdd565b82525050565b600061236a838361234f565b60208301905092915050565b6000602082019050919050565b600061238e82612323565b612398818561232e565b93506123a38361233f565b8060005b838110156123d45781516123bb888261235e565b97506123c683612376565b9250506001810190506123a7565b5085935050505092915050565b600060608201905081810360008301526123fb81866122c5565b9050818103602083015261240f8185612383565b905081810360408301526124238184612383565b9050949350505050565b60006020820190506124426000830184612140565b92915050565b600081519050919050565b600082825260208201905092915050565b6000819050602082019050919050565b600082825260208201905092915050565b60006124908261207e565b61249a8185612474565b93506124aa81856020860161209a565b6124b3816120c4565b840191505092915050565b600082825260208201905092915050565b60006124da82612265565b6124e481856124be565b93506124ef83612281565b8060005b8381101561252057815161250788826122a0565b9750612512836122b8565b9250506001810190506124f3565b5085935050505092915050565b600082825260208201905092915050565b600061254982612323565b612553818561252d565b935061255e8361233f565b8060005b8381101561258f578151612576888261235e565b975061258183612376565b925050600181019050612562565b5085935050505092915050565b60006101e08301600083015184820360008601526125ba8282612485565b91505060208301516125cf6020860182612291565b50604083015184820360408601526125e78282612485565b915050606083015184820360608601526126018282612485565b9150506080830151848203608086015261261b8282612485565b91505060a083015161263060a086018261234f565b5060c083015161264360c086018261234f565b5060e083015161265660e086018261234f565b5061010083015161266b61010086018261234f565b5061012083015161268061012086018261234f565b5061014083015184820361014086015261269a8282612485565b9150506101608301516126b161016086018261234f565b506101808301518482036101808601526126cb82826124cf565b9150506101a08301518482036101a08601526126e7828261253e565b9150506101c08301518482036101c0860152612703828261253e565b9150508091505092915050565b600061271c838361259c565b905092915050565b6000602082019050919050565b600061273c82612448565b6127468185612453565b93508360208202850161275885612464565b8060005b8581101561279457848403895281516127758582612710565b945061278083612724565b925060208a0199505060018101905061275c565b50829750879550505050505092915050565b600060208201905081810360008301526127c08184612731565b905092915050565b6000819050919050565b60006127ed6127e86127e38461210e565b6127c8565b61210e565b9050919050565b60006127ff826127d2565b9050919050565b6000612811826127f4565b9050919050565b61282181612806565b82525050565b600060208201905061283c6000830184612818565b92915050565b600080fd5b600080fd5b7f4e487b7100000000000000000000000000000000000000000000000000000000600052604160045260246000fd5b612884826120c4565b810181811067ffffffffffffffff821117156128a3576128a261284c565b5b80604052505050565b60006128b6612011565b90506128c2828261287b565b919050565b600067ffffffffffffffff8211156128e2576128e161284c565b5b6128eb826120c4565b9050602081019050919050565b82818337600083830152505050565b600061291a612915846128c7565b6128ac565b90508281526020810184848401111561293657612935612847565b5b6129418482856128f8565b509392505050565b600082601f83011261295e5761295d612842565b5b813561296e848260208601612907565b91505092915050565b6129808161212e565b811461298b57600080fd5b50565b60008135905061299d81612977565b92915050565b600080600080600080600080610100898b0312156129c4576129c361201b565b5b600089013567ffffffffffffffff8111156129e2576129e1612020565b5b6129ee8b828c01612949565b98505060206129ff8b828c0161298e565b975050604089013567ffffffffffffffff811115612a2057612a1f612020565b5b612a2c8b828c01612949565b965050606089013567ffffffffffffffff811115612a4d57612a4c612020565b5b612a598b828c01612949565b955050608089013567ffffffffffffffff811115612a7a57612a79612020565b5b612a868b828c01612949565b94505060a0612a978b828c0161203c565b93505060c0612aa88b828c0161203c565b92505060e089013567ffffffffffffffff811115612ac957612ac8612020565b5b612ad58b828c01612949565b9150509295985092959890939650565b60008060408385031215612afc57612afb61201b565b5b6000612b0a8582860161203c565b9250506020612b1b8582860161203c565b9150509250929050565b600081519050612b3481612025565b92915050565b600060208284031215612b5057612b4f61201b565b5b6000612b5e84828501612b25565b91505092915050565b7f4e487b7100000000000000000000000000000000000000000000000000000000600052602260045260246000fd5b60006002820490506001821680612bae57607f821691505b602082108103612bc157612bc0612b67565b5b50919050565b7f4e6f2063616d706169676e7320617661696c61626c6500000000000000000000600082015250565b6000612bfd601683612089565b9150612c0882612bc7565b602082019050919050565b60006020820190508181036000830152612c2c81612bf0565b9050919050565b7f496e76616c69642063616d706169676e20494400000000000000000000000000600082015250565b6000612c69601383612089565b9150612c7482612c33565b602082019050919050565b60006020820190508181036000830152612c9881612c5c565b9050919050565b7f446f6e6174696f6e206d7573742062652067726561746572207468616e207a6560008201527f726f000000000000000000000000000000000000000000000000000000000000602082015250565b6000612cfb602283612089565b9150612d0682612c9f565b604082019050919050565b60006020820190508181036000830152612d2a81612cee565b9050919050565b7f43616d706169676e206973206e6f742061637469766500000000000000000000600082015250565b6000612d67601683612089565b9150612d7282612d31565b602082019050919050565b60006020820190508181036000830152612d9681612d5a565b9050919050565b7f43616d706169676e2068617320656e6465640000000000000000000000000000600082015250565b6000612dd3601283612089565b9150612dde82612d9d565b602082019050919050565b60006020820190508181036000830152612e0281612dc6565b9050919050565b7f4e487b7100000000000000000000000000000000000000000000000000000000600052601260045260246000fd5b7f4e487b7100000000000000000000000000000000000000000000000000000000600052601160045260246000fd5b6000612e7282611fdd565b9150612e7d83611fdd565b925082612e8d57612e8c612e09565b5b828204905092915050565b6000612ea382611fdd565b9150612eae83611fdd565b9250828201905080821115612ec657612ec5612e38565b5b92915050565b6000604082019050612ee16000830185611fe7565b612eee6020830184611fe7565b9392505050565b6000819050919050565b6000612f1a612f15612f1084612ef5565b6127c8565b611fdd565b9050919050565b612f2a81612eff565b82525050565b6000602082019050612f456000830184612f21565b92915050565b7f4f6e6c79207468652063616d706169676e206f776e6572206f722061646d696e60008201527f2063616e2064656c657465207468652063616d706169676e0000000000000000602082015250565b6000612fa7603883612089565b9150612fb282612f4b565b604082019050919050565b60006020820190508181036000830152612fd681612f9a565b9050919050565b7f4e487b7100000000000000000000000000000000000000000000000000000000600052603260045260246000fd5b7f4e616d652063616e6e6f7420626520656d707479000000000000000000000000600082015250565b6000613042601483612089565b915061304d8261300c565b602082019050919050565b6000602082019050818103600083015261307181613035565b9050919050565b7f496e76616c6964206f776e657220616464726573730000000000000000000000600082015250565b60006130ae601583612089565b91506130b982613078565b602082019050919050565b600060208201905081810360008301526130dd816130a1565b9050919050565b7f5469746c652063616e6e6f7420626520656d7074790000000000000000000000600082015250565b600061311a601583612089565b9150613125826130e4565b602082019050919050565b600060208201905081810360008301526131498161310d565b9050919050565b7f4465736372697074696f6e2063616e6e6f7420626520656d7074790000000000600082015250565b6000613186601b83612089565b915061319182613150565b602082019050919050565b600060208201905081810360008301526131b581613179565b9050919050565b7f43617465676f72792063616e6e6f7420626520656d7074790000000000000000600082015250565b60006131f2601883612089565b91506131fd826131bc565b602082019050919050565b60006020820190508181036000830152613221816131e5565b9050919050565b7f546172676574206d7573742062652067726561746572207468616e2030000000600082015250565b600061325e601d83612089565b915061326982613228565b602082019050919050565b6000602082019050818103600083015261328d81613251565b9050919050565b7f446561646c696e65206d75737420626520696e20746865206675747572650000600082015250565b60006132ca601e83612089565b91506132d582613294565b602082019050919050565b600060208201905081810360008301526132f9816132bd565b9050919050565b7f496d6167652055524c2063616e6e6f7420626520656d70747900000000000000600082015250565b6000613336601983612089565b915061334182613300565b602082019050919050565b6000602082019050818103600083015261336581613329565b9050919050565b60008190508160005260206000209050919050565b60006020601f8301049050919050565b600082821b905092915050565b6000600883026133ce7fffffffffffffffffffffffffffffffffffffffffffffffffffffffffffffffff82613391565b6133d88683613391565b95508019841693508086168417925050509392505050565b600061340b61340661340184611fdd565b6127c8565b611fdd565b9050919050565b6000819050919050565b613425836133f0565b61343961343182613412565b84845461339e565b825550505050565b600090565b61344e613441565b61345981848461341c565b505050565b5b8181101561347d57613472600082613446565b60018101905061345f565b5050565b601f8211156134c2576134938161336c565b61349c84613381565b810160208510156134ab578190505b6134bf6134b785613381565b83018261345e565b50505b505050565b600082821c905092915050565b60006134e5600019846008026134c7565b1980831691505092915050565b60006134fe83836134d4565b9150826002028217905092915050565b6135178261207e565b67ffffffffffffffff8111156135305761352f61284c565b5b61353a8254612b96565b613545828285613481565b600060209050601f8311600181146135785760008415613566578287015190505b61357085826134f2565b8655506135d8565b601f1984166135868661336c565b60005b828110156135ae57848901518255600182019150602085019450602081019050613589565b868310156135cb57848901516135c7601f8916826134d4565b8355505b6001600288020188555050505b505050505050565b60006135eb82611fdd565b91507fffffffffffffffffffffffffffffffffffffffffffffffffffffffffffffffff820361361d5761361c612e38565b5b600182019050919050565b600061363382611fdd565b915061363e83611fdd565b925082820390508181111561365657613655612e38565b5b92915050565b7f496e76616c696420737461747573000000000000000000000000000000000000600082015250565b6000613692600e83612089565b915061369d8261365c565b602082019050919050565b600060208201905081810360008301526136c181613685565b9050919050565b7f4f6e6c792061646d696e2063616e207570646174652073746174757300000000600082015250565b60006136fe601c83612089565b9150613709826136c8565b602082019050919050565b6000602082019050818103600083015261372d816136f1565b9050919050565b7f416d6f756e74206d7573742062652067726561746572207468616e2030000000600082015250565b600061376a601d83612089565b915061377582613734565b602082019050919050565b600060208201905081810360008301526137998161375d565b9050919050565b6137a98161222c565b82525050565b6137b88161210e565b82525050565b610100820160008201516137d56000850182612291565b5060208201516137e86020850182612291565b5060408201516137fb60408501826137a0565b50606082015161380e6060850182612291565b506080820151613821608085018261234f565b5060a082015161383460a085018261234f565b5060c082015161384760c085018261234f565b5060e082015161385a60e08501826137af565b50505050565b60006101008201905061387660008301846137be565b92915050565b60006040820190506138916000830185612140565b61389e6020830184611fe7565b9392505050565b600081519050919050565b600081905092915050565b60006138c6826138a5565b6138d081856138b0565b93506138e081856020860161209a565b80840191505092915050565b60006138f882846138bb565b915081905092915050565b60008115159050919050565b61391881613903565b811461392357600080fd5b50565b6000815190506139358161390f565b92915050565b6000602082840312156139515761395061201b565b5b600061395f84828501613926565b91505092915050565b7f5341000000000000000000000000000000000000000000000000000000000000600082015250565b600061399e600283612089565b91506139a982613968565b602082019050919050565b600060208201905081810360008301526139cd81613991565b905091905056fea26469706673582212202ea4fee280f3cf2d8b9d8b6876796624f5ef47c6b7e5da4046e9260c7ed07f9564736f6c63430008180033",
  "linkReferences": {},
  "deployedLinkReferences": {}
}