{
  "_format": "hh-sol-artifact-1",
  "contractName": "CryptoBacker",
  "sourceName": "contracts/CryptoBacker.sol",
  "abi": [
    {
      "inputs": [
        {
          "internalType": "address",
          "name": "_swapRouter",
          "type": "address"
        },
        {
          "internalType": "address",
          "name": "_WETH",
          "type": "address"
        },
        {
          "internalType": "address",
          "name": "_USDC",
          "type": "address"
        }
      ],
      "stateMutability": "nonpayable",
      "type": "constructor"
    },
    {
      "inputs": [],
      "name": "ReentrancyGuardReentrantCall",
      "type": "error"
    },
    {
      "anonymous": false,
      "inputs": [
        {
          "indexed": true,
          "internalType": "uint256",
          "name": "campaignCode",
          "type": "uint256"
        },
        {
          "indexed": true,
          "internalType": "address",
          "name": "owner",
          "type": "address"
        },
        {
          "indexed": false,
          "internalType": "uint256",
          "name": "target",
          "type": "uint256"
        },
        {
          "indexed": false,
          "internalType": "uint256",
          "name": "deadline",
          "type": "uint256"
        },
        {
          "indexed": false,
          "internalType": "uint256",
          "name": "createdAt",
          "type": "uint256"
        }
      ],
      "name": "CampaignCreated",
      "type": "event"
    },
    {
      "anonymous": false,
      "inputs": [
        {
          "indexed": true,
          "internalType": "uint256",
          "name": "campaignCode",
          "type": "uint256"
        }
      ],
      "name": "CampaignDeleted",
      "type": "event"
    },
    {
      "anonymous": false,
      "inputs": [
        {
          "indexed": true,
          "internalType": "uint256",
          "name": "campaignCode",
          "type": "uint256"
        },
        {
          "indexed": false,
          "internalType": "uint256",
          "name": "newStatus",
          "type": "uint256"
        }
      ],
      "name": "CampaignStatusUpdated",
      "type": "event"
    },
    {
      "anonymous": false,
      "inputs": [
        {
          "indexed": true,
          "internalType": "uint256",
          "name": "campaignCode",
          "type": "uint256"
        },
        {
          "indexed": true,
          "internalType": "address",
          "name": "donor",
          "type": "address"
        },
        {
          "indexed": false,
          "internalType": "string",
          "name": "donorName",
          "type": "string"
        },
        {
          "indexed": false,
          "internalType": "string",
          "name": "donorEmail",
          "type": "string"
        },
        {
          "indexed": false,
          "internalType": "uint256",
          "name": "amountETH",
          "type": "uint256"
        },
        {
          "indexed": false,
          "internalType": "uint256",
          "name": "amountUSDC",
          "type": "uint256"
        },
        {
          "indexed": false,
          "internalType": "uint256",
          "name": "timestamp",
          "type": "uint256"
        }
      ],
      "name": "DonationReceived",
      "type": "event"
    },
    {
      "stateMutability": "payable",
      "type": "fallback"
    },
    {
      "inputs": [],
      "name": "FEE_TIER",
      "outputs": [
        {
          "internalType": "uint24",
          "name": "",
          "type": "uint24"
        }
      ],
      "stateMutability": "view",
      "type": "function"
    },
    {
      "inputs": [],
      "name": "USDC",
      "outputs": [
        {
          "internalType": "address",
          "name": "",
          "type": "address"
        }
      ],
      "stateMutability": "view",
      "type": "function"
    },
    {
      "inputs": [],
      "name": "WETH",
      "outputs": [
        {
          "internalType": "address",
          "name": "",
          "type": "address"
        }
      ],
      "stateMutability": "view",
      "type": "function"
    },
    {
      "inputs": [
        {
          "internalType": "uint256",
          "name": "",
          "type": "uint256"
        }
      ],
      "name": "campaigns",
      "outputs": [
        {
          "internalType": "string",
          "name": "name",
          "type": "string"
        },
        {
          "internalType": "address",
          "name": "owner",
          "type": "address"
        },
        {
          "internalType": "string",
          "name": "category",
          "type": "string"
        },
        {
          "internalType": "string",
          "name": "title",
          "type": "string"
        },
        {
          "internalType": "string",
          "name": "description",
          "type": "string"
        },
        {
          "internalType": "uint256",
          "name": "campaignCode",
          "type": "uint256"
        },
        {
          "internalType": "uint256",
          "name": "target",
          "type": "uint256"
        },
        {
          "internalType": "uint256",
          "name": "deadline",
          "type": "uint256"
        },
        {
          "internalType": "uint256",
          "name": "amountCollectedETH",
          "type": "uint256"
        },
        {
          "internalType": "uint256",
          "name": "amountCollectedUSDC",
          "type": "uint256"
        },
        {
          "internalType": "uint256",
          "name": "status",
          "type": "uint256"
        },
        {
          "internalType": "uint256",
          "name": "createdAt",
          "type": "uint256"
        }
      ],
      "stateMutability": "view",
      "type": "function"
    },
    {
      "inputs": [
        {
          "internalType": "string",
          "name": "_name",
          "type": "string"
        },
        {
          "internalType": "address",
          "name": "_owner",
          "type": "address"
        },
        {
          "internalType": "string",
          "name": "_title",
          "type": "string"
        },
        {
          "internalType": "string",
          "name": "_description",
          "type": "string"
        },
        {
          "internalType": "string",
          "name": "_category",
          "type": "string"
        },
        {
          "internalType": "uint256",
          "name": "_target",
          "type": "uint256"
        },
        {
          "internalType": "uint256",
          "name": "_deadline",
          "type": "uint256"
        }
      ],
      "name": "createCampaign",
      "outputs": [
        {
          "internalType": "uint256",
          "name": "",
          "type": "uint256"
        }
      ],
      "stateMutability": "nonpayable",
      "type": "function"
    },
    {
      "inputs": [
        {
          "internalType": "uint256",
          "name": "_id",
          "type": "uint256"
        }
      ],
      "name": "deleteCampaign",
      "outputs": [],
      "stateMutability": "nonpayable",
      "type": "function"
    },
    {
      "inputs": [
        {
          "internalType": "uint256",
          "name": "_id",
          "type": "uint256"
        },
        {
          "internalType": "string",
          "name": "_userName",
          "type": "string"
        },
        {
          "internalType": "string",
          "name": "_userEmail",
          "type": "string"
        }
      ],
      "name": "donateToCampaign",
      "outputs": [
        {
          "internalType": "uint256",
          "name": "",
          "type": "uint256"
        }
      ],
      "stateMutability": "payable",
      "type": "function"
    },
    {
      "inputs": [],
      "name": "getCampaigns",
      "outputs": [
        {
          "components": [
            {
              "internalType": "string",
              "name": "name",
              "type": "string"
            },
            {
              "internalType": "address",
              "name": "owner",
              "type": "address"
            },
            {
              "internalType": "string",
              "name": "category",
              "type": "string"
            },
            {
              "internalType": "string",
              "name": "title",
              "type": "string"
            },
            {
              "internalType": "string",
              "name": "description",
              "type": "string"
            },
            {
              "internalType": "uint256",
              "name": "campaignCode",
              "type": "uint256"
            },
            {
              "internalType": "uint256",
              "name": "target",
              "type": "uint256"
            },
            {
              "internalType": "uint256",
              "name": "deadline",
              "type": "uint256"
            },
            {
              "internalType": "uint256",
              "name": "amountCollectedETH",
              "type": "uint256"
            },
            {
              "internalType": "uint256",
              "name": "amountCollectedUSDC",
              "type": "uint256"
            },
            {
              "internalType": "uint256",
              "name": "status",
              "type": "uint256"
            },
            {
              "internalType": "uint256",
              "name": "createdAt",
              "type": "uint256"
            },
            {
              "components": [
                {
                  "internalType": "address",
                  "name": "donor",
                  "type": "address"
                },
                {
                  "internalType": "string",
                  "name": "donorName",
                  "type": "string"
                },
                {
                  "internalType": "string",
                  "name": "donorEmail",
                  "type": "string"
                },
                {
                  "internalType": "uint256",
                  "name": "amountETH",
                  "type": "uint256"
                },
                {
                  "internalType": "uint256",
                  "name": "amountUSDC",
                  "type": "uint256"
                },
                {
                  "internalType": "uint256",
                  "name": "timestamp",
                  "type": "uint256"
                }
              ],
              "internalType": "struct CryptoBacker.Donation[]",
              "name": "donations",
              "type": "tuple[]"
            }
          ],
          "internalType": "struct CryptoBacker.Campaign[]",
          "name": "",
          "type": "tuple[]"
        }
      ],
      "stateMutability": "view",
      "type": "function"
    },
    {
      "inputs": [],
      "name": "getContractBalance",
      "outputs": [
        {
          "internalType": "uint256",
          "name": "",
          "type": "uint256"
        }
      ],
      "stateMutability": "view",
      "type": "function"
    },
    {
      "inputs": [],
      "name": "getContractUSDCBalance",
      "outputs": [
        {
          "internalType": "uint256",
          "name": "",
          "type": "uint256"
        }
      ],
      "stateMutability": "view",
      "type": "function"
    },
    {
      "inputs": [
        {
          "internalType": "uint256",
          "name": "_id",
          "type": "uint256"
        }
      ],
      "name": "getDonations",
      "outputs": [
        {
          "components": [
            {
              "internalType": "address",
              "name": "donor",
              "type": "address"
            },
            {
              "internalType": "string",
              "name": "donorName",
              "type": "string"
            },
            {
              "internalType": "string",
              "name": "donorEmail",
              "type": "string"
            },
            {
              "internalType": "uint256",
              "name": "amountETH",
              "type": "uint256"
            },
            {
              "internalType": "uint256",
              "name": "amountUSDC",
              "type": "uint256"
            },
            {
              "internalType": "uint256",
              "name": "timestamp",
              "type": "uint256"
            }
          ],
          "internalType": "struct CryptoBacker.Donation[]",
          "name": "",
          "type": "tuple[]"
        }
      ],
      "stateMutability": "view",
      "type": "function"
    },
    {
      "inputs": [],
      "name": "numberOfCampaigns",
      "outputs": [
        {
          "internalType": "uint256",
          "name": "",
          "type": "uint256"
        }
      ],
      "stateMutability": "view",
      "type": "function"
    },
    {
      "inputs": [],
      "name": "swapRouter",
      "outputs": [
        {
          "internalType": "contract ISwapRouter",
          "name": "",
          "type": "address"
        }
      ],
      "stateMutability": "view",
      "type": "function"
    },
    {
      "inputs": [
        {
          "internalType": "uint256",
          "name": "_id",
          "type": "uint256"
        },
        {
          "internalType": "uint256",
          "name": "_newStatus",
          "type": "uint256"
        }
      ],
      "name": "updateCampaignStatus",
      "outputs": [],
      "stateMutability": "nonpayable",
      "type": "function"
    },
    {
      "stateMutability": "payable",
      "type": "receive"
    }
  ],
  "bytecode": "0x60e060405260006002553480156200001657600080fd5b5060405162003c4d38038062003c4d83398181016040528101906200003c919062000153565b60016000819055508273ffffffffffffffffffffffffffffffffffffffff1660808173ffffffffffffffffffffffffffffffffffffffff16815250508173ffffffffffffffffffffffffffffffffffffffff1660a08173ffffffffffffffffffffffffffffffffffffffff16815250508073ffffffffffffffffffffffffffffffffffffffff1660c08173ffffffffffffffffffffffffffffffffffffffff1681525050505050620001af565b600080fd5b600073ffffffffffffffffffffffffffffffffffffffff82169050919050565b60006200011b82620000ee565b9050919050565b6200012d816200010e565b81146200013957600080fd5b50565b6000815190506200014d8162000122565b92915050565b6000806000606084860312156200016f576200016e620000e9565b5b60006200017f868287016200013c565b935050602062000192868287016200013c565b9250506040620001a5868287016200013c565b9150509250925092565b60805160a05160c051613a2f6200021e600039600081816103890152818161129d0152611beb01526000818161189c01528181611ad501528181611b5901528181611baf0152611d2e0152600081816118c001528181611b7a01528181611c8d0152611d4f0152613a2f6000f3fe6080604052600436106100e05760003560e01c80636f9fb98a1161007f578063a6b0363311610059578063a6b03633146102db578063ad5c464814610306578063c31c9c0714610331578063eaa1b0bc1461035c576100e7565b80636f9fb98a1461025c578063759701931461028757806389a30271146102b0576100e7565b8063141961bc116100bb578063141961bc1461016f5780632828f2ee146101b75780634c69a6c9146101f4578063596d9ce21461021f576100e7565b80622772c2146100e957806307ca140d14610114578063131be6741461013f576100e7565b366100e757005b005b3480156100f557600080fd5b506100fe610385565b60405161010b9190612068565b60405180910390f35b34801561012057600080fd5b50610129610426565b6040516101369190612068565b60405180910390f35b61015960048036038101906101549190612209565b61042c565b6040516101669190612068565b60405180910390f35b34801561017b57600080fd5b5061019660048036038101906101919190612294565b6107e0565b6040516101ae9c9b9a99989796959493929190612381565b60405180910390f35b3480156101c357600080fd5b506101de60048036038101906101d99190612483565b610a80565b6040516101eb9190612068565b60405180910390f35b34801561020057600080fd5b50610209610df7565b60405161021691906125b3565b60405180910390f35b34801561022b57600080fd5b5061024660048036038101906102419190612294565b610dfd565b6040516102539190612788565b60405180910390f35b34801561026857600080fd5b5061027161104e565b60405161027e9190612068565b60405180910390f35b34801561029357600080fd5b506102ae60048036038101906102a99190612294565b611056565b005b3480156102bc57600080fd5b506102c561129b565b6040516102d291906127aa565b60405180910390f35b3480156102e757600080fd5b506102f06112bf565b6040516102fd9190612a42565b60405180910390f35b34801561031257600080fd5b5061031b61189a565b60405161032891906127aa565b60405180910390f35b34801561033d57600080fd5b506103466118be565b6040516103539190612ac3565b60405180910390f35b34801561036857600080fd5b50610383600480360381019061037e9190612ade565b6118e2565b005b60007f000000000000000000000000000000000000000000000000000000000000000073ffffffffffffffffffffffffffffffffffffffff166370a08231306040518263ffffffff1660e01b81526004016103e091906127aa565b602060405180830381865afa1580156103fd573d6000803e3d6000fd5b505050506040513d601f19601f820116820180604052508101906104219190612b33565b905090565b60025481565b6000610436611a49565b60006002541161047b576040517f08c379a000000000000000000000000000000000000000000000000000000000815260040161047290612bac565b60405180910390fd5b60025484106104bf576040517f08c379a00000000000000000000000000000000000000000000000000000000081526004016104b690612c18565b60405180910390fd5b60003411610502576040517f08c379a00000000000000000000000000000000000000000000000000000000081526004016104f990612caa565b60405180910390fd5b6000600160008681526020019081526020016000209050600081600a015403610560576040517f08c379a000000000000000000000000000000000000000000000000000000000815260040161055790612d16565b60405180910390fd5b806007015442106105a6576040517f08c379a000000000000000000000000000000000000000000000000000000000815260040161059d90612d82565b60405180910390fd5b600034905060006105c26002836105bd9190612e00565b611a8f565b905082600c016040518060c001604052803373ffffffffffffffffffffffffffffffffffffffff1681526020018881526020018781526020016002856106089190612e00565b815260200183815260200142815250908060018154018082558091505060019003906000526020600020906006020160009091909190915060008201518160000160006101000a81548173ffffffffffffffffffffffffffffffffffffffff021916908373ffffffffffffffffffffffffffffffffffffffff160217905550602082015181600101908161069c9190613033565b5060408201518160020190816106b29190613033565b50606082015181600301556080820151816004015560a0820151816005015550506002826106e09190612e00565b8360080160008282546106f39190613105565b925050819055508083600901600082825461070e9190613105565b925050819055503373ffffffffffffffffffffffffffffffffffffffff16877f84038083661ab3698bfe2b1202fa65e8fd987cef13606f396be72c1685b8172c888860028761075d9190612e00565b8642604051610770959493929190613139565b60405180910390a382600601548360080154106107cb57600183600a0181905550867f8f91fea7c957b922286b233aacdbef39c778fbf18b1e208359140dfa65bfd3c260016040516107c291906131d5565b60405180910390a25b8093505050506107d9611d7b565b9392505050565b600160205280600052604060002060009150905080600001805461080390612e60565b80601f016020809104026020016040519081016040528092919081815260200182805461082f90612e60565b801561087c5780601f106108515761010080835404028352916020019161087c565b820191906000526020600020905b81548152906001019060200180831161085f57829003601f168201915b5050505050908060010160009054906101000a900473ffffffffffffffffffffffffffffffffffffffff16908060020180546108b790612e60565b80601f01602080910402602001604051908101604052809291908181526020018280546108e390612e60565b80156109305780601f1061090557610100808354040283529160200191610930565b820191906000526020600020905b81548152906001019060200180831161091357829003601f168201915b50505050509080600301805461094590612e60565b80601f016020809104026020016040519081016040528092919081815260200182805461097190612e60565b80156109be5780601f10610993576101008083540402835291602001916109be565b820191906000526020600020905b8154815290600101906020018083116109a157829003601f168201915b5050505050908060040180546109d390612e60565b80601f01602080910402602001604051908101604052809291908181526020018280546109ff90612e60565b8015610a4c5780601f10610a2157610100808354040283529160200191610a4c565b820191906000526020600020905b815481529060010190602001808311610a2f57829003601f168201915b50505050509080600501549080600601549080600701549080600801549080600901549080600a01549080600b015490508c565b600080885111610ac5576040517f08c379a0000000000000000000000000000000000000000000000000000000008152600401610abc9061323c565b60405180910390fd5b600073ffffffffffffffffffffffffffffffffffffffff168773ffffffffffffffffffffffffffffffffffffffff1603610b34576040517f08c379a0000000000000000000000000000000000000000000000000000000008152600401610b2b906132a8565b60405180910390fd5b6000865111610b78576040517f08c379a0000000000000000000000000000000000000000000000000000000008152600401610b6f90613314565b60405180910390fd5b6000855111610bbc576040517f08c379a0000000000000000000000000000000000000000000000000000000008152600401610bb390613380565b60405180910390fd5b6000845111610c00576040517f08c379a0000000000000000000000000000000000000000000000000000000008152600401610bf7906133ec565b60405180910390fd5b60008311610c43576040517f08c379a0000000000000000000000000000000000000000000000000000000008152600401610c3a90613458565b60405180910390fd5b428211610c85576040517f08c379a0000000000000000000000000000000000000000000000000000000008152600401610c7c906134c4565b60405180910390fd5b60006001600060025481526020019081526020016000209050878160010160006101000a81548173ffffffffffffffffffffffffffffffffffffffff021916908373ffffffffffffffffffffffffffffffffffffffff16021790555088816000019081610cf29190613033565b5086816003019081610d049190613033565b5085816004019081610d169190613033565b5084816002019081610d289190613033565b508381600601819055508281600701819055506000816008018190555060008160090181905550600081600a018190555060025481600501819055504281600b01819055508773ffffffffffffffffffffffffffffffffffffffff166002547f532ce22d86c3d75e9e14507fdc84d53517c2726edb5c97af3c34fb362233b071868642604051610dba939291906134e4565b60405180910390a360026000815480929190610dd59061351b565b91905055506001600254610de99190613563565b915050979650505050505050565b610bb881565b60606002548210610e43576040517f08c379a0000000000000000000000000000000000000000000000000000000008152600401610e3a90612c18565b60405180910390fd5b60016000838152602001908152602001600020600c01805480602002602001604051908101604052809291908181526020016000905b8282101561104357838290600052602060002090600602016040518060c00160405290816000820160009054906101000a900473ffffffffffffffffffffffffffffffffffffffff1673ffffffffffffffffffffffffffffffffffffffff1673ffffffffffffffffffffffffffffffffffffffff168152602001600182018054610f0290612e60565b80601f0160208091040260200160405190810160405280929190818152602001828054610f2e90612e60565b8015610f7b5780601f10610f5057610100808354040283529160200191610f7b565b820191906000526020600020905b815481529060010190602001808311610f5e57829003601f168201915b50505050508152602001600282018054610f9490612e60565b80601f0160208091040260200160405190810160405280929190818152602001828054610fc090612e60565b801561100d5780601f10610fe25761010080835404028352916020019161100d565b820191906000526020600020905b815481529060010190602001808311610ff057829003601f168201915b50505050508152602001600382015481526020016004820154815260200160058201548152505081526020019060010190610e79565b505050509050919050565b600047905090565b600254811061109a576040517f08c379a000000000000000000000000000000000000000000000000000000000815260040161109190612c18565b60405180910390fd5b60006001600083815260200190815260200160002090503373ffffffffffffffffffffffffffffffffffffffff168160010160009054906101000a900473ffffffffffffffffffffffffffffffffffffffff1673ffffffffffffffffffffffffffffffffffffffff16148061114e575073f39fd6e51aad88f6f4ce6ab8827279cfffb9226673ffffffffffffffffffffffffffffffffffffffff163373ffffffffffffffffffffffffffffffffffffffff16145b61118d576040517f08c379a000000000000000000000000000000000000000000000000000000000815260040161118490613609565b60405180910390fd5b60016000838152602001908152602001600020600080820160006111b19190611eda565b6001820160006101000a81549073ffffffffffffffffffffffffffffffffffffffff02191690556002820160006111e89190611eda565b6003820160006111f89190611eda565b6004820160006112089190611eda565b60058201600090556006820160009055600782016000905560088201600090556009820160009055600a820160009055600b820160009055600c820160006112509190611f1a565b50506002600081548092919061126590613629565b9190505550817fa61e586bd6a065bde887af9ec4705829557488d3ccdea823ab66aafd7c3aa09960405160405180910390a25050565b7f000000000000000000000000000000000000000000000000000000000000000081565b6060600060025411611306576040517f08c379a00000000000000000000000000000000000000000000000000000000081526004016112fd90612bac565b60405180910390fd5b600060025467ffffffffffffffff811115611324576113236120de565b5b60405190808252806020026020018201604052801561135d57816020015b61134a611f3e565b8152602001906001900390816113425790505b50905060005b6002548110156118925760016000828152602001908152602001600020604051806101a001604052908160008201805461139c90612e60565b80601f01602080910402602001604051908101604052809291908181526020018280546113c890612e60565b80156114155780601f106113ea57610100808354040283529160200191611415565b820191906000526020600020905b8154815290600101906020018083116113f857829003601f168201915b505050505081526020016001820160009054906101000a900473ffffffffffffffffffffffffffffffffffffffff1673ffffffffffffffffffffffffffffffffffffffff1673ffffffffffffffffffffffffffffffffffffffff16815260200160028201805461148490612e60565b80601f01602080910402602001604051908101604052809291908181526020018280546114b090612e60565b80156114fd5780601f106114d2576101008083540402835291602001916114fd565b820191906000526020600020905b8154815290600101906020018083116114e057829003601f168201915b5050505050815260200160038201805461151690612e60565b80601f016020809104026020016040519081016040528092919081815260200182805461154290612e60565b801561158f5780601f106115645761010080835404028352916020019161158f565b820191906000526020600020905b81548152906001019060200180831161157257829003601f168201915b505050505081526020016004820180546115a890612e60565b80601f01602080910402602001604051908101604052809291908181526020018280546115d490612e60565b80156116215780601f106115f657610100808354040283529160200191611621565b820191906000526020600020905b81548152906001019060200180831161160457829003601f168201915b505050505081526020016005820154815260200160068201548152602001600782015481526020016008820154815260200160098201548152602001600a8201548152602001600b8201548152602001600c8201805480602002602001604051908101604052809291908181526020016000905b8282101561185f57838290600052602060002090600602016040518060c00160405290816000820160009054906101000a900473ffffffffffffffffffffffffffffffffffffffff1673ffffffffffffffffffffffffffffffffffffffff1673ffffffffffffffffffffffffffffffffffffffff16815260200160018201805461171e90612e60565b80601f016020809104026020016040519081016040528092919081815260200182805461174a90612e60565b80156117975780601f1061176c57610100808354040283529160200191611797565b820191906000526020600020905b81548152906001019060200180831161177a57829003601f168201915b505050505081526020016002820180546117b090612e60565b80601f01602080910402602001604051908101604052809291908181526020018280546117dc90612e60565b80156118295780601f106117fe57610100808354040283529160200191611829565b820191906000526020600020905b81548152906001019060200180831161180c57829003601f168201915b50505050508152602001600382015481526020016004820154815260200160058201548152505081526020019060010190611695565b505050508152505082828151811061187a57611879613652565b5b60200260200101819052508080600101915050611363565b508091505090565b7f000000000000000000000000000000000000000000000000000000000000000081565b7f000000000000000000000000000000000000000000000000000000000000000081565b6002548210611926576040517f08c379a000000000000000000000000000000000000000000000000000000000815260040161191d90612c18565b60405180910390fd5b600281111561196a576040517f08c379a0000000000000000000000000000000000000000000000000000000008152600401611961906136cd565b60405180910390fd5b600060016000848152602001908152602001600020905073f39fd6e51aad88f6f4ce6ab8827279cfffb9226673ffffffffffffffffffffffffffffffffffffffff163373ffffffffffffffffffffffffffffffffffffffff1614611a03576040517f08c379a00000000000000000000000000000000000000000000000000000000081526004016119fa90613739565b60405180910390fd5b8181600a0181905550827f8f91fea7c957b922286b233aacdbef39c778fbf18b1e208359140dfa65bfd3c283604051611a3c9190612068565b60405180910390a2505050565b600260005403611a85576040517f3ee5aeb500000000000000000000000000000000000000000000000000000000815260040160405180910390fd5b6002600081905550565b6000808211611ad3576040517f08c379a0000000000000000000000000000000000000000000000000000000008152600401611aca906137a5565b60405180910390fd5b7f000000000000000000000000000000000000000000000000000000000000000073ffffffffffffffffffffffffffffffffffffffff1663d0e30db0836040518263ffffffff1660e01b81526004016000604051808303818588803b158015611b3b57600080fd5b505af1158015611b4f573d6000803e3d6000fd5b5050505050611b9f7f00000000000000000000000000000000000000000000000000000000000000007f000000000000000000000000000000000000000000000000000000000000000084611d85565b60006040518061010001604052807f000000000000000000000000000000000000000000000000000000000000000073ffffffffffffffffffffffffffffffffffffffff1681526020017f000000000000000000000000000000000000000000000000000000000000000073ffffffffffffffffffffffffffffffffffffffff168152602001610bb862ffffff1681526020013073ffffffffffffffffffffffffffffffffffffffff16815260200161025842611c5c9190613105565b815260200184815260200160008152602001600073ffffffffffffffffffffffffffffffffffffffff1681525090507f000000000000000000000000000000000000000000000000000000000000000073ffffffffffffffffffffffffffffffffffffffff1663414bf389826040518263ffffffff1660e01b8152600401611ce49190613885565b6020604051808303816000875af1158015611d03573d6000803e3d6000fd5b505050506040513d601f19601f82011682018060405250810190611d279190612b33565b9150611d757f00000000000000000000000000000000000000000000000000000000000000007f00000000000000000000000000000000000000000000000000000000000000006000611d85565b50919050565b6001600081905550565b6000808473ffffffffffffffffffffffffffffffffffffffff1663095ea7b360e01b8585604051602401611dba9291906138a1565b604051602081830303815290604052907bffffffffffffffffffffffffffffffffffffffffffffffffffffffff19166020820180517bffffffffffffffffffffffffffffffffffffffffffffffffffffffff8381831617835250505050604051611e249190613911565b6000604051808303816000865af19150503d8060008114611e61576040519150601f19603f3d011682016040523d82523d6000602084013e611e66565b606091505b5091509150818015611e945750600081511480611e93575080806020019051810190611e929190613960565b5b5b611ed3576040517f08c379a0000000000000000000000000000000000000000000000000000000008152600401611eca906139d9565b60405180910390fd5b5050505050565b508054611ee690612e60565b6000825580601f10611ef85750611f17565b601f016020900490600052602060002090810190611f169190611fbc565b5b50565b5080546000825560060290600052602060002090810190611f3b9190611fd9565b50565b604051806101a0016040528060608152602001600073ffffffffffffffffffffffffffffffffffffffff16815260200160608152602001606081526020016060815260200160008152602001600081526020016000815260200160008152602001600081526020016000815260200160008152602001606081525090565b5b80821115611fd5576000816000905550600101611fbd565b5090565b5b8082111561204b57600080820160006101000a81549073ffffffffffffffffffffffffffffffffffffffff021916905560018201600061201a9190611eda565b60028201600061202a9190611eda565b60038201600090556004820160009055600582016000905550600601611fda565b5090565b6000819050919050565b6120628161204f565b82525050565b600060208201905061207d6000830184612059565b92915050565b6000604051905090565b600080fd5b600080fd5b6120a08161204f565b81146120ab57600080fd5b50565b6000813590506120bd81612097565b92915050565b600080fd5b600080fd5b6000601f19601f8301169050919050565b7f4e487b7100000000000000000000000000000000000000000000000000000000600052604160045260246000fd5b612116826120cd565b810181811067ffffffffffffffff82111715612135576121346120de565b5b80604052505050565b6000612148612083565b9050612154828261210d565b919050565b600067ffffffffffffffff821115612174576121736120de565b5b61217d826120cd565b9050602081019050919050565b82818337600083830152505050565b60006121ac6121a784612159565b61213e565b9050828152602081018484840111156121c8576121c76120c8565b5b6121d384828561218a565b509392505050565b600082601f8301126121f0576121ef6120c3565b5b8135612200848260208601612199565b91505092915050565b6000806000606084860312156122225761222161208d565b5b6000612230868287016120ae565b935050602084013567ffffffffffffffff81111561225157612250612092565b5b61225d868287016121db565b925050604084013567ffffffffffffffff81111561227e5761227d612092565b5b61228a868287016121db565b9150509250925092565b6000602082840312156122aa576122a961208d565b5b60006122b8848285016120ae565b91505092915050565b600081519050919050565b600082825260208201905092915050565b60005b838110156122fb5780820151818401526020810190506122e0565b60008484015250505050565b6000612312826122c1565b61231c81856122cc565b935061232c8185602086016122dd565b612335816120cd565b840191505092915050565b600073ffffffffffffffffffffffffffffffffffffffff82169050919050565b600061236b82612340565b9050919050565b61237b81612360565b82525050565b600061018082019050818103600083015261239c818f612307565b90506123ab602083018e612372565b81810360408301526123bd818d612307565b905081810360608301526123d1818c612307565b905081810360808301526123e5818b612307565b90506123f460a083018a612059565b61240160c0830189612059565b61240e60e0830188612059565b61241c610100830187612059565b61242a610120830186612059565b612438610140830185612059565b612446610160830184612059565b9d9c50505050505050505050505050565b61246081612360565b811461246b57600080fd5b50565b60008135905061247d81612457565b92915050565b600080600080600080600060e0888a0312156124a2576124a161208d565b5b600088013567ffffffffffffffff8111156124c0576124bf612092565b5b6124cc8a828b016121db565b97505060206124dd8a828b0161246e565b965050604088013567ffffffffffffffff8111156124fe576124fd612092565b5b61250a8a828b016121db565b955050606088013567ffffffffffffffff81111561252b5761252a612092565b5b6125378a828b016121db565b945050608088013567ffffffffffffffff81111561255857612557612092565b5b6125648a828b016121db565b93505060a06125758a828b016120ae565b92505060c06125868a828b016120ae565b91505092959891949750929550565b600062ffffff82169050919050565b6125ad81612595565b82525050565b60006020820190506125c860008301846125a4565b92915050565b600081519050919050565b600082825260208201905092915050565b6000819050602082019050919050565b61260381612360565b82525050565b600082825260208201905092915050565b6000612625826122c1565b61262f8185612609565b935061263f8185602086016122dd565b612648816120cd565b840191505092915050565b61265c8161204f565b82525050565b600060c08301600083015161267a60008601826125fa565b5060208301518482036020860152612692828261261a565b915050604083015184820360408601526126ac828261261a565b91505060608301516126c16060860182612653565b5060808301516126d46080860182612653565b5060a08301516126e760a0860182612653565b508091505092915050565b60006126fe8383612662565b905092915050565b6000602082019050919050565b600061271e826125ce565b61272881856125d9565b93508360208202850161273a856125ea565b8060005b85811015612776578484038952815161275785826126f2565b945061276283612706565b925060208a0199505060018101905061273e565b50829750879550505050505092915050565b600060208201905081810360008301526127a28184612713565b905092915050565b60006020820190506127bf6000830184612372565b92915050565b600081519050919050565b600082825260208201905092915050565b6000819050602082019050919050565b600082825260208201905092915050565b600061280d826125ce565b61281781856127f1565b935083602082028501612829856125ea565b8060005b85811015612865578484038952815161284685826126f2565b945061285183612706565b925060208a0199505060018101905061282d565b50829750879550505050505092915050565b60006101a0830160008301518482036000860152612895828261261a565b91505060208301516128aa60208601826125fa565b50604083015184820360408601526128c2828261261a565b915050606083015184820360608601526128dc828261261a565b915050608083015184820360808601526128f6828261261a565b91505060a083015161290b60a0860182612653565b5060c083015161291e60c0860182612653565b5060e083015161293160e0860182612653565b50610100830151612946610100860182612653565b5061012083015161295b610120860182612653565b50610140830151612970610140860182612653565b50610160830151612985610160860182612653565b5061018083015184820361018086015261299f8282612802565b9150508091505092915050565b60006129b88383612877565b905092915050565b6000602082019050919050565b60006129d8826127c5565b6129e281856127d0565b9350836020820285016129f4856127e1565b8060005b85811015612a305784840389528151612a1185826129ac565b9450612a1c836129c0565b925060208a019950506001810190506129f8565b50829750879550505050505092915050565b60006020820190508181036000830152612a5c81846129cd565b905092915050565b6000819050919050565b6000612a89612a84612a7f84612340565b612a64565b612340565b9050919050565b6000612a9b82612a6e565b9050919050565b6000612aad82612a90565b9050919050565b612abd81612aa2565b82525050565b6000602082019050612ad86000830184612ab4565b92915050565b60008060408385031215612af557612af461208d565b5b6000612b03858286016120ae565b9250506020612b14858286016120ae565b9150509250929050565b600081519050612b2d81612097565b92915050565b600060208284031215612b4957612b4861208d565b5b6000612b5784828501612b1e565b91505092915050565b7f4e6f2063616d706169676e7320617661696c61626c6500000000000000000000600082015250565b6000612b966016836122cc565b9150612ba182612b60565b602082019050919050565b60006020820190508181036000830152612bc581612b89565b9050919050565b7f496e76616c69642063616d706169676e20494400000000000000000000000000600082015250565b6000612c026013836122cc565b9150612c0d82612bcc565b602082019050919050565b60006020820190508181036000830152612c3181612bf5565b9050919050565b7f446f6e6174696f6e206d7573742062652067726561746572207468616e207a6560008201527f726f000000000000000000000000000000000000000000000000000000000000602082015250565b6000612c946022836122cc565b9150612c9f82612c38565b604082019050919050565b60006020820190508181036000830152612cc381612c87565b9050919050565b7f43616d706169676e206973206e6f742061637469766500000000000000000000600082015250565b6000612d006016836122cc565b9150612d0b82612cca565b602082019050919050565b60006020820190508181036000830152612d2f81612cf3565b9050919050565b7f43616d706169676e2068617320656e6465640000000000000000000000000000600082015250565b6000612d6c6012836122cc565b9150612d7782612d36565b602082019050919050565b60006020820190508181036000830152612d9b81612d5f565b9050919050565b7f4e487b7100000000000000000000000000000000000000000000000000000000600052601260045260246000fd5b7f4e487b7100000000000000000000000000000000000000000000000000000000600052601160045260246000fd5b6000612e0b8261204f565b9150612e168361204f565b925082612e2657612e25612da2565b5b828204905092915050565b7f4e487b7100000000000000000000000000000000000000000000000000000000600052602260045260246000fd5b60006002820490506001821680612e7857607f821691505b602082108103612e8b57612e8a612e31565b5b50919050565b60008190508160005260206000209050919050565b60006020601f8301049050919050565b600082821b905092915050565b600060088302612ef37fffffffffffffffffffffffffffffffffffffffffffffffffffffffffffffffff82612eb6565b612efd8683612eb6565b95508019841693508086168417925050509392505050565b6000612f30612f2b612f268461204f565b612a64565b61204f565b9050919050565b6000819050919050565b612f4a83612f15565b612f5e612f5682612f37565b848454612ec3565b825550505050565b600090565b612f73612f66565b612f7e818484612f41565b505050565b5b81811015612fa257612f97600082612f6b565b600181019050612f84565b5050565b601f821115612fe757612fb881612e91565b612fc184612ea6565b81016020851015612fd0578190505b612fe4612fdc85612ea6565b830182612f83565b50505b505050565b600082821c905092915050565b600061300a60001984600802612fec565b1980831691505092915050565b60006130238383612ff9565b9150826002028217905092915050565b61303c826122c1565b67ffffffffffffffff811115613055576130546120de565b5b61305f8254612e60565b61306a828285612fa6565b600060209050601f83116001811461309d576000841561308b578287015190505b6130958582613017565b8655506130fd565b601f1984166130ab86612e91565b60005b828110156130d3578489015182556001820191506020850194506020810190506130ae565b868310156130f057848901516130ec601f891682612ff9565b8355505b6001600288020188555050505b505050505050565b60006131108261204f565b915061311b8361204f565b925082820190508082111561313357613132612dd1565b5b92915050565b600060a08201905081810360008301526131538188612307565b905081810360208301526131678187612307565b90506131766040830186612059565b6131836060830185612059565b6131906080830184612059565b9695505050505050565b6000819050919050565b60006131bf6131ba6131b58461319a565b612a64565b61204f565b9050919050565b6131cf816131a4565b82525050565b60006020820190506131ea60008301846131c6565b92915050565b7f4e616d652063616e6e6f7420626520656d707479000000000000000000000000600082015250565b60006132266014836122cc565b9150613231826131f0565b602082019050919050565b6000602082019050818103600083015261325581613219565b9050919050565b7f496e76616c6964206f776e657220616464726573730000000000000000000000600082015250565b60006132926015836122cc565b915061329d8261325c565b602082019050919050565b600060208201905081810360008301526132c181613285565b9050919050565b7f5469746c652063616e6e6f7420626520656d7074790000000000000000000000600082015250565b60006132fe6015836122cc565b9150613309826132c8565b602082019050919050565b6000602082019050818103600083015261332d816132f1565b9050919050565b7f4465736372697074696f6e2063616e6e6f7420626520656d7074790000000000600082015250565b600061336a601b836122cc565b915061337582613334565b602082019050919050565b600060208201905081810360008301526133998161335d565b9050919050565b7f43617465676f72792063616e6e6f7420626520656d7074790000000000000000600082015250565b60006133d66018836122cc565b91506133e1826133a0565b602082019050919050565b60006020820190508181036000830152613405816133c9565b9050919050565b7f546172676574206d7573742062652067726561746572207468616e2030000000600082015250565b6000613442601d836122cc565b915061344d8261340c565b602082019050919050565b6000602082019050818103600083015261347181613435565b9050919050565b7f446561646c696e65206d75737420626520696e20746865206675747572650000600082015250565b60006134ae601e836122cc565b91506134b982613478565b602082019050919050565b600060208201905081810360008301526134dd816134a1565b9050919050565b60006060820190506134f96000830186612059565b6135066020830185612059565b6135136040830184612059565b949350505050565b60006135268261204f565b91507fffffffffffffffffffffffffffffffffffffffffffffffffffffffffffffffff820361355857613557612dd1565b5b600182019050919050565b600061356e8261204f565b91506135798361204f565b925082820390508181111561359157613590612dd1565b5b92915050565b7f4f6e6c79207468652063616d706169676e206f776e6572206f722061646d696e60008201527f2063616e2064656c657465207468652063616d706169676e0000000000000000602082015250565b60006135f36038836122cc565b91506135fe82613597565b604082019050919050565b60006020820190508181036000830152613622816135e6565b9050919050565b60006136348261204f565b91506000820361364757613646612dd1565b5b600182039050919050565b7f4e487b7100000000000000000000000000000000000000000000000000000000600052603260045260246000fd5b7f496e76616c696420737461747573000000000000000000000000000000000000600082015250565b60006136b7600e836122cc565b91506136c282613681565b602082019050919050565b600060208201905081810360008301526136e6816136aa565b9050919050565b7f4f6e6c792061646d696e2063616e207570646174652073746174757300000000600082015250565b6000613723601c836122cc565b915061372e826136ed565b602082019050919050565b6000602082019050818103600083015261375281613716565b9050919050565b7f416d6f756e74206d7573742062652067726561746572207468616e2030000000600082015250565b600061378f601d836122cc565b915061379a82613759565b602082019050919050565b600060208201905081810360008301526137be81613782565b9050919050565b6137ce81612595565b82525050565b6137dd81612340565b82525050565b610100820160008201516137fa60008501826125fa565b50602082015161380d60208501826125fa565b50604082015161382060408501826137c5565b50606082015161383360608501826125fa565b5060808201516138466080850182612653565b5060a082015161385960a0850182612653565b5060c082015161386c60c0850182612653565b5060e082015161387f60e08501826137d4565b50505050565b60006101008201905061389b60008301846137e3565b92915050565b60006040820190506138b66000830185612372565b6138c36020830184612059565b9392505050565b600081519050919050565b600081905092915050565b60006138eb826138ca565b6138f581856138d5565b93506139058185602086016122dd565b80840191505092915050565b600061391d82846138e0565b915081905092915050565b60008115159050919050565b61393d81613928565b811461394857600080fd5b50565b60008151905061395a81613934565b92915050565b6000602082840312156139765761397561208d565b5b60006139848482850161394b565b91505092915050565b7f5341000000000000000000000000000000000000000000000000000000000000600082015250565b60006139c36002836122cc565b91506139ce8261398d565b602082019050919050565b600060208201905081810360008301526139f2816139b6565b905091905056fea2646970667358221220ef177ae2d3047bdba6206cc1474cad20a11673dd749e900a6b11bd37be102ef064736f6c63430008180033",
  "linkReferences": {},
  "deployedLinkReferences": {}
}