{
  "_format": "hh-sol-artifact-1",
  "contractName": "CryptoBacker",
  "sourceName": "contracts/cryptoBacker.sol",
  "abi": [
    {
      "stateMutability": "payable",
      "type": "fallback"
    },
    {
      "inputs": [
        {
          "internalType": "uint256",
          "name": "",
          "type": "uint256"
        }
      ],
      "name": "campaigns",
      "outputs": [
        {
          "internalType": "address",
          "name": "owner",
          "type": "address"
        },
        {
          "internalType": "string",
          "name": "title",
          "type": "string"
        },
        {
          "internalType": "string",
          "name": "description",
          "type": "string"
        },
        {
          "internalType": "uint256",
          "name": "target",
          "type": "uint256"
        },
        {
          "internalType": "uint256",
          "name": "deadline",
          "type": "uint256"
        },
        {
          "internalType": "uint256",
          "name": "amountCollected",
          "type": "uint256"
        },
        {
          "internalType": "string",
          "name": "image",
          "type": "string"
        }
      ],
      "stateMutability": "view",
      "type": "function"
    },
    {
      "inputs": [
        {
          "internalType": "address",
          "name": "_owner",
          "type": "address"
        },
        {
          "internalType": "string",
          "name": "_title",
          "type": "string"
        },
        {
          "internalType": "string",
          "name": "_description",
          "type": "string"
        },
        {
          "internalType": "uint256",
          "name": "_target",
          "type": "uint256"
        },
        {
          "internalType": "uint256",
          "name": "_deadline",
          "type": "uint256"
        },
        {
          "internalType": "string",
          "name": "_image",
          "type": "string"
        }
      ],
      "name": "createCampaign",
      "outputs": [
        {
          "internalType": "uint256",
          "name": "",
          "type": "uint256"
        }
      ],
      "stateMutability": "nonpayable",
      "type": "function"
    },
    {
      "inputs": [
        {
          "internalType": "uint256",
          "name": "_id",
          "type": "uint256"
        }
      ],
      "name": "donateToCampaign",
      "outputs": [],
      "stateMutability": "payable",
      "type": "function"
    },
    {
      "inputs": [],
      "name": "getCompaigns",
      "outputs": [
        {
          "components": [
            {
              "internalType": "address",
              "name": "owner",
              "type": "address"
            },
            {
              "internalType": "string",
              "name": "title",
              "type": "string"
            },
            {
              "internalType": "string",
              "name": "description",
              "type": "string"
            },
            {
              "internalType": "uint256",
              "name": "target",
              "type": "uint256"
            },
            {
              "internalType": "uint256",
              "name": "deadline",
              "type": "uint256"
            },
            {
              "internalType": "uint256",
              "name": "amountCollected",
              "type": "uint256"
            },
            {
              "internalType": "string",
              "name": "image",
              "type": "string"
            },
            {
              "internalType": "address[]",
              "name": "donators",
              "type": "address[]"
            },
            {
              "internalType": "uint256[]",
              "name": "donation",
              "type": "uint256[]"
            }
          ],
          "internalType": "struct CryptoBacker.Campaign[]",
          "name": "",
          "type": "tuple[]"
        }
      ],
      "stateMutability": "view",
      "type": "function"
    },
    {
      "inputs": [
        {
          "internalType": "uint256",
          "name": "_id",
          "type": "uint256"
        }
      ],
      "name": "getDonator",
      "outputs": [
        {
          "internalType": "address[]",
          "name": "",
          "type": "address[]"
        },
        {
          "internalType": "uint256[]",
          "name": "",
          "type": "uint256[]"
        }
      ],
      "stateMutability": "view",
      "type": "function"
    },
    {
      "inputs": [],
      "name": "numberOfCampaign",
      "outputs": [
        {
          "internalType": "uint256",
          "name": "",
          "type": "uint256"
        }
      ],
      "stateMutability": "view",
      "type": "function"
    },
    {
      "stateMutability": "payable",
      "type": "receive"
    }
  ],
  "bytecode": "0x6080604052600060015534801561001557600080fd5b50611752806100256000396000f3fe6080604052600436106100595760003560e01c8063141961bc1461006257806318ed9aa6146100a557806342a4fda8146100d05780637b66e17f146100ec5780639943e3a11461012a578063ab4a0b321461016757610060565b3661006057005b005b34801561006e57600080fd5b5061008960048036038101906100849190610a44565b610192565b60405161009c9796959493929190610b51565b60405180910390f35b3480156100b157600080fd5b506100ba61038c565b6040516100c79190610f3e565b60405180910390f35b6100ea60048036038101906100e59190610a44565b61075c565b005b3480156100f857600080fd5b50610113600480360381019061010e9190610a44565b61075f565b60405161012192919061103e565b60405180910390f35b34801561013657600080fd5b50610151600480360381019061014c91906111d6565b61086f565b60405161015e91906112b7565b60405180910390f35b34801561017357600080fd5b5061017c610992565b60405161018991906112b7565b60405180910390f35b60006020528060005260406000206000915090508060000160009054906101000a900473ffffffffffffffffffffffffffffffffffffffff16908060010180546101db90611301565b80601f016020809104026020016040519081016040528092919081815260200182805461020790611301565b80156102545780601f1061022957610100808354040283529160200191610254565b820191906000526020600020905b81548152906001019060200180831161023757829003601f168201915b50505050509080600201805461026990611301565b80601f016020809104026020016040519081016040528092919081815260200182805461029590611301565b80156102e25780601f106102b7576101008083540402835291602001916102e2565b820191906000526020600020905b8154815290600101906020018083116102c557829003601f168201915b50505050509080600301549080600401549080600501549080600601805461030990611301565b80601f016020809104026020016040519081016040528092919081815260200182805461033590611301565b80156103825780601f1061035757610100808354040283529160200191610382565b820191906000526020600020905b81548152906001019060200180831161036557829003601f168201915b5050505050905087565b6060600060015467ffffffffffffffff8111156103ac576103ab6110ab565b5b6040519080825280602002602001820160405280156103e557816020015b6103d2610998565b8152602001906001900390816103ca5790505b50905060005b600154811015610754576000806000838152602001908152602001600020905080604051806101200160405290816000820160009054906101000a900473ffffffffffffffffffffffffffffffffffffffff1673ffffffffffffffffffffffffffffffffffffffff1673ffffffffffffffffffffffffffffffffffffffff16815260200160018201805461047e90611301565b80601f01602080910402602001604051908101604052809291908181526020018280546104aa90611301565b80156104f75780601f106104cc576101008083540402835291602001916104f7565b820191906000526020600020905b8154815290600101906020018083116104da57829003601f168201915b5050505050815260200160028201805461051090611301565b80601f016020809104026020016040519081016040528092919081815260200182805461053c90611301565b80156105895780601f1061055e57610100808354040283529160200191610589565b820191906000526020600020905b81548152906001019060200180831161056c57829003601f168201915b505050505081526020016003820154815260200160048201548152602001600582015481526020016006820180546105c090611301565b80601f01602080910402602001604051908101604052809291908181526020018280546105ec90611301565b80156106395780601f1061060e57610100808354040283529160200191610639565b820191906000526020600020905b81548152906001019060200180831161061c57829003601f168201915b50505050508152602001600782018054806020026020016040519081016040528092919081815260200182805480156106c757602002820191906000526020600020905b8160009054906101000a900473ffffffffffffffffffffffffffffffffffffffff1673ffffffffffffffffffffffffffffffffffffffff168152602001906001019080831161067d575b505050505081526020016008820180548060200260200160405190810160405280929190818152602001828054801561071f57602002820191906000526020600020905b81548152602001906001019080831161070b575b50505050508152505083838151811061073b5761073a611332565b5b60200260200101819052505080806001019150506103eb565b508091505090565b50565b6060806000808481526020019081526020016000206007016000808581526020019081526020016000206008018180548060200260200160405190810160405280929190818152602001828054801561080d57602002820191906000526020600020905b8160009054906101000a900473ffffffffffffffffffffffffffffffffffffffff1673ffffffffffffffffffffffffffffffffffffffff16815260200190600101908083116107c3575b505050505091508080548060200260200160405190810160405280929190818152602001828054801561085f57602002820191906000526020600020905b81548152602001906001019080831161084b575b5050505050905091509150915091565b600080600080600154815260200190815260200160002090504284116108ca576040517f08c379a00000000000000000000000000000000000000000000000000000000081526004016108c1906113d3565b60405180910390fd5b878160000160006101000a81548173ffffffffffffffffffffffffffffffffffffffff021916908373ffffffffffffffffffffffffffffffffffffffff1602179055508681600101908161091e919061159f565b5085816002019081610930919061159f565b50848160030181905550838160040181905550600081600501819055508281600601908161095e919061159f565b5060016000815480929190610972906116a0565b91905055506001805461098591906116e8565b9150509695505050505050565b60015481565b604051806101200160405280600073ffffffffffffffffffffffffffffffffffffffff16815260200160608152602001606081526020016000815260200160008152602001600081526020016060815260200160608152602001606081525090565b6000604051905090565b600080fd5b600080fd5b6000819050919050565b610a2181610a0e565b8114610a2c57600080fd5b50565b600081359050610a3e81610a18565b92915050565b600060208284031215610a5a57610a59610a04565b5b6000610a6884828501610a2f565b91505092915050565b600073ffffffffffffffffffffffffffffffffffffffff82169050919050565b6000610a9c82610a71565b9050919050565b610aac81610a91565b82525050565b600081519050919050565b600082825260208201905092915050565b60005b83811015610aec578082015181840152602081019050610ad1565b60008484015250505050565b6000601f19601f8301169050919050565b6000610b1482610ab2565b610b1e8185610abd565b9350610b2e818560208601610ace565b610b3781610af8565b840191505092915050565b610b4b81610a0e565b82525050565b600060e082019050610b66600083018a610aa3565b8181036020830152610b788189610b09565b90508181036040830152610b8c8188610b09565b9050610b9b6060830187610b42565b610ba86080830186610b42565b610bb560a0830185610b42565b81810360c0830152610bc78184610b09565b905098975050505050505050565b600081519050919050565b600082825260208201905092915050565b6000819050602082019050919050565b610c0a81610a91565b82525050565b600082825260208201905092915050565b6000610c2c82610ab2565b610c368185610c10565b9350610c46818560208601610ace565b610c4f81610af8565b840191505092915050565b610c6381610a0e565b82525050565b600081519050919050565b600082825260208201905092915050565b6000819050602082019050919050565b6000610ca18383610c01565b60208301905092915050565b6000602082019050919050565b6000610cc582610c69565b610ccf8185610c74565b9350610cda83610c85565b8060005b83811015610d0b578151610cf28882610c95565b9750610cfd83610cad565b925050600181019050610cde565b5085935050505092915050565b600081519050919050565b600082825260208201905092915050565b6000819050602082019050919050565b6000610d508383610c5a565b60208301905092915050565b6000602082019050919050565b6000610d7482610d18565b610d7e8185610d23565b9350610d8983610d34565b8060005b83811015610dba578151610da18882610d44565b9750610dac83610d5c565b925050600181019050610d8d565b5085935050505092915050565b600061012083016000830151610de06000860182610c01565b5060208301518482036020860152610df88282610c21565b91505060408301518482036040860152610e128282610c21565b9150506060830151610e276060860182610c5a565b506080830151610e3a6080860182610c5a565b5060a0830151610e4d60a0860182610c5a565b5060c083015184820360c0860152610e658282610c21565b91505060e083015184820360e0860152610e7f8282610cba565b915050610100830151848203610100860152610e9b8282610d69565b9150508091505092915050565b6000610eb48383610dc7565b905092915050565b6000602082019050919050565b6000610ed482610bd5565b610ede8185610be0565b935083602082028501610ef085610bf1565b8060005b85811015610f2c5784840389528151610f0d8582610ea8565b9450610f1883610ebc565b925060208a01995050600181019050610ef4565b50829750879550505050505092915050565b60006020820190508181036000830152610f588184610ec9565b905092915050565b600082825260208201905092915050565b6000610f7c82610c69565b610f868185610f60565b9350610f9183610c85565b8060005b83811015610fc2578151610fa98882610c95565b9750610fb483610cad565b925050600181019050610f95565b5085935050505092915050565b600082825260208201905092915050565b6000610feb82610d18565b610ff58185610fcf565b935061100083610d34565b8060005b838110156110315781516110188882610d44565b975061102383610d5c565b925050600181019050611004565b5085935050505092915050565b600060408201905081810360008301526110588185610f71565b9050818103602083015261106c8184610fe0565b90509392505050565b61107e81610a91565b811461108957600080fd5b50565b60008135905061109b81611075565b92915050565b600080fd5b600080fd5b7f4e487b7100000000000000000000000000000000000000000000000000000000600052604160045260246000fd5b6110e382610af8565b810181811067ffffffffffffffff82111715611102576111016110ab565b5b80604052505050565b60006111156109fa565b905061112182826110da565b919050565b600067ffffffffffffffff821115611141576111406110ab565b5b61114a82610af8565b9050602081019050919050565b82818337600083830152505050565b600061117961117484611126565b61110b565b905082815260208101848484011115611195576111946110a6565b5b6111a0848285611157565b509392505050565b600082601f8301126111bd576111bc6110a1565b5b81356111cd848260208601611166565b91505092915050565b60008060008060008060c087890312156111f3576111f2610a04565b5b600061120189828a0161108c565b965050602087013567ffffffffffffffff81111561122257611221610a09565b5b61122e89828a016111a8565b955050604087013567ffffffffffffffff81111561124f5761124e610a09565b5b61125b89828a016111a8565b945050606061126c89828a01610a2f565b935050608061127d89828a01610a2f565b92505060a087013567ffffffffffffffff81111561129e5761129d610a09565b5b6112aa89828a016111a8565b9150509295509295509295565b60006020820190506112cc6000830184610b42565b92915050565b7f4e487b7100000000000000000000000000000000000000000000000000000000600052602260045260246000fd5b6000600282049050600182168061131957607f821691505b60208210810361132c5761132b6112d2565b5b50919050565b7f4e487b7100000000000000000000000000000000000000000000000000000000600052603260045260246000fd5b7f446561646c696e652063616e6e6f74206265206c65737320746861742063757260008201527f72656e742074696d652e00000000000000000000000000000000000000000000602082015250565b60006113bd602a83610abd565b91506113c882611361565b604082019050919050565b600060208201905081810360008301526113ec816113b0565b9050919050565b60008190508160005260206000209050919050565b60006020601f8301049050919050565b600082821b905092915050565b6000600883026114557fffffffffffffffffffffffffffffffffffffffffffffffffffffffffffffffff82611418565b61145f8683611418565b95508019841693508086168417925050509392505050565b6000819050919050565b600061149c61149761149284610a0e565b611477565b610a0e565b9050919050565b6000819050919050565b6114b683611481565b6114ca6114c2826114a3565b848454611425565b825550505050565b600090565b6114df6114d2565b6114ea8184846114ad565b505050565b5b8181101561150e576115036000826114d7565b6001810190506114f0565b5050565b601f82111561155357611524816113f3565b61152d84611408565b8101602085101561153c578190505b61155061154885611408565b8301826114ef565b50505b505050565b600082821c905092915050565b600061157660001984600802611558565b1980831691505092915050565b600061158f8383611565565b9150826002028217905092915050565b6115a882610ab2565b67ffffffffffffffff8111156115c1576115c06110ab565b5b6115cb8254611301565b6115d6828285611512565b600060209050601f83116001811461160957600084156115f7578287015190505b6116018582611583565b865550611669565b601f198416611617866113f3565b60005b8281101561163f5784890151825560018201915060208501945060208101905061161a565b8683101561165c5784890151611658601f891682611565565b8355505b6001600288020188555050505b505050505050565b7f4e487b7100000000000000000000000000000000000000000000000000000000600052601160045260246000fd5b60006116ab82610a0e565b91507fffffffffffffffffffffffffffffffffffffffffffffffffffffffffffffffff82036116dd576116dc611671565b5b600182019050919050565b60006116f382610a0e565b91506116fe83610a0e565b925082820390508181111561171657611715611671565b5b9291505056fea2646970667358221220146f5a7ad4b0bffdaf9e4889966846e21d72c1c93105b85a8af6f17396b69a2a64736f6c63430008180033",
  "linkReferences": {},
  "deployedLinkReferences": {}
}