{
  "_format": "hh-sol-artifact-1",
  "contractName": "CryptoBacker",
  "sourceName": "contracts/CryptoBacker.sol",
  "abi": [
    {
      "inputs": [
        {
          "internalType": "address",
          "name": "_swapRouter",
          "type": "address"
        },
        {
          "internalType": "address",
          "name": "_WETH",
          "type": "address"
        },
        {
          "internalType": "address",
          "name": "_USDC",
          "type": "address"
        }
      ],
      "stateMutability": "nonpayable",
      "type": "constructor"
    },
    {
      "inputs": [],
      "name": "ReentrancyGuardReentrantCall",
      "type": "error"
    },
    {
      "anonymous": false,
      "inputs": [
        {
          "indexed": true,
          "internalType": "uint256",
          "name": "campaignCode",
          "type": "uint256"
        },
        {
          "indexed": true,
          "internalType": "address",
          "name": "owner",
          "type": "address"
        },
        {
          "indexed": false,
          "internalType": "uint256",
          "name": "target",
          "type": "uint256"
        },
        {
          "indexed": false,
          "internalType": "uint256",
          "name": "deadline",
          "type": "uint256"
        },
        {
          "indexed": false,
          "internalType": "uint256",
          "name": "createdAt",
          "type": "uint256"
        }
      ],
      "name": "CampaignCreated",
      "type": "event"
    },
    {
      "anonymous": false,
      "inputs": [
        {
          "indexed": true,
          "internalType": "uint256",
          "name": "campaignCode",
          "type": "uint256"
        }
      ],
      "name": "CampaignDeleted",
      "type": "event"
    },
    {
      "anonymous": false,
      "inputs": [
        {
          "indexed": true,
          "internalType": "uint256",
          "name": "campaignCode",
          "type": "uint256"
        },
        {
          "indexed": false,
          "internalType": "uint256",
          "name": "newStatus",
          "type": "uint256"
        }
      ],
      "name": "CampaignStatusUpdated",
      "type": "event"
    },
    {
      "anonymous": false,
      "inputs": [
        {
          "indexed": true,
          "internalType": "uint256",
          "name": "campaignCode",
          "type": "uint256"
        },
        {
          "indexed": true,
          "internalType": "address",
          "name": "donor",
          "type": "address"
        },
        {
          "indexed": false,
          "internalType": "string",
          "name": "donorName",
          "type": "string"
        },
        {
          "indexed": false,
          "internalType": "string",
          "name": "donorEmail",
          "type": "string"
        },
        {
          "indexed": false,
          "internalType": "uint256",
          "name": "amountETH",
          "type": "uint256"
        },
        {
          "indexed": false,
          "internalType": "uint256",
          "name": "amountUSDC",
          "type": "uint256"
        },
        {
          "indexed": false,
          "internalType": "uint256",
          "name": "timestamp",
          "type": "uint256"
        }
      ],
      "name": "DonationReceived",
      "type": "event"
    },
    {
      "stateMutability": "payable",
      "type": "fallback"
    },
    {
      "inputs": [],
      "name": "FEE_TIER",
      "outputs": [
        {
          "internalType": "uint24",
          "name": "",
          "type": "uint24"
        }
      ],
      "stateMutability": "view",
      "type": "function"
    },
    {
      "inputs": [],
      "name": "USDC",
      "outputs": [
        {
          "internalType": "address",
          "name": "",
          "type": "address"
        }
      ],
      "stateMutability": "view",
      "type": "function"
    },
    {
      "inputs": [],
      "name": "WETH",
      "outputs": [
        {
          "internalType": "address",
          "name": "",
          "type": "address"
        }
      ],
      "stateMutability": "view",
      "type": "function"
    },
    {
      "inputs": [
        {
          "internalType": "uint256",
          "name": "",
          "type": "uint256"
        }
      ],
      "name": "campaigns",
      "outputs": [
        {
          "internalType": "string",
          "name": "name",
          "type": "string"
        },
        {
          "internalType": "address",
          "name": "owner",
          "type": "address"
        },
        {
          "internalType": "string",
          "name": "category",
          "type": "string"
        },
        {
          "internalType": "string",
          "name": "title",
          "type": "string"
        },
        {
          "internalType": "string",
          "name": "description",
          "type": "string"
        },
        {
          "internalType": "uint256",
          "name": "campaignCode",
          "type": "uint256"
        },
        {
          "internalType": "uint256",
          "name": "target",
          "type": "uint256"
        },
        {
          "internalType": "uint256",
          "name": "deadline",
          "type": "uint256"
        },
        {
          "internalType": "uint256",
          "name": "amountCollectedETH",
          "type": "uint256"
        },
        {
          "internalType": "uint256",
          "name": "amountCollectedUSDC",
          "type": "uint256"
        },
        {
          "internalType": "uint256",
          "name": "status",
          "type": "uint256"
        },
        {
          "internalType": "uint256",
          "name": "createdAt",
          "type": "uint256"
        }
      ],
      "stateMutability": "view",
      "type": "function"
    },
    {
      "inputs": [
        {
          "internalType": "string",
          "name": "_name",
          "type": "string"
        },
        {
          "internalType": "address",
          "name": "_owner",
          "type": "address"
        },
        {
          "internalType": "string",
          "name": "_title",
          "type": "string"
        },
        {
          "internalType": "string",
          "name": "_description",
          "type": "string"
        },
        {
          "internalType": "string",
          "name": "_category",
          "type": "string"
        },
        {
          "internalType": "uint256",
          "name": "_target",
          "type": "uint256"
        },
        {
          "internalType": "uint256",
          "name": "_deadline",
          "type": "uint256"
        }
      ],
      "name": "createCampaign",
      "outputs": [
        {
          "internalType": "uint256",
          "name": "",
          "type": "uint256"
        }
      ],
      "stateMutability": "nonpayable",
      "type": "function"
    },
    {
      "inputs": [
        {
          "internalType": "uint256",
          "name": "_id",
          "type": "uint256"
        }
      ],
      "name": "deleteCampaign",
      "outputs": [],
      "stateMutability": "nonpayable",
      "type": "function"
    },
    {
      "inputs": [
        {
          "internalType": "uint256",
          "name": "_id",
          "type": "uint256"
        },
        {
          "internalType": "string",
          "name": "_userName",
          "type": "string"
        },
        {
          "internalType": "string",
          "name": "_userEmail",
          "type": "string"
        }
      ],
      "name": "donateToCampaign",
      "outputs": [
        {
          "internalType": "uint256",
          "name": "",
          "type": "uint256"
        }
      ],
      "stateMutability": "payable",
      "type": "function"
    },
    {
      "inputs": [],
      "name": "getCampaigns",
      "outputs": [
        {
          "components": [
            {
              "internalType": "string",
              "name": "name",
              "type": "string"
            },
            {
              "internalType": "address",
              "name": "owner",
              "type": "address"
            },
            {
              "internalType": "string",
              "name": "category",
              "type": "string"
            },
            {
              "internalType": "string",
              "name": "title",
              "type": "string"
            },
            {
              "internalType": "string",
              "name": "description",
              "type": "string"
            },
            {
              "internalType": "uint256",
              "name": "campaignCode",
              "type": "uint256"
            },
            {
              "internalType": "uint256",
              "name": "target",
              "type": "uint256"
            },
            {
              "internalType": "uint256",
              "name": "deadline",
              "type": "uint256"
            },
            {
              "internalType": "uint256",
              "name": "amountCollectedETH",
              "type": "uint256"
            },
            {
              "internalType": "uint256",
              "name": "amountCollectedUSDC",
              "type": "uint256"
            },
            {
              "internalType": "uint256",
              "name": "status",
              "type": "uint256"
            },
            {
              "internalType": "uint256",
              "name": "createdAt",
              "type": "uint256"
            },
            {
              "components": [
                {
                  "internalType": "address",
                  "name": "donor",
                  "type": "address"
                },
                {
                  "internalType": "string",
                  "name": "donorName",
                  "type": "string"
                },
                {
                  "internalType": "string",
                  "name": "donorEmail",
                  "type": "string"
                },
                {
                  "internalType": "uint256",
                  "name": "amountETH",
                  "type": "uint256"
                },
                {
                  "internalType": "uint256",
                  "name": "amountUSDC",
                  "type": "uint256"
                },
                {
                  "internalType": "uint256",
                  "name": "timestamp",
                  "type": "uint256"
                }
              ],
              "internalType": "struct CryptoBacker.Donation[]",
              "name": "donations",
              "type": "tuple[]"
            }
          ],
          "internalType": "struct CryptoBacker.Campaign[]",
          "name": "",
          "type": "tuple[]"
        }
      ],
      "stateMutability": "view",
      "type": "function"
    },
    {
      "inputs": [],
      "name": "getContractBalance",
      "outputs": [
        {
          "internalType": "uint256",
          "name": "",
          "type": "uint256"
        }
      ],
      "stateMutability": "view",
      "type": "function"
    },
    {
      "inputs": [],
      "name": "getContractUSDCBalance",
      "outputs": [
        {
          "internalType": "uint256",
          "name": "",
          "type": "uint256"
        }
      ],
      "stateMutability": "view",
      "type": "function"
    },
    {
      "inputs": [
        {
          "internalType": "uint256",
          "name": "_id",
          "type": "uint256"
        }
      ],
      "name": "getDonations",
      "outputs": [
        {
          "components": [
            {
              "internalType": "address",
              "name": "donor",
              "type": "address"
            },
            {
              "internalType": "string",
              "name": "donorName",
              "type": "string"
            },
            {
              "internalType": "string",
              "name": "donorEmail",
              "type": "string"
            },
            {
              "internalType": "uint256",
              "name": "amountETH",
              "type": "uint256"
            },
            {
              "internalType": "uint256",
              "name": "amountUSDC",
              "type": "uint256"
            },
            {
              "internalType": "uint256",
              "name": "timestamp",
              "type": "uint256"
            }
          ],
          "internalType": "struct CryptoBacker.Donation[]",
          "name": "",
          "type": "tuple[]"
        }
      ],
      "stateMutability": "view",
      "type": "function"
    },
    {
      "inputs": [],
      "name": "numberOfCampaigns",
      "outputs": [
        {
          "internalType": "uint256",
          "name": "",
          "type": "uint256"
        }
      ],
      "stateMutability": "view",
      "type": "function"
    },
    {
      "inputs": [],
      "name": "swapRouter",
      "outputs": [
        {
          "internalType": "contract ISwapRouter",
          "name": "",
          "type": "address"
        }
      ],
      "stateMutability": "view",
      "type": "function"
    },
    {
      "inputs": [
        {
          "internalType": "uint256",
          "name": "_id",
          "type": "uint256"
        },
        {
          "internalType": "uint256",
          "name": "_newStatus",
          "type": "uint256"
        }
      ],
      "name": "updateCampaignStatus",
      "outputs": [],
      "stateMutability": "nonpayable",
      "type": "function"
    },
    {
      "stateMutability": "payable",
      "type": "receive"
    }
  ],
  "bytecode": "0x60e060405260006002553480156200001657600080fd5b5060405162003bbd38038062003bbd83398181016040528101906200003c919062000153565b60016000819055508273ffffffffffffffffffffffffffffffffffffffff1660808173ffffffffffffffffffffffffffffffffffffffff16815250508173ffffffffffffffffffffffffffffffffffffffff1660a08173ffffffffffffffffffffffffffffffffffffffff16815250508073ffffffffffffffffffffffffffffffffffffffff1660c08173ffffffffffffffffffffffffffffffffffffffff1681525050505050620001af565b600080fd5b600073ffffffffffffffffffffffffffffffffffffffff82169050919050565b60006200011b82620000ee565b9050919050565b6200012d816200010e565b81146200013957600080fd5b50565b6000815190506200014d8162000122565b92915050565b6000806000606084860312156200016f576200016e620000e9565b5b60006200017f868287016200013c565b935050602062000192868287016200013c565b9250506040620001a5868287016200013c565b9150509250925092565b60805160a05160c05161399f6200021e600039600081816103890152818161126d0152611bbb01526000818161186c01528181611aa501528181611b2901528181611b7f0152611cfe01526000818161189001528181611b4a01528181611c5d0152611d1f015261399f6000f3fe6080604052600436106100e05760003560e01c80636f9fb98a1161007f578063a6b0363311610059578063a6b03633146102db578063ad5c464814610306578063c31c9c0714610331578063eaa1b0bc1461035c576100e7565b80636f9fb98a1461025c578063759701931461028757806389a30271146102b0576100e7565b8063141961bc116100bb578063141961bc1461016f5780632828f2ee146101b75780634c69a6c9146101f4578063596d9ce21461021f576100e7565b80622772c2146100e957806307ca140d14610114578063131be6741461013f576100e7565b366100e757005b005b3480156100f557600080fd5b506100fe610385565b60405161010b9190612038565b60405180910390f35b34801561012057600080fd5b50610129610426565b6040516101369190612038565b60405180910390f35b610159600480360381019061015491906121d9565b61042c565b6040516101669190612038565b60405180910390f35b34801561017b57600080fd5b5061019660048036038101906101919190612264565b6107b0565b6040516101ae9c9b9a99989796959493929190612351565b60405180910390f35b3480156101c357600080fd5b506101de60048036038101906101d99190612453565b610a50565b6040516101eb9190612038565b60405180910390f35b34801561020057600080fd5b50610209610dc7565b6040516102169190612583565b60405180910390f35b34801561022b57600080fd5b5061024660048036038101906102419190612264565b610dcd565b6040516102539190612758565b60405180910390f35b34801561026857600080fd5b5061027161101e565b60405161027e9190612038565b60405180910390f35b34801561029357600080fd5b506102ae60048036038101906102a99190612264565b611026565b005b3480156102bc57600080fd5b506102c561126b565b6040516102d2919061277a565b60405180910390f35b3480156102e757600080fd5b506102f061128f565b6040516102fd9190612a12565b60405180910390f35b34801561031257600080fd5b5061031b61186a565b604051610328919061277a565b60405180910390f35b34801561033d57600080fd5b5061034661188e565b6040516103539190612a93565b60405180910390f35b34801561036857600080fd5b50610383600480360381019061037e9190612aae565b6118b2565b005b60007f000000000000000000000000000000000000000000000000000000000000000073ffffffffffffffffffffffffffffffffffffffff166370a08231306040518263ffffffff1660e01b81526004016103e0919061277a565b602060405180830381865afa1580156103fd573d6000803e3d6000fd5b505050506040513d601f19601f820116820180604052508101906104219190612b03565b905090565b60025481565b6000610436611a19565b60006002541161047b576040517f08c379a000000000000000000000000000000000000000000000000000000000815260040161047290612b7c565b60405180910390fd5b60025484106104bf576040517f08c379a00000000000000000000000000000000000000000000000000000000081526004016104b690612be8565b60405180910390fd5b60003411610502576040517f08c379a00000000000000000000000000000000000000000000000000000000081526004016104f990612c7a565b60405180910390fd5b6000600160008681526020019081526020016000209050600081600a015403610560576040517f08c379a000000000000000000000000000000000000000000000000000000000815260040161055790612ce6565b60405180910390fd5b806007015442106105a6576040517f08c379a000000000000000000000000000000000000000000000000000000000815260040161059d90612d52565b60405180910390fd5b600034905060006105b682611a5f565b905082600c016040518060c001604052803373ffffffffffffffffffffffffffffffffffffffff16815260200188815260200187815260200184815260200183815260200142815250908060018154018082558091505060019003906000526020600020906006020160009091909190915060008201518160000160006101000a81548173ffffffffffffffffffffffffffffffffffffffff021916908373ffffffffffffffffffffffffffffffffffffffff16021790555060208201518160010190816106849190612f74565b50604082015181600201908161069a9190612f74565b50606082015181600301556080820151816004015560a082015181600501555050818360080160008282546106cf9190613075565b92505081905550808360090160008282546106ea9190613075565b925050819055503373ffffffffffffffffffffffffffffffffffffffff16877f84038083661ab3698bfe2b1202fa65e8fd987cef13606f396be72c1685b8172c88888686426040516107409594939291906130a9565b60405180910390a3826006015483600801541061079b57600183600a0181905550867f8f91fea7c957b922286b233aacdbef39c778fbf18b1e208359140dfa65bfd3c260016040516107929190613145565b60405180910390a25b8093505050506107a9611d4b565b9392505050565b60016020528060005260406000206000915090508060000180546107d390612da1565b80601f01602080910402602001604051908101604052809291908181526020018280546107ff90612da1565b801561084c5780601f106108215761010080835404028352916020019161084c565b820191906000526020600020905b81548152906001019060200180831161082f57829003601f168201915b5050505050908060010160009054906101000a900473ffffffffffffffffffffffffffffffffffffffff169080600201805461088790612da1565b80601f01602080910402602001604051908101604052809291908181526020018280546108b390612da1565b80156109005780601f106108d557610100808354040283529160200191610900565b820191906000526020600020905b8154815290600101906020018083116108e357829003601f168201915b50505050509080600301805461091590612da1565b80601f016020809104026020016040519081016040528092919081815260200182805461094190612da1565b801561098e5780601f106109635761010080835404028352916020019161098e565b820191906000526020600020905b81548152906001019060200180831161097157829003601f168201915b5050505050908060040180546109a390612da1565b80601f01602080910402602001604051908101604052809291908181526020018280546109cf90612da1565b8015610a1c5780601f106109f157610100808354040283529160200191610a1c565b820191906000526020600020905b8154815290600101906020018083116109ff57829003601f168201915b50505050509080600501549080600601549080600701549080600801549080600901549080600a01549080600b015490508c565b600080885111610a95576040517f08c379a0000000000000000000000000000000000000000000000000000000008152600401610a8c906131ac565b60405180910390fd5b600073ffffffffffffffffffffffffffffffffffffffff168773ffffffffffffffffffffffffffffffffffffffff1603610b04576040517f08c379a0000000000000000000000000000000000000000000000000000000008152600401610afb90613218565b60405180910390fd5b6000865111610b48576040517f08c379a0000000000000000000000000000000000000000000000000000000008152600401610b3f90613284565b60405180910390fd5b6000855111610b8c576040517f08c379a0000000000000000000000000000000000000000000000000000000008152600401610b83906132f0565b60405180910390fd5b6000845111610bd0576040517f08c379a0000000000000000000000000000000000000000000000000000000008152600401610bc79061335c565b60405180910390fd5b60008311610c13576040517f08c379a0000000000000000000000000000000000000000000000000000000008152600401610c0a906133c8565b60405180910390fd5b428211610c55576040517f08c379a0000000000000000000000000000000000000000000000000000000008152600401610c4c90613434565b60405180910390fd5b60006001600060025481526020019081526020016000209050878160010160006101000a81548173ffffffffffffffffffffffffffffffffffffffff021916908373ffffffffffffffffffffffffffffffffffffffff16021790555088816000019081610cc29190612f74565b5086816003019081610cd49190612f74565b5085816004019081610ce69190612f74565b5084816002019081610cf89190612f74565b508381600601819055508281600701819055506000816008018190555060008160090181905550600081600a018190555060025481600501819055504281600b01819055508773ffffffffffffffffffffffffffffffffffffffff166002547f532ce22d86c3d75e9e14507fdc84d53517c2726edb5c97af3c34fb362233b071868642604051610d8a93929190613454565b60405180910390a360026000815480929190610da59061348b565b91905055506001600254610db991906134d3565b915050979650505050505050565b610bb881565b60606002548210610e13576040517f08c379a0000000000000000000000000000000000000000000000000000000008152600401610e0a90612be8565b60405180910390fd5b60016000838152602001908152602001600020600c01805480602002602001604051908101604052809291908181526020016000905b8282101561101357838290600052602060002090600602016040518060c00160405290816000820160009054906101000a900473ffffffffffffffffffffffffffffffffffffffff1673ffffffffffffffffffffffffffffffffffffffff1673ffffffffffffffffffffffffffffffffffffffff168152602001600182018054610ed290612da1565b80601f0160208091040260200160405190810160405280929190818152602001828054610efe90612da1565b8015610f4b5780601f10610f2057610100808354040283529160200191610f4b565b820191906000526020600020905b815481529060010190602001808311610f2e57829003601f168201915b50505050508152602001600282018054610f6490612da1565b80601f0160208091040260200160405190810160405280929190818152602001828054610f9090612da1565b8015610fdd5780601f10610fb257610100808354040283529160200191610fdd565b820191906000526020600020905b815481529060010190602001808311610fc057829003601f168201915b50505050508152602001600382015481526020016004820154815260200160058201548152505081526020019060010190610e49565b505050509050919050565b600047905090565b600254811061106a576040517f08c379a000000000000000000000000000000000000000000000000000000000815260040161106190612be8565b60405180910390fd5b60006001600083815260200190815260200160002090503373ffffffffffffffffffffffffffffffffffffffff168160010160009054906101000a900473ffffffffffffffffffffffffffffffffffffffff1673ffffffffffffffffffffffffffffffffffffffff16148061111e575073f39fd6e51aad88f6f4ce6ab8827279cfffb9226673ffffffffffffffffffffffffffffffffffffffff163373ffffffffffffffffffffffffffffffffffffffff16145b61115d576040517f08c379a000000000000000000000000000000000000000000000000000000000815260040161115490613579565b60405180910390fd5b60016000838152602001908152602001600020600080820160006111819190611eaa565b6001820160006101000a81549073ffffffffffffffffffffffffffffffffffffffff02191690556002820160006111b89190611eaa565b6003820160006111c89190611eaa565b6004820160006111d89190611eaa565b60058201600090556006820160009055600782016000905560088201600090556009820160009055600a820160009055600b820160009055600c820160006112209190611eea565b50506002600081548092919061123590613599565b9190505550817fa61e586bd6a065bde887af9ec4705829557488d3ccdea823ab66aafd7c3aa09960405160405180910390a25050565b7f000000000000000000000000000000000000000000000000000000000000000081565b60606000600254116112d6576040517f08c379a00000000000000000000000000000000000000000000000000000000081526004016112cd90612b7c565b60405180910390fd5b600060025467ffffffffffffffff8111156112f4576112f36120ae565b5b60405190808252806020026020018201604052801561132d57816020015b61131a611f0e565b8152602001906001900390816113125790505b50905060005b6002548110156118625760016000828152602001908152602001600020604051806101a001604052908160008201805461136c90612da1565b80601f016020809104026020016040519081016040528092919081815260200182805461139890612da1565b80156113e55780601f106113ba576101008083540402835291602001916113e5565b820191906000526020600020905b8154815290600101906020018083116113c857829003601f168201915b505050505081526020016001820160009054906101000a900473ffffffffffffffffffffffffffffffffffffffff1673ffffffffffffffffffffffffffffffffffffffff1673ffffffffffffffffffffffffffffffffffffffff16815260200160028201805461145490612da1565b80601f016020809104026020016040519081016040528092919081815260200182805461148090612da1565b80156114cd5780601f106114a2576101008083540402835291602001916114cd565b820191906000526020600020905b8154815290600101906020018083116114b057829003601f168201915b505050505081526020016003820180546114e690612da1565b80601f016020809104026020016040519081016040528092919081815260200182805461151290612da1565b801561155f5780601f106115345761010080835404028352916020019161155f565b820191906000526020600020905b81548152906001019060200180831161154257829003601f168201915b5050505050815260200160048201805461157890612da1565b80601f01602080910402602001604051908101604052809291908181526020018280546115a490612da1565b80156115f15780601f106115c6576101008083540402835291602001916115f1565b820191906000526020600020905b8154815290600101906020018083116115d457829003601f168201915b505050505081526020016005820154815260200160068201548152602001600782015481526020016008820154815260200160098201548152602001600a8201548152602001600b8201548152602001600c8201805480602002602001604051908101604052809291908181526020016000905b8282101561182f57838290600052602060002090600602016040518060c00160405290816000820160009054906101000a900473ffffffffffffffffffffffffffffffffffffffff1673ffffffffffffffffffffffffffffffffffffffff1673ffffffffffffffffffffffffffffffffffffffff1681526020016001820180546116ee90612da1565b80601f016020809104026020016040519081016040528092919081815260200182805461171a90612da1565b80156117675780601f1061173c57610100808354040283529160200191611767565b820191906000526020600020905b81548152906001019060200180831161174a57829003601f168201915b5050505050815260200160028201805461178090612da1565b80601f01602080910402602001604051908101604052809291908181526020018280546117ac90612da1565b80156117f95780601f106117ce576101008083540402835291602001916117f9565b820191906000526020600020905b8154815290600101906020018083116117dc57829003601f168201915b50505050508152602001600382015481526020016004820154815260200160058201548152505081526020019060010190611665565b505050508152505082828151811061184a576118496135c2565b5b60200260200101819052508080600101915050611333565b508091505090565b7f000000000000000000000000000000000000000000000000000000000000000081565b7f000000000000000000000000000000000000000000000000000000000000000081565b60025482106118f6576040517f08c379a00000000000000000000000000000000000000000000000000000000081526004016118ed90612be8565b60405180910390fd5b600281111561193a576040517f08c379a00000000000000000000000000000000000000000000000000000000081526004016119319061363d565b60405180910390fd5b600060016000848152602001908152602001600020905073f39fd6e51aad88f6f4ce6ab8827279cfffb9226673ffffffffffffffffffffffffffffffffffffffff163373ffffffffffffffffffffffffffffffffffffffff16146119d3576040517f08c379a00000000000000000000000000000000000000000000000000000000081526004016119ca906136a9565b60405180910390fd5b8181600a0181905550827f8f91fea7c957b922286b233aacdbef39c778fbf18b1e208359140dfa65bfd3c283604051611a0c9190612038565b60405180910390a2505050565b600260005403611a55576040517f3ee5aeb500000000000000000000000000000000000000000000000000000000815260040160405180910390fd5b6002600081905550565b6000808211611aa3576040517f08c379a0000000000000000000000000000000000000000000000000000000008152600401611a9a90613715565b60405180910390fd5b7f000000000000000000000000000000000000000000000000000000000000000073ffffffffffffffffffffffffffffffffffffffff1663d0e30db0836040518263ffffffff1660e01b81526004016000604051808303818588803b158015611b0b57600080fd5b505af1158015611b1f573d6000803e3d6000fd5b5050505050611b6f7f00000000000000000000000000000000000000000000000000000000000000007f000000000000000000000000000000000000000000000000000000000000000084611d55565b60006040518061010001604052807f000000000000000000000000000000000000000000000000000000000000000073ffffffffffffffffffffffffffffffffffffffff1681526020017f000000000000000000000000000000000000000000000000000000000000000073ffffffffffffffffffffffffffffffffffffffff168152602001610bb862ffffff1681526020013073ffffffffffffffffffffffffffffffffffffffff16815260200161025842611c2c9190613075565b815260200184815260200160008152602001600073ffffffffffffffffffffffffffffffffffffffff1681525090507f000000000000000000000000000000000000000000000000000000000000000073ffffffffffffffffffffffffffffffffffffffff1663414bf389826040518263ffffffff1660e01b8152600401611cb491906137f5565b6020604051808303816000875af1158015611cd3573d6000803e3d6000fd5b505050506040513d601f19601f82011682018060405250810190611cf79190612b03565b9150611d457f00000000000000000000000000000000000000000000000000000000000000007f00000000000000000000000000000000000000000000000000000000000000006000611d55565b50919050565b6001600081905550565b6000808473ffffffffffffffffffffffffffffffffffffffff1663095ea7b360e01b8585604051602401611d8a929190613811565b604051602081830303815290604052907bffffffffffffffffffffffffffffffffffffffffffffffffffffffff19166020820180517bffffffffffffffffffffffffffffffffffffffffffffffffffffffff8381831617835250505050604051611df49190613881565b6000604051808303816000865af19150503d8060008114611e31576040519150601f19603f3d011682016040523d82523d6000602084013e611e36565b606091505b5091509150818015611e645750600081511480611e63575080806020019051810190611e6291906138d0565b5b5b611ea3576040517f08c379a0000000000000000000000000000000000000000000000000000000008152600401611e9a90613949565b60405180910390fd5b5050505050565b508054611eb690612da1565b6000825580601f10611ec85750611ee7565b601f016020900490600052602060002090810190611ee69190611f8c565b5b50565b5080546000825560060290600052602060002090810190611f0b9190611fa9565b50565b604051806101a0016040528060608152602001600073ffffffffffffffffffffffffffffffffffffffff16815260200160608152602001606081526020016060815260200160008152602001600081526020016000815260200160008152602001600081526020016000815260200160008152602001606081525090565b5b80821115611fa5576000816000905550600101611f8d565b5090565b5b8082111561201b57600080820160006101000a81549073ffffffffffffffffffffffffffffffffffffffff0219169055600182016000611fea9190611eaa565b600282016000611ffa9190611eaa565b60038201600090556004820160009055600582016000905550600601611faa565b5090565b6000819050919050565b6120328161201f565b82525050565b600060208201905061204d6000830184612029565b92915050565b6000604051905090565b600080fd5b600080fd5b6120708161201f565b811461207b57600080fd5b50565b60008135905061208d81612067565b92915050565b600080fd5b600080fd5b6000601f19601f8301169050919050565b7f4e487b7100000000000000000000000000000000000000000000000000000000600052604160045260246000fd5b6120e68261209d565b810181811067ffffffffffffffff82111715612105576121046120ae565b5b80604052505050565b6000612118612053565b905061212482826120dd565b919050565b600067ffffffffffffffff821115612144576121436120ae565b5b61214d8261209d565b9050602081019050919050565b82818337600083830152505050565b600061217c61217784612129565b61210e565b90508281526020810184848401111561219857612197612098565b5b6121a384828561215a565b509392505050565b600082601f8301126121c0576121bf612093565b5b81356121d0848260208601612169565b91505092915050565b6000806000606084860312156121f2576121f161205d565b5b60006122008682870161207e565b935050602084013567ffffffffffffffff81111561222157612220612062565b5b61222d868287016121ab565b925050604084013567ffffffffffffffff81111561224e5761224d612062565b5b61225a868287016121ab565b9150509250925092565b60006020828403121561227a5761227961205d565b5b60006122888482850161207e565b91505092915050565b600081519050919050565b600082825260208201905092915050565b60005b838110156122cb5780820151818401526020810190506122b0565b60008484015250505050565b60006122e282612291565b6122ec818561229c565b93506122fc8185602086016122ad565b6123058161209d565b840191505092915050565b600073ffffffffffffffffffffffffffffffffffffffff82169050919050565b600061233b82612310565b9050919050565b61234b81612330565b82525050565b600061018082019050818103600083015261236c818f6122d7565b905061237b602083018e612342565b818103604083015261238d818d6122d7565b905081810360608301526123a1818c6122d7565b905081810360808301526123b5818b6122d7565b90506123c460a083018a612029565b6123d160c0830189612029565b6123de60e0830188612029565b6123ec610100830187612029565b6123fa610120830186612029565b612408610140830185612029565b612416610160830184612029565b9d9c50505050505050505050505050565b61243081612330565b811461243b57600080fd5b50565b60008135905061244d81612427565b92915050565b600080600080600080600060e0888a0312156124725761247161205d565b5b600088013567ffffffffffffffff8111156124905761248f612062565b5b61249c8a828b016121ab565b97505060206124ad8a828b0161243e565b965050604088013567ffffffffffffffff8111156124ce576124cd612062565b5b6124da8a828b016121ab565b955050606088013567ffffffffffffffff8111156124fb576124fa612062565b5b6125078a828b016121ab565b945050608088013567ffffffffffffffff81111561252857612527612062565b5b6125348a828b016121ab565b93505060a06125458a828b0161207e565b92505060c06125568a828b0161207e565b91505092959891949750929550565b600062ffffff82169050919050565b61257d81612565565b82525050565b60006020820190506125986000830184612574565b92915050565b600081519050919050565b600082825260208201905092915050565b6000819050602082019050919050565b6125d381612330565b82525050565b600082825260208201905092915050565b60006125f582612291565b6125ff81856125d9565b935061260f8185602086016122ad565b6126188161209d565b840191505092915050565b61262c8161201f565b82525050565b600060c08301600083015161264a60008601826125ca565b506020830151848203602086015261266282826125ea565b9150506040830151848203604086015261267c82826125ea565b91505060608301516126916060860182612623565b5060808301516126a46080860182612623565b5060a08301516126b760a0860182612623565b508091505092915050565b60006126ce8383612632565b905092915050565b6000602082019050919050565b60006126ee8261259e565b6126f881856125a9565b93508360208202850161270a856125ba565b8060005b85811015612746578484038952815161272785826126c2565b9450612732836126d6565b925060208a0199505060018101905061270e565b50829750879550505050505092915050565b6000602082019050818103600083015261277281846126e3565b905092915050565b600060208201905061278f6000830184612342565b92915050565b600081519050919050565b600082825260208201905092915050565b6000819050602082019050919050565b600082825260208201905092915050565b60006127dd8261259e565b6127e781856127c1565b9350836020820285016127f9856125ba565b8060005b85811015612835578484038952815161281685826126c2565b9450612821836126d6565b925060208a019950506001810190506127fd565b50829750879550505050505092915050565b60006101a083016000830151848203600086015261286582826125ea565b915050602083015161287a60208601826125ca565b506040830151848203604086015261289282826125ea565b915050606083015184820360608601526128ac82826125ea565b915050608083015184820360808601526128c682826125ea565b91505060a08301516128db60a0860182612623565b5060c08301516128ee60c0860182612623565b5060e083015161290160e0860182612623565b50610100830151612916610100860182612623565b5061012083015161292b610120860182612623565b50610140830151612940610140860182612623565b50610160830151612955610160860182612623565b5061018083015184820361018086015261296f82826127d2565b9150508091505092915050565b60006129888383612847565b905092915050565b6000602082019050919050565b60006129a882612795565b6129b281856127a0565b9350836020820285016129c4856127b1565b8060005b85811015612a0057848403895281516129e1858261297c565b94506129ec83612990565b925060208a019950506001810190506129c8565b50829750879550505050505092915050565b60006020820190508181036000830152612a2c818461299d565b905092915050565b6000819050919050565b6000612a59612a54612a4f84612310565b612a34565b612310565b9050919050565b6000612a6b82612a3e565b9050919050565b6000612a7d82612a60565b9050919050565b612a8d81612a72565b82525050565b6000602082019050612aa86000830184612a84565b92915050565b60008060408385031215612ac557612ac461205d565b5b6000612ad38582860161207e565b9250506020612ae48582860161207e565b9150509250929050565b600081519050612afd81612067565b92915050565b600060208284031215612b1957612b1861205d565b5b6000612b2784828501612aee565b91505092915050565b7f4e6f2063616d706169676e7320617661696c61626c6500000000000000000000600082015250565b6000612b6660168361229c565b9150612b7182612b30565b602082019050919050565b60006020820190508181036000830152612b9581612b59565b9050919050565b7f496e76616c69642063616d706169676e20494400000000000000000000000000600082015250565b6000612bd260138361229c565b9150612bdd82612b9c565b602082019050919050565b60006020820190508181036000830152612c0181612bc5565b9050919050565b7f446f6e6174696f6e206d7573742062652067726561746572207468616e207a6560008201527f726f000000000000000000000000000000000000000000000000000000000000602082015250565b6000612c6460228361229c565b9150612c6f82612c08565b604082019050919050565b60006020820190508181036000830152612c9381612c57565b9050919050565b7f43616d706169676e206973206e6f742061637469766500000000000000000000600082015250565b6000612cd060168361229c565b9150612cdb82612c9a565b602082019050919050565b60006020820190508181036000830152612cff81612cc3565b9050919050565b7f43616d706169676e2068617320656e6465640000000000000000000000000000600082015250565b6000612d3c60128361229c565b9150612d4782612d06565b602082019050919050565b60006020820190508181036000830152612d6b81612d2f565b9050919050565b7f4e487b7100000000000000000000000000000000000000000000000000000000600052602260045260246000fd5b60006002820490506001821680612db957607f821691505b602082108103612dcc57612dcb612d72565b5b50919050565b60008190508160005260206000209050919050565b60006020601f8301049050919050565b600082821b905092915050565b600060088302612e347fffffffffffffffffffffffffffffffffffffffffffffffffffffffffffffffff82612df7565b612e3e8683612df7565b95508019841693508086168417925050509392505050565b6000612e71612e6c612e678461201f565b612a34565b61201f565b9050919050565b6000819050919050565b612e8b83612e56565b612e9f612e9782612e78565b848454612e04565b825550505050565b600090565b612eb4612ea7565b612ebf818484612e82565b505050565b5b81811015612ee357612ed8600082612eac565b600181019050612ec5565b5050565b601f821115612f2857612ef981612dd2565b612f0284612de7565b81016020851015612f11578190505b612f25612f1d85612de7565b830182612ec4565b50505b505050565b600082821c905092915050565b6000612f4b60001984600802612f2d565b1980831691505092915050565b6000612f648383612f3a565b9150826002028217905092915050565b612f7d82612291565b67ffffffffffffffff811115612f9657612f956120ae565b5b612fa08254612da1565b612fab828285612ee7565b600060209050601f831160018114612fde5760008415612fcc578287015190505b612fd68582612f58565b86555061303e565b601f198416612fec86612dd2565b60005b8281101561301457848901518255600182019150602085019450602081019050612fef565b86831015613031578489015161302d601f891682612f3a565b8355505b6001600288020188555050505b505050505050565b7f4e487b7100000000000000000000000000000000000000000000000000000000600052601160045260246000fd5b60006130808261201f565b915061308b8361201f565b92508282019050808211156130a3576130a2613046565b5b92915050565b600060a08201905081810360008301526130c381886122d7565b905081810360208301526130d781876122d7565b90506130e66040830186612029565b6130f36060830185612029565b6131006080830184612029565b9695505050505050565b6000819050919050565b600061312f61312a6131258461310a565b612a34565b61201f565b9050919050565b61313f81613114565b82525050565b600060208201905061315a6000830184613136565b92915050565b7f4e616d652063616e6e6f7420626520656d707479000000000000000000000000600082015250565b600061319660148361229c565b91506131a182613160565b602082019050919050565b600060208201905081810360008301526131c581613189565b9050919050565b7f496e76616c6964206f776e657220616464726573730000000000000000000000600082015250565b600061320260158361229c565b915061320d826131cc565b602082019050919050565b60006020820190508181036000830152613231816131f5565b9050919050565b7f5469746c652063616e6e6f7420626520656d7074790000000000000000000000600082015250565b600061326e60158361229c565b915061327982613238565b602082019050919050565b6000602082019050818103600083015261329d81613261565b9050919050565b7f4465736372697074696f6e2063616e6e6f7420626520656d7074790000000000600082015250565b60006132da601b8361229c565b91506132e5826132a4565b602082019050919050565b60006020820190508181036000830152613309816132cd565b9050919050565b7f43617465676f72792063616e6e6f7420626520656d7074790000000000000000600082015250565b600061334660188361229c565b915061335182613310565b602082019050919050565b6000602082019050818103600083015261337581613339565b9050919050565b7f546172676574206d7573742062652067726561746572207468616e2030000000600082015250565b60006133b2601d8361229c565b91506133bd8261337c565b602082019050919050565b600060208201905081810360008301526133e1816133a5565b9050919050565b7f446561646c696e65206d75737420626520696e20746865206675747572650000600082015250565b600061341e601e8361229c565b9150613429826133e8565b602082019050919050565b6000602082019050818103600083015261344d81613411565b9050919050565b60006060820190506134696000830186612029565b6134766020830185612029565b6134836040830184612029565b949350505050565b60006134968261201f565b91507fffffffffffffffffffffffffffffffffffffffffffffffffffffffffffffffff82036134c8576134c7613046565b5b600182019050919050565b60006134de8261201f565b91506134e98361201f565b925082820390508181111561350157613500613046565b5b92915050565b7f4f6e6c79207468652063616d706169676e206f776e6572206f722061646d696e60008201527f2063616e2064656c657465207468652063616d706169676e0000000000000000602082015250565b600061356360388361229c565b915061356e82613507565b604082019050919050565b6000602082019050818103600083015261359281613556565b9050919050565b60006135a48261201f565b9150600082036135b7576135b6613046565b5b600182039050919050565b7f4e487b7100000000000000000000000000000000000000000000000000000000600052603260045260246000fd5b7f496e76616c696420737461747573000000000000000000000000000000000000600082015250565b6000613627600e8361229c565b9150613632826135f1565b602082019050919050565b600060208201905081810360008301526136568161361a565b9050919050565b7f4f6e6c792061646d696e2063616e207570646174652073746174757300000000600082015250565b6000613693601c8361229c565b915061369e8261365d565b602082019050919050565b600060208201905081810360008301526136c281613686565b9050919050565b7f416d6f756e74206d7573742062652067726561746572207468616e2030000000600082015250565b60006136ff601d8361229c565b915061370a826136c9565b602082019050919050565b6000602082019050818103600083015261372e816136f2565b9050919050565b61373e81612565565b82525050565b61374d81612310565b82525050565b6101008201600082015161376a60008501826125ca565b50602082015161377d60208501826125ca565b5060408201516137906040850182613735565b5060608201516137a360608501826125ca565b5060808201516137b66080850182612623565b5060a08201516137c960a0850182612623565b5060c08201516137dc60c0850182612623565b5060e08201516137ef60e0850182613744565b50505050565b60006101008201905061380b6000830184613753565b92915050565b60006040820190506138266000830185612342565b6138336020830184612029565b9392505050565b600081519050919050565b600081905092915050565b600061385b8261383a565b6138658185613845565b93506138758185602086016122ad565b80840191505092915050565b600061388d8284613850565b915081905092915050565b60008115159050919050565b6138ad81613898565b81146138b857600080fd5b50565b6000815190506138ca816138a4565b92915050565b6000602082840312156138e6576138e561205d565b5b60006138f4848285016138bb565b91505092915050565b7f5341000000000000000000000000000000000000000000000000000000000000600082015250565b600061393360028361229c565b915061393e826138fd565b602082019050919050565b6000602082019050818103600083015261396281613926565b905091905056fea264697066735822122044b82b14060614638a384c429c402bb529c5303175fd5d193d8355683d640e9b64736f6c63430008180033",
  "linkReferences": {},
  "deployedLinkReferences": {}
}